Component: ARM Compiler 5.06 update 4 (build 422) Tool: armlink [4d35d2]

==============================================================================

Section Cross References

    startup_stm32g031xx.o(STACK) refers (Special) to heapauxi.o(.text) for __use_two_region_memory
    startup_stm32g031xx.o(HEAP) refers (Special) to heapauxi.o(.text) for __use_two_region_memory
    startup_stm32g031xx.o(RESET) refers (Special) to heapauxi.o(.text) for __use_two_region_memory
    startup_stm32g031xx.o(RESET) refers to startup_stm32g031xx.o(STACK) for __initial_sp
    startup_stm32g031xx.o(RESET) refers to startup_stm32g031xx.o(.text) for Reset_Handler
    startup_stm32g031xx.o(RESET) refers to stm32g0xx_it.o(i.NMI_Handler) for NMI_Handler
    startup_stm32g031xx.o(RESET) refers to stm32g0xx_it.o(i.HardFault_Handler) for HardFault_Handler
    startup_stm32g031xx.o(RESET) refers to stm32g0xx_it.o(i.SVC_Handler) for SVC_Handler
    startup_stm32g031xx.o(RESET) refers to stm32g0xx_it.o(i.PendSV_Handler) for PendSV_Handler
    startup_stm32g031xx.o(RESET) refers to stm32g0xx_it.o(i.SysTick_Handler) for SysTick_Handler
    startup_stm32g031xx.o(RESET) refers to stm32g0xx_it.o(i.TIM14_IRQHandler) for TIM14_IRQHandler
    startup_stm32g031xx.o(.text) refers (Special) to heapauxi.o(.text) for __use_two_region_memory
    startup_stm32g031xx.o(.text) refers to system_stm32g0xx.o(i.SystemInit) for SystemInit
    startup_stm32g031xx.o(.text) refers to __main.o(!!!main) for __main
    startup_stm32g031xx.o(.text) refers to startup_stm32g031xx.o(HEAP) for Heap_Mem
    startup_stm32g031xx.o(.text) refers to startup_stm32g031xx.o(STACK) for Stack_Mem
    flash_drive.o(i.Flash_Delay) refers to flash_drive.o(.data) for Flash_Delay_Timing
    flash_drive.o(i.SPI_Flash_Init) refers to stm32g0xx_hal_gpio.o(i.HAL_GPIO_WritePin) for HAL_GPIO_WritePin
==============================================================================

Removing Unused input sections from the image.

    Removing flash_drive.o(.rev16_text), (4 bytes).
    Removing flash_drive.o(.revsh_text), (4 bytes).
    Removing flash_drive.o(i.SPI_Flash_PageWrite), (92 bytes).
    Removing flash_drive.o(i.SPI_Flash_Read_Status), (68 bytes).
    Removing flash_drive.o(i.SPI_Flash_SectorErase), (72 bytes).
    Removing flash_drive.o(i.SPI_Flash_WaitForWriteEnd), (56 bytes).
    Removing flash_drive.o(i.SPI_Flash_Write_Dis), (40 bytes).
    Removing flash_drive.o(i.SPI_Flash_Write_En), (36 bytes).
    Removing flash_drive.o(i.SPI_Flash_Write_Status), (88 bytes).
    Removing flash_drive.o(i.SPI_Write_Enable_Volatile_Status_Register), (56 bytes).
    Removing flash_drive.o(.bss), (256 bytes).
    Removing flash_drive.o(.constdata), (5 bytes).
    Removing encoder_drive.o(.rev16_text), (4 bytes).
    Removing encoder_drive.o(.revsh_text), (4 bytes).
    Removing encoder_drive.o(i.Encoder_Angle_Get), (12 bytes).
    Removing encoder_drive.o(i.SPI_Encoder_Init), (2 bytes).
    Removing encoder_drive.o(.bss), (256 bytes).
    Removing encoder_drive.o(.constdata), (5 bytes).
==============================================================================

Image Symbol Table

    Local Symbols

    Symbol Name                              Value     Ov Type        Size  Object(Section)

    ../Drivers/STM32G0xx_HAL_Driver/Src/stm32g0xx_hal.c 0x00000000   Number         0  stm32g0xx_hal.o ABSOLUTE
    ../Drivers/STM32G0xx_HAL_Driver/Src/stm32g0xx_hal_adc.c 0x00000000   Number         0  stm32g0xx_hal_adc.o ABSOLUTE
    ../Drivers/STM32G0xx_HAL_Driver/Src/stm32g0xx_hal_adc_ex.c 0x00000000   Number         0  stm32g0xx_hal_adc_ex.o ABSOLUTE
    ../Drivers/STM32G0xx_HAL_Driver/Src/stm32g0xx_hal_cortex.c 0x00000000   Number         0  stm32g0xx_hal_cortex.o ABSOLUTE
    ../Drivers/STM32G0xx_HAL_Driver/Src/stm32g0xx_hal_dma.c 0x00000000   Number         0  stm32g0xx_hal_dma.o ABSOLUTE
    ../Drivers/STM32G0xx_HAL_Driver/Src/stm32g0xx_hal_dma_ex.c 0x00000000   Number         0  stm32g0xx_hal_dma_ex.o ABSOLUTE
    ../Drivers/STM32G0xx_HAL_Driver/Src/stm32g0xx_hal_exti.c 0x00000000   Number         0  stm32g0xx_hal_exti.o ABSOLUTE
    ../Drivers/STM32G0xx_HAL_Driver/Src/stm32g0xx_hal_flash.c 0x00000000   Number         0  stm32g0xx_hal_flash.o ABSOLUTE
    ../Drivers/STM32G0xx_HAL_Driver/Src/stm32g0xx_hal_flash_ex.c 0x00000000   Number         0  stm32g0xx_hal_flash_ex.o ABSOLUTE
    ../Drivers/STM32G0xx_HAL_Driver/Src/stm32g0xx_hal_gpio.c 0x00000000   Number         0  stm32g0xx_hal_gpio.o ABSOLUTE
    ../Drivers/STM32G0xx_HAL_Driver/Src/stm32g0xx_hal_pwr.c 0x00000000   Number         0  stm32g0xx_hal_pwr.o ABSOLUTE
    ../Drivers/STM32G0xx_HAL_Driver/Src/stm32g0xx_hal_pwr_ex.c 0x00000000   Number         0  stm32g0xx_hal_pwr_ex.o ABSOLUTE
    ../Drivers/STM32G0xx_HAL_Driver/Src/stm32g0xx_hal_rcc.c 0x00000000   Number         0  stm32g0xx_hal_rcc.o ABSOLUTE
    ../Drivers/STM32G0xx_HAL_Driver/Src/stm32g0xx_hal_rcc_ex.c 0x00000000   Number         0  stm32g0xx_hal_rcc_ex.o ABSOLUTE
    ../Drivers/STM32G0xx_HAL_Driver/Src/stm32g0xx_hal_spi.c 0x00000000   Number         0  stm32g0xx_hal_spi.o ABSOLUTE
    ../Drivers/STM32G0xx_HAL_Driver/Src/stm32g0xx_hal_spi_ex.c 0x00000000   Number         0  stm32g0xx_hal_spi_ex.o ABSOLUTE
    ../Drivers/STM32G0xx_HAL_Driver/Src/stm32g0xx_hal_tim.c 0x00000000   Number         0  stm32g0xx_hal_tim.o ABSOLUTE
    ../Drivers/STM32G0xx_HAL_Driver/Src/stm32g0xx_hal_tim_ex.c 0x00000000   Number         0  stm32g0xx_hal_tim_ex.o ABSOLUTE
    ../Drivers/STM32G0xx_HAL_Driver/Src/stm32g0xx_hal_uart.c 0x00000000   Number         0  stm32g0xx_hal_uart.o ABSOLUTE
    ../Drivers/STM32G0xx_HAL_Driver/Src/stm32g0xx_hal_uart_ex.c 0x00000000   Number         0  stm32g0xx_hal_uart_ex.o ABSOLUTE
    ../Drivers/STM32G0xx_HAL_Driver/Src/stm32g0xx_ll_adc.c 0x00000000   Number         0  stm32g0xx_ll_adc.o ABSOLUTE
    ../Drivers/STM32G0xx_HAL_Driver/Src/stm32g0xx_ll_dma.c 0x00000000   Number         0  stm32g0xx_ll_dma.o ABSOLUTE
    ../Drivers/STM32G0xx_HAL_Driver/Src/stm32g0xx_ll_rcc.c 0x00000000   Number         0  stm32g0xx_ll_rcc.o ABSOLUTE
    ../Src/adc.c                             0x00000000   Number         0  adc.o ABSOLUTE
    ../Src/dma.c                             0x00000000   Number         0  dma.o ABSOLUTE
    ../Src/gpio.c                            0x00000000   Number         0  gpio.o ABSOLUTE
    ../Src/main.c                            0x00000000   Number         0  main.o ABSOLUTE
    ../Src/spi.c                             0x00000000   Number         0  spi.o ABSOLUTE
    ../Src/stm32g0xx_hal_msp.c               0x00000000   Number         0  stm32g0xx_hal_msp.o ABSOLUTE
    ../Src/stm32g0xx_it.c                    0x00000000   Number         0  stm32g0xx_it.o ABSOLUTE
    ../Src/system_stm32g0xx.c                0x00000000   Number         0  system_stm32g0xx.o ABSOLUTE
    ../Src/tim.c                             0x00000000   Number         0  tim.o ABSOLUTE
    ../Src/usart.c                           0x00000000   Number         0  usart.o ABSOLUTE
    ../clib/../cmprslib/zerorunl2.c          0x00000000   Number         0  __dczerorl2.o ABSOLUTE
    ../clib/angel/boardlib.s                 0x00000000   Number         0  boardinit1.o ABSOLUTE
    ../clib/angel/boardlib.s                 0x00000000   Number         0  boardinit3.o ABSOLUTE
    ../clib/angel/boardlib.s                 0x00000000   Number         0  boardshut.o ABSOLUTE
    ../clib/angel/boardlib.s                 0x00000000   Number         0  boardinit2.o ABSOLUTE
    ../clib/angel/handlers.s                 0x00000000   Number         0  __scatter_zi.o ABSOLUTE
    ../clib/angel/kernel.s                   0x00000000   Number         0  __rtentry.o ABSOLUTE
    ../clib/angel/kernel.s                   0x00000000   Number         0  rtexit2.o ABSOLUTE
    ../clib/angel/kernel.s                   0x00000000   Number         0  __rtentry2.o ABSOLUTE
    ../clib/angel/kernel.s                   0x00000000   Number         0  __rtentry4.o ABSOLUTE
    ../clib/angel/kernel.s                   0x00000000   Number         0  rtexit.o ABSOLUTE
    ../clib/angel/rt.s                       0x00000000   Number         0  aeabi_ldiv0_sigfpe.o ABSOLUTE
    ../clib/angel/rt.s                       0x00000000   Number         0  aeabi_ldiv0.o ABSOLUTE
    ../clib/angel/rt.s                       0x00000000   Number         0  aeabi_idiv0_sigfpe.o ABSOLUTE
    ../clib/angel/rt.s                       0x00000000   Number         0  aeabi_idiv0.o ABSOLUTE
    ../clib/angel/rt.s                       0x00000000   Number         0  rt_div0.o ABSOLUTE
    ../clib/angel/rt.s                       0x00000000   Number         0  rt_raise.o ABSOLUTE
    ../clib/angel/scatterp.s                 0x00000000   Number         0  __scatter.o ABSOLUTE
    ../clib/angel/startup.s                  0x00000000   Number         0  __main.o ABSOLUTE
    ../clib/angel/sys.s                      0x00000000   Number         0  sys_stackheap_outer.o ABSOLUTE
    ../clib/angel/sys.s                      0x00000000   Number         0  use_no_semi.o ABSOLUTE
    ../clib/angel/sys.s                      0x00000000   Number         0  indicate_semi.o ABSOLUTE
    ../clib/angel/sys.s                      0x00000000   Number         0  libspace.o ABSOLUTE
    ../clib/angel/sys.s                      0x00000000   Number         0  tempstk.o ABSOLUTE
    ../clib/angel/sysapp.c                   0x00000000   Number         0  sys_wrch.o ABSOLUTE
    ../clib/angel/sysapp.c                   0x00000000   Number         0  sys_exit.o ABSOLUTE
    ../clib/angel/sysapp.c                   0x00000000   Number         0  sys_command.o ABSOLUTE
    ../clib/armsys.c                         0x00000000   Number         0  argv_veneer.o ABSOLUTE
    ../clib/armsys.c                         0x00000000   Number         0  no_argv.o ABSOLUTE
    ../clib/armsys.c                         0x00000000   Number         0  _get_argv_nomalloc.o ABSOLUTE
    ../clib/division.c                       0x00000000   Number         0  lludiv.o ABSOLUTE
    ../clib/division.s                       0x00000000   Number         0  aeabi_sdiv.o ABSOLUTE
    ../clib/division.s                       0x00000000   Number         0  aeabi_sdiv_div0.o ABSOLUTE
    ../clib/heapalloc.c                      0x00000000   Number         0  hrguard.o ABSOLUTE
    ../clib/heapaux.c                        0x00000000   Number         0  heapauxi.o ABSOLUTE
    ../clib/libinit.s                        0x00000000   Number         0  libinit2.o ABSOLUTE
    ../clib/libinit.s                        0x00000000   Number         0  libshutdown.o ABSOLUTE
    ../clib/libinit.s                        0x00000000   Number         0  libinit.o ABSOLUTE
    ../clib/libinit.s                        0x00000000   Number         0  libshutdown2.o ABSOLUTE
    ../clib/longlong.c                       0x00000000   Number         0  llmul.o ABSOLUTE
    ../clib/memcpset.c                       0x00000000   Number         0  rt_memclr.o ABSOLUTE
    ../clib/signal.c                         0x00000000   Number         0  defsig_fpe_inner.o ABSOLUTE
    ../clib/signal.c                         0x00000000   Number         0  defsig_stak_inner.o ABSOLUTE
    ../clib/signal.c                         0x00000000   Number         0  defsig_rtmem_formal.o ABSOLUTE
    ../clib/signal.c                         0x00000000   Number         0  defsig_rtmem_outer.o ABSOLUTE
    ../clib/signal.c                         0x00000000   Number         0  defsig_rtmem_inner.o ABSOLUTE
    ../clib/signal.c                         0x00000000   Number         0  defsig_rtred_inner.o ABSOLUTE
    ../clib/signal.c                         0x00000000   Number         0  defsig_abrt_inner.o ABSOLUTE
    ../clib/signal.c                         0x00000000   Number         0  defsig_pvfn_inner.o ABSOLUTE
    ../clib/signal.c                         0x00000000   Number         0  defsig_general.o ABSOLUTE
    ../clib/signal.c                         0x00000000   Number         0  __raise.o ABSOLUTE
    ../clib/signal.c                         0x00000000   Number         0  defsig_fpe_outer.o ABSOLUTE
    ../clib/signal.c                         0x00000000   Number         0  defsig_exit.o ABSOLUTE
    ../clib/signal.c                         0x00000000   Number         0  defsig_fpe_formal.o ABSOLUTE
    ../clib/signal.c                         0x00000000   Number         0  defsig_other.o ABSOLUTE
    ../clib/signal.c                         0x00000000   Number         0  defsig_segv_inner.o ABSOLUTE
    ../clib/signal.c                         0x00000000   Number         0  defsig_cppl_inner.o ABSOLUTE
    ../clib/signal.s                         0x00000000   Number         0  defsig.o ABSOLUTE
    ../clib/stdlib.c                         0x00000000   Number         0  exit.o ABSOLUTE
    ../fplib/cfplib/cmpret.c                 0x00000000   Number         0  cmpret.o ABSOLUTE
    ../fplib/cfplib/daddsub.c                0x00000000   Number         0  daddsub.o ABSOLUTE
    ../fplib/cfplib/dcmpin.c                 0x00000000   Number         0  dcmpin.o ABSOLUTE
    ../fplib/cfplib/ddiv.c                   0x00000000   Number         0  ddiv.o ABSOLUTE
    ../fplib/cfplib/dmul.c                   0x00000000   Number         0  dmul.o ABSOLUTE
    ../fplib/cfplib/ffix.c                   0x00000000   Number         0  dfixui.o ABSOLUTE
    ../fplib/cfplib/fflt.c                   0x00000000   Number         0  dflti.o ABSOLUTE
    ../fplib/cfplib/fpinit.c                 0x00000000   Number         0  fpinit.o ABSOLUTE
    ../fplib/cfplib/nan2.c                   0x00000000   Number         0  dnan2.o ABSOLUTE
    ../fplib/cfplib/retnan.c                 0x00000000   Number         0  retnan.o ABSOLUTE
    ../fplib/dleqf6m.s                       0x00000000   Number         0  dlef.o ABSOLUTE
    ../fplib/drleqf6m.s                      0x00000000   Number         0  drlef.o ABSOLUTE
    ../fplib/usenofp.s                       0x00000000   Number         0  usenofp.o ABSOLUTE
    ..\Drivers\STM32G0xx_HAL_Driver\Src\stm32g0xx_hal.c 0x00000000   Number         0  stm32g0xx_hal.o ABSOLUTE
    ..\Drivers\STM32G0xx_HAL_Driver\Src\stm32g0xx_hal_adc.c 0x00000000   Number         0  stm32g0xx_hal_adc.o ABSOLUTE
    ..\Drivers\STM32G0xx_HAL_Driver\Src\stm32g0xx_hal_adc_ex.c 0x00000000   Number         0  stm32g0xx_hal_adc_ex.o ABSOLUTE
    ..\Drivers\STM32G0xx_HAL_Driver\Src\stm32g0xx_hal_cortex.c 0x00000000   Number         0  stm32g0xx_hal_cortex.o ABSOLUTE
    ..\Drivers\STM32G0xx_HAL_Driver\Src\stm32g0xx_hal_dma.c 0x00000000   Number         0  stm32g0xx_hal_dma.o ABSOLUTE
    ..\Drivers\STM32G0xx_HAL_Driver\Src\stm32g0xx_hal_dma_ex.c 0x00000000   Number         0  stm32g0xx_hal_dma_ex.o ABSOLUTE
    ..\Drivers\STM32G0xx_HAL_Driver\Src\stm32g0xx_hal_exti.c 0x00000000   Number         0  stm32g0xx_hal_exti.o ABSOLUTE
    ..\Drivers\STM32G0xx_HAL_Driver\Src\stm32g0xx_hal_flash.c 0x00000000   Number         0  stm32g0xx_hal_flash.o ABSOLUTE
    ..\Drivers\STM32G0xx_HAL_Driver\Src\stm32g0xx_hal_flash_ex.c 0x00000000   Number         0  stm32g0xx_hal_flash_ex.o ABSOLUTE
    ..\Drivers\STM32G0xx_HAL_Driver\Src\stm32g0xx_hal_gpio.c 0x00000000   Number         0  stm32g0xx_hal_gpio.o ABSOLUTE
    ..\Drivers\STM32G0xx_HAL_Driver\Src\stm32g0xx_hal_pwr.c 0x00000000   Number         0  stm32g0xx_hal_pwr.o ABSOLUTE
    ..\Drivers\STM32G0xx_HAL_Driver\Src\stm32g0xx_hal_pwr_ex.c 0x00000000   Number         0  stm32g0xx_hal_pwr_ex.o ABSOLUTE
    ..\Drivers\STM32G0xx_HAL_Driver\Src\stm32g0xx_hal_rcc.c 0x00000000   Number         0  stm32g0xx_hal_rcc.o ABSOLUTE
    ..\Drivers\STM32G0xx_HAL_Driver\Src\stm32g0xx_hal_rcc_ex.c 0x00000000   Number         0  stm32g0xx_hal_rcc_ex.o ABSOLUTE
    ..\Drivers\STM32G0xx_HAL_Driver\Src\stm32g0xx_hal_spi.c 0x00000000   Number         0  stm32g0xx_hal_spi.o ABSOLUTE
    ..\Drivers\STM32G0xx_HAL_Driver\Src\stm32g0xx_hal_spi_ex.c 0x00000000   Number         0  stm32g0xx_hal_spi_ex.o ABSOLUTE
    ..\Drivers\STM32G0xx_HAL_Driver\Src\stm32g0xx_hal_tim.c 0x00000000   Number         0  stm32g0xx_hal_tim.o ABSOLUTE
    ..\Drivers\STM32G0xx_HAL_Driver\Src\stm32g0xx_hal_tim_ex.c 0x00000000   Number         0  stm32g0xx_hal_tim_ex.o ABSOLUTE
    ..\Drivers\STM32G0xx_HAL_Driver\Src\stm32g0xx_hal_uart.c 0x00000000   Number         0  stm32g0xx_hal_uart.o ABSOLUTE
    ..\Drivers\STM32G0xx_HAL_Driver\Src\stm32g0xx_hal_uart_ex.c 0x00000000   Number         0  stm32g0xx_hal_uart_ex.o ABSOLUTE
    ..\Src\ADC_User.c                        0x00000000   Number         0  adc_user.o ABSOLUTE
    ..\Src\BDC_555_Driver.c                  0x00000000   Number         0  bdc_555_driver.o ABSOLUTE
    ..\Src\Comm_S2M.c                        0x00000000   Number         0  comm_s2m.o ABSOLUTE
    ..\Src\Cyc_Req.c                         0x00000000   Number         0  cyc_req.o ABSOLUTE
    ..\Src\Encoder_Drive.c                   0x00000000   Number         0  encoder_drive.o ABSOLUTE
    ..\Src\Flash_Drive.c                     0x00000000   Number         0  flash_drive.o ABSOLUTE
    ..\Src\Torque_PID_Control.c              0x00000000   Number         0  torque_pid_control.o ABSOLUTE
    ..\Src\adc.c                             0x00000000   Number         0  adc.o ABSOLUTE
    ..\Src\dma.c                             0x00000000   Number         0  dma.o ABSOLUTE
    ..\Src\gpio.c                            0x00000000   Number         0  gpio.o ABSOLUTE
    ..\Src\main.c                            0x00000000   Number         0  main.o ABSOLUTE
    ..\Src\spi.c                             0x00000000   Number         0  spi.o ABSOLUTE
    ..\Src\stm32g0xx_hal_msp.c               0x00000000   Number         0  stm32g0xx_hal_msp.o ABSOLUTE
    ..\Src\stm32g0xx_it.c                    0x00000000   Number         0  stm32g0xx_it.o ABSOLUTE
    ..\Src\system_stm32g0xx.c                0x00000000   Number         0  system_stm32g0xx.o ABSOLUTE
    ..\Src\tim.c                             0x00000000   Number         0  tim.o ABSOLUTE
    ..\Src\usart.c                           0x00000000   Number         0  usart.o ABSOLUTE
    ..\\Src\\ADC_User.c                      0x00000000   Number         0  adc_user.o ABSOLUTE
    ..\\Src\\BDC_555_Driver.c                0x00000000   Number         0  bdc_555_driver.o ABSOLUTE
    ..\\Src\\Comm_S2M.c                      0x00000000   Number         0  comm_s2m.o ABSOLUTE
    ..\\Src\\Cyc_Req.c                       0x00000000   Number         0  cyc_req.o ABSOLUTE
    ..\\Src\\Encoder_Drive.c                 0x00000000   Number         0  encoder_drive.o ABSOLUTE
    ..\\Src\\Flash_Drive.c                   0x00000000   Number         0  flash_drive.o ABSOLUTE
    ..\\Src\\Torque_PID_Control.c            0x00000000   Number         0  torque_pid_control.o ABSOLUTE
    dc.s                                     0x00000000   Number         0  dc.o ABSOLUTE
    startup_stm32g031xx.s                    0x00000000   Number         0  startup_stm32g031xx.o ABSOLUTE
    RESET                                    0x08000000   Section      192  startup_stm32g031xx.o(RESET)
    !!!main                                  0x080000c0   Section        8  __main.o(!!!main)
    !!!scatter                               0x080000c8   Section       60  __scatter.o(!!!scatter)
    !!handler_zi                             0x08000104   Section       28  __scatter_zi.o(!!handler_zi)
    .ARM.Collect$$libinit$$00000000          0x08000120   Section        2  libinit.o(.ARM.Collect$$libinit$$00000000)
    .ARM.Collect$$libinit$$00000002          0x08000122   Section        0  libinit2.o(.ARM.Collect$$libinit$$00000002)
    .ARM.Collect$$libinit$$00000004          0x08000122   Section        0  libinit2.o(.ARM.Collect$$libinit$$00000004)
    .ARM.Collect$$libinit$$0000000A          0x08000122   Section        0  libinit2.o(.ARM.Collect$$libinit$$0000000A)
    .ARM.Collect$$libinit$$0000000C          0x08000122   Section        0  libinit2.o(.ARM.Collect$$libinit$$0000000C)
    .ARM.Collect$$libinit$$0000000E          0x08000122   Section        0  libinit2.o(.ARM.Collect$$libinit$$0000000E)
    .ARM.Collect$$libinit$$00000011          0x08000122   Section        0  libinit2.o(.ARM.Collect$$libinit$$00000011)
    .ARM.Collect$$libinit$$00000013          0x08000122   Section        0  libinit2.o(.ARM.Collect$$libinit$$00000013)
    .ARM.Collect$$libinit$$00000015          0x08000122   Section        0  libinit2.o(.ARM.Collect$$libinit$$00000015)
    .ARM.Collect$$libinit$$00000017          0x08000122   Section        0  libinit2.o(.ARM.Collect$$libinit$$00000017)
    .ARM.Collect$$libinit$$00000019          0x08000122   Section        0  libinit2.o(.ARM.Collect$$libinit$$00000019)
    .ARM.Collect$$libinit$$0000001B          0x08000122   Section        0  libinit2.o(.ARM.Collect$$libinit$$0000001B)
    .ARM.Collect$$libinit$$0000001D          0x08000122   Section        0  libinit2.o(.ARM.Collect$$libinit$$0000001D)
    .ARM.Collect$$libinit$$0000001F          0x08000122   Section        0  libinit2.o(.ARM.Collect$$libinit$$0000001F)
    .ARM.Collect$$libinit$$00000021          0x08000122   Section        0  libinit2.o(.ARM.Collect$$libinit$$00000021)
    .ARM.Collect$$libinit$$00000023          0x08000122   Section        0  libinit2.o(.ARM.Collect$$libinit$$00000023)
    .ARM.Collect$$libinit$$00000025          0x08000122   Section        0  libinit2.o(.ARM.Collect$$libinit$$00000025)
    .ARM.Collect$$libinit$$0000002C          0x08000122   Section        0  libinit2.o(.ARM.Collect$$libinit$$0000002C)
    .ARM.Collect$$libinit$$0000002E          0x08000122   Section        0  libinit2.o(.ARM.Collect$$libinit$$0000002E)
    .ARM.Collect$$libinit$$00000030          0x08000122   Section        0  libinit2.o(.ARM.Collect$$libinit$$00000030)
    .ARM.Collect$$libinit$$00000032          0x08000122   Section        0  libinit2.o(.ARM.Collect$$libinit$$00000032)
    .ARM.Collect$$libinit$$00000033          0x08000122   Section        2  libinit2.o(.ARM.Collect$$libinit$$00000033)
    .ARM.Collect$$libshutdown$$00000000      0x08000124   Section        2  libshutdown.o(.ARM.Collect$$libshutdown$$00000000)
    .ARM.Collect$$libshutdown$$00000002      0x08000126   Section        0  libshutdown2.o(.ARM.Collect$$libshutdown$$00000002)
    .ARM.Collect$$libshutdown$$00000004      0x08000126   Section        0  libshutdown2.o(.ARM.Collect$$libshutdown$$00000004)
    .ARM.Collect$$libshutdown$$00000007      0x08000126   Section        0  libshutdown2.o(.ARM.Collect$$libshutdown$$00000007)
    .ARM.Collect$$libshutdown$$0000000A      0x08000126   Section        0  libshutdown2.o(.ARM.Collect$$libshutdown$$0000000A)
    .ARM.Collect$$libshutdown$$0000000C      0x08000126   Section        0  libshutdown2.o(.ARM.Collect$$libshutdown$$0000000C)
    .ARM.Collect$$libshutdown$$0000000F      0x08000126   Section        0  libshutdown2.o(.ARM.Collect$$libshutdown$$0000000F)
    .ARM.Collect$$libshutdown$$00000010      0x08000126   Section        2  libshutdown2.o(.ARM.Collect$$libshutdown$$00000010)
    .ARM.Collect$$rtentry$$00000000          0x08000128   Section        0  __rtentry.o(.ARM.Collect$$rtentry$$00000000)
    .ARM.Collect$$rtentry$$00000002          0x08000128   Section        0  __rtentry2.o(.ARM.Collect$$rtentry$$00000002)
    .ARM.Collect$$rtentry$$00000004          0x08000128   Section        6  __rtentry4.o(.ARM.Collect$$rtentry$$00000004)
    .ARM.Collect$$rtentry$$00000009          0x0800012e   Section        0  __rtentry2.o(.ARM.Collect$$rtentry$$00000009)
    .ARM.Collect$$rtentry$$0000000A          0x0800012e   Section        4  __rtentry2.o(.ARM.Collect$$rtentry$$0000000A)
    .ARM.Collect$$rtentry$$0000000C          0x08000132   Section        0  __rtentry2.o(.ARM.Collect$$rtentry$$0000000C)
    .ARM.Collect$$rtentry$$0000000D          0x08000132   Section        8  __rtentry2.o(.ARM.Collect$$rtentry$$0000000D)
    .ARM.Collect$$rtexit$$00000000           0x0800013a   Section        2  rtexit.o(.ARM.Collect$$rtexit$$00000000)
    .ARM.Collect$$rtexit$$00000002           0x0800013c   Section        0  rtexit2.o(.ARM.Collect$$rtexit$$00000002)
    .ARM.Collect$$rtexit$$00000003           0x0800013c   Section        4  rtexit2.o(.ARM.Collect$$rtexit$$00000003)
    .ARM.Collect$$rtexit$$00000004           0x08000140   Section        6  rtexit2.o(.ARM.Collect$$rtexit$$00000004)
    .text                                    0x08000148   Section       56  startup_stm32g031xx.o(.text)
    .text                                    0x08000180   Section        0  llmul.o(.text)
    .text                                    0x080001b0   Section        0  lludiv.o(.text)
    .text                                    0x080002b2   Section        0  rt_memclr.o(.text)
    .text                                    0x080002f2   Section      346  aeabi_sdiv.o(.text)
    .text                                    0x0800044c   Section        0  heapauxi.o(.text)
    .text                                    0x08000454   Section        0  daddsub.o(.text)
    _dadd1                                   0x08000455   Thumb Code   290  daddsub.o(.text)
    _dsub1                                   0x08000577   Thumb Code   470  daddsub.o(.text)
    .text                                    0x080007ac   Section        0  ddiv.o(.text)
    .text                                    0x08000bf4   Section        0  dfixui.o(.text)
    .text                                    0x08000c3c   Section        0  dflti.o(.text)
    .text                                    0x08000c94   Section        0  dmul.o(.text)
    .text                                    0x08000edc   Section        0  dcmpin.o(.text)
    .text                                    0x08000f6c   Section        0  cmpret.o(.text)
    .text                                    0x08000f9c   Section        0  dnan2.o(.text)
    .text                                    0x08000fb0   Section       62  sys_stackheap_outer.o(.text)
    .text                                    0x08000fee   Section        0  exit.o(.text)
    .text                                    0x08000ffe   Section        0  retnan.o(.text)
    .text                                    0x0800105c   Section        8  libspace.o(.text)
    .text                                    0x08001064   Section        0  sys_exit.o(.text)
    .text                                    0x08001070   Section        2  use_no_semi.o(.text)
    .text                                    0x08001072   Section        0  indicate_semi.o(.text)
    .text                                    0x08001072   Section        0  __dczerorl2.o(.text)
    i.ADC_DMAConvCplt                        0x080010c8   Section        0  stm32g0xx_hal_adc.o(i.ADC_DMAConvCplt)
    ADC_DMAConvCplt                          0x080010c9   Thumb Code   144  stm32g0xx_hal_adc.o(i.ADC_DMAConvCplt)
    i.ADC_DMAError                           0x08001158   Section        0  stm32g0xx_hal_adc.o(i.ADC_DMAError)
    ADC_DMAError                             0x08001159   Thumb Code    30  stm32g0xx_hal_adc.o(i.ADC_DMAError)
    i.ADC_DMAHalfConvCplt                    0x08001176   Section        0  stm32g0xx_hal_adc.o(i.ADC_DMAHalfConvCplt)
    ADC_DMAHalfConvCplt                      0x08001177   Thumb Code    14  stm32g0xx_hal_adc.o(i.ADC_DMAHalfConvCplt)
    i.ADC_Data_Process                       0x08001184   Section        0  adc_user.o(i.ADC_Data_Process)
    i.ADC_Enable                             0x08001244   Section        0  stm32g0xx_hal_adc.o(i.ADC_Enable)
    i.BDC_555_Control                        0x0800131c   Section        0  bdc_555_driver.o(i.BDC_555_Control)
    i.BDC_555_DIR_Set                        0x08001398   Section        0  bdc_555_driver.o(i.BDC_555_DIR_Set)
    i.BDC_555_Driver_Init                    0x080013c0   Section        0  bdc_555_driver.o(i.BDC_555_Driver_Init)
    i.BDC_555_PID_Torque                     0x080013d8   Section        0  torque_pid_control.o(i.BDC_555_PID_Torque)
    i.BDC_555_Power_Set                      0x0800154c   Section        0  bdc_555_driver.o(i.BDC_555_Power_Set)
    i.Comm_Read_Process                      0x08001558   Section        0  comm_s2m.o(i.Comm_Read_Process)
    i.Comm_S2M_Send                          0x08001560   Section        0  comm_s2m.o(i.Comm_S2M_Send)
    i.Comm_S2O_Send                          0x08001590   Section        0  comm_s2m.o(i.Comm_S2O_Send)
    i.Comm_Send_Process                      0x080015a8   Section        0  comm_s2m.o(i.Comm_Send_Process)
    i.Comm_Slave2Master_Init                 0x080015bc   Section        0  comm_s2m.o(i.Comm_Slave2Master_Init)
    i.Comm_Slave2Master_RecData_CRC16        0x080015e8   Section        0  comm_s2m.o(i.Comm_Slave2Master_RecData_CRC16)
    i.Comm_Slave2Other_Init                  0x08001608   Section        0  comm_s2m.o(i.Comm_Slave2Other_Init)
    i.Cyclical_Request                       0x0800163c   Section        0  cyc_req.o(i.Cyclical_Request)
    i.Cyclical_Timing_Func                   0x080016a8   Section        0  cyc_req.o(i.Cyclical_Timing_Func)
    i.DMA_CalcDMAMUXChannelBaseAndMask       0x080016bc   Section        0  stm32g0xx_hal_dma.o(i.DMA_CalcDMAMUXChannelBaseAndMask)
    DMA_CalcDMAMUXChannelBaseAndMask         0x080016bd   Thumb Code    48  stm32g0xx_hal_dma.o(i.DMA_CalcDMAMUXChannelBaseAndMask)
    i.DMA_CalcDMAMUXRequestGenBaseAndMask    0x080016f0   Section        0  stm32g0xx_hal_dma.o(i.DMA_CalcDMAMUXRequestGenBaseAndMask)
    DMA_CalcDMAMUXRequestGenBaseAndMask      0x080016f1   Thumb Code    36  stm32g0xx_hal_dma.o(i.DMA_CalcDMAMUXRequestGenBaseAndMask)
    i.DMA_SetConfig                          0x08001718   Section        0  stm32g0xx_hal_dma.o(i.DMA_SetConfig)
    DMA_SetConfig                            0x08001719   Thumb Code    70  stm32g0xx_hal_dma.o(i.DMA_SetConfig)
    i.Encoder_Delay                          0x08001764   Section        0  encoder_drive.o(i.Encoder_Delay)
    i.Error_Handler                          0x08001784   Section        0  main.o(i.Error_Handler)
    i.Flash_Delay                            0x0800178c   Section        0  flash_drive.o(i.Flash_Delay)
    i.Force_Value_Filter_10_Func             0x080017ac   Section        0  adc_user.o(i.Force_Value_Filter_10_Func)
    i.Get_S2M_Send_Flag                      0x08001824   Section        0  comm_s2m.o(i.Get_S2M_Send_Flag)
    i.Get_Torque                             0x08001830   Section        0  adc_user.o(i.Get_Torque)
    i.HAL_ADC_ConfigChannel                  0x0800183c   Section        0  stm32g0xx_hal_adc.o(i.HAL_ADC_ConfigChannel)
    i.HAL_ADC_ConvCpltCallback               0x08001ba0   Section        0  stm32g0xx_hal_adc.o(i.HAL_ADC_ConvCpltCallback)
    i.HAL_ADC_ConvHalfCpltCallback           0x08001ba2   Section        0  stm32g0xx_hal_adc.o(i.HAL_ADC_ConvHalfCpltCallback)
    i.HAL_ADC_ErrorCallback                  0x08001ba4   Section        0  stm32g0xx_hal_adc.o(i.HAL_ADC_ErrorCallback)
    i.HAL_ADC_Init                           0x08001ba8   Section        0  stm32g0xx_hal_adc.o(i.HAL_ADC_Init)
    i.HAL_ADC_MspInit                        0x08001e40   Section        0  adc.o(i.HAL_ADC_MspInit)
    i.HAL_ADC_Start_DMA                      0x08001efc   Section        0  stm32g0xx_hal_adc.o(i.HAL_ADC_Start_DMA)
    i.HAL_DMA_Init                           0x08001fc8   Section        0  stm32g0xx_hal_dma.o(i.HAL_DMA_Init)
    i.HAL_DMA_Start_IT                       0x08002088   Section        0  stm32g0xx_hal_dma.o(i.HAL_DMA_Start_IT)
    i.HAL_Delay                              0x08002154   Section        0  stm32g0xx_hal.o(i.HAL_Delay)
    i.HAL_GPIO_Init                          0x08002180   Section        0  stm32g0xx_hal_gpio.o(i.HAL_GPIO_Init)
    i.HAL_GPIO_TogglePin                     0x08002358   Section        0  stm32g0xx_hal_gpio.o(i.HAL_GPIO_TogglePin)
    i.HAL_GPIO_WritePin                      0x0800236c   Section        0  stm32g0xx_hal_gpio.o(i.HAL_GPIO_WritePin)
    i.HAL_GetTick                            0x08002378   Section        0  stm32g0xx_hal.o(i.HAL_GetTick)
    i.HAL_IncTick                            0x08002384   Section        0  stm32g0xx_hal.o(i.HAL_IncTick)
    i.HAL_Init                               0x0800239c   Section        0  stm32g0xx_hal.o(i.HAL_Init)
    i.HAL_InitTick                           0x080023c8   Section        0  stm32g0xx_hal.o(i.HAL_InitTick)
    i.HAL_MspInit                            0x08002428   Section        0  stm32g0xx_hal_msp.o(i.HAL_MspInit)
    i.HAL_NVIC_EnableIRQ                     0x0800246c   Section        0  stm32g0xx_hal_cortex.o(i.HAL_NVIC_EnableIRQ)
    i.HAL_NVIC_SetPriority                   0x08002490   Section        0  stm32g0xx_hal_cortex.o(i.HAL_NVIC_SetPriority)
    i.HAL_PWREx_ControlVoltageScaling        0x080024a4   Section        0  stm32g0xx_hal_pwr_ex.o(i.HAL_PWREx_ControlVoltageScaling)
    i.HAL_RCCEx_PeriphCLKConfig              0x080024fc   Section        0  stm32g0xx_hal_rcc_ex.o(i.HAL_RCCEx_PeriphCLKConfig)
    i.HAL_RCC_ClockConfig                    0x0800277c   Section        0  stm32g0xx_hal_rcc.o(i.HAL_RCC_ClockConfig)
    i.HAL_RCC_GetHCLKFreq                    0x08002950   Section        0  stm32g0xx_hal_rcc.o(i.HAL_RCC_GetHCLKFreq)
    i.HAL_RCC_GetPCLK1Freq                   0x0800295c   Section        0  stm32g0xx_hal_rcc.o(i.HAL_RCC_GetPCLK1Freq)
    i.HAL_RCC_GetSysClockFreq                0x08002984   Section        0  stm32g0xx_hal_rcc.o(i.HAL_RCC_GetSysClockFreq)
    i.HAL_RCC_OscConfig                      0x08002a68   Section        0  stm32g0xx_hal_rcc.o(i.HAL_RCC_OscConfig)
    i.HAL_SPI_Init                           0x08003024   Section        0  stm32g0xx_hal_spi.o(i.HAL_SPI_Init)
    i.HAL_SPI_MspInit                        0x08003130   Section        0  spi.o(i.HAL_SPI_MspInit)
    i.HAL_SPI_TransmitReceive                0x0800326c   Section        0  stm32g0xx_hal_spi.o(i.HAL_SPI_TransmitReceive)
    i.HAL_SYSTICK_Config                     0x080034d8   Section        0  stm32g0xx_hal_cortex.o(i.HAL_SYSTICK_Config)
    i.HAL_TIMEx_Break2Callback               0x08003510   Section        0  stm32g0xx_hal_tim_ex.o(i.HAL_TIMEx_Break2Callback)
    i.HAL_TIMEx_BreakCallback                0x08003512   Section        0  stm32g0xx_hal_tim_ex.o(i.HAL_TIMEx_BreakCallback)
    i.HAL_TIMEx_CommutCallback               0x08003514   Section        0  stm32g0xx_hal_tim_ex.o(i.HAL_TIMEx_CommutCallback)
    i.HAL_TIMEx_MasterConfigSynchronization  0x08003518   Section        0  stm32g0xx_hal_tim_ex.o(i.HAL_TIMEx_MasterConfigSynchronization)
    i.HAL_TIM_Base_Init                      0x080035b0   Section        0  stm32g0xx_hal_tim.o(i.HAL_TIM_Base_Init)
    i.HAL_TIM_Base_MspInit                   0x0800361c   Section        0  tim.o(i.HAL_TIM_Base_MspInit)
    i.HAL_TIM_Base_Start_IT                  0x08003660   Section        0  stm32g0xx_hal_tim.o(i.HAL_TIM_Base_Start_IT)
    i.HAL_TIM_IC_CaptureCallback             0x080036d8   Section        0  stm32g0xx_hal_tim.o(i.HAL_TIM_IC_CaptureCallback)
    i.HAL_TIM_IRQHandler                     0x080036dc   Section        0  stm32g0xx_hal_tim.o(i.HAL_TIM_IRQHandler)
    i.HAL_TIM_MspPostInit                    0x080038d4   Section        0  tim.o(i.HAL_TIM_MspPostInit)
    i.HAL_TIM_OC_DelayElapsedCallback        0x08003930   Section        0  stm32g0xx_hal_tim.o(i.HAL_TIM_OC_DelayElapsedCallback)
    i.HAL_TIM_PWM_ConfigChannel              0x08003932   Section        0  stm32g0xx_hal_tim.o(i.HAL_TIM_PWM_ConfigChannel)
    i.HAL_TIM_PWM_Init                       0x08003aac   Section        0  stm32g0xx_hal_tim.o(i.HAL_TIM_PWM_Init)
    i.HAL_TIM_PWM_MspInit                    0x08003b18   Section        0  tim.o(i.HAL_TIM_PWM_MspInit)
    i.HAL_TIM_PWM_PulseFinishedCallback      0x08003b48   Section        0  stm32g0xx_hal_tim.o(i.HAL_TIM_PWM_PulseFinishedCallback)
    i.HAL_TIM_PWM_Start                      0x08003b4c   Section        0  stm32g0xx_hal_tim.o(i.HAL_TIM_PWM_Start)
    i.HAL_TIM_PeriodElapsedCallback          0x08003c6c   Section        0  main.o(i.HAL_TIM_PeriodElapsedCallback)
    i.HAL_TIM_TriggerCallback                0x08003c90   Section        0  stm32g0xx_hal_tim.o(i.HAL_TIM_TriggerCallback)
    i.HAL_UARTEx_DisableFifoMode             0x08003c92   Section        0  stm32g0xx_hal_uart_ex.o(i.HAL_UARTEx_DisableFifoMode)
    i.HAL_UARTEx_RxEventCallback             0x08003ce6   Section        0  stm32g0xx_hal_uart.o(i.HAL_UARTEx_RxEventCallback)
    i.HAL_UARTEx_SetRxFifoThreshold          0x08003ce8   Section        0  stm32g0xx_hal_uart_ex.o(i.HAL_UARTEx_SetRxFifoThreshold)
    i.HAL_UARTEx_SetTxFifoThreshold          0x08003d48   Section        0  stm32g0xx_hal_uart_ex.o(i.HAL_UARTEx_SetTxFifoThreshold)
    i.HAL_UART_ErrorCallback                 0x08003da6   Section        0  stm32g0xx_hal_uart.o(i.HAL_UART_ErrorCallback)
    i.HAL_UART_Init                          0x08003da8   Section        0  stm32g0xx_hal_uart.o(i.HAL_UART_Init)
    i.HAL_UART_MspInit                       0x08003e2c   Section        0  usart.o(i.HAL_UART_MspInit)
    i.HAL_UART_Receive_DMA                   0x08003fc0   Section        0  stm32g0xx_hal_uart.o(i.HAL_UART_Receive_DMA)
    i.HAL_UART_RxCpltCallback                0x08004048   Section        0  stm32g0xx_hal_uart.o(i.HAL_UART_RxCpltCallback)
    i.HAL_UART_RxHalfCpltCallback            0x0800404a   Section        0  stm32g0xx_hal_uart.o(i.HAL_UART_RxHalfCpltCallback)
    i.HAL_UART_Transmit                      0x0800404c   Section        0  stm32g0xx_hal_uart.o(i.HAL_UART_Transmit)
    i.HardFault_Handler                      0x08004132   Section        0  stm32g0xx_it.o(i.HardFault_Handler)
    i.Init_ADC                               0x08004138   Section        0  adc_user.o(i.Init_ADC)
    i.LL_ADC_Disable                         0x08004150   Section        0  stm32g0xx_hal_adc.o(i.LL_ADC_Disable)
    LL_ADC_Disable                           0x08004151   Thumb Code    12  stm32g0xx_hal_adc.o(i.LL_ADC_Disable)
    i.LL_ADC_Enable                          0x08004160   Section        0  stm32g0xx_hal_adc.o(i.LL_ADC_Enable)
    LL_ADC_Enable                            0x08004161   Thumb Code    12  stm32g0xx_hal_adc.o(i.LL_ADC_Enable)
    i.LL_ADC_GetCommonPathInternalCh         0x08004170   Section        0  stm32g0xx_hal_adc.o(i.LL_ADC_GetCommonPathInternalCh)
    LL_ADC_GetCommonPathInternalCh           0x08004171   Thumb Code    12  stm32g0xx_hal_adc.o(i.LL_ADC_GetCommonPathInternalCh)
    i.LL_ADC_IsEnabled                       0x0800417c   Section        0  stm32g0xx_hal_adc.o(i.LL_ADC_IsEnabled)
    LL_ADC_IsEnabled                         0x0800417d   Thumb Code    16  stm32g0xx_hal_adc.o(i.LL_ADC_IsEnabled)
    i.LL_ADC_IsInternalRegulatorEnabled      0x0800418c   Section        0  stm32g0xx_hal_adc.o(i.LL_ADC_IsInternalRegulatorEnabled)
    LL_ADC_IsInternalRegulatorEnabled        0x0800418d   Thumb Code    14  stm32g0xx_hal_adc.o(i.LL_ADC_IsInternalRegulatorEnabled)
    i.LL_ADC_REG_IsConversionOngoing         0x0800419a   Section        0  stm32g0xx_hal_adc.o(i.LL_ADC_REG_IsConversionOngoing)
    LL_ADC_REG_IsConversionOngoing           0x0800419b   Thumb Code    12  stm32g0xx_hal_adc.o(i.LL_ADC_REG_IsConversionOngoing)
    i.LL_ADC_REG_IsTriggerSourceSWStart      0x080041a6   Section        0  stm32g0xx_hal_adc.o(i.LL_ADC_REG_IsTriggerSourceSWStart)
    LL_ADC_REG_IsTriggerSourceSWStart        0x080041a7   Thumb Code    22  stm32g0xx_hal_adc.o(i.LL_ADC_REG_IsTriggerSourceSWStart)
    i.LL_ADC_REG_StartConversion             0x080041bc   Section        0  stm32g0xx_hal_adc.o(i.LL_ADC_REG_StartConversion)
    LL_ADC_REG_StartConversion               0x080041bd   Thumb Code    12  stm32g0xx_hal_adc.o(i.LL_ADC_REG_StartConversion)
    i.LL_ADC_SetCommonPathInternalCh         0x080041cc   Section        0  stm32g0xx_hal_adc.o(i.LL_ADC_SetCommonPathInternalCh)
    LL_ADC_SetCommonPathInternalCh           0x080041cd   Thumb Code    14  stm32g0xx_hal_adc.o(i.LL_ADC_SetCommonPathInternalCh)
    i.LL_ADC_SetSamplingTimeCommonChannels   0x080041da   Section        0  stm32g0xx_hal_adc.o(i.LL_ADC_SetSamplingTimeCommonChannels)
    LL_ADC_SetSamplingTimeCommonChannels     0x080041db   Thumb Code    30  stm32g0xx_hal_adc.o(i.LL_ADC_SetSamplingTimeCommonChannels)
    i.MX_ADC1_Init                           0x080041f8   Section        0  adc.o(i.MX_ADC1_Init)
    i.MX_DMA_Init                            0x080042c0   Section        0  dma.o(i.MX_DMA_Init)
    i.MX_GPIO_Init                           0x080042e4   Section        0  gpio.o(i.MX_GPIO_Init)
    i.MX_SPI1_Init                           0x08004408   Section        0  spi.o(i.MX_SPI1_Init)
    i.MX_SPI2_Init                           0x0800445c   Section        0  spi.o(i.MX_SPI2_Init)
    i.MX_TIM14_Init                          0x080044b4   Section        0  tim.o(i.MX_TIM14_Init)
    i.MX_TIM2_Init                           0x080044e8   Section        0  tim.o(i.MX_TIM2_Init)
    i.MX_USART1_UART_Init                    0x0800456c   Section        0  usart.o(i.MX_USART1_UART_Init)
    i.MX_USART2_UART_Init                    0x080045e0   Section        0  usart.o(i.MX_USART2_UART_Init)
    i.Message_Rec                            0x08004628   Section        0  comm_s2m.o(i.Message_Rec)
    i.Message_Send                           0x0800465c   Section        0  comm_s2m.o(i.Message_Send)
    i.NMI_Handler                            0x0800469c   Section        0  stm32g0xx_it.o(i.NMI_Handler)
    i.PendSV_Handler                         0x080046a0   Section        0  stm32g0xx_it.o(i.PendSV_Handler)
    i.Reset_S2M_Send_Flag                    0x080046a4   Section        0  comm_s2m.o(i.Reset_S2M_Send_Flag)
    i.SPI_Encoder_Read_Data                  0x080046b0   Section        0  encoder_drive.o(i.SPI_Encoder_Read_Data)
    i.SPI_Encoder_SendByte                   0x08004804   Section        0  encoder_drive.o(i.SPI_Encoder_SendByte)
    i.SPI_EndRxTxTransaction                 0x08004828   Section        0  stm32g0xx_hal_spi.o(i.SPI_EndRxTxTransaction)
    SPI_EndRxTxTransaction                   0x08004829   Thumb Code   106  stm32g0xx_hal_spi.o(i.SPI_EndRxTxTransaction)
    i.SPI_Flash_Init                         0x08004894   Section        0  flash_drive.o(i.SPI_Flash_Init)
    i.SPI_Flash_Read_Data                    0x080048b0   Section        0  flash_drive.o(i.SPI_Flash_Read_Data)
    i.SPI_Flash_Read_ID                      0x08004914   Section        0  flash_drive.o(i.SPI_Flash_Read_ID)
    i.SPI_Flash_SendByte                     0x0800495c   Section        0  flash_drive.o(i.SPI_Flash_SendByte)
    i.SPI_WaitFifoStateUntilTimeout          0x08004980   Section        0  stm32g0xx_hal_spi.o(i.SPI_WaitFifoStateUntilTimeout)
    SPI_WaitFifoStateUntilTimeout            0x08004981   Thumb Code   246  stm32g0xx_hal_spi.o(i.SPI_WaitFifoStateUntilTimeout)
    i.SPI_WaitFlagStateUntilTimeout          0x08004a7c   Section        0  stm32g0xx_hal_spi.o(i.SPI_WaitFlagStateUntilTimeout)
    SPI_WaitFlagStateUntilTimeout            0x08004a7d   Thumb Code   214  stm32g0xx_hal_spi.o(i.SPI_WaitFlagStateUntilTimeout)
    i.SVC_Handler                            0x08004b58   Section        0  stm32g0xx_it.o(i.SVC_Handler)
    i.Set_S2M_Send_Flag                      0x08004b5c   Section        0  comm_s2m.o(i.Set_S2M_Send_Flag)
    i.SysTick_Handler                        0x08004b68   Section        0  stm32g0xx_it.o(i.SysTick_Handler)
    i.SystemClock_Config                     0x08004b70   Section        0  main.o(i.SystemClock_Config)
    i.SystemInit                             0x08004be4   Section        0  system_stm32g0xx.o(i.SystemInit)
    i.TIM14_IRQHandler                       0x08004be8   Section        0  stm32g0xx_it.o(i.TIM14_IRQHandler)
    i.TIM_Base_SetConfig                     0x08004bf8   Section        0  stm32g0xx_hal_tim.o(i.TIM_Base_SetConfig)
    i.TIM_CCxChannelCmd                      0x08004c98   Section        0  stm32g0xx_hal_tim.o(i.TIM_CCxChannelCmd)
    i.TIM_OC1_SetConfig                      0x08004cbc   Section        0  stm32g0xx_hal_tim.o(i.TIM_OC1_SetConfig)
    TIM_OC1_SetConfig                        0x08004cbd   Thumb Code   140  stm32g0xx_hal_tim.o(i.TIM_OC1_SetConfig)
    i.TIM_OC2_SetConfig                      0x08004d58   Section        0  stm32g0xx_hal_tim.o(i.TIM_OC2_SetConfig)
    i.TIM_OC3_SetConfig                      0x08004e04   Section        0  stm32g0xx_hal_tim.o(i.TIM_OC3_SetConfig)
    TIM_OC3_SetConfig                        0x08004e05   Thumb Code   152  stm32g0xx_hal_tim.o(i.TIM_OC3_SetConfig)
    i.TIM_OC4_SetConfig                      0x08004eac   Section        0  stm32g0xx_hal_tim.o(i.TIM_OC4_SetConfig)
    TIM_OC4_SetConfig                        0x08004ead   Thumb Code   100  stm32g0xx_hal_tim.o(i.TIM_OC4_SetConfig)
    i.TIM_OC5_SetConfig                      0x08004f20   Section        0  stm32g0xx_hal_tim.o(i.TIM_OC5_SetConfig)
    TIM_OC5_SetConfig                        0x08004f21   Thumb Code    86  stm32g0xx_hal_tim.o(i.TIM_OC5_SetConfig)
    i.TIM_OC6_SetConfig                      0x08004f88   Section        0  stm32g0xx_hal_tim.o(i.TIM_OC6_SetConfig)
    TIM_OC6_SetConfig                        0x08004f89   Thumb Code    88  stm32g0xx_hal_tim.o(i.TIM_OC6_SetConfig)
    i.Task_ADC_Flag_Reset                    0x08004ff0   Section        0  cyc_req.o(i.Task_ADC_Flag_Reset)
    i.Task_ADC_Func                          0x08004ffc   Section        0  cyc_req.o(i.Task_ADC_Func)
    i.Task_Comm_Flag_Reset                   0x0800502c   Section        0  cyc_req.o(i.Task_Comm_Flag_Reset)
    i.Task_Comm_Func                         0x08005038   Section        0  cyc_req.o(i.Task_Comm_Func)
    i.Task_Encoder_Flag_Reset                0x08005068   Section        0  cyc_req.o(i.Task_Encoder_Flag_Reset)
    i.Task_Encoder_Func                      0x08005074   Section        0  cyc_req.o(i.Task_Encoder_Func)
    i.Task_Exo_Flag_Reset                    0x080050a4   Section        0  cyc_req.o(i.Task_Exo_Flag_Reset)
    i.Task_Exo_Func                          0x080050b0   Section        0  cyc_req.o(i.Task_Exo_Func)
    i.Torque_Transfer                        0x080050e0   Section        0  adc_user.o(i.Torque_Transfer)
    i.UARTEx_SetNbDataToProcess              0x08005138   Section        0  stm32g0xx_hal_uart_ex.o(i.UARTEx_SetNbDataToProcess)
    UARTEx_SetNbDataToProcess                0x08005139   Thumb Code    94  stm32g0xx_hal_uart_ex.o(i.UARTEx_SetNbDataToProcess)
    i.UART_AdvFeatureConfig                  0x080051a0   Section        0  stm32g0xx_hal_uart.o(i.UART_AdvFeatureConfig)
    i.UART_CheckIdleState                    0x08005290   Section        0  stm32g0xx_hal_uart.o(i.UART_CheckIdleState)
    i.UART_DMAError                          0x0800530c   Section        0  stm32g0xx_hal_uart.o(i.UART_DMAError)
    UART_DMAError                            0x0800530d   Thumb Code    90  stm32g0xx_hal_uart.o(i.UART_DMAError)
    i.UART_DMAReceiveCplt                    0x08005366   Section        0  stm32g0xx_hal_uart.o(i.UART_DMAReceiveCplt)
    UART_DMAReceiveCplt                      0x08005367   Thumb Code   204  stm32g0xx_hal_uart.o(i.UART_DMAReceiveCplt)
    i.UART_DMARxHalfCplt                     0x08005432   Section        0  stm32g0xx_hal_uart.o(i.UART_DMARxHalfCplt)
    UART_DMARxHalfCplt                       0x08005433   Thumb Code    38  stm32g0xx_hal_uart.o(i.UART_DMARxHalfCplt)
    i.UART_EndRxTransfer                     0x08005458   Section        0  stm32g0xx_hal_uart.o(i.UART_EndRxTransfer)
    UART_EndRxTransfer                       0x08005459   Thumb Code   128  stm32g0xx_hal_uart.o(i.UART_EndRxTransfer)
    i.UART_EndTxTransfer                     0x080054dc   Section        0  stm32g0xx_hal_uart.o(i.UART_EndTxTransfer)
    UART_EndTxTransfer                       0x080054dd   Thumb Code    82  stm32g0xx_hal_uart.o(i.UART_EndTxTransfer)
    i.UART_SetConfig                         0x08005530   Section        0  stm32g0xx_hal_uart.o(i.UART_SetConfig)
    i.UART_Start_Receive_DMA                 0x08005840   Section        0  stm32g0xx_hal_uart.o(i.UART_Start_Receive_DMA)
    i.UART_WaitOnFlagUntilTimeout            0x08005928   Section        0  stm32g0xx_hal_uart.o(i.UART_WaitOnFlagUntilTimeout)
    i.__NVIC_SetPriority                     0x08005a48   Section        0  stm32g0xx_hal_cortex.o(i.__NVIC_SetPriority)
    __NVIC_SetPriority                       0x08005a49   Thumb Code   110  stm32g0xx_hal_cortex.o(i.__NVIC_SetPriority)
    i.__get_PRIMASK                          0x08005ac0   Section        0  stm32g0xx_hal_uart.o(i.__get_PRIMASK)
    __get_PRIMASK                            0x08005ac1   Thumb Code     6  stm32g0xx_hal_uart.o(i.__get_PRIMASK)
    i.__set_PRIMASK                          0x08005ac6   Section        0  stm32g0xx_hal_uart.o(i.__set_PRIMASK)
    __set_PRIMASK                            0x08005ac7   Thumb Code     6  stm32g0xx_hal_uart.o(i.__set_PRIMASK)
    i.crc16_core                             0x08005acc   Section        0  comm_s2m.o(i.crc16_core)
    i.main                                   0x08005b2c   Section        0  main.o(i.main)
    x$fpl$dleqf                              0x08005ba4   Section      100  dlef.o(x$fpl$dleqf)
    x$fpl$drleqf                             0x08005c08   Section      104  drlef.o(x$fpl$drleqf)
    .constdata                               0x08005c70   Section       30  stm32g0xx_hal_uart.o(.constdata)
    x$fpl$usenofp                            0x08005c70   Section        0  usenofp.o(x$fpl$usenofp)
    CHANNEL_OFFSET_TAB                       0x08005c70   Data           5  stm32g0xx_hal_uart.o(.constdata)
    .constdata                               0x08005c8e   Section       21  stm32g0xx_hal_uart_ex.o(.constdata)
    CHANNEL_OFFSET_TAB                       0x08005c8e   Data           5  stm32g0xx_hal_uart_ex.o(.constdata)
    numerator                                0x08005c93   Data           8  stm32g0xx_hal_uart_ex.o(.constdata)
    denominator                              0x08005c9b   Data           8  stm32g0xx_hal_uart_ex.o(.constdata)
    .constdata                               0x08005ca4   Section      104  system_stm32g0xx.o(.constdata)
    CHANNEL_OFFSET_TAB                       0x08005ca4   Data           5  system_stm32g0xx.o(.constdata)
    .constdata                               0x08005d0c   Section      128  ddiv.o(.constdata)
    ddiv_reciptbl                            0x08005d0c   Data         128  ddiv.o(.constdata)
    .data                                    0x20000000   Section       12  flash_drive.o(.data)
    .data                                    0x20000010   Section       62  encoder_drive.o(.data)
    .data                                    0x20000050   Section       48  adc_user.o(.data)
    .data                                    0x20000080   Section       48  comm_s2m.o(.data)
    .data                                    0x200000b0   Section       72  cyc_req.o(.data)
    .data                                    0x200000f8   Section       88  main.o(.data)
    .data                                    0x20000150   Section      120  torque_pid_control.o(.data)
    .data                                    0x200001c8   Section        9  stm32g0xx_hal.o(.data)
    .data                                    0x200001d4   Section        4  system_stm32g0xx.o(.data)
    .bss                                     0x200001d8   Section       96  adc_user.o(.bss)
    .bss                                     0x20000238   Section       10  main.o(.bss)
    .bss                                     0x20000244   Section      192  adc.o(.bss)
    .bss                                     0x20000304   Section      200  spi.o(.bss)
    .bss                                     0x200003cc   Section      152  tim.o(.bss)
    .bss                                     0x20000464   Section      480  usart.o(.bss)
    .bss                                     0x20000644   Section       96  libspace.o(.bss)
    HEAP                                     0x200006a8   Section      512  startup_stm32g031xx.o(HEAP)
    Heap_Mem                                 0x200006a8   Data         512  startup_stm32g031xx.o(HEAP)
    STACK                                    0x200008a8   Section     1024  startup_stm32g031xx.o(STACK)
    Stack_Mem                                0x200008a8   Data        1024  startup_stm32g031xx.o(STACK)
    __initial_sp                             0x20000ca8   Data           0  startup_stm32g031xx.o(STACK)

    Global Symbols

    Symbol Name                              Value     Ov Type        Size  Object(Section)

    BuildAttributes$$THM_ISAv3M$S$PE$A:L22$X:L11$S22$IEEE1$IW$USESV6$~STKCKD$USESV7$~SHL$OSPACE$ROPI$EBA8$UX$STANDARDLIB$REQ8$PRES8$EABIv2 0x00000000   Number         0  anon$$obj.o ABSOLUTE
    __ARM_use_no_argv                        0x00000000   Number         0  main.o ABSOLUTE
    __ARM_exceptions_init                     - Undefined Weak Reference
    __alloca_initialize                       - Undefined Weak Reference
    __arm_preinit_                            - Undefined Weak Reference
    __cpp_initialize__aeabi_                  - Undefined Weak Reference
    __cxa_finalize                            - Undefined Weak Reference
    __rt_locale                               - Undefined Weak Reference
    __sigvec_lookup                           - Undefined Weak Reference
    _atexit_init                              - Undefined Weak Reference
    _call_atexit_fns                          - Undefined Weak Reference
    _clock_init                               - Undefined Weak Reference
    _fp_trap_init                             - Undefined Weak Reference
    _fp_trap_shutdown                         - Undefined Weak Reference
    _get_lc_collate                           - Undefined Weak Reference
    _get_lc_ctype                             - Undefined Weak Reference
    _get_lc_monetary                          - Undefined Weak Reference
    _get_lc_numeric                           - Undefined Weak Reference
    _get_lc_time                              - Undefined Weak Reference
    _getenv_init                              - Undefined Weak Reference
    _handle_redirection                       - Undefined Weak Reference
    _init_alloc                               - Undefined Weak Reference
    _init_user_alloc                          - Undefined Weak Reference
    _initio                                   - Undefined Weak Reference
    _rand_init                                - Undefined Weak Reference
    _signal_finish                            - Undefined Weak Reference
    _signal_init                              - Undefined Weak Reference
    _terminate_alloc                          - Undefined Weak Reference
    _terminate_user_alloc                     - Undefined Weak Reference
    _terminateio                              - Undefined Weak Reference
    __Vectors_Size                           0x000000c0   Number         0  startup_stm32g031xx.o ABSOLUTE
    __Vectors                                0x08000000   Data           4  startup_stm32g031xx.o(RESET)
    __Vectors_End                            0x080000c0   Data           0  startup_stm32g031xx.o(RESET)
    __main                                   0x080000c1   Thumb Code     8  __main.o(!!!main)
    __scatterload                            0x080000c9   Thumb Code     0  __scatter.o(!!!scatter)
    __scatterload_rt2                        0x080000c9   Thumb Code    52  __scatter.o(!!!scatter)
    __scatterload_rt2_thumb_only             0x080000c9   Thumb Code     0  __scatter.o(!!!scatter)
    __scatterload_null                       0x080000d9   Thumb Code     0  __scatter.o(!!!scatter)
    __scatterload_zeroinit                   0x08000105   Thumb Code    28  __scatter_zi.o(!!handler_zi)
    __rt_lib_init                            0x08000121   Thumb Code     0  libinit.o(.ARM.Collect$$libinit$$00000000)
    __rt_lib_init_alloca_1                   0x08000123   Thumb Code     0  libinit2.o(.ARM.Collect$$libinit$$0000002E)
    __rt_lib_init_argv_1                     0x08000123   Thumb Code     0  libinit2.o(.ARM.Collect$$libinit$$0000002C)
    __rt_lib_init_atexit_1                   0x08000123   Thumb Code     0  libinit2.o(.ARM.Collect$$libinit$$0000001B)
    __rt_lib_init_clock_1                    0x08000123   Thumb Code     0  libinit2.o(.ARM.Collect$$libinit$$00000021)
    __rt_lib_init_cpp_1                      0x08000123   Thumb Code     0  libinit2.o(.ARM.Collect$$libinit$$00000032)
    __rt_lib_init_exceptions_1               0x08000123   Thumb Code     0  libinit2.o(.ARM.Collect$$libinit$$00000030)
    __rt_lib_init_fp_1                       0x08000123   Thumb Code     0  libinit2.o(.ARM.Collect$$libinit$$00000002)
    __rt_lib_init_fp_trap_1                  0x08000123   Thumb Code     0  libinit2.o(.ARM.Collect$$libinit$$0000001F)
    __rt_lib_init_getenv_1                   0x08000123   Thumb Code     0  libinit2.o(.ARM.Collect$$libinit$$00000023)
    __rt_lib_init_heap_1                     0x08000123   Thumb Code     0  libinit2.o(.ARM.Collect$$libinit$$0000000A)
    __rt_lib_init_lc_collate_1               0x08000123   Thumb Code     0  libinit2.o(.ARM.Collect$$libinit$$00000011)
    __rt_lib_init_lc_ctype_1                 0x08000123   Thumb Code     0  libinit2.o(.ARM.Collect$$libinit$$00000013)
    __rt_lib_init_lc_monetary_1              0x08000123   Thumb Code     0  libinit2.o(.ARM.Collect$$libinit$$00000015)
    __rt_lib_init_lc_numeric_1               0x08000123   Thumb Code     0  libinit2.o(.ARM.Collect$$libinit$$00000017)
    __rt_lib_init_lc_time_1                  0x08000123   Thumb Code     0  libinit2.o(.ARM.Collect$$libinit$$00000019)
    __rt_lib_init_preinit_1                  0x08000123   Thumb Code     0  libinit2.o(.ARM.Collect$$libinit$$00000004)
    __rt_lib_init_rand_1                     0x08000123   Thumb Code     0  libinit2.o(.ARM.Collect$$libinit$$0000000E)
    __rt_lib_init_return                     0x08000123   Thumb Code     0  libinit2.o(.ARM.Collect$$libinit$$00000033)
    __rt_lib_init_signal_1                   0x08000123   Thumb Code     0  libinit2.o(.ARM.Collect$$libinit$$0000001D)
    __rt_lib_init_stdio_1                    0x08000123   Thumb Code     0  libinit2.o(.ARM.Collect$$libinit$$00000025)
    __rt_lib_init_user_alloc_1               0x08000123   Thumb Code     0  libinit2.o(.ARM.Collect$$libinit$$0000000C)
    __rt_lib_shutdown                        0x08000125   Thumb Code     0  libshutdown.o(.ARM.Collect$$libshutdown$$00000000)
    __rt_lib_shutdown_cpp_1                  0x08000127   Thumb Code     0  libshutdown2.o(.ARM.Collect$$libshutdown$$00000002)
    __rt_lib_shutdown_fp_trap_1              0x08000127   Thumb Code     0  libshutdown2.o(.ARM.Collect$$libshutdown$$00000007)
    __rt_lib_shutdown_heap_1                 0x08000127   Thumb Code     0  libshutdown2.o(.ARM.Collect$$libshutdown$$0000000F)
    __rt_lib_shutdown_return                 0x08000127   Thumb Code     0  libshutdown2.o(.ARM.Collect$$libshutdown$$00000010)
    __rt_lib_shutdown_signal_1               0x08000127   Thumb Code     0  libshutdown2.o(.ARM.Collect$$libshutdown$$0000000A)
    __rt_lib_shutdown_stdio_1                0x08000127   Thumb Code     0  libshutdown2.o(.ARM.Collect$$libshutdown$$00000004)
    __rt_lib_shutdown_user_alloc_1           0x08000127   Thumb Code     0  libshutdown2.o(.ARM.Collect$$libshutdown$$0000000C)
    __rt_entry                               0x08000129   Thumb Code     0  __rtentry.o(.ARM.Collect$$rtentry$$00000000)
    __rt_entry_presh_1                       0x08000129   Thumb Code     0  __rtentry2.o(.ARM.Collect$$rtentry$$00000002)
    __rt_entry_sh                            0x08000129   Thumb Code     0  __rtentry4.o(.ARM.Collect$$rtentry$$00000004)
    __rt_entry_li                            0x0800012f   Thumb Code     0  __rtentry2.o(.ARM.Collect$$rtentry$$0000000A)
    __rt_entry_postsh_1                      0x0800012f   Thumb Code     0  __rtentry2.o(.ARM.Collect$$rtentry$$00000009)
    __rt_entry_main                          0x08000133   Thumb Code     0  __rtentry2.o(.ARM.Collect$$rtentry$$0000000D)
    __rt_entry_postli_1                      0x08000133   Thumb Code     0  __rtentry2.o(.ARM.Collect$$rtentry$$0000000C)
    __rt_exit                                0x0800013b   Thumb Code     0  rtexit.o(.ARM.Collect$$rtexit$$00000000)
    __rt_exit_ls                             0x0800013d   Thumb Code     0  rtexit2.o(.ARM.Collect$$rtexit$$00000003)
    __rt_exit_prels_1                        0x0800013d   Thumb Code     0  rtexit2.o(.ARM.Collect$$rtexit$$00000002)
    __rt_exit_exit                           0x08000141   Thumb Code     0  rtexit2.o(.ARM.Collect$$rtexit$$00000004)
    Reset_Handler                            0x08000149   Thumb Code     8  startup_stm32g031xx.o(.text)
    ADC1_IRQHandler                          0x0800015b   Thumb Code     0  startup_stm32g031xx.o(.text)
    DMA1_Ch4_5_DMAMUX1_OVR_IRQHandler        0x0800015b   Thumb Code     0  startup_stm32g031xx.o(.text)
    DMA1_Channel1_IRQHandler                 0x0800015b   Thumb Code     0  startup_stm32g031xx.o(.text)
    DMA1_Channel2_3_IRQHandler               0x0800015b   Thumb Code     0  startup_stm32g031xx.o(.text)
    EXTI0_1_IRQHandler                       0x0800015b   Thumb Code     0  startup_stm32g031xx.o(.text)
    EXTI2_3_IRQHandler                       0x0800015b   Thumb Code     0  startup_stm32g031xx.o(.text)
    EXTI4_15_IRQHandler                      0x0800015b   Thumb Code     0  startup_stm32g031xx.o(.text)
    FLASH_IRQHandler                         0x0800015b   Thumb Code     0  startup_stm32g031xx.o(.text)
    I2C1_IRQHandler                          0x0800015b   Thumb Code     0  startup_stm32g031xx.o(.text)
    I2C2_IRQHandler                          0x0800015b   Thumb Code     0  startup_stm32g031xx.o(.text)
    LPTIM1_IRQHandler                        0x0800015b   Thumb Code     0  startup_stm32g031xx.o(.text)
    LPTIM2_IRQHandler                        0x0800015b   Thumb Code     0  startup_stm32g031xx.o(.text)
    LPUART1_IRQHandler                       0x0800015b   Thumb Code     0  startup_stm32g031xx.o(.text)
    PVD_IRQHandler                           0x0800015b   Thumb Code     0  startup_stm32g031xx.o(.text)
    RCC_IRQHandler                           0x0800015b   Thumb Code     0  startup_stm32g031xx.o(.text)
    RTC_TAMP_IRQHandler                      0x0800015b   Thumb Code     0  startup_stm32g031xx.o(.text)
    SPI1_IRQHandler                          0x0800015b   Thumb Code     0  startup_stm32g031xx.o(.text)
    SPI2_IRQHandler                          0x0800015b   Thumb Code     0  startup_stm32g031xx.o(.text)
    TIM16_IRQHandler                         0x0800015b   Thumb Code     0  startup_stm32g031xx.o(.text)
    TIM17_IRQHandler                         0x0800015b   Thumb Code     0  startup_stm32g031xx.o(.text)
    TIM1_BRK_UP_TRG_COM_IRQHandler           0x0800015b   Thumb Code     0  startup_stm32g031xx.o(.text)
    TIM1_CC_IRQHandler                       0x0800015b   Thumb Code     0  startup_stm32g031xx.o(.text)
    TIM2_IRQHandler                          0x0800015b   Thumb Code     0  startup_stm32g031xx.o(.text)
    TIM3_IRQHandler                          0x0800015b   Thumb Code     0  startup_stm32g031xx.o(.text)
    USART1_IRQHandler                        0x0800015b   Thumb Code     0  startup_stm32g031xx.o(.text)
    USART2_IRQHandler                        0x0800015b   Thumb Code     0  startup_stm32g031xx.o(.text)
    WWDG_IRQHandler                          0x0800015b   Thumb Code     0  startup_stm32g031xx.o(.text)
    __user_initial_stackheap                 0x0800015d   Thumb Code     0  startup_stm32g031xx.o(.text)
    __aeabi_lmul                             0x08000181   Thumb Code    48  llmul.o(.text)
    _ll_mul                                  0x08000181   Thumb Code     0  llmul.o(.text)
    __aeabi_uldivmod                         0x080001b1   Thumb Code   258  lludiv.o(.text)
    _ll_udiv                                 0x080001b1   Thumb Code     0  lludiv.o(.text)
    _memset_w                                0x080002b3   Thumb Code    26  rt_memclr.o(.text)
    _memset                                  0x080002cd   Thumb Code    30  rt_memclr.o(.text)
    __aeabi_memclr                           0x080002eb   Thumb Code     4  rt_memclr.o(.text)
    __rt_memclr                              0x080002eb   Thumb Code     0  rt_memclr.o(.text)
    __aeabi_memclr4                          0x080002ef   Thumb Code     0  rt_memclr.o(.text)
    __aeabi_memclr8                          0x080002ef   Thumb Code     0  rt_memclr.o(.text)
    __rt_memclr_w                            0x080002ef   Thumb Code     4  rt_memclr.o(.text)
    __aeabi_uidiv                            0x080002f3   Thumb Code     0  aeabi_sdiv.o(.text)
    __aeabi_uidivmod                         0x080002f3   Thumb Code    20  aeabi_sdiv.o(.text)
    __aeabi_idiv                             0x08000307   Thumb Code     0  aeabi_sdiv.o(.text)
    __aeabi_idivmod                          0x08000307   Thumb Code   326  aeabi_sdiv.o(.text)
    __use_two_region_memory                  0x0800044d   Thumb Code     2  heapauxi.o(.text)
    __rt_heap_escrow$2region                 0x0800044f   Thumb Code     2  heapauxi.o(.text)
    __rt_heap_expand$2region                 0x08000451   Thumb Code     2  heapauxi.o(.text)
    __aeabi_dadd                             0x0800074d   Thumb Code     0  daddsub.o(.text)
    _dadd                                    0x0800074d   Thumb Code    26  daddsub.o(.text)
    __aeabi_dsub                             0x08000767   Thumb Code     0  daddsub.o(.text)
    _dsub                                    0x08000767   Thumb Code    22  daddsub.o(.text)
    __aeabi_drsub                            0x0800077d   Thumb Code     0  daddsub.o(.text)
    _drsb                                    0x0800077d   Thumb Code    28  daddsub.o(.text)
    __aeabi_ddiv                             0x080007ad   Thumb Code     0  ddiv.o(.text)
    _ddiv                                    0x080007ad   Thumb Code  1072  ddiv.o(.text)
    _drdiv                                   0x08000bdd   Thumb Code    20  ddiv.o(.text)
    __aeabi_d2uiz                            0x08000bf5   Thumb Code     0  dfixui.o(.text)
    _dfixu                                   0x08000bf5   Thumb Code    68  dfixui.o(.text)
    __aeabi_i2d_normalise                    0x08000c3d   Thumb Code    66  dflti.o(.text)
    __aeabi_i2d                              0x08000c7f   Thumb Code    16  dflti.o(.text)
    _dflt                                    0x08000c7f   Thumb Code     0  dflti.o(.text)
    __aeabi_ui2d                             0x08000c8f   Thumb Code     6  dflti.o(.text)
    _dfltu                                   0x08000c8f   Thumb Code     0  dflti.o(.text)
    __aeabi_dmul                             0x08000c95   Thumb Code     0  dmul.o(.text)
    _dmul                                    0x08000c95   Thumb Code   558  dmul.o(.text)
    __fpl_dcmp_InfNaN                        0x08000edd   Thumb Code   140  dcmpin.o(.text)
    __fpl_cmpreturn                          0x08000f6d   Thumb Code    46  cmpret.o(.text)
    __fpl_dcheck_NaN2                        0x08000f9d   Thumb Code    14  dnan2.o(.text)
    __user_setup_stackheap                   0x08000fb1   Thumb Code    62  sys_stackheap_outer.o(.text)
    exit                                     0x08000fef   Thumb Code    16  exit.o(.text)
    __fpl_return_NaN                         0x08000fff   Thumb Code    94  retnan.o(.text)
    __user_libspace                          0x0800105d   Thumb Code     8  libspace.o(.text)
    __user_perproc_libspace                  0x0800105d   Thumb Code     0  libspace.o(.text)
    __user_perthread_libspace                0x0800105d   Thumb Code     0  libspace.o(.text)
    _sys_exit                                0x08001065   Thumb Code     8  sys_exit.o(.text)
    __I$use$semihosting                      0x08001071   Thumb Code     0  use_no_semi.o(.text)
    __use_no_semihosting_swi                 0x08001071   Thumb Code     2  use_no_semi.o(.text)
    __decompress                             0x08001073   Thumb Code     0  __dczerorl2.o(.text)
    __decompress1                            0x08001073   Thumb Code    86  __dczerorl2.o(.text)
    __semihosting_library_function           0x08001073   Thumb Code     0  indicate_semi.o(.text)
    ADC_Data_Process                         0x08001185   Thumb Code   152  adc_user.o(i.ADC_Data_Process)
    ADC_Enable                               0x08001245   Thumb Code   200  stm32g0xx_hal_adc.o(i.ADC_Enable)
    BDC_555_Control                          0x0800131d   Thumb Code   120  bdc_555_driver.o(i.BDC_555_Control)
    BDC_555_DIR_Set                          0x08001399   Thumb Code    34  bdc_555_driver.o(i.BDC_555_DIR_Set)
    BDC_555_Driver_Init                      0x080013c1   Thumb Code    20  bdc_555_driver.o(i.BDC_555_Driver_Init)
    BDC_555_PID_Torque                       0x080013d9   Thumb Code   302  torque_pid_control.o(i.BDC_555_PID_Torque)
    BDC_555_Power_Set                        0x0800154d   Thumb Code     8  bdc_555_driver.o(i.BDC_555_Power_Set)
    Comm_Read_Process                        0x08001559   Thumb Code     8  comm_s2m.o(i.Comm_Read_Process)
    Comm_S2M_Send                            0x08001561   Thumb Code    40  comm_s2m.o(i.Comm_S2M_Send)
    Comm_S2O_Send                            0x08001591   Thumb Code    20  comm_s2m.o(i.Comm_S2O_Send)
    Comm_Send_Process                        0x080015a9   Thumb Code    20  comm_s2m.o(i.Comm_Send_Process)
    Comm_Slave2Master_Init                   0x080015bd   Thumb Code    30  comm_s2m.o(i.Comm_Slave2Master_Init)
    Comm_Slave2Master_RecData_CRC16          0x080015e9   Thumb Code    32  comm_s2m.o(i.Comm_Slave2Master_RecData_CRC16)
    Comm_Slave2Other_Init                    0x08001609   Thumb Code    38  comm_s2m.o(i.Comm_Slave2Other_Init)
    Cyclical_Request                         0x0800163d   Thumb Code    86  cyc_req.o(i.Cyclical_Request)
    Cyclical_Timing_Func                     0x080016a9   Thumb Code    20  cyc_req.o(i.Cyclical_Timing_Func)
    Encoder_Delay                            0x08001765   Thumb Code    26  encoder_drive.o(i.Encoder_Delay)
    Error_Handler                            0x08001785   Thumb Code     6  main.o(i.Error_Handler)
    Flash_Delay                              0x0800178d   Thumb Code    26  flash_drive.o(i.Flash_Delay)
    Force_Value_Filter_10_Func               0x080017ad   Thumb Code   102  adc_user.o(i.Force_Value_Filter_10_Func)
    Get_S2M_Send_Flag                        0x08001825   Thumb Code     6  comm_s2m.o(i.Get_S2M_Send_Flag)
    Get_Torque                               0x08001831   Thumb Code     6  adc_user.o(i.Get_Torque)
    HAL_ADC_ConfigChannel                    0x0800183d   Thumb Code   838  stm32g0xx_hal_adc.o(i.HAL_ADC_ConfigChannel)
    HAL_ADC_ConvCpltCallback                 0x08001ba1   Thumb Code     2  stm32g0xx_hal_adc.o(i.HAL_ADC_ConvCpltCallback)
    HAL_ADC_ConvHalfCpltCallback             0x08001ba3   Thumb Code     2  stm32g0xx_hal_adc.o(i.HAL_ADC_ConvHalfCpltCallback)
    HAL_ADC_ErrorCallback                    0x08001ba5   Thumb Code     2  stm32g0xx_hal_adc.o(i.HAL_ADC_ErrorCallback)
    HAL_ADC_Init                             0x08001ba9   Thumb Code   634  stm32g0xx_hal_adc.o(i.HAL_ADC_Init)
    HAL_ADC_MspInit                          0x08001e41   Thumb Code   172  adc.o(i.HAL_ADC_MspInit)
    HAL_ADC_Start_DMA                        0x08001efd   Thumb Code   186  stm32g0xx_hal_adc.o(i.HAL_ADC_Start_DMA)
    HAL_DMA_Init                             0x08001fc9   Thumb Code   182  stm32g0xx_hal_dma.o(i.HAL_DMA_Init)
    HAL_DMA_Start_IT                         0x08002089   Thumb Code   204  stm32g0xx_hal_dma.o(i.HAL_DMA_Start_IT)
    HAL_Delay                                0x08002155   Thumb Code    38  stm32g0xx_hal.o(i.HAL_Delay)
    HAL_GPIO_Init                            0x08002181   Thumb Code   454  stm32g0xx_hal_gpio.o(i.HAL_GPIO_Init)
    HAL_GPIO_TogglePin                       0x08002359   Thumb Code    20  stm32g0xx_hal_gpio.o(i.HAL_GPIO_TogglePin)
    HAL_GPIO_WritePin                        0x0800236d   Thumb Code    12  stm32g0xx_hal_gpio.o(i.HAL_GPIO_WritePin)
    HAL_GetTick                              0x08002379   Thumb Code     6  stm32g0xx_hal.o(i.HAL_GetTick)
    HAL_IncTick                              0x08002385   Thumb Code    16  stm32g0xx_hal.o(i.HAL_IncTick)
    HAL_Init                                 0x0800239d   Thumb Code    40  stm32g0xx_hal.o(i.HAL_Init)
    HAL_InitTick                             0x080023c9   Thumb Code    82  stm32g0xx_hal.o(i.HAL_InitTick)
    HAL_MspInit                              0x08002429   Thumb Code    64  stm32g0xx_hal_msp.o(i.HAL_MspInit)
    HAL_NVIC_EnableIRQ                       0x0800246d   Thumb Code    30  stm32g0xx_hal_cortex.o(i.HAL_NVIC_EnableIRQ)
    HAL_NVIC_SetPriority                     0x08002491   Thumb Code    18  stm32g0xx_hal_cortex.o(i.HAL_NVIC_SetPriority)
    HAL_PWREx_ControlVoltageScaling          0x080024a5   Thumb Code    76  stm32g0xx_hal_pwr_ex.o(i.HAL_PWREx_ControlVoltageScaling)
    HAL_RCCEx_PeriphCLKConfig                0x080024fd   Thumb Code   628  stm32g0xx_hal_rcc_ex.o(i.HAL_RCCEx_PeriphCLKConfig)
    HAL_RCC_ClockConfig                      0x0800277d   Thumb Code   442  stm32g0xx_hal_rcc.o(i.HAL_RCC_ClockConfig)
    HAL_RCC_GetHCLKFreq                      0x08002951   Thumb Code     6  stm32g0xx_hal_rcc.o(i.HAL_RCC_GetHCLKFreq)
    HAL_RCC_GetPCLK1Freq                     0x0800295d   Thumb Code    32  stm32g0xx_hal_rcc.o(i.HAL_RCC_GetPCLK1Freq)
    HAL_RCC_GetSysClockFreq                  0x08002985   Thumb Code   216  stm32g0xx_hal_rcc.o(i.HAL_RCC_GetSysClockFreq)
    HAL_RCC_OscConfig                        0x08002a69   Thumb Code  1450  stm32g0xx_hal_rcc.o(i.HAL_RCC_OscConfig)
    HAL_SPI_Init                             0x08003025   Thumb Code   268  stm32g0xx_hal_spi.o(i.HAL_SPI_Init)
    HAL_SPI_MspInit                          0x08003131   Thumb Code   298  spi.o(i.HAL_SPI_MspInit)
    HAL_SPI_TransmitReceive                  0x0800326d   Thumb Code   618  stm32g0xx_hal_spi.o(i.HAL_SPI_TransmitReceive)
    HAL_SYSTICK_Config                       0x080034d9   Thumb Code    46  stm32g0xx_hal_cortex.o(i.HAL_SYSTICK_Config)
    HAL_TIMEx_Break2Callback                 0x08003511   Thumb Code     2  stm32g0xx_hal_tim_ex.o(i.HAL_TIMEx_Break2Callback)
    HAL_TIMEx_BreakCallback                  0x08003513   Thumb Code     2  stm32g0xx_hal_tim_ex.o(i.HAL_TIMEx_BreakCallback)
    HAL_TIMEx_CommutCallback                 0x08003515   Thumb Code     2  stm32g0xx_hal_tim_ex.o(i.HAL_TIMEx_CommutCallback)
    HAL_TIMEx_MasterConfigSynchronization    0x08003519   Thumb Code   142  stm32g0xx_hal_tim_ex.o(i.HAL_TIMEx_MasterConfigSynchronization)
    HAL_TIM_Base_Init                        0x080035b1   Thumb Code   108  stm32g0xx_hal_tim.o(i.HAL_TIM_Base_Init)
    HAL_TIM_Base_MspInit                     0x0800361d   Thumb Code    60  tim.o(i.HAL_TIM_Base_MspInit)
    HAL_TIM_Base_Start_IT                    0x08003661   Thumb Code   106  stm32g0xx_hal_tim.o(i.HAL_TIM_Base_Start_IT)
    HAL_TIM_IC_CaptureCallback               0x080036d9   Thumb Code     2  stm32g0xx_hal_tim.o(i.HAL_TIM_IC_CaptureCallback)
    HAL_TIM_IRQHandler                       0x080036dd   Thumb Code   498  stm32g0xx_hal_tim.o(i.HAL_TIM_IRQHandler)
    HAL_TIM_MspPostInit                      0x080038d5   Thumb Code    82  tim.o(i.HAL_TIM_MspPostInit)
    HAL_TIM_OC_DelayElapsedCallback          0x08003931   Thumb Code     2  stm32g0xx_hal_tim.o(i.HAL_TIM_OC_DelayElapsedCallback)
    HAL_TIM_PWM_ConfigChannel                0x08003933   Thumb Code   378  stm32g0xx_hal_tim.o(i.HAL_TIM_PWM_ConfigChannel)
    HAL_TIM_PWM_Init                         0x08003aad   Thumb Code   108  stm32g0xx_hal_tim.o(i.HAL_TIM_PWM_Init)
    HAL_TIM_PWM_MspInit                      0x08003b19   Thumb Code    42  tim.o(i.HAL_TIM_PWM_MspInit)
    HAL_TIM_PWM_PulseFinishedCallback        0x08003b49   Thumb Code     2  stm32g0xx_hal_tim.o(i.HAL_TIM_PWM_PulseFinishedCallback)
    HAL_TIM_PWM_Start                        0x08003b4d   Thumb Code   266  stm32g0xx_hal_tim.o(i.HAL_TIM_PWM_Start)
    HAL_TIM_PeriodElapsedCallback            0x08003c6d   Thumb Code    26  main.o(i.HAL_TIM_PeriodElapsedCallback)
    HAL_TIM_TriggerCallback                  0x08003c91   Thumb Code     2  stm32g0xx_hal_tim.o(i.HAL_TIM_TriggerCallback)
    HAL_UARTEx_DisableFifoMode               0x08003c93   Thumb Code    84  stm32g0xx_hal_uart_ex.o(i.HAL_UARTEx_DisableFifoMode)
    HAL_UARTEx_RxEventCallback               0x08003ce7   Thumb Code     2  stm32g0xx_hal_uart.o(i.HAL_UARTEx_RxEventCallback)
    HAL_UARTEx_SetRxFifoThreshold            0x08003ce9   Thumb Code    96  stm32g0xx_hal_uart_ex.o(i.HAL_UARTEx_SetRxFifoThreshold)
    HAL_UARTEx_SetTxFifoThreshold            0x08003d49   Thumb Code    94  stm32g0xx_hal_uart_ex.o(i.HAL_UARTEx_SetTxFifoThreshold)
    HAL_UART_ErrorCallback                   0x08003da7   Thumb Code     2  stm32g0xx_hal_uart.o(i.HAL_UART_ErrorCallback)
    HAL_UART_Init                            0x08003da9   Thumb Code   130  stm32g0xx_hal_uart.o(i.HAL_UART_Init)
    HAL_UART_MspInit                         0x08003e2d   Thumb Code   374  usart.o(i.HAL_UART_MspInit)
    HAL_UART_Receive_DMA                     0x08003fc1   Thumb Code   132  stm32g0xx_hal_uart.o(i.HAL_UART_Receive_DMA)
    HAL_UART_RxCpltCallback                  0x08004049   Thumb Code     2  stm32g0xx_hal_uart.o(i.HAL_UART_RxCpltCallback)
    HAL_UART_RxHalfCpltCallback              0x0800404b   Thumb Code     2  stm32g0xx_hal_uart.o(i.HAL_UART_RxHalfCpltCallback)
    HAL_UART_Transmit                        0x0800404d   Thumb Code   230  stm32g0xx_hal_uart.o(i.HAL_UART_Transmit)
    HardFault_Handler                        0x08004133   Thumb Code     4  stm32g0xx_it.o(i.HardFault_Handler)
    Init_ADC                                 0x08004139   Thumb Code    14  adc_user.o(i.Init_ADC)
    MX_ADC1_Init                             0x080041f9   Thumb Code   180  adc.o(i.MX_ADC1_Init)
    MX_DMA_Init                              0x080042c1   Thumb Code    32  dma.o(i.MX_DMA_Init)
    MX_GPIO_Init                             0x080042e5   Thumb Code   280  gpio.o(i.MX_GPIO_Init)
    MX_SPI1_Init                             0x08004409   Thumb Code    76  spi.o(i.MX_SPI1_Init)
    MX_SPI2_Init                             0x0800445d   Thumb Code    78  spi.o(i.MX_SPI2_Init)
    MX_TIM14_Init                            0x080044b5   Thumb Code    42  tim.o(i.MX_TIM14_Init)
    MX_TIM2_Init                             0x080044e9   Thumb Code   122  tim.o(i.MX_TIM2_Init)
    MX_USART1_UART_Init                      0x0800456d   Thumb Code   104  usart.o(i.MX_USART1_UART_Init)
    MX_USART2_UART_Init                      0x080045e1   Thumb Code    58  usart.o(i.MX_USART2_UART_Init)
    Message_Rec                              0x08004629   Thumb Code    40  comm_s2m.o(i.Message_Rec)
    Message_Send                             0x0800465d   Thumb Code    50  comm_s2m.o(i.Message_Send)
    NMI_Handler                              0x0800469d   Thumb Code     4  stm32g0xx_it.o(i.NMI_Handler)
    PendSV_Handler                           0x080046a1   Thumb Code     2  stm32g0xx_it.o(i.PendSV_Handler)
    Reset_S2M_Send_Flag                      0x080046a5   Thumb Code     8  comm_s2m.o(i.Reset_S2M_Send_Flag)
    SPI_Encoder_Read_Data                    0x080046b1   Thumb Code   270  encoder_drive.o(i.SPI_Encoder_Read_Data)
    SPI_Encoder_SendByte                     0x08004805   Thumb Code    30  encoder_drive.o(i.SPI_Encoder_SendByte)
    SPI_Flash_Init                           0x08004895   Thumb Code    22  flash_drive.o(i.SPI_Flash_Init)
    SPI_Flash_Read_Data                      0x080048b1   Thumb Code    90  flash_drive.o(i.SPI_Flash_Read_Data)
    SPI_Flash_Read_ID                        0x08004915   Thumb Code    64  flash_drive.o(i.SPI_Flash_Read_ID)
    SPI_Flash_SendByte                       0x0800495d   Thumb Code    30  flash_drive.o(i.SPI_Flash_SendByte)
    SVC_Handler                              0x08004b59   Thumb Code     2  stm32g0xx_it.o(i.SVC_Handler)
    Set_S2M_Send_Flag                        0x08004b5d   Thumb Code     8  comm_s2m.o(i.Set_S2M_Send_Flag)
    SysTick_Handler                          0x08004b69   Thumb Code     8  stm32g0xx_it.o(i.SysTick_Handler)
    SystemClock_Config                       0x08004b71   Thumb Code   116  main.o(i.SystemClock_Config)
    SystemInit                               0x08004be5   Thumb Code     2  system_stm32g0xx.o(i.SystemInit)
    TIM14_IRQHandler                         0x08004be9   Thumb Code    10  stm32g0xx_it.o(i.TIM14_IRQHandler)
    TIM_Base_SetConfig                       0x08004bf9   Thumb Code   138  stm32g0xx_hal_tim.o(i.TIM_Base_SetConfig)
    TIM_CCxChannelCmd                        0x08004c99   Thumb Code    34  stm32g0xx_hal_tim.o(i.TIM_CCxChannelCmd)
    TIM_OC2_SetConfig                        0x08004d59   Thumb Code   156  stm32g0xx_hal_tim.o(i.TIM_OC2_SetConfig)
    Task_ADC_Flag_Reset                      0x08004ff1   Thumb Code     8  cyc_req.o(i.Task_ADC_Flag_Reset)
    Task_ADC_Func                            0x08004ffd   Thumb Code    36  cyc_req.o(i.Task_ADC_Func)
    Task_Comm_Flag_Reset                     0x0800502d   Thumb Code     8  cyc_req.o(i.Task_Comm_Flag_Reset)
    Task_Comm_Func                           0x08005039   Thumb Code    36  cyc_req.o(i.Task_Comm_Func)
    Task_Encoder_Flag_Reset                  0x08005069   Thumb Code     8  cyc_req.o(i.Task_Encoder_Flag_Reset)
    Task_Encoder_Func                        0x08005075   Thumb Code    36  cyc_req.o(i.Task_Encoder_Func)
    Task_Exo_Flag_Reset                      0x080050a5   Thumb Code     8  cyc_req.o(i.Task_Exo_Flag_Reset)
    Task_Exo_Func                            0x080050b1   Thumb Code    36  cyc_req.o(i.Task_Exo_Func)
    Torque_Transfer                          0x080050e1   Thumb Code    52  adc_user.o(i.Torque_Transfer)
    UART_AdvFeatureConfig                    0x080051a1   Thumb Code   240  stm32g0xx_hal_uart.o(i.UART_AdvFeatureConfig)
    UART_CheckIdleState                      0x08005291   Thumb Code   118  stm32g0xx_hal_uart.o(i.UART_CheckIdleState)
    UART_SetConfig                           0x08005531   Thumb Code   742  stm32g0xx_hal_uart.o(i.UART_SetConfig)
    UART_Start_Receive_DMA                   0x08005841   Thumb Code   218  stm32g0xx_hal_uart.o(i.UART_Start_Receive_DMA)
    UART_WaitOnFlagUntilTimeout              0x08005929   Thumb Code   288  stm32g0xx_hal_uart.o(i.UART_WaitOnFlagUntilTimeout)
    crc16_core                               0x08005acd   Thumb Code    88  comm_s2m.o(i.crc16_core)
    main                                     0x08005b2d   Thumb Code   112  main.o(i.main)
    __aeabi_cdcmple                          0x08005ba5   Thumb Code     0  dlef.o(x$fpl$dleqf)
    _dcmple                                  0x08005ba5   Thumb Code    94  dlef.o(x$fpl$dleqf)
    __aeabi_cdrcmple                         0x08005c09   Thumb Code     0  drlef.o(x$fpl$drleqf)
    _drcmple                                 0x08005c09   Thumb Code   100  drlef.o(x$fpl$drleqf)
    __I$use$fp                               0x08005c70   Number         0  usenofp.o(x$fpl$usenofp)
    UARTPrescTable                           0x08005c76   Data          24  stm32g0xx_hal_uart.o(.constdata)
    AHBPrescTable                            0x08005cac   Data          64  system_stm32g0xx.o(.constdata)
    APBPrescTable                            0x08005cec   Data          32  system_stm32g0xx.o(.constdata)
    Region$$Table$$Base                      0x08005d8c   Number         0  anon$$obj.o(Region$$Table)
    Region$$Table$$Limit                     0x08005dac   Number         0  anon$$obj.o(Region$$Table)
    Flash_Adress                             0x20000000   Data           4  flash_drive.o(.data)
    Flash_Cmd                                0x20000004   Data           1  flash_drive.o(.data)
    Flash_Delay_Timing                       0x20000006   Data           2  flash_drive.o(.data)
    RDSR_Buffer                              0x20000008   Data           1  flash_drive.o(.data)
    ID_Buffer                                0x20000009   Data           3  flash_drive.o(.data)
    Encoder_Adress                           0x20000010   Data           4  encoder_drive.o(.data)
    Encoder_Cmd                              0x20000014   Data           1  encoder_drive.o(.data)
    Encoder_Delay_Timing                     0x20000016   Data           2  encoder_drive.o(.data)
    Encoder_RDSR_Buffer                      0x20000018   Data           1  encoder_drive.o(.data)
    Encoder_ID_Buffer                        0x20000019   Data           3  encoder_drive.o(.data)
    Encoder_Read_Flag                        0x2000001c   Data           2  encoder_drive.o(.data)
    Encoder_Write_Flag                       0x2000001e   Data           2  encoder_drive.o(.data)
    Encoder_Addr3                            0x20000020   Data           2  encoder_drive.o(.data)
    Encoder_Addr4                            0x20000022   Data           2  encoder_drive.o(.data)
    Encoder_Data3                            0x20000024   Data           2  encoder_drive.o(.data)
    Encoder_Data4                            0x20000026   Data           2  encoder_drive.o(.data)
    No_Mag_Warning_Flag                      0x20000028   Data           1  encoder_drive.o(.data)
    Encoder_Angle                            0x20000030   Data           8  encoder_drive.o(.data)
    Encoder_Angle_Max                        0x20000038   Data           8  encoder_drive.o(.data)
    Encoder_Angle_Min                        0x20000040   Data           8  encoder_drive.o(.data)
    Data_H                                   0x20000048   Data           2  encoder_drive.o(.data)
    Data_L                                   0x2000004a   Data           2  encoder_drive.o(.data)
    Data_All                                 0x2000004c   Data           2  encoder_drive.o(.data)
    Vcc_Value                                0x20000050   Data           8  adc_user.o(.data)
    Current_Value                            0x20000058   Data           8  adc_user.o(.data)
    Force_Value                              0x20000060   Data           8  adc_user.o(.data)
    Force_Value_Sum                          0x20000068   Data           8  adc_user.o(.data)
    Force_Value_Filtered                     0x20000070   Data           8  adc_user.o(.data)
    Torque                                   0x20000078   Data           8  adc_user.o(.data)
    S2Mlave_Send_Data                        0x20000080   Data           6  comm_s2m.o(.data)
    S2Mlave_Rec_Data                         0x20000086   Data           6  comm_s2m.o(.data)
    S2M_Send_Flag                            0x2000008c   Data           1  comm_s2m.o(.data)
    Comm_S2O_Rec_Buf                         0x2000008d   Data           6  comm_s2m.o(.data)
    temp_rec                                 0x20000093   Data           6  comm_s2m.o(.data)
    temp_Send                                0x20000099   Data           6  comm_s2m.o(.data)
    temp_S2M                                 0x200000a0   Data           2  comm_s2m.o(.data)
    Value_L                                  0x200000a8   Data           8  comm_s2m.o(.data)
    Task_MPU6050_Flag                        0x200000b0   Data           1  cyc_req.o(.data)
    Task_Encoder_Flag                        0x200000b1   Data           1  cyc_req.o(.data)
    Task_Key_AntiVib_Flag                    0x200000b2   Data           1  cyc_req.o(.data)
    Task_Comm_Flag                           0x200000b3   Data           1  cyc_req.o(.data)
    Task_Exo_Flag                            0x200000b4   Data           1  cyc_req.o(.data)
    Task_MiniAudio_Flag                      0x200000b5   Data           1  cyc_req.o(.data)
    Task_MiniAudio_Delay_Flag                0x200000b6   Data           1  cyc_req.o(.data)
    Task_ADC_Flag                            0x200000b7   Data           1  cyc_req.o(.data)
    Time_MPU6050                             0x200000b8   Data           4  cyc_req.o(.data)
    Time_Encoder                             0x200000bc   Data           4  cyc_req.o(.data)
    Time_Key_AntiVib                         0x200000c0   Data           4  cyc_req.o(.data)
    Time_Comm                                0x200000c4   Data           4  cyc_req.o(.data)
    Time_Exo                                 0x200000c8   Data           4  cyc_req.o(.data)
    Time_MiniAudio                           0x200000cc   Data           4  cyc_req.o(.data)
    Time_MiniAudio_Delay                     0x200000d0   Data           4  cyc_req.o(.data)
    Time_ADC                                 0x200000d4   Data           4  cyc_req.o(.data)
    Count_MPU6050                            0x200000d8   Data           4  cyc_req.o(.data)
    Count_Encoder                            0x200000dc   Data           4  cyc_req.o(.data)
    Count_Key_AntiVib                        0x200000e0   Data           4  cyc_req.o(.data)
    Count_Comm                               0x200000e4   Data           4  cyc_req.o(.data)
    Count_Exo                                0x200000e8   Data           4  cyc_req.o(.data)
    Count_MiniAudio                          0x200000ec   Data           4  cyc_req.o(.data)
    Count_MiniAudio_Delay                    0x200000f0   Data           4  cyc_req.o(.data)
    Count_ADC                                0x200000f4   Data           4  cyc_req.o(.data)
    Flash_RDSE                               0x200000f8   Data           1  main.o(.data)
    Send_Data                                0x200000f9   Data           5  main.o(.data)
    Period                                   0x200000fe   Data           2  main.o(.data)
    Count                                    0x20000100   Data           8  main.o(.data)
    Value                                    0x20000108   Data           8  main.o(.data)
    Count1                                   0x20000110   Data           2  main.o(.data)
    PID_P                                    0x20000118   Data           8  main.o(.data)
    PID_I                                    0x20000120   Data           8  main.o(.data)
    Error                                    0x20000128   Data           8  main.o(.data)
    Error_Sum                                0x20000130   Data           8  main.o(.data)
    Error_Sum_Max                            0x20000138   Data           8  main.o(.data)
    Angle_Soll                               0x20000140   Data           8  main.o(.data)
    Actuator                                 0x20000148   Data           8  main.o(.data)
    BDC_555_Torque_Damper                    0x20000150   Data           8  torque_pid_control.o(.data)
    BDC_555_Torque                           0x20000158   Data           8  torque_pid_control.o(.data)
    BDC_555_U_Torque                         0x20000160   Data           8  torque_pid_control.o(.data)
    BDC_555_Error_Sum_Torque                 0x20000168   Data           8  torque_pid_control.o(.data)
    BDC_555_Error_Sum_T_Max                  0x20000170   Data           8  torque_pid_control.o(.data)
    BDC_555_Error_Sum_Min                    0x20000178   Data           8  torque_pid_control.o(.data)
    BDC_555_Current                          0x20000180   Data           8  torque_pid_control.o(.data)
    BDC_555_Speed                            0x20000188   Data           8  torque_pid_control.o(.data)
    BDC_555_Torque_Kp                        0x20000190   Data           8  torque_pid_control.o(.data)
    BDC_555_Torque_Ki                        0x20000198   Data           8  torque_pid_control.o(.data)
    BDC_555_Torque_Kd                        0x200001a0   Data           8  torque_pid_control.o(.data)
    BDC_555_Error_Torque_last                0x200001a8   Data           8  torque_pid_control.o(.data)
    test_time                                0x200001b0   Data           8  torque_pid_control.o(.data)
    test_motor_current                       0x200001b8   Data           8  torque_pid_control.o(.data)
    Error_Torque                             0x200001c0   Data           8  torque_pid_control.o(.data)
    uwTick                                   0x200001c8   Data           4  stm32g0xx_hal.o(.data)
    uwTickPrio                               0x200001cc   Data           4  stm32g0xx_hal.o(.data)
    uwTickFreq                               0x200001d0   Data           1  stm32g0xx_hal.o(.data)
    SystemCoreClock                          0x200001d4   Data           4  system_stm32g0xx.o(.data)
    ADC_Data                                 0x200001d8   Data          12  adc_user.o(.bss)
    Force_Value_Buffer                       0x200001e8   Data          80  adc_user.o(.bss)
    Read_Data                                0x20000238   Data          10  main.o(.bss)
    hadc1                                    0x20000244   Data         100  adc.o(.bss)
    hdma_adc1                                0x200002a8   Data          92  adc.o(.bss)
    hspi1                                    0x20000304   Data         100  spi.o(.bss)
    hspi2                                    0x20000368   Data         100  spi.o(.bss)
    htim2                                    0x200003cc   Data          76  tim.o(.bss)
    htim14                                   0x20000418   Data          76  tim.o(.bss)
    huart1                                   0x20000464   Data         148  usart.o(.bss)
    huart2                                   0x200004f8   Data         148  usart.o(.bss)
    hdma_usart1_rx                           0x2000058c   Data          92  usart.o(.bss)
    hdma_usart2_rx                           0x200005e8   Data          92  usart.o(.bss)
    __libspace_start                         0x20000644   Data          96  libspace.o(.bss)
    __temporary_stack_top$libspace           0x200006a4   Data           0  libspace.o(.bss)



==============================================================================

Memory Map of the image

  Image Entry point : 0x080000c1

  Load Region LR_IROM1 (Base: 0x08000000, Size: 0x00005f84, Max: 0x00010000, ABSOLUTE, COMPRESSED[0x00005e04])

    Execution Region ER_IROM1 (Base: 0x08000000, Size: 0x00005dac, Max: 0x00010000, ABSOLUTE)

    Base Addr    Size         Type   Attr      Idx    E Section Name        Object

    0x08000000   0x000000c0   Data   RO            3    RESET               startup_stm32g031xx.o
    0x080000c0   0x00000008   Code   RO         4623  * !!!main             c_p.l(__main.o)
    0x080000c8   0x0000003c   Code   RO         4822    !!!scatter          c_p.l(__scatter.o)
    0x08000104   0x0000001c   Code   RO         4824    !!handler_zi        c_p.l(__scatter_zi.o)
    0x08000120   0x00000002   Code   RO         4687    .ARM.Collect$$libinit$$00000000  c_p.l(libinit.o)
    0x08000122   0x00000000   Code   RO         4703    .ARM.Collect$$libinit$$00000002  c_p.l(libinit2.o)
    0x08000122   0x00000000   Code   RO         4705    .ARM.Collect$$libinit$$00000004  c_p.l(libinit2.o)
    0x08000122   0x00000000   Code   RO         4708    .ARM.Collect$$libinit$$0000000A  c_p.l(libinit2.o)
    0x08000122   0x00000000   Code   RO         4710    .ARM.Collect$$libinit$$0000000C  c_p.l(libinit2.o)
    0x08000122   0x00000000   Code   RO         4712    .ARM.Collect$$libinit$$0000000E  c_p.l(libinit2.o)
    0x08000122   0x00000000   Code   RO         4715    .ARM.Collect$$libinit$$00000011  c_p.l(libinit2.o)
    0x08000122   0x00000000   Code   RO         4717    .ARM.Collect$$libinit$$00000013  c_p.l(libinit2.o)
    0x08000122   0x00000000   Code   RO         4719    .ARM.Collect$$libinit$$00000015  c_p.l(libinit2.o)
    0x08000122   0x00000000   Code   RO         4721    .ARM.Collect$$libinit$$00000017  c_p.l(libinit2.o)
    0x08000122   0x00000000   Code   RO         4723    .ARM.Collect$$libinit$$00000019  c_p.l(libinit2.o)
    0x08000122   0x00000000   Code   RO         4725    .ARM.Collect$$libinit$$0000001B  c_p.l(libinit2.o)
    0x08000122   0x00000000   Code   RO         4727    .ARM.Collect$$libinit$$0000001D  c_p.l(libinit2.o)
    0x08000122   0x00000000   Code   RO         4729    .ARM.Collect$$libinit$$0000001F  c_p.l(libinit2.o)
    0x08000122   0x00000000   Code   RO         4731    .ARM.Collect$$libinit$$00000021  c_p.l(libinit2.o)
    0x08000122   0x00000000   Code   RO         4733    .ARM.Collect$$libinit$$00000023  c_p.l(libinit2.o)
    0x08000122   0x00000000   Code   RO         4735    .ARM.Collect$$libinit$$00000025  c_p.l(libinit2.o)
    0x08000122   0x00000000   Code   RO         4739    .ARM.Collect$$libinit$$0000002C  c_p.l(libinit2.o)
    0x08000122   0x00000000   Code   RO         4741    .ARM.Collect$$libinit$$0000002E  c_p.l(libinit2.o)
    0x08000122   0x00000000   Code   RO         4743    .ARM.Collect$$libinit$$00000030  c_p.l(libinit2.o)
    0x08000122   0x00000000   Code   RO         4745    .ARM.Collect$$libinit$$00000032  c_p.l(libinit2.o)
    0x08000122   0x00000002   Code   RO         4746    .ARM.Collect$$libinit$$00000033  c_p.l(libinit2.o)
    0x08000124   0x00000002   Code   RO         4777    .ARM.Collect$$libshutdown$$00000000  c_p.l(libshutdown.o)
    0x08000126   0x00000000   Code   RO         4803    .ARM.Collect$$libshutdown$$00000002  c_p.l(libshutdown2.o)
    0x08000126   0x00000000   Code   RO         4805    .ARM.Collect$$libshutdown$$00000004  c_p.l(libshutdown2.o)
    0x08000126   0x00000000   Code   RO         4808    .ARM.Collect$$libshutdown$$00000007  c_p.l(libshutdown2.o)
    0x08000126   0x00000000   Code   RO         4811    .ARM.Collect$$libshutdown$$0000000A  c_p.l(libshutdown2.o)
    0x08000126   0x00000000   Code   RO         4813    .ARM.Collect$$libshutdown$$0000000C  c_p.l(libshutdown2.o)
    0x08000126   0x00000000   Code   RO         4816    .ARM.Collect$$libshutdown$$0000000F  c_p.l(libshutdown2.o)
    0x08000126   0x00000002   Code   RO         4817    .ARM.Collect$$libshutdown$$00000010  c_p.l(libshutdown2.o)
    0x08000128   0x00000000   Code   RO         4640    .ARM.Collect$$rtentry$$00000000  c_p.l(__rtentry.o)
    0x08000128   0x00000000   Code   RO         4653    .ARM.Collect$$rtentry$$00000002  c_p.l(__rtentry2.o)
    0x08000128   0x00000006   Code   RO         4665    .ARM.Collect$$rtentry$$00000004  c_p.l(__rtentry4.o)
    0x0800012e   0x00000000   Code   RO         4655    .ARM.Collect$$rtentry$$00000009  c_p.l(__rtentry2.o)
    0x0800012e   0x00000004   Code   RO         4656    .ARM.Collect$$rtentry$$0000000A  c_p.l(__rtentry2.o)
    0x08000132   0x00000000   Code   RO         4658    .ARM.Collect$$rtentry$$0000000C  c_p.l(__rtentry2.o)
    0x08000132   0x00000008   Code   RO         4659    .ARM.Collect$$rtentry$$0000000D  c_p.l(__rtentry2.o)
    0x0800013a   0x00000002   Code   RO         4694    .ARM.Collect$$rtexit$$00000000  c_p.l(rtexit.o)
    0x0800013c   0x00000000   Code   RO         4750    .ARM.Collect$$rtexit$$00000002  c_p.l(rtexit2.o)
    0x0800013c   0x00000004   Code   RO         4751    .ARM.Collect$$rtexit$$00000003  c_p.l(rtexit2.o)
    0x08000140   0x00000006   Code   RO         4752    .ARM.Collect$$rtexit$$00000004  c_p.l(rtexit2.o)
    0x08000146   0x00000002   PAD
    0x08000148   0x00000038   Code   RO            4    .text               startup_stm32g031xx.o
    0x08000180   0x00000030   Code   RO         4611    .text               c_p.l(llmul.o)
    0x080001b0   0x00000102   Code   RO         4613    .text               c_p.l(lludiv.o)
    0x080002b2   0x00000040   Code   RO         4615    .text               c_p.l(rt_memclr.o)
    0x080002f2   0x0000015a   Code   RO         4617    .text               c_p.l(aeabi_sdiv.o)
    0x0800044c   0x00000006   Code   RO         4621    .text               c_p.l(heapauxi.o)
    0x08000452   0x00000002   PAD
    0x08000454   0x00000358   Code   RO         4625    .text               fz_ps.l(daddsub.o)
    0x080007ac   0x00000448   Code   RO         4627    .text               fz_ps.l(ddiv.o)
    0x08000bf4   0x00000048   Code   RO         4630    .text               fz_ps.l(dfixui.o)
    0x08000c3c   0x00000058   Code   RO         4632    .text               fz_ps.l(dflti.o)
    0x08000c94   0x00000248   Code   RO         4636    .text               fz_ps.l(dmul.o)
    0x08000edc   0x00000090   Code   RO         4649    .text               fz_ps.l(dcmpin.o)
    0x08000f6c   0x0000002e   Code   RO         4669    .text               fz_ps.l(cmpret.o)
    0x08000f9a   0x00000002   PAD
    0x08000f9c   0x00000014   Code   RO         4671    .text               fz_ps.l(dnan2.o)
    0x08000fb0   0x0000003e   Code   RO         4673    .text               c_p.l(sys_stackheap_outer.o)
    0x08000fee   0x00000010   Code   RO         4676    .text               c_p.l(exit.o)
    0x08000ffe   0x0000005e   Code   RO         4688    .text               fz_ps.l(retnan.o)
    0x0800105c   0x00000008   Code   RO         4690    .text               c_p.l(libspace.o)
    0x08001064   0x0000000c   Code   RO         4747    .text               c_p.l(sys_exit.o)
    0x08001070   0x00000002   Code   RO         4766    .text               c_p.l(use_no_semi.o)
    0x08001072   0x00000000   Code   RO         4768    .text               c_p.l(indicate_semi.o)
    0x08001072   0x00000056   Code   RO         4820    .text               c_p.l(__dczerorl2.o)
    0x080010c8   0x00000090   Code   RO         1015    i.ADC_DMAConvCplt   stm32g0xx_hal_adc.o
    0x08001158   0x0000001e   Code   RO         1016    i.ADC_DMAError      stm32g0xx_hal_adc.o
    0x08001176   0x0000000e   Code   RO         1017    i.ADC_DMAHalfConvCplt  stm32g0xx_hal_adc.o
    0x08001184   0x000000c0   Code   RO          349    i.ADC_Data_Process  adc_user.o
    0x08001244   0x000000d8   Code   RO         1019    i.ADC_Enable        stm32g0xx_hal_adc.o
    0x0800131c   0x0000007c   Code   RO          290    i.BDC_555_Control   bdc_555_driver.o
    0x08001398   0x00000028   Code   RO          291    i.BDC_555_DIR_Set   bdc_555_driver.o
    0x080013c0   0x00000018   Code   RO          292    i.BDC_555_Driver_Init  bdc_555_driver.o
    0x080013d8   0x00000174   Code   RO          990    i.BDC_555_PID_Torque  torque_pid_control.o
    0x0800154c   0x0000000c   Code   RO          294    i.BDC_555_Power_Set  bdc_555_driver.o
    0x08001558   0x00000008   Code   RO          405    i.Comm_Read_Process  comm_s2m.o
    0x08001560   0x00000030   Code   RO          406    i.Comm_S2M_Send     comm_s2m.o
    0x08001590   0x00000018   Code   RO          407    i.Comm_S2O_Send     comm_s2m.o
    0x080015a8   0x00000014   Code   RO          408    i.Comm_Send_Process  comm_s2m.o
    0x080015bc   0x0000002c   Code   RO          409    i.Comm_Slave2Master_Init  comm_s2m.o
    0x080015e8   0x00000020   Code   RO          410    i.Comm_Slave2Master_RecData_CRC16  comm_s2m.o
    0x08001608   0x00000034   Code   RO          411    i.Comm_Slave2Other_Init  comm_s2m.o
    0x0800163c   0x0000006c   Code   RO          515    i.Cyclical_Request  cyc_req.o
    0x080016a8   0x00000014   Code   RO          516    i.Cyclical_Timing_Func  cyc_req.o
    0x080016bc   0x00000034   Code   RO         1815    i.DMA_CalcDMAMUXChannelBaseAndMask  stm32g0xx_hal_dma.o
    0x080016f0   0x00000028   Code   RO         1816    i.DMA_CalcDMAMUXRequestGenBaseAndMask  stm32g0xx_hal_dma.o
    0x08001718   0x0000004c   Code   RO         1817    i.DMA_SetConfig     stm32g0xx_hal_dma.o
    0x08001764   0x00000020   Code   RO          239    i.Encoder_Delay     encoder_drive.o
    0x08001784   0x00000006   Code   RO          623    i.Error_Handler     main.o
    0x0800178a   0x00000002   PAD
    0x0800178c   0x00000020   Code   RO           12    i.Flash_Delay       flash_drive.o
    0x080017ac   0x00000078   Code   RO          350    i.Force_Value_Filter_10_Func  adc_user.o
    0x08001824   0x0000000c   Code   RO          412    i.Get_S2M_Send_Flag  comm_s2m.o
    0x08001830   0x0000000c   Code   RO          351    i.Get_Torque        adc_user.o
    0x0800183c   0x00000364   Code   RO         1021    i.HAL_ADC_ConfigChannel  stm32g0xx_hal_adc.o
    0x08001ba0   0x00000002   Code   RO         1022    i.HAL_ADC_ConvCpltCallback  stm32g0xx_hal_adc.o
    0x08001ba2   0x00000002   Code   RO         1023    i.HAL_ADC_ConvHalfCpltCallback  stm32g0xx_hal_adc.o
    0x08001ba4   0x00000002   Code   RO         1025    i.HAL_ADC_ErrorCallback  stm32g0xx_hal_adc.o
    0x08001ba6   0x00000002   PAD
    0x08001ba8   0x00000298   Code   RO         1030    i.HAL_ADC_Init      stm32g0xx_hal_adc.o
    0x08001e40   0x000000bc   Code   RO          699    i.HAL_ADC_MspInit   adc.o
    0x08001efc   0x000000cc   Code   RO         1037    i.HAL_ADC_Start_DMA  stm32g0xx_hal_adc.o
    0x08001fc8   0x000000c0   Code   RO         1824    i.HAL_DMA_Init      stm32g0xx_hal_dma.o
    0x08002088   0x000000cc   Code   RO         1828    i.HAL_DMA_Start_IT  stm32g0xx_hal_dma.o
    0x08002154   0x0000002c   Code   RO         2354    i.HAL_Delay         stm32g0xx_hal.o
    0x08002180   0x000001d8   Code   RO         1749    i.HAL_GPIO_Init     stm32g0xx_hal_gpio.o
    0x08002358   0x00000014   Code   RO         1752    i.HAL_GPIO_TogglePin  stm32g0xx_hal_gpio.o
    0x0800236c   0x0000000c   Code   RO         1753    i.HAL_GPIO_WritePin  stm32g0xx_hal_gpio.o
    0x08002378   0x0000000c   Code   RO         2358    i.HAL_GetTick       stm32g0xx_hal.o
    0x08002384   0x00000018   Code   RO         2364    i.HAL_IncTick       stm32g0xx_hal.o
    0x0800239c   0x0000002c   Code   RO         2365    i.HAL_Init          stm32g0xx_hal.o
    0x080023c8   0x00000060   Code   RO         2366    i.HAL_InitTick      stm32g0xx_hal.o
    0x08002428   0x00000044   Code   RO          968    i.HAL_MspInit       stm32g0xx_hal_msp.o
    0x0800246c   0x00000024   Code   RO         2240    i.HAL_NVIC_EnableIRQ  stm32g0xx_hal_cortex.o
    0x08002490   0x00000012   Code   RO         2244    i.HAL_NVIC_SetPriority  stm32g0xx_hal_cortex.o
    0x080024a2   0x00000002   PAD
    0x080024a4   0x00000058   Code   RO         2058    i.HAL_PWREx_ControlVoltageScaling  stm32g0xx_hal_pwr_ex.o
    0x080024fc   0x00000280   Code   RO         1452    i.HAL_RCCEx_PeriphCLKConfig  stm32g0xx_hal_rcc_ex.o
    0x0800277c   0x000001d4   Code   RO         1334    i.HAL_RCC_ClockConfig  stm32g0xx_hal_rcc.o
    0x08002950   0x0000000c   Code   RO         1340    i.HAL_RCC_GetHCLKFreq  stm32g0xx_hal_rcc.o
    0x0800295c   0x00000028   Code   RO         1342    i.HAL_RCC_GetPCLK1Freq  stm32g0xx_hal_rcc.o
    0x08002984   0x000000e4   Code   RO         1344    i.HAL_RCC_GetSysClockFreq  stm32g0xx_hal_rcc.o
    0x08002a68   0x000005bc   Code   RO         1348    i.HAL_RCC_OscConfig  stm32g0xx_hal_rcc.o
    0x08003024   0x0000010c   Code   RO         2655    i.HAL_SPI_Init      stm32g0xx_hal_spi.o
    0x08003130   0x0000013c   Code   RO          760    i.HAL_SPI_MspInit   spi.o
    0x0800326c   0x0000026a   Code   RO         2664    i.HAL_SPI_TransmitReceive  stm32g0xx_hal_spi.o
    0x080034d6   0x00000002   PAD
    0x080034d8   0x00000038   Code   RO         2248    i.HAL_SYSTICK_Config  stm32g0xx_hal_cortex.o
    0x08003510   0x00000002   Code   RO         3716    i.HAL_TIMEx_Break2Callback  stm32g0xx_hal_tim_ex.o
    0x08003512   0x00000002   Code   RO         3717    i.HAL_TIMEx_BreakCallback  stm32g0xx_hal_tim_ex.o
    0x08003514   0x00000002   Code   RO         3718    i.HAL_TIMEx_CommutCallback  stm32g0xx_hal_tim_ex.o
    0x08003516   0x00000002   PAD
    0x08003518   0x00000098   Code   RO         3739    i.HAL_TIMEx_MasterConfigSynchronization  stm32g0xx_hal_tim_ex.o
    0x080035b0   0x0000006c   Code   RO         2993    i.HAL_TIM_Base_Init  stm32g0xx_hal_tim.o
    0x0800361c   0x00000044   Code   RO          805    i.HAL_TIM_Base_MspInit  tim.o
    0x08003660   0x00000078   Code   RO         2998    i.HAL_TIM_Base_Start_IT  stm32g0xx_hal_tim.o
    0x080036d8   0x00000002   Code   RO         3027    i.HAL_TIM_IC_CaptureCallback  stm32g0xx_hal_tim.o
    0x080036da   0x00000002   PAD
    0x080036dc   0x000001f8   Code   RO         3041    i.HAL_TIM_IRQHandler  stm32g0xx_hal_tim.o
    0x080038d4   0x0000005c   Code   RO          806    i.HAL_TIM_MspPostInit  tim.o
    0x08003930   0x00000002   Code   RO         3044    i.HAL_TIM_OC_DelayElapsedCallback  stm32g0xx_hal_tim.o
    0x08003932   0x0000017a   Code   RO         3065    i.HAL_TIM_PWM_ConfigChannel  stm32g0xx_hal_tim.o
    0x08003aac   0x0000006c   Code   RO         3068    i.HAL_TIM_PWM_Init  stm32g0xx_hal_tim.o
    0x08003b18   0x00000030   Code   RO          808    i.HAL_TIM_PWM_MspInit  tim.o
    0x08003b48   0x00000002   Code   RO         3071    i.HAL_TIM_PWM_PulseFinishedCallback  stm32g0xx_hal_tim.o
    0x08003b4a   0x00000002   PAD
    0x08003b4c   0x00000120   Code   RO         3073    i.HAL_TIM_PWM_Start  stm32g0xx_hal_tim.o
    0x08003c6c   0x00000024   Code   RO          624    i.HAL_TIM_PeriodElapsedCallback  main.o
    0x08003c90   0x00000002   Code   RO         3084    i.HAL_TIM_TriggerCallback  stm32g0xx_hal_tim.o
    0x08003c92   0x00000054   Code   RO         4448    i.HAL_UARTEx_DisableFifoMode  stm32g0xx_hal_uart_ex.o
    0x08003ce6   0x00000002   Code   RO         4026    i.HAL_UARTEx_RxEventCallback  stm32g0xx_hal_uart.o
    0x08003ce8   0x00000060   Code   RO         4457    i.HAL_UARTEx_SetRxFifoThreshold  stm32g0xx_hal_uart_ex.o
    0x08003d48   0x0000005e   Code   RO         4458    i.HAL_UARTEx_SetTxFifoThreshold  stm32g0xx_hal_uart_ex.o
    0x08003da6   0x00000002   Code   RO         4042    i.HAL_UART_ErrorCallback  stm32g0xx_hal_uart.o
    0x08003da8   0x00000082   Code   RO         4046    i.HAL_UART_Init     stm32g0xx_hal_uart.o
    0x08003e2a   0x00000002   PAD
    0x08003e2c   0x00000194   Code   RO          868    i.HAL_UART_MspInit  usart.o
    0x08003fc0   0x00000088   Code   RO         4050    i.HAL_UART_Receive_DMA  stm32g0xx_hal_uart.o
    0x08004048   0x00000002   Code   RO         4053    i.HAL_UART_RxCpltCallback  stm32g0xx_hal_uart.o
    0x0800404a   0x00000002   Code   RO         4054    i.HAL_UART_RxHalfCpltCallback  stm32g0xx_hal_uart.o
    0x0800404c   0x000000e6   Code   RO         4055    i.HAL_UART_Transmit  stm32g0xx_hal_uart.o
    0x08004132   0x00000004   Code   RO          912    i.HardFault_Handler  stm32g0xx_it.o
    0x08004136   0x00000002   PAD
    0x08004138   0x00000018   Code   RO          352    i.Init_ADC          adc_user.o
    0x08004150   0x00000010   Code   RO         1042    i.LL_ADC_Disable    stm32g0xx_hal_adc.o
    0x08004160   0x00000010   Code   RO         1043    i.LL_ADC_Enable     stm32g0xx_hal_adc.o
    0x08004170   0x0000000c   Code   RO         1044    i.LL_ADC_GetCommonPathInternalCh  stm32g0xx_hal_adc.o
    0x0800417c   0x00000010   Code   RO         1046    i.LL_ADC_IsEnabled  stm32g0xx_hal_adc.o
    0x0800418c   0x0000000e   Code   RO         1047    i.LL_ADC_IsInternalRegulatorEnabled  stm32g0xx_hal_adc.o
    0x0800419a   0x0000000c   Code   RO         1048    i.LL_ADC_REG_IsConversionOngoing  stm32g0xx_hal_adc.o
    0x080041a6   0x00000016   Code   RO         1049    i.LL_ADC_REG_IsTriggerSourceSWStart  stm32g0xx_hal_adc.o
    0x080041bc   0x00000010   Code   RO         1050    i.LL_ADC_REG_StartConversion  stm32g0xx_hal_adc.o
    0x080041cc   0x0000000e   Code   RO         1052    i.LL_ADC_SetCommonPathInternalCh  stm32g0xx_hal_adc.o
    0x080041da   0x0000001e   Code   RO         1053    i.LL_ADC_SetSamplingTimeCommonChannels  stm32g0xx_hal_adc.o
    0x080041f8   0x000000c8   Code   RO          700    i.MX_ADC1_Init      adc.o
    0x080042c0   0x00000024   Code   RO          737    i.MX_DMA_Init       dma.o
    0x080042e4   0x00000124   Code   RO          676    i.MX_GPIO_Init      gpio.o
    0x08004408   0x00000054   Code   RO          761    i.MX_SPI1_Init      spi.o
    0x0800445c   0x00000058   Code   RO          762    i.MX_SPI2_Init      spi.o
    0x080044b4   0x00000034   Code   RO          809    i.MX_TIM14_Init     tim.o
    0x080044e8   0x00000084   Code   RO          810    i.MX_TIM2_Init      tim.o
    0x0800456c   0x00000074   Code   RO          869    i.MX_USART1_UART_Init  usart.o
    0x080045e0   0x00000048   Code   RO          870    i.MX_USART2_UART_Init  usart.o
    0x08004628   0x00000034   Code   RO          413    i.Message_Rec       comm_s2m.o
    0x0800465c   0x00000040   Code   RO          414    i.Message_Send      comm_s2m.o
    0x0800469c   0x00000004   Code   RO          913    i.NMI_Handler       stm32g0xx_it.o
    0x080046a0   0x00000002   Code   RO          914    i.PendSV_Handler    stm32g0xx_it.o
    0x080046a2   0x00000002   PAD
    0x080046a4   0x0000000c   Code   RO          415    i.Reset_S2M_Send_Flag  comm_s2m.o
    0x080046b0   0x00000154   Code   RO          241    i.SPI_Encoder_Read_Data  encoder_drive.o
    0x08004804   0x00000024   Code   RO          242    i.SPI_Encoder_SendByte  encoder_drive.o
    0x08004828   0x0000006a   Code   RO         2693    i.SPI_EndRxTxTransaction  stm32g0xx_hal_spi.o
    0x08004892   0x00000002   PAD
    0x08004894   0x0000001c   Code   RO           13    i.SPI_Flash_Init    flash_drive.o
    0x080048b0   0x00000064   Code   RO           15    i.SPI_Flash_Read_Data  flash_drive.o
    0x08004914   0x00000048   Code   RO           16    i.SPI_Flash_Read_ID  flash_drive.o
    0x0800495c   0x00000024   Code   RO           19    i.SPI_Flash_SendByte  flash_drive.o
    0x08004980   0x000000fc   Code   RO         2698    i.SPI_WaitFifoStateUntilTimeout  stm32g0xx_hal_spi.o
    0x08004a7c   0x000000dc   Code   RO         2699    i.SPI_WaitFlagStateUntilTimeout  stm32g0xx_hal_spi.o
    0x08004b58   0x00000002   Code   RO          915    i.SVC_Handler       stm32g0xx_it.o
    0x08004b5a   0x00000002   PAD
    0x08004b5c   0x0000000c   Code   RO          416    i.Set_S2M_Send_Flag  comm_s2m.o
    0x08004b68   0x00000008   Code   RO          916    i.SysTick_Handler   stm32g0xx_it.o
    0x08004b70   0x00000074   Code   RO          625    i.SystemClock_Config  main.o
    0x08004be4   0x00000002   Code   RO         4579    i.SystemInit        system_stm32g0xx.o
    0x08004be6   0x00000002   PAD
    0x08004be8   0x00000010   Code   RO          917    i.TIM14_IRQHandler  stm32g0xx_it.o
    0x08004bf8   0x000000a0   Code   RO         3086    i.TIM_Base_SetConfig  stm32g0xx_hal_tim.o
    0x08004c98   0x00000022   Code   RO         3087    i.TIM_CCxChannelCmd  stm32g0xx_hal_tim.o
    0x08004cba   0x00000002   PAD
    0x08004cbc   0x0000009c   Code   RO         3099    i.TIM_OC1_SetConfig  stm32g0xx_hal_tim.o
    0x08004d58   0x000000ac   Code   RO         3100    i.TIM_OC2_SetConfig  stm32g0xx_hal_tim.o
    0x08004e04   0x000000a8   Code   RO         3101    i.TIM_OC3_SetConfig  stm32g0xx_hal_tim.o
    0x08004eac   0x00000074   Code   RO         3102    i.TIM_OC4_SetConfig  stm32g0xx_hal_tim.o
    0x08004f20   0x00000068   Code   RO         3103    i.TIM_OC5_SetConfig  stm32g0xx_hal_tim.o
    0x08004f88   0x00000068   Code   RO         3104    i.TIM_OC6_SetConfig  stm32g0xx_hal_tim.o
    0x08004ff0   0x0000000c   Code   RO          517    i.Task_ADC_Flag_Reset  cyc_req.o
    0x08004ffc   0x00000030   Code   RO          518    i.Task_ADC_Func     cyc_req.o
    0x0800502c   0x0000000c   Code   RO          519    i.Task_Comm_Flag_Reset  cyc_req.o
    0x08005038   0x00000030   Code   RO          520    i.Task_Comm_Func    cyc_req.o
    0x08005068   0x0000000c   Code   RO          521    i.Task_Encoder_Flag_Reset  cyc_req.o
    0x08005074   0x00000030   Code   RO          522    i.Task_Encoder_Func  cyc_req.o
    0x080050a4   0x0000000c   Code   RO          523    i.Task_Exo_Flag_Reset  cyc_req.o
    0x080050b0   0x00000030   Code   RO          524    i.Task_Exo_Func     cyc_req.o
    0x080050e0   0x00000058   Code   RO          353    i.Torque_Transfer   adc_user.o
    0x08005138   0x00000068   Code   RO         4462    i.UARTEx_SetNbDataToProcess  stm32g0xx_hal_uart_ex.o
    0x080051a0   0x000000f0   Code   RO         4060    i.UART_AdvFeatureConfig  stm32g0xx_hal_uart.o
    0x08005290   0x0000007c   Code   RO         4061    i.UART_CheckIdleState  stm32g0xx_hal_uart.o
    0x0800530c   0x0000005a   Code   RO         4063    i.UART_DMAError     stm32g0xx_hal_uart.o
    0x08005366   0x000000cc   Code   RO         4064    i.UART_DMAReceiveCplt  stm32g0xx_hal_uart.o
    0x08005432   0x00000026   Code   RO         4066    i.UART_DMARxHalfCplt  stm32g0xx_hal_uart.o
    0x08005458   0x00000084   Code   RO         4072    i.UART_EndRxTransfer  stm32g0xx_hal_uart.o
    0x080054dc   0x00000052   Code   RO         4074    i.UART_EndTxTransfer  stm32g0xx_hal_uart.o
    0x0800552e   0x00000002   PAD
    0x08005530   0x00000310   Code   RO         4079    i.UART_SetConfig    stm32g0xx_hal_uart.o
    0x08005840   0x000000e8   Code   RO         4080    i.UART_Start_Receive_DMA  stm32g0xx_hal_uart.o
    0x08005928   0x00000120   Code   RO         4086    i.UART_WaitOnFlagUntilTimeout  stm32g0xx_hal_uart.o
    0x08005a48   0x00000078   Code   RO         2250    i.__NVIC_SetPriority  stm32g0xx_hal_cortex.o
    0x08005ac0   0x00000006   Code   RO         4087    i.__get_PRIMASK     stm32g0xx_hal_uart.o
    0x08005ac6   0x00000006   Code   RO         4088    i.__set_PRIMASK     stm32g0xx_hal_uart.o
    0x08005acc   0x00000060   Code   RO          417    i.crc16_core        comm_s2m.o
    0x08005b2c   0x00000078   Code   RO          626    i.main              main.o
    0x08005ba4   0x00000064   Code   RO         4634    x$fpl$dleqf         fz_ps.l(dlef.o)
    0x08005c08   0x00000068   Code   RO         4638    x$fpl$drleqf        fz_ps.l(drlef.o)
    0x08005c70   0x00000000   Code   RO         4651    x$fpl$usenofp       fz_ps.l(usenofp.o)
    0x08005c70   0x0000001e   Data   RO         4089    .constdata          stm32g0xx_hal_uart.o
    0x08005c8e   0x00000015   Data   RO         4466    .constdata          stm32g0xx_hal_uart_ex.o
    0x08005ca3   0x00000001   PAD
    0x08005ca4   0x00000068   Data   RO         4580    .constdata          system_stm32g0xx.o
    0x08005d0c   0x00000080   Data   RO         4628    .constdata          fz_ps.l(ddiv.o)
    0x08005d8c   0x00000020   Data   RO         4818    Region$$Table       anon$$obj.o


    Execution Region RW_IRAM1 (Base: 0x20000000, Size: 0x00000ca8, Max: 0x00002000, ABSOLUTE, COMPRESSED[0x00000058])

    Base Addr    Size         Type   Attr      Idx    E Section Name        Object

    0x20000000   0x0000000c   Data   RW           27    .data               flash_drive.o
    0x2000000c   0x00000004   PAD
    0x20000010   0x0000003e   Data   RW          245    .data               encoder_drive.o
    0x2000004e   0x00000002   PAD
    0x20000050   0x00000030   Data   RW          356    .data               adc_user.o
    0x20000080   0x00000030   Data   RW          419    .data               comm_s2m.o
    0x200000b0   0x00000048   Data   RW          530    .data               cyc_req.o
    0x200000f8   0x00000058   Data   RW          629    .data               main.o
    0x20000150   0x00000078   Data   RW          992    .data               torque_pid_control.o
    0x200001c8   0x00000009   Data   RW         2384    .data               stm32g0xx_hal.o
    0x200001d1   0x00000003   PAD
    0x200001d4   0x00000004   Data   RW         4581    .data               system_stm32g0xx.o
    0x200001d8   0x00000060   Zero   RW          354    .bss                adc_user.o
    0x20000238   0x0000000a   Zero   RW          627    .bss                main.o
    0x20000242   0x00000002   PAD
    0x20000244   0x000000c0   Zero   RW          701    .bss                adc.o
    0x20000304   0x000000c8   Zero   RW          763    .bss                spi.o
    0x200003cc   0x00000098   Zero   RW          811    .bss                tim.o
    0x20000464   0x000001e0   Zero   RW          871    .bss                usart.o
    0x20000644   0x00000060   Zero   RW         4691    .bss                c_p.l(libspace.o)
    0x200006a4   0x00000004   PAD
    0x200006a8   0x00000200   Zero   RW            2    HEAP                startup_stm32g031xx.o
    0x200008a8   0x00000400   Zero   RW            1    STACK               startup_stm32g031xx.o


==============================================================================

Image component sizes


      Code (inc. data)   RO Data    RW Data    ZI Data      Debug   Object Name

       388         36          0          0        192       1795   adc.o
       436        110          0         48         96       3180   adc_user.o
       200         18          0          0          0       2398   bdc_555_driver.o
       476         88          0         48          0       7919   comm_s2m.o
       368         86          0         72          0       5639   cyc_req.o
        36          4          0          0          0        698   dma.o
       408         82          0         62          0       2995   encoder_drive.o
       268         36          0         12          0     454393   flash_drive.o
       292         12          0          0          0        943   gpio.o
       278         18          0         88         10       3249   main.o
       488         36          0          0        200       2290   spi.o
        56         26        192          0       1536        632   startup_stm32g031xx.o
       220         38          0          9          0      17717   stm32g0xx_hal.o
      2314        106          0          0          0      45378   stm32g0xx_hal_adc.o
       230         26          0          0          0      12109   stm32g0xx_hal_cortex.o
       564         24          0          0          0       3762   stm32g0xx_hal_dma.o
         0          0          0          0          0       2712   stm32g0xx_hal_flash.o
       504         18          0          0          0       2553   stm32g0xx_hal_gpio.o
        68          4          0          0          0        790   stm32g0xx_hal_msp.o
        88         12          0          0          0        738   stm32g0xx_hal_pwr_ex.o
      2216         96          0          0          0      23297   stm32g0xx_hal_rcc.o
       640         12          0          0          0       1644   stm32g0xx_hal_rcc_ex.o
      1464         12          0          0          0       5637   stm32g0xx_hal_spi.o
      2528        162          0          0          0      12830   stm32g0xx_hal_tim.o
       158         10          0          0          0       2976   stm32g0xx_hal_tim_ex.o
      2730         70         30          0          0      33720   stm32g0xx_hal_uart.o
       378         10         21          0          0       3757   stm32g0xx_hal_uart_ex.o
        36          6          0          0          0       2502   stm32g0xx_it.o
         2          0        104          4          0       1107   system_stm32g0xx.o
       392         44          0          0        152       3209   tim.o
       372         70          0        120          0       1628   torque_pid_control.o
       592         56          0          0        480       2513   usart.o

    ----------------------------------------------------------------------
     19220       1328        380        472       2668     666710   Object Totals
         0          0         32          0          0          0   (incl. Generated)
        30          0          1          9          2          0   (incl. Padding)

    ----------------------------------------------------------------------

      Code (inc. data)   RO Data    RW Data    ZI Data      Debug   Library Member Name

        86          0          0          0          0          0   __dczerorl2.o
         8          0          0          0          0         68   __main.o
         0          0          0          0          0          0   __rtentry.o
        12          0          0          0          0          0   __rtentry2.o
         6          0          0          0          0          0   __rtentry4.o
        60          8          0          0          0          0   __scatter.o
        28          0          0          0          0          0   __scatter_zi.o
       346          0          0          0          0         92   aeabi_sdiv.o
        16          0          0          0          0         68   exit.o
         6          0          0          0          0        136   heapauxi.o
         0          0          0          0          0          0   indicate_semi.o
         2          0          0          0          0          0   libinit.o
         2          0          0          0          0          0   libinit2.o
         2          0          0          0          0          0   libshutdown.o
         2          0          0          0          0          0   libshutdown2.o
         8          4          0          0         96         68   libspace.o
        48          0          0          0          0         72   llmul.o
       258          0          0          0          0         88   lludiv.o
        64          0          0          0          0        108   rt_memclr.o
         2          0          0          0          0          0   rtexit.o
        10          0          0          0          0          0   rtexit2.o
        12          4          0          0          0         60   sys_exit.o
        62          0          0          0          0         80   sys_stackheap_outer.o
         2          0          0          0          0         68   use_no_semi.o
        46          0          0          0          0         60   cmpret.o
       856         20          0          0          0        208   daddsub.o
       144          4          0          0          0         76   dcmpin.o
      1096         26        128          0          0        112   ddiv.o
        72          4          0          0          0         68   dfixui.o
        88          0          0          0          0         92   dflti.o
       100          4          0          0          0         92   dlef.o
       584         26          0          0          0         84   dmul.o
        20          6          0          0          0         68   dnan2.o
       104          4          0          0          0        104   drlef.o
        94          0          0          0          0         68   retnan.o
         0          0          0          0          0          0   usenofp.o

    ----------------------------------------------------------------------
      4252        110        128          0        100       1940   Library Totals
         6          0          0          0          4          0   (incl. Padding)

    ----------------------------------------------------------------------

      Code (inc. data)   RO Data    RW Data    ZI Data      Debug   Library Name

      1042         16          0          0         96        908   c_p.l
      3204         94        128          0          0       1032   fz_ps.l

    ----------------------------------------------------------------------
      4252        110        128          0        100       1940   Library Totals

    ----------------------------------------------------------------------

==============================================================================


      Code (inc. data)   RO Data    RW Data    ZI Data      Debug   

     23472       1438        508        472       2768     660970   Grand Totals
     23472       1438        508         88       2768     660970   ELF Image Totals (compressed)
     23472       1438        508         88          0          0   ROM Totals

==============================================================================

    Total RO  Size (Code + RO Data)                23980 (  23.42kB)
    Total RW  Size (RW Data + ZI Data)              3240 (   3.16kB)
    Total ROM Size (Code + RO Data + RW Data)      24068 (  23.50kB)

==============================================================================

