:020000040800F2
:10000000A80C0020490100089D4600083341000863
:1000100000000000000000000000000000000000E0
:10002000000000000000000000000000594B000824
:100030000000000000000000A1460008694B000815
:100040005B0100085B0100085B0100085B01000820
:100050005B0100085B0100085B0100085B01000810
:10006000000000005B0100085B0100085B01000864
:100070005B0100085B0100085B0100085B010008F0
:100080005B0100085B0100085B010008E94B000808
:10009000000000005B0100085B0100085B01000834
:1000A0005B0100085B0100085B0100085B010008C0
:1000B0005B0100085B010008000000000000000078
:1000C00000F002F800F030F80CA030C8083824180E
:1000D0002D18A246671EAB4654465D46AC4201D180
:1000E00000F022F87E460F3E0FCCB6460126334282
:1000F00000D0FB1AA246AB4633431847905C000081
:10010000B05C00000023002400250026103A01D333
:1001100078C1FBD8520700D330C100D50B607047BF
:100120001FB51FBD10B510BD00F042FF1146FFF70F
:10013000F7FF05F0FBFC00F05AFF03B4FFF7F2FFF6
:1001400003BC00F08FFF00000748804707480047C6
:10015000FEE7FEE7FEE7FEE7FEE7FEE704480549A7
:10016000054A064B70470000E54B0008C100000837
:10017000A8060020A80C0020A8080020A80800203D
:100180004343514330B55C18010C130C0D4692B239
:100190005D4380B251432C19054655430A0C0904AE
:1001A0004D1962415843010C00044019514130BDC2
:1001B000FEB5054610460C46184373D0AE468C4635
:1001C0000020AD1A01469C4167D3664600270124F2
:1001D0003D46B61A9D4102D313463A462124654650
:1001E00076462F04360C3E432D0CB61A9D4104D39F
:1001F000150C1B042B4312041034654676462F065B
:10020000360A3E432D0AB61A9D4104D3150E1B0231
:100210002B4312020834654676462F0736093E43C3
:100220002D09B61A9D4104D3150F1B012B43120152
:10023000241D65467646AF07B6083E43AD08B61A9C
:100240009D4104D3950F9B002B439200A41C65464F
:100250007646EF0776083E436D08B61A9D411AD3DD
:1002600092185B41641C16E00018764665464941C9
:10027000B71A9D410191009009D36046B11A984187
:100280008E468446009801990025401C6941DD078F
:1002900052082A435B08641EE6D57246634603B0E3
:1002A000F0BDFFE700200146C046C0462A4623466F
:1002B000F5E701E004C0091F0429FBD28B0701D533
:1002C0000280801CC90700D00270704700290BD043
:1002D000C30702D00270401C491E022904D38307C1
:1002E00002D50280801C891EE3E70022EEE700228F
:1002F000DFE7002203098B422CD3030A8B4211D380
:1003000000239C464EE003460B433CD400224308A6
:100310008B4231D303098B421CD3030A8B4201D396
:1003200094463FE0C3098B4201D3CB01C01A52412E
:1003300083098B4201D38B01C01A524143098B427E
:1003400001D34B01C01A524103098B4201D30B0167
:10035000C01A5241C3088B4201D3CB00C01A52418C
:1003600083088B4201D38B00C01A524143088B4251
:1003700001D34B00C01A5241411A00D201465241EA
:10038000104670475DE0CA0F00D04942031000D309
:100390004042534000229C4603098B422DD3030A5E
:1003A0008B4212D3FC22890112BA030A8B420CD36E
:1003B000890192118B4208D3890192118B4204D397
:1003C00089013AD0921100E08909C3098B4201D317
:1003D000CB01C01A524183098B4201D38B01C01A51
:1003E000524143098B4201D34B01C01A52410309C8
:1003F0008B4201D30B01C01A5241C3088B4201D377
:10040000CB00C01A524183088B4201D38B00C01A23
:100410005241D9D243088B4201D34B00C01A5241FA
:10042000411A00D20146634652415B10104601D387
:100430004042002B00D54942704763465B1000D311
:10044000404201B50020C046C04602BD704770471B
:1004500070470000F0B50C46871A9C410D46861A7D
:100460009D4103D2C01BA141D21963410D0D1F0D47
:10047000C94EEC1BAE435CD07F057F0D0026002FDC
:1004800051D02D05AC46A943DD020123ED0A1B0521
:100490001D4320231B1B24D41746E7403818714105
:1004A0002F46E740CC199D402818314661410C0D7C
:1004B00027D161449A4013D50023401C5941520072
:1004C0000ED14008400001224B005205D34207D311
:1004D00005204007C14201D5B04900E0B04930468F
:1004E000F0BD6B00002A00D001229A181F23203C87
:1004F0001B1B01D5002302E0E540281871410C0DBB
:10050000D7D0012424050919C407CD07400849089C
:10051000E40F28436144002CD5D00024401C6141E5
:100520009A40D0D1CDE76A05520DD9D1C90FC9077C
:10053000D5E79C4D4E00002801D0012400E00024A6
:1005400034195F00002A01D0012600E00026BE1900
:10055000954FAC420CD8AE420AD8B44206D0012521
:100560006D05EC42BCD010461946F0BD9942FCD056
:1005700000203946F0BDF0B51FB40C460F46811A75
:100580009F412546861A9D4106D20125ED076F4001
:10059000401ABC4152187B41210D1E0D8D1BAC46EB
:1005A0007D4D8D437ED075056D0D7CD00D05AE461D
:1005B000AC431B031B0B794D52429D4120236646E1
:1005C0009B1B14D31746F74038180026009074413F
:1005D00060462F460741E41900989D40281866415F
:1005E00016D4714671189A4025D5012320E093183E
:1005F0002A466A415200002B00D0521C1E23203E86
:100600009B1B002B61DD3541EE1728186641E8D5AC
:10061000001876415B1C9A4000D3401C4B05F31830
:100620001524E34010D3002B52D071467118D30F1C
:10063000C01802D3491C05B0F0BD0123DB079A4264
:10064000F9D140084000F6E701225205B21801D165
:10065000002853D00123CC0ADB029943891E002ACB
:1006600008D1020C03D0020C0004103902E002464B
:10067000002020390023550B05D112020823550B09
:1006800001D152010D23550C01D112011B1DD50CB6
:1006900001D192009B1C150D01D152005B1C20253D
:1006A000EE1A01E02CE022E00546F54015439840A3
:1006B000CA1AE10769181305C918002ABBDA032012
:1006C00040070818C10FC9070FE071466118B2E76B
:1006D000F10740080843711071444A000CD001230F
:1006E0005B059A42A7D2C90FC9070020A3E74905B5
:1006F000490D26D1002001E00028F4D100219AE71D
:10070000284D6600002801D0012100E00021711869
:100710005F00002A01D0012600E00026BE19224F0A
:10072000A94210D8AE420ED8B14208D001256D05BD
:10073000E94206D01946A802414010467BE79C4298
:1007400001D0214677E70020394674E710B50C4602
:100750005C4005D50124E4076340FFF70CFF10BDA2
:10076000FFF778FE10BD30B40C465C4004D5012480
:10077000E407634030BC6DE630BCFCE670B5012494
:10078000E40761400D465D4002D4FFF763FE70BD93
:100790006340FFF7F0FE70BDFF0700000000F0FFB0
:1007A0000000F07F0000E0FF0000F87FF0B5F94D99
:1007B0000C091E092C402E402F468BB0A7437DD03C
:1007C000B543FCD0002E7AD0002CFCD00D465D4005
:1007D000ED0F2543AC1BFF25AD0464190894C50239
:1007E000440DC9022143500DDC0204430120C0071F
:1007F00001430443D2020191200C110C00958C4658
:10080000010423468B430A9161460904E24D8A4361
:100810000991010A7D4449198039097805464D43FB
:1008200001266D18F605751B6943C90C640B891CFC
:100830004C436418B5012C1B250C2E04B4434C43C7
:100840004D43210C691889090591009DE90701D0E4
:100850000121C90704912C4601996708CD072F4350
:100860004C08059DE10B4D432D0C2946664675430A
:1008700002950D4645432E46029D7D1BB4410095D1
:100880000D465D4301942C0C2F040D465543AE4696
:100890002D0C3D43029503947546049C2D04641B66
:1008A000049406D2029C039D641C002675410395A6
:1008B000029401AC70CC009F7D1B01E03EE162E13F
:1008C000B44109040095079101940599A408614376
:1008D000090C0C464443650BE7040C46664674431A
:1008E000A646640B3C43039502947446049DE404BD
:1008F0002C1B049406D2029C039D641C00267541A7
:100900000395029401AC70CC009F7D1BB44101940F
:100910000C465C430095650FE7000C465443A64621
:10092000640F3C43039502947446049DE4002C1B21
:10093000049406D2029C039D641C00267541039515
:10094000029401AC70CC009F7D1BB441AE09AF0690
:10095000049DC900AD092F43049DA406AD0604956E
:10096000079D344369180791059DE10B4D432D0CFC
:1009700029466646754302950D4645432E46029D1F
:100980007D1BB44100950D465D4301942C0C2F0452
:100990000D465543AE462D0C3D43029503947546D6
:1009A000049C2D04641B049406D2029C039D641CC9
:1009B000002675410395029401AC70CC009F7D1B0D
:1009C000B44101948C050694079C890A611800952E
:1009D0000791019C0599A4086143090C0D46454304
:1009E000680BEF040D46644665436C0B3C43049F63
:1009F000ED047D1BAC4602D20025641C6841009EBC
:100A0000019D371B85410846584301950C46460F0A
:100A1000C5005443600F28436546E4002C1B02D2F6
:100A20000025401C6E41019D3F1AB5412846BD0975
:100A3000800628438446A009BF064E020699A406F4
:100A400076180743079D002068410A9907901943CB
:100A50000020099B00906046FF1913434041E20FBC
:100A600064003A43A4460446D71A8C41A04203D9F5
:100A70000120009020463A46C70F94184041624634
:100A8000D20F2243644664000494009CBE46640076
:100A9000D71AA446044602978C417746002F01D10D
:100AA000A04204D96046401C8446029A2046C40FE6
:100AB000A64694184041049A0546D20F2243644644
:100AC0006400D31A8D417146002901D1A84202D990
:100AD00028461A46641C10430122002800D0164301
:100AE00061020020079B891904465C410223002C07
:100AF00002DB491813466441089DCE0A2D145D1986
:100B00004B056705E10A2C050D1908993E43C907F5
:100B10006940002B08D0934006D30022761C514137
:100B2000002B01D1760876001C4A002D43DB1542CC
:100B300041D0AA433FD030460BB0F0BD06180D4659
:100B40004D41174C7642AC411AD395181C465C4176
:100B5000134A6D42A24113D3012252054C00D442E4
:100B60000AD15C00D4420BD04B4002D59202114313
:100B7000E2E749004908DFE75940C90FC90718E013
:100B800000200849D8E7054801420DD10342F7D0BB
:100B9000F2E700000000FF07F45400000000F07FBF
:100BA0000000E0FF0000F87F114859400143C012E7
:100BB00041400020C0E70123089A9B069A4205DCC9
:100BC000032252078918C90FC907B5E70522520742
:100BD0008918074A1143D2125140ADE770B5154646
:100BE0001C4602460B4628462146FFF7DFFD70BD36
:100BF000FFFFFF7F0346CA02400D10B510430A15E0
:100C000004D00124E4072043002A05DB0A4CA21A81
:100C100004D4D040FF2A00DD002010BD4A00002B84
:100C200001D0012000E00020101801225205D0421E
:100C3000F2D8C817C04310BD1E0400001F22030CC9
:100C400002D10F22000402D0030E03D004E00020E2
:100C5000014670470002083A030F01D10001121F3C
:100C6000830F01D18000921E002801DB4000521E3C
:100C7000120551184205C012411810467047C10FA5
:100C8000C90700D04042012292071143D6E7012153
:100C90008907D3E7F0B58B4C0F09254689B0BD43D2
:100CA0007BD01D092646AE43FAD00E465E40274053
:100CB000F60F3E43254071D024012142FBD0FF2492
:100CC000AD19A4042D1B039501252D05DB02DB0ABC
:100CD000C9022B43C90A29431E010901040F130F3E
:100CE000050121431701880B820391432D098C468E
:100CF000A90B1E438A039543B30B9A0396433F09FE
:100D0000BA0B9403A74302962E467E430497B64639
:100D10004E19D7190C460196544305977E43371B4D
:100D20007646BF1B3601B646BE0B36190096764690
:100D3000BC043719009C01D3641C00946400002F8C
:100D400001D001263443029E049F754366467E43CC
:100D50000496760034196E0034190094029C019EAA
:100D60001C196643751BAE46069465464519059CDD
:100D700005956C43594375460891691A0191049E83
:100D800001465143A41B0491611A009C0791E1069E
:100D900005D061090122114302E072E06EE06109B1
:100DA000089D00272C0A2D066918049D7C412A0AFB
:100DB0002D066918019D6241AC0DAD026D185441BC
:100DC000079A910D920255196141029A644658435F
:100DD0005443069B059A5A43121A131B9A0E9B0101
:100DE0005B187A41010B0005C3185141220A200605
:100DF00044195A419A4200D2491C012040028142C2
:100E000003D315230226F64302E014230326F643F8
:100E10002020C51AA9401746AF40DA400A432046B1
:100E20000399D8400914731819055118039A3843C7
:100E3000D2075140AC4009D00122944006D3002291
:100E4000401C5141002C01D1400840001E4A9342F1
:100E500012D3012203989206904207DB0520400737
:100E600009181A480143C012414004E0032040071A
:100E70000818C10FC907002009B0F0BD0020F10714
:100E8000FAE705180C464C4111486D42A04115D3B4
:100E900094181A465A410E48644290410ED30120DC
:100EA0004A004005824209D35A00824206D3594083
:100EB000C90F084AC90700201143DDE70020064991
:100EC000DAE700000000FF07FE070000FFFFFF7FDA
:100ED0000000E0FF0000F07F0000F87FF8B5224C32
:100EE0004E00069DA6420AD8A64201D1002806D18E
:100EF0005E00A64203D8A6420AD1002A08D00D24DB
:100F0000240425422CD02946002000F02FF8F8BDFB
:100F10000C461C430CD4994202D0EFF30080F8BD7C
:100F2000904202D0EFF30080F8BDEFF30080F8BDEF
:100F300009242407E5008B4206D0EFF30080A0438C
:100F4000591A06D2284304E0101A05D3EFF30080A3
:100F5000A04380F30088F8BDEFF30080A043F1E7E1
:100F6000009500F01BF8F8BD0000E0FFC80212D5A4
:100F70004803400F002804D0C803C0430121884023
:100F80007047EFF3008000010009032109070843BF
:100F900080F30088704700207047000010B50020E3
:100FA0000249029A00F02BF810BD00000000F87F03
:100FB000754600F053F8AE46050069465346C00832
:100FC000C000854618B020B5FFF7C8F860BC002700
:100FD0004908B6460026C0C5C0C5C0C5C0C5C0C505
:100FE000C0C5C0C5C0C5403D49008D46704710B55D
:100FF0000446C046C0462046FFF79FF810BD10B516
:101000000C461107090F092904D00A290AD008291A
:101010000CD104E011460820FFF7A8FF06E05106B6
:1010200006D501E0510601D50120C007214610BDBB
:10103000D10607D501010909CC084907000E0006B1
:10104000044309E0410F20024907000A0143200E32
:1010500000061D22D14101430846E7E700487047DA
:101060004406002001491820ABBEFEE7260002001E
:10107000704770B58C180578401C6B075B0F01D169
:101080000378401C2A1106D10278401C03E0067840
:10109000401C0E70491C5B1EF9D12B0705D40023A0
:1010A000521E0DD40B70491CFAE70378401CCB1A72
:1010B000921C03E01D780D70491C5B1C521EF9D573
:1010C000A142D8D3002070BD70B50546AC6AA06DB2
:1010D00050210840002831D1A06D01214902084368
:1010E000A065206803F05FF8002823D0A07E0028C8
:1010F00020D1206800680821084008281AD12068FB
:1011000003F04BF800280DD1206840680C2188437B
:1011100021684860A06DFF21013188430121084307
:10112000A06507E0A06D20210843A065E06D0121C6
:101130000843E065204600F033FD0CE0A06D10216F
:101140000840002803D0204600F02CFD03E0206D6D
:10115000416B2846884770BD70B50546AC6AA06DE6
:1011600040210843A065E06D04210843E065204666
:1011700000F018FD70BD70B50446A56A284600F061
:1011800010FD70BDF0B585B024490868FFF77FFDFC
:101190000646234A234BFFF77DFD04460022224BDF
:1011A000FFF704FB214A03C21C494868FFF76FFDA3
:1011B000064600221E4BFFF76DFD0446184A194BE8
:1011C000FFF768FD0022184B01910090FFF7EEFA3F
:1011D0000022184B03910290FFF7B8FA164A03C297
:1011E0000E498868FFF753FD04460022134BFFF7B2
:1011F00051FD0B4A0B4B03910290FFF74BFD064646
:101200000022094BFFF7D2FA0D4A03C2074903C96E
:1012100000F0CCFA03F064FF05B0F0BDD801002067
:101220006666666666660A400000B04060000020A0
:10123000000026400000F83F50000020000014404D
:101240005800002038B5044600200090206802F0C5
:1012500095FF002858D1206880682C490840002854
:1012600009D0A06D10210843A065E06D012108435D
:10127000E065012038BD206802F072FF244802F0CA
:1012800077FF0121C905084000280DD021492248D7
:101290000068FFF72EF8401C009002E00098401E06
:1012A000009000980028F9D1607E01282CD001F030
:1012B00063F805461FE0206802F060FF002802D1B5
:1012C000206802F04DFF01F057F8401B022812D9A8
:1012D00020680068C007C00F01214840484000282E
:1012E00009D1A06D10210843A065E06D01210843DC
:1012F000E0650120BEE720680068C007C00F01213B
:10130000484048400028D6D00020B3E717000080AE
:1013100008270140400D0300D4010020FEB504461B
:101320000D46002213462046294604F06DFC10D2DB
:10133000002000F031F80022164B20462946FFF726
:10134000A9FC0646FFF756FC80B2029000F0FEF8BA
:101350001FE0002213462046294604F023FC15D244
:10136000012000F019F80120C00768402646014618
:101370000022084B3046FFF78DFC01910090FFF7EB
:1013800039FC80B2029000F0E1F802E0002000F0A9
:10139000DDF8FEBD00F8884010B50446002C04D1ED
:1013A00001220221054800F0E1FF012C04D10022B6
:1013B0000221024800F0DAFF10BD000000040050D6
:1013C00010B50821034802F0C1FB0020014909685B
:1013D000C86310BDCC030020F0B587B004460D46AD
:1013E00000BF494949484A4A1160506000F020FA5C
:1013F00006460022474BFFF74DFC474A03C24648CA
:101400000CC820462946FFF7AEF9444A03C24348B8
:1014100043490CC803C9FFF799F9414A03C241483F
:101420003F490CC803C904F0EFFB03D23D4903C98F
:101430003B4A03C23C483A490CC803C904F0B2FB1A
:1014400005D2394801684068354A11605060374814
:1014500032490CC803C9FFF786F9064634480CC860
:101460003046FFF717FC059104902D4831490CC810
:1014700003C9FFF70FFC06460F4628482E490CC843
:1014800003C9FFF707FC32463B4601910090FFF786
:101490005DF903910290059B049AFFF757F9274ADB
:1014A00003C20022264B254903C904F0ADFB03D239
:1014B00000202349214A03C20022224B1F4903C9AD
:1014C00004F070FB03D200201E491C4A03C21B48D3
:1014D0000CC820462946FFF739F9184A03C20F48BD
:1014E00001684068114A116050600022164B134990
:1014F00003C9FFF75BF9114A03C2104903C9FFF79B
:101500000DFF07B0F0BD0000333333333333D33F27
:10151000500100200000F03F58010020C0010020D1
:10152000680100207001002078010020A80100203F
:10153000A0010020980100209001002060010020FF
:1015400000F8884000F888C0000089400149096817
:10155000C8637047CC03002010B503F065F810BDD8
:1015600070B504460D4601222021074800F0FEFE1A
:101570000A232A462146054802F068FD0022202160
:10158000014800F0F3FE70BD000400506404002028
:1015900070B504460D460A232A462146014802F04A
:1015A00055FD70BDF804002010B500F03BF900288F
:1015B00003D003F053F803F075F810BD10B5002206
:1015C0002021064800F0D2FE0A2000F0C3FD0622CA
:1015D0000349044802F0F4FC10BD00000004005070
:1015E000860000206404002070B504460025002613
:1015F000A5880221204604F069FA0646B54201D1C9
:10160000012070BD0020FCE708B506220849094802
:1016100002F0D6FC642000F09DFD07A00068009059
:10162000642303226946034802F010FD08BD000050
:101630008D000020F80400200102030010B51548B9
:101640000078002803D003F033F803F00DFD1248B2
:101650000078002805D0FFF77FFFFFF7A5FF03F014
:10166000E5FC0E48007800280AD0012189030C48C7
:1016700000F072FE00200146FFF7AEFE03F012FDFF
:1016800008480078002803D0FFF77CFD03F0B0FC89
:1016900010BD0000B1000020B3000020B400002005
:1016A00000080050B700002000B503F0E3FC03F091
:1016B000C3FC03F0FDFC03F0A1FC00BD70B50446C3
:1016C000206C800880000949401860642178084631
:1016D00008381421FEF70DFE054604488030A0644A
:1016E000E906C90E01208840E06470BD0008024090
:1016F00002799106890E4A1E9200064BD2180265A5
:10170000044A403242654A1E93079B0F01229A40C9
:10171000826570470009024070B5856CC46C6C60CE
:10172000046D002C02D0456D846D6C600C4C6468B7
:101730001C26056C35400126AE403443084D6C60D4
:10174000046863608468102C04D10468A260046893
:10175000E16003E00468A1600468E26070BD00001D
:101760000000024005200649088000BF04480188A7
:101770000088401E024A10800029F7D170470000FF
:101780001600002072B600BFFEE7000032200649B6
:10179000088000BF044801880088401E024A10806B
:1017A0000029F7D170470000060000207CB50546EF
:1017B0000E4618480CC828463146FEF7C7FF154AA2
:1017C00003C2154803C8134B019100900CCBFEF7E0
:1017D000D5FF104A03C2002400BF0CE0601CC0000B
:1017E0000D49081801684068E2000B4B9A18116017
:1017F0005060601C84B2092CF0DB0748C664856425
:101800000022064B034903C9FEF7D0FF044A03C276
:101810007CBD000068000020E8010020000024409A
:101820007000002001480078704700008C00002004
:10183000014903C97047000078000020F0B585B069
:1018400005460C460020039002900121C907286933
:10185000884203D0091D2869884200D100E000BFFA
:1018600000BF5420405D012802D1022005B0F0BD28
:1018700001215420415500BF286802F08EFC002849
:1018800076D16068022874D00121C907286988428E
:1018900003D0091D2869884208D128682168826A16
:1018A0004B035B0B1A43826200BFC6E02179CA0674
:1018B000D20E0F219140286E884321684903490BBD
:1018C000002905D11F22920621681140890E92E05D
:1018D0002178C907C90F002901D000218BE002221D
:1018E00021681140022901D1012184E004222168EC
:1018F0001140042901D102217DE008222168114014
:10190000082901D1032176E0102221681140102915
:1019100001D104216FE0202221681140202901D14A
:10192000052168E0402221681140402901D10621AB
:1019300061E0802221681140802901D107215AE00D
:10194000FF22013221681140914201D1082152E069
:101950000122520221681140914201D109214AE03D
:101960000122920221681140914203D10A2142E0F2
:10197000FAE0BAE00122D20221681140914201D17D
:101980000B2138E00122120321681140914201D15C
:101990000C2130E00122520321681140914201D113
:1019A0000D2128E00122920321681140914201D1CA
:1019B0000E2120E00122D20321681140914201D181
:1019C0000F2118E00122120421681140914201D137
:1019D000102110E00122520421681140914201D1EE
:1019E000112108E00122920421681140914201D1A5
:1019F000122100E000212279D206D20E9140084344
:101A0000286660688008401CE969884215D8286803
:101A1000226861680192836ACF06FF0E0F22BA40E6
:101A200093430F27BF06019A3A40920ECF06FF0E4E
:101A3000BA401343836200BF00BF28682168009149
:101A4000A16801914269009909028A4300990B0239
:101A50004C4F019939400B401A43426100BF206846
:101A6000C00FC007002821D0474802F081FB06467E
:101A70004649206888421AD1C0023040002816D159
:101A8000C80230430146404802F0A0FB40494148AB
:101A90000068FEF72EFC401C0C214843029002E037
:101AA0000298401E029002980028F9D162E03A495B
:101AB000206888420AD180023040002806D188027E
:101AC00030430146304802F081FB53E0334920683F
:101AD00088424FD14002304000284BD14802304369
:101AE0000146294802F072FB44E00121C907286938
:101AF000884203D0091D2869884208D128682168D6
:101B0000826A4B035B0B9A43826200BF00BF20686E
:101B1000C00FC00700282DD01B4802F029FB064645
:101B20001A492068884207D1C202304690430146D4
:101B3000154802F04BFB1DE017492068884207D189
:101B400082023046904301460F4802F03FFB11E00D
:101B50001249206888420DD1420230469043014626
:101B6000094802F033FB05E0A86D20210843A86571
:101B70000120039000BF00215420415500BF03986D
:101B800074E6000000FFFF0708270140001000B0C6
:101B9000400D0300D4010020004000B8002000B434
:101BA0007047704770470000FEB504460020029061
:101BB000002500260190002C01D10120FEBD3C2013
:101BC000005D012800D100BF2069002805D0012157
:101BD00049052069884200D100BFA06D002807D1C7
:101BE000204600F02DF90020E06500215420015529
:101BF000206802F0CBFA002817D120688168894A52
:101C00001140012212071143816000BF86498748B5
:101C10000068FEF76EFB401C4000019002E0019856
:101C2000401E019001980028F9D1206802F0AEFA18
:101C3000002809D1A06D10210843A065E06D0121A5
:101C40000843E06501200290206802F0A6FA0746EA
:101C5000A06D1021084000287ED1002FFCD1A06D7E
:101C60000901884302210843A065206802F086FA32
:101C7000002872D1217E8903A0680843617EC903D0
:101C80000843A17E49030843216B002902D00121AA
:101C9000090300E000210843E16808432169C90FF6
:101CA000C907002903D021694900490801E0012141
:101CB000490508432C21095D4900084305432020BC
:101CC000005D01280ED1A07E002803D10120000470
:101CD000054307E0A06D20210843A065E06D0121C8
:101CE0000843E065606A002806D0FF21C131606AC0
:101CF0000840A16A084305432068C0684C49084071
:101D000028432168C8606068800F8007E16C084341
:101D100006433C20005D01280BD16068800F8007DE
:101D200001210843216C0843616C0843A16C0843FE
:101D30000643206800693F49084030432168086134
:101D4000032189076068884216D04942606888424A
:101D500012D04900606801E05BE00DE088420BD0E2
:101D6000354880680F21890488430F2292046168F6
:101D700011400843304988600021626B206802F0FE
:101D80002CFA2E49A26B206802F027FA206900285D
:101D900007D12068806A0F21C943084321688862FF
:101DA00011E001214905206988420CD1207F401EA5
:101DB0004007C10E0F20C0438840216E08432168B0
:101DC000896A216888622168002000910099496928
:101DD0000422024007239340194004220240D140CC
:101DE000606B814208D10020E065A06D022188432C
:101DF00001210843A06512E0A06D02218843102153
:101E00000843A065E06D01210843E06501200290D0
:101E100005E0A06D10210843A06501200290029802
:101E2000CCE60000E8FFFF7F400D0300D401002056
:101E30000102FEFF02FCFF1F0027014004FFFF0715
:101E400010B586B00446142101A8FEF750FA2749C0
:101E50002068884248D100BF254800680121090553
:101E60000843234908600846006801210905084025
:101E7000009000BF00BF00BF1D484038406B0121EB
:101E800008431B49403948630846406BC007C00FF0
:101E9000009000BF00BF622001900320029000204C
:101EA000039001A90520000700F06AF911481249C2
:101EB00008600520486000210F488160C1608021D2
:101EC000016189004161890081612021C161002196
:101ED000016200F079F8002801D0FFF753FC00BF41
:101EE00005482065846200BF06B010BD0024014093
:101EF0004010024008000240A8020020F8B5044645
:101F00000E461746206802F048F9002850D100BF5D
:101F10005420005D012801D10220F8BD0121542088
:101F2000015500BF2068C068084000280DD1206816
:101F300002F024F9002802D0206802F009F9206894
:101F4000C068012108432168C8602046FFF77AF97C
:101F50000546002D2DD1A06D17490840FF21013104
:101F60000843A0650020E0651448216DC86214484C
:101F7000216D08631348216D48631C2021680860A7
:101F800000BF00215420015500BF20684068102187
:101F90000843216848602268114640313B4632467A
:101FA000206D00F071F80546206802F007F900E0A6
:101FB00002252846B1E70000FEF1FFFFC910000826
:101FC000771100085911000810B50446002C01D102
:101FD000012010BD2A4A2168881A1421FEF789F9C8
:101FE00080002064022125200155206800682549D1
:101FF000084021680860E168A06808432169084337
:1020000061690843A1690843E1690843216A0843FB
:10201000216809680843216808602046FFF74EFBE5
:1020200001218903A068884201D1002060602079E5
:102030008006800E616C0860A16CE06C486060688E
:1020400000280CD06068042809D82046FFF750FB10
:102050000020216D0860616DA06D486003E00020E4
:1020600020656065A0650020E06301212520015501
:1020700000BF00212420015500BF0020A9E7000077
:10208000080002400F80FFFFF8B504460D461646D3
:102090001F460020009000BF2420005D012801D1D0
:1020A0000220F8BD01212420015500BF2520005D3C
:1020B000012844D10221252001550020E063206839
:1020C000006840084000216808603B4632462946C7
:1020D0002046FFF721FB206B002806D0206800680F
:1020E0000E210843216808600BE020680068042185
:1020F000884321680860206800680A210843216835
:102100000860606C0068012109040840002805D0BF
:10211000606C006809120843616C0860206D00283B
:1021200006D0206D0068FF2101310843216D086051
:1021300020680068012108432168086008E08020C9
:10214000E06300BF00212420015500BF0120009062
:102150000098A6E770B5044600F00EF9064625463D
:10216000681C002802D0054800782D1800BF00F038
:1021700003F9801BA842FAD370BD0000D0010020F3
:1021800070B503460A460021D7E001268E40146848
:102190003440002C73D01579AD07AD0F012D04D05C
:1021A0001579AD07AD0F022D18D198684E000325A3
:1021B000B5400646AE4330464E00D568B54028438C
:1021C0009860586801258D400646AE43304610267B
:1021D000556835402D098D40284358601579AD0765
:1021E000AD0F032D0BD0D8684E000325B540064631
:1021F000AE4330464E009568B5402843D860157907
:10220000AD07AD0F022D15D1CD08AE001D4620350E
:10221000A8594D07EE0E0F25B5400646AE43304691
:102220004E07F60E1569B5402843CD08AD001E4691
:102230002036705118684E000325B5400646AE435F
:1022400030461579AD07AD0F4E00B54028431860F4
:102250000326360455683540002D6DD03A4D8E0862
:10226000B600A8598D07EE0E0F25B5400646AE43C1
:10227000304605252D07AB4202D1002510E05BE07A
:10228000324DAB4201D101250AE0314DAB4201D1C3
:10229000022505E02F4DAB4201D1032500E00525C5
:1022A0008E07F60EB5402843274D8E08B600A8517C
:1022B000254D603D28680546A5432846012636057C
:1022C00055683540002D02D00546254328461E4D51
:1022D000603D286068680546A543284601267605C6
:1022E00055683540002D02D0054625432846164D39
:1022F000603D6860144D203568680546A543284652
:102300000126760455683540002D02D00546254348
:1023100028460D4D2035686028680546A5432846A7
:102320000126360455683540002D02D00546254368
:102330002846054D20352860491C1568CD40002DE4
:1023400000D022E770BD0000601802400004005079
:1023500000080050000C005010B5426913460B40B5
:102360001B040C4694432343836110BD002A01D013
:10237000816100E081627047014800687047000099
:10238000C801002003480068034909784018014942
:1023900008607047C8010020D001002010B500245B
:1023A00008480068FF2101310843064908600320FE
:1023B00000F00AF8002801D0012401E000F034F810
:1023C000204610BD00200240F8B504460025134801
:1023D000007800281ED0114801787D20C000FDF74C
:1023E00088FF074639460E480068FDF782FF06461B
:1023F00001F072F800280BD1042C07D200222146EC
:10240000401E00F045F80748046004E0012502E0A2
:10241000012500E001252846F8BD0000D00100207C
:10242000D4010020CC01002008B500BF0E48006890
:10243000012108430C49086008460068C007C00F26
:10244000009000BF00BF00BF07484038C06B89053F
:10245000084305494039C8630846C06B0904084071
:10246000009000BF00BF08BD401002400146002997
:1024700009DB00BF00BFCB06DB0E01229A40034BF5
:102480001A6000BF00BF00BF7047000000E100E01D
:1024900070B504460D4616462946204603F0D4FA88
:1024A00070BD000070B50446114800680321490260
:1024B000884320430E4908604815844216D10D49CF
:1024C00009680622514308460B49FDF712FF451CD7
:1024D00005E0002D01D06D1E01E0032070BD044811
:1024E00040690121890208408842F2D00020F5E7C6
:1024F00000700040D401002040420F00FEB50446A9
:1025000000270020029001214904206808408842E9
:102510007BD1002001909648C06BC902084000287A
:102520000ED100BF9248C06B08439149C86308466A
:10253000C06B09040840009000BF00BF012001905B
:102540008C480068FF21013108438A490860FFF781
:1025500013FF064606E0FFF70FFF801B022801D994
:10256000032706E083480068FF2101310840002866
:10257000F1D000BF002F4BD17D484030C569032109
:1025800009020D40002D1AD0606AA84217D0784881
:102590004030C0698843054675484030C069012114
:1025A0000904084372494031C8610846C0690121E5
:1025B000090488436E494031C8610846C561E8078F
:1025C000C00F002813D0FFF7D7FE064607E0FFF73D
:1025D000D3FE801B6849884201D9032706E064487E
:1025E0004030C069022108400028F0D000BF002F11
:1025F0000CD15F484030C069032109028843616AF9
:1026000008435B494031C86103E00DE0029700E0F8
:1026100002970198012806D15548C06B012109078E
:1026200088435349C86300BF2078C007C00F002803
:1026300009D04F48403040698008800061680843F5
:102640004B494031486110212068084010280AD1C8
:10265000474840304069032189028843A168084304
:1026600043494031486101214902206808408842BD
:102670000AD13F4840304069032189048843616999
:1026800008433B49403148610121890220680840E4
:1026900088420AD136484030406903210905884301
:1026A000A16908433249403148612021206808402F
:1026B00020280AD12E48403040690321090388436D
:1026C000E16808432A4940314861012189032068B3
:1026D0000840884213D12648403040698000800875
:1026E000E16908432249403148610906E0698842AE
:1026F00005D11F48C068891308431D49C8600121DE
:10270000490520680840884214D119484030406982
:1027100049008843216A0843154940314861012135
:102720008905206A884205D11148C068890008439C
:102730000F49C8600121C90220680840884215D1AC
:102740000B484030406903218903884321690843CD
:10275000074940314861012189032069884205D138
:102760000348C068890008430149C8600298FEBD5B
:1027700000100240007000408813000070B504464D
:102780000D46002C01D1012070BD6B480068400748
:10279000400FA84218D268480068C008C00028430B
:1027A00065490860FFF7E8FD064607E0FFF7E4FD2E
:1027B000801B6249884201D90320E5E75E48006832
:1027C0004007400FA842F1D10221206808400228AA
:1027D00015D1042120680840042807D15848806892
:1027E0000721090388434018554988605448806888
:1027F0000F2109028843A168084351498860207865
:10280000C007C00F002854D06068012808D14C4888
:10281000006801214904084000282ED10120B3E7B7
:102820006068022808D1464800680121490608402E
:10283000002822D10120A7E76068002808D140487D
:102840000068012189020840002816D101209BE779
:102850006068032808D13A484030006A02210840E5
:1028600000280AD101208FE735484030C069022195
:102870000840002801D1012086E731488068C0085F
:10288000C000616808432E498860FFF775FD064661
:1028900007E0FFF771FD801B2849884201D903201A
:1028A00072E727488068382108406168C90088427B
:1028B000EFD1214800684007400FA84218D91E48B0
:1028C0000068C008C00028431B490860FFF754FD9A
:1028D000064607E0FFF750FD801B1849884201D9E2
:1028E000032051E7144800684007400FA842F1D187
:1028F000042120680840042808D111488068072175
:1029000009038843E16808430D49886000F03AF8FC
:102910000B4989680F2212021140090A8900094AED
:10292000515CC906C90EC8400749086007480068DD
:10293000FFF74AFD28E7000000200240881300004E
:1029400000100240AC5C0008D4010020CC01002043
:102950000148006870470000D401002000B5FFF76F
:10296000F7FF06498968072212031140090B890005
:10297000034A515CC906C90EC84000BD00100240A0
:10298000EC5C0008FEB53548806838210840002816
:102990000DD13248006809020840C10A0120884070
:1029A00000902F480099FDF7A4FC044654E02B4802
:1029B000806838210840082801D12A4C4CE027487B
:1029C000806838210840102834D12448C068860720
:1029D000B60F2248C068702108400009401C0190D1
:1029E000022E0FD0032E0CD11E480199FDF781FC59
:1029F0001A49C9687F2212021140090A4843054654
:102A00000DE000BF16480199FDF773FC1349C96832
:102A10007F2212021140090A4843054600BF00BF49
:102A20000E48C068400F471C39462846FDF761FC38
:102A3000044611E00948806838210840202801D167
:102A4000840209E00548806838210840182802D12E
:102A50007D24240200E000242046FEBD0010024038
:102A60000024F400002D3101FEB50446002C01D1F4
:102A70000120FEBD2078C007C00F00286FD0F748A6
:102A8000876838210F40C0688607B60F102F01D124
:102A9000032E01D0082F0BD1F04800680121490412
:102AA000084000285BD06068002858D10120E0E78A
:102AB00000BF012109046068884205D1E748006829
:102AC0000843E649086021E005210904606888425E
:102AD0000ED1E2480068012189040843DF490860FB
:102AE00008460068012109040843DC4908600DE03C
:102AF000DA480068012109048843D849086008467B
:102B00000068012189048843D449086000BF6068D7
:102B1000002812D0FFF730FC054606E0FFF72CFC3A
:102B2000401B642801D90320A3E7CC480068012199
:102B3000490408400028F1D011E0FFF71DFC0546CC
:102B400006E0FFF719FC401B642801D9032090E739
:102B5000C24800680121490408400028F1D102213F
:102B600020680840022873D1BC488068382108409A
:102B70000746BA48C0688607B60F102F01D1022E4B
:102B800001D0002F36D1B5480068012189020840E4
:102B9000002804D0E068002801D1012069E7AF488F
:102BA00040687F2109028843616909020843AB49F3
:102BB0004860002F16D1084600680721C9028843E3
:102BC00021690843A5490860084600680722D20227
:102BD0001040C20A012090400146A148FDF789FB40
:102BE000A0490860A0480068FFF7EEFB002849D024
:102BF00001203EE7E06800282BD0984800680721B4
:102C0000C90288432169084394490860084600685E
:102C10008915084391490860FFF7AEFB054606E0B9
:102C2000FFF7AAFB401B022801D9032021E78B48AC
:102C300000680121890208400028F1D087484068D7
:102C40007F2109028843616909020843834948607A
:102C500018E082480068FF21013188437F490860FD
:102C6000FFF78AFB054606E0FFF786FB401B0228BC
:102C700001D90320FDE67948006801218902084056
:102C80000028F1D1082120680840082849D173485C
:102C900080683821084018280BD170484030006AFD
:102CA0000221084000283CD0A069002839D1012029
:102CB000DFE6A06900281AD068484030006A012188
:102CC0000843664940310862FFF756FB054606E0B7
:102CD000FFF752FB401B022801D90320C9E65F48D9
:102CE0004030006A022108400028F1D019E05B481A
:102CF0004030006A40084000584940310862FFF700
:102D00003BFB054606E0FFF737FB401B022801D9D5
:102D10000320AEE651484030006A022108400028F6
:102D2000F1D104212068084004287CD100200190C2
:102D30004A4880683821084020280BD14748403055
:102D4000C0690221084000286ED0A06800286BD11D
:102D500001208EE64148C06B010F01208843002806
:102D600010D000BF3D48C06B0121090708433B4913
:102D7000C8630846C06B09040840009000BF00BF4C
:102D80000120019039480068FF21013108400028E6
:102D900016D136480068084334490860FFF7ECFA5A
:102DA000054606E0FFF7E8FA401B022801D9032098
:102DB0005FE62E480068FF21013108400028F1D06D
:102DC00000BFA068012808D124484030C069012113
:102DD000084322494031C86120E0A06805280FD18E
:102DE0001E484030C069042108431C494031C86175
:102DF0000846C0690121084318494031C8610DE007
:102E000016484030C0694108490014484030C1614B
:102E1000C0690421884311494031C86100BFA068DE
:102E2000002816D001E040E03EE0FFF7A5FA054695
:102E300007E0FFF7A1FA401B0D49884201D90320A2
:102E400017E606484030C069022108400028F0D04B
:102E50001EE0FFF791FA054614E000000010024062
:102E60000024F400D4010020CC01002000700040B8
:102E700088130000FFF780FA401B6649884201D999
:102E80000320F6E56448C069022108400028F1D11A
:102E90000198012808D160484038C06B012109071A
:102EA00088435D494039C86300BFE06900285CD0B1
:102EB0005948403880683821084010287CD0E069A3
:102EC000022853D15448403800680121090688433C
:102ED000514940390860FFF74FFA054606E0FFF711
:102EE0004BFA401B022801D90320C2E54A4840386A
:102EF00000680121490608400028F0D1616A206A73
:102F00000843A16A09020843E16A0843216B0843A8
:102F1000616B084340494039C968404A1140084341
:102F20003D494039C8600846006801210906084348
:102F30003949403908600846C068090408433649E1
:102F40004039C860FFF718FA054606E0FFF714FAA3
:102F5000401B022801D903208BE52F484038006828
:102F60000121490608400028F0D050E02A484038A6
:102F70000068012109068843274940390860FFF7A6
:102F8000FBF9054606E0FFF7F7F9401B022801D9D7
:102F900003206EE5204840380068012149060840BA
:102FA0000028F0D11C484038C0681D4908401A4923
:102FB0004039C8602BE0FFE7E069012800D158E5FF
:102FC00015484038C668B107890F206A81421CD174
:102FD00070203040616A884217D17F200002304063
:102FE000A16A0902884210D11F2040043040E16AE2
:102FF00088420AD1072040063040216B884204D124
:10300000710F4907606B814201D0012031E500203A
:103010002FE5000088130000401002408C80C11191
:10302000FCFFFEEE70B50446002C01D1012070BDFE
:10303000606A002808D1FF2105316068884200D10C
:1030400005E00021E16102E00021216161610021D0
:10305000A1625D20005D002804D15C20015520465E
:1030600000F066F802215D200155206800684021CB
:1030700088432168086007210902E068884201D975
:10308000002501E001252D030F210902E068884297
:1030900006D007210902E068884201D00021A16220
:1030A000FF2105316068084021229202A168114089
:1030B00008430222216911400843217DC907C90F35
:1030C00008431202A169114008433822E169114006
:1030D00008438022216A114008439201A16A1140ED
:1030E000084321680860A069000C042108401022F0
:1030F000616A114008430822616B114008430F22A6
:103100001202E168114008430121090329400843E4
:10311000216848602068C0690121C902884321688C
:10312000C8610020206601215D20015500207EE756
:1031300010B586B00446142101A8FDF7D8F8474918
:103140002068884247D100BF454800688914084379
:10315000434908600846006889140840009000BF91
:1031600000BF00BF3E484038406B012108433C4946
:10317000403948630846406BC007C00F009000BF4D
:1031800000BF00BF0846406B022108433449403964
:1031900048630846406B02210840009000BF00BF12
:1031A0000320C002019002200290002003900490AE
:1031B000059001A905200007FEF7E2FF0820019015
:1031C00002200290002003900490059001A9254858
:1031D000FEF7D6FF3FE02449206888423BD100BF7C
:1031E0001F484038C06B091408431D494039C86363
:1031F0000846C06B012189030840009000BF00BF52
:1032000000BF17484038406B01210843144940393A
:1032100048630846406BC007C00F009000BF00BF66
:103220000920019002200290002003900490059054
:1032300001A905200007FEF7A3FF1020019002203E
:1032400002900020039004900120059001A9052020
:103250000007FEF795FF06B010BD000000300140EA
:10326000401002400004005000380040FFB585B017
:1032700004461D460E9E012001900020009000BFD4
:103280005C20005D012802D1022009B0F0BD0121BF
:103290005C20015500BFFFF76FF807465D20005D19
:1032A0000290606803900495029801280DD0FF21D8
:1032B00005310398884205D1A068002802D1029800
:1032C000042802D002200090FBE00698002804D0D9
:1032D0000798002801D0002D02D101200090F0E0D5
:1032E0005D20005D042802D005215D2001550020ED
:1032F000206607982064462005534420055306980D
:10330000A063E587A5870020E06420650721090206
:10331000E068884207D92068406801210903884392
:103320002168486006E020684068012109030843DD
:10333000216848602068006840210840402804D087
:103340002068006808432168086007210902E068D6
:10335000884254D96068002802D00498012809D115
:10336000A06B00882168C860A06B801CA063E08F00
:10337000401EE0873BE02068806802210840022868
:1033800011D1E08F00280ED0019801280BD1A06B3D
:1033900000882168C860A06B801CA063E08F401E7D
:1033A000E0870020019020688068C007C00F0028D7
:1033B00012D04620005B00280ED02068C068216C27
:1033C0000880206C801C20644620005B401E81B277
:1033D0004620015301200190FEF7CEFFC01BB042F2
:1033E00005D3701C002802D00320009069E0E08F14
:1033F0000028C0D14620005B0028BCD155E06068A1
:10340000002802D00498012809D1A06B0078216817
:103410000873A06B401CA063E08F401EE0873DE076
:103420002068806802210840022811D1E08F00281E
:103430000ED0019801280BD1A06B00782168087389
:10344000A06B401CA063E08F401EE087002001902D
:1034500020688068C007C00F002812D04620005B9B
:1034600000280ED02068007B216C0870206C401C66
:1034700020644620005B401E81B24620015301209B
:103480000190FEF779FFC01BB04202D3701C0028E8
:1034900001D1002E02D10320009012E0E08F00281D
:1034A000BED14620005B0028BAD13A4631462046BC
:1034B00001F0BAF9002803D00120009020202066F6
:1034C00000BF01215D20015500BF00215C20015596
:1034D00000BF0098D9E6000070B504462546681E76
:1034E0000949884201D901200CE0681E074948615A
:1034F0000321081F02F0A8FA002004498861072070
:103500000861002070BD0000FFFFFF0000E000E048
:10351000704770477047000030B502460B4600BF49
:103520003C20805C012801D1022030BD01253C20D7
:10353000855400BF02253D208554106841681068FD
:103540008468194D1068A84206D10F252D0508463C
:10355000A84301465868014370250846A843014620
:1035600018680143106841600F4D1068A84208D0E8
:103570000125AD071068A84203D00C4D1068A84281
:1035800007D180252046A843044698680443106864
:10359000846001253D20855400BF00253C208554D2
:1035A00000BF0020C1E70000002C014000040040E3
:1035B00010B50446002C01D1012010BD3D20005D56
:1035C000002805D100213C200155204600F026F8B6
:1035D00002213D200155211D206801F00DFB012134
:1035E0004820015500BF3E2001553F200155402095
:1035F000015541200155422001554320015500BF8E
:1036000000BF442001554520015546200155472063
:10361000015500BF3D2001550020CEE738B50446D6
:103620000D492068884216D100BF0C480068C913B4
:1036300008430A490860084600680121C903084098
:10364000009000BF00BF002211461320FEF720FFAC
:103650001320FEF70BFF38BD002000404010024051
:1036600001463D20405C012801D001207047022323
:103670003D2043540868C068012318430B68D86094
:10368000124B0868984208D001239B0708689842AB
:1036900003D00F4B086898420FD1086882680D4B21
:1036A0001A40062A0FD0D81F82420CD00868006842
:1036B000012318430B68186005E0086800680123BF
:1036C00018430B6818600020D0E70000002C014070
:1036D00000040040070001007047000010B50446D8
:1036E0002068006902210840400800281CD020689A
:1036F000C06808404008002816D0481F21680861AB
:1037000001202077206880698007800F002803D07F
:103710002046FFF7E1FF05E0204600F009F92046CA
:1037200000F012FA00202077206800690421084088
:10373000800800281DD02068C06808408008002844
:1037400017D0C8432168086102202077206880696B
:10375000032109020840002803D02046FFF7BCFFE0
:1037600005E0204600F0E4F8204600F0EDF90020E6
:1037700020772068006908210840C00800281CD074
:103780002068C0680840C008002816D0C8432168D7
:103790000861042020772068C0698007800F002816
:1037A00003D02046FFF798FF05E0204600F0C0F860
:1037B000204600F0C9F90020207720680069102118
:1037C0000840000900281DD02068C0680840000992
:1037D000002817D0C8432168086108202077206896
:1037E000C069032109020840002803D02046FFF7E2
:1037F00073FF05E0204600F09BF8204600F0A4F996
:103800000020207720680069C007C00F01214840D0
:10381000484000280CD02068C06808404840484014
:10382000002805D0C81E21680861204600F01EFA55
:103830002068006980210840C00900280BD020685A
:10384000C0680840C009002805D0C8432168086145
:103850002046FFF75EFE20680069FF210131084025
:10386000000A00280CD02068C06880210840C009E8
:10387000002805D01648216808612046FFF748FE59
:103880002068006940210840800900280BD020688A
:10389000C06808408009002805D0C8432168086135
:1038A000204600F0F5F92068006920210840400911
:1038B00000280BD02068C06808404009002805D0C7
:1038C000C843216808612046FFF724FE10BD0000B0
:1038D000FFFEFFFF10B586B00446142101A8FCF7D7
:1038E00006FD01218907206888421AD100BF0E48D1
:1038F000406B042108430C4948630846406B04218F
:103900000840009000BF00BF4020019002200290BC
:103910000020039004900220059001A90348FEF7BF
:103920002FFC06B010BD000000100240000800503F
:103930007047F8B504460D461646002700BF3C20E8
:10394000005D012801D10220F8BD01213C20015574
:1039500000BF0C2E54D006DC002E09D0042E1ED041
:10396000082E7ED135E0102E64D0142EF9D179E0E6
:103970002946206801F0A2F92068806908210843DF
:1039800021688861206880690421884321688861F2
:103990002068806929690843216888617EE029469A
:1039A000206801F0D9F9206880690121C902084323
:1039B0002168886120688069012189028843216823
:1039C0008861206880692969090208432168886143
:1039D00064E02946206801F015FA2068C0690821D2
:1039E00008432168C8612068C069042188432168B0
:1039F000C8612068C069296908432168C8614DE031
:103A00002946206801F052FA2068C0690121C902E4
:103A100008432168C8612068C06901218902884380
:103A20002168C8612068C0692969090208432168C2
:103A3000C86133E02946206801F072FA2068406DC1
:103A400008210843216848652068406D04218843A7
:103A5000216848652068406D2969084321684865E8
:103A60001CE019E02946206801F08EFA2068406DBC
:103A70000121C9020843216848652068406D012181
:103A800089028843216848652068406D29690902D8
:103A900008432168486501E0012700BF00BF00BF5F
:103AA00000213C20015500BF38464DE710B50446C3
:103AB000002C01D1012010BD3D20005D002805D162
:103AC00000213C200155204600F026F802213D202F
:103AD0000155211D206801F08FF801214820015572
:103AE00000BF3E2001553F20015540200155412097
:103AF0000155422001554320015500BF00BF44201D
:103B0000015545200155462001554720015500BF6C
:103B10003D2001550020CEE708B50122920701683B
:103B200091420DD100BF0749C96B01221143054ADB
:103B3000D1631146C96BC907C90F009100BF00BF0F
:103B400008BD0000001002407047000070B5044638
:103B50000D46002D02D13E20005D15E0042D02D15E
:103B60003F20005D10E0082D02D14020005D0BE0F9
:103B70000C2D02D14120005D06E0102D02D1422023
:103B8000005D01E04320005D012801D0012070BDEF
:103B9000002D03D102213E2001551AE0042D03D14E
:103BA00002213F20015514E0082D03D102214020BD
:103BB00001550EE00C2D03D102214120015508E0F2
:103BC000102D03D102214220015502E002214320A1
:103BD000015501222946206801F05EF81E4920683F
:103BE000884207D01D492068884203D01C492068BC
:103BF000884201D1012000E00020002806D0206882
:103C0000406C0121C90308432168486412492068B7
:103C1000884208D0012189072068884203D01149D1
:103C2000206888420FD1206886680F490E40062E12
:103C30000FD0C81F86420CD02068006801210843BD
:103C40002168086005E020680068012108432168B8
:103C5000086000209BE70000002C01400044014068
:103C600000480140000400400700010010B5044670
:103C70000548844206D1FDF717FD04480088401C22
:103C80000249088010BD0000180400201001002027
:103C90007047014600BF8420405C012801D102200A
:103CA000704701238420435400BF242388204350BD
:103CB0000868026808680068400840000B681860DF
:103CC00001235B07104698430246002048660868B7
:103CD000026020238820435000BF002384204354E7
:103CE00000BF0020DCE7704770B504460D4600BFFA
:103CF0008420005D012801D1022070BD01218420B3
:103D0000015500BF242188200151206806682068E1
:103D1000006840084000216808602068806807212A
:103D200049068843284321688860204601F004FA48
:103D30002068066020218820015100BF00218420D6
:103D4000015500BF0020D8E770B504460D4600BFFE
:103D50008420005D012801D1022070BD0121842052
:103D6000015500BF24218820015120680668206881
:103D70000068400840002168086020688068C00032
:103D8000C008284321688860204601F0D5F92068E2
:103D9000066020218820015100BF002184200155A8
:103DA00000BF0020D9E7704710B50446002C01D1B0
:103DB000012010BDA069002800D000E000BF8820CD
:103DC0000059002805D1002184200155204600F02B
:103DD0002DF8242188200151206800684008400007
:103DE00021680860204601F0A3FB012800D1E0E72C
:103DF000A06A002802D0204601F0D2F9206840686D
:103E00000921C902884321684860206880682A2106
:103E10008843216888602068006801210843216880
:103E20000860204601F034FAC3E7000010B590B0F6
:103E3000044614210BA8FCF75AFA282101A8FCF724
:103E400056FA58492068884255D101200190002037
:103E5000029001A8FEF752FB002801D0FDF792FC6A
:103E600000BF514800680121890308434E4908609A
:103E700008460068012189030840009000BF00BF88
:103E800000BF49484038406B022108434649403949
:103E900048630846406B02210840009000BF00BF05
:103EA000C0200B9002200C9000200D900E900F90DF
:103EB0000BA93E48FEF764F93D483E4908603220B0
:103EC000486000213B488160C16080210161002180
:103ED000416181612021C16100210162FEF774F816
:103EE000002801D0FDF74EFC00BF3249802001516F
:103EF0000846846253E03049206888424FD100BFB1
:103F000029484038C06B01214904084326494039FB
:103F1000C8630846C06B012149040840009000BFF7
:103F200000BF00BF20484038406B012108431E49B4
:103F3000403948630846406BC007C00F009000BF7F
:103F400000BFC8130B9002200C9000200D900E9023
:103F500001200F900BA905200007FEF711F9144866
:103F600014381649086034204860002113488160E5
:103F7000C160802101610021416181612021C16115
:103F800000210162FEF720F8002801D0FDF7FAFBBE
:103F900000BF0A49802001510846846200BF10B06A
:103FA00010BD0000003801404010024000040050E5
:103FB000300002408C05002000440040E80500204D
:103FC000F8B504460D4616468C200059202837D1F6
:103FD000002D01D0002E01D10120F8BD01210903DF
:103FE000A068884208D12069002805D1E807C00FE1
:103FF000002801D00120F0E70020E0661149206888
:10400000884217D02068406809020840002811D073
:1040100000BF01F055FD0746012001F054FD206866
:10402000006801218906084321680860384601F0CC
:104030004AFD00BF32462946204601F001FCCCE78C
:104040000220CAE70080004070477047FFB583B088
:1040500004460D46174688200059202867D1002DB8
:1040600001D0002F02D1012007B0F0BD01210903CA
:10407000A068884208D12069002805D1E807C00F50
:10408000002801D00120EFE70021902001512121DB
:1040900088200151FEF770F90190542007535620F3
:1040A000075301210903A068884205D1206900282F
:1040B00002D10026029502E02E460020029021E067
:1040C00006980090002280212046019B01F02CFCE4
:1040D000002801D00320C7E7002E09D102980088EC
:1040E000C005C00D216888620298801C029003E020
:1040F000307821688862761C5620005B401E81B2B1
:10410000562001535620005B0028D9D10698009014
:10411000002240212046019B01F006FC002801D02E
:104120000320A1E720218820015100209CE70220E4
:104130009AE700BFFEE7000010B5032202490348DA
:10414000FDF7DCFE10BD0000D80100204402002075
:104150008168024A1140891C81607047E8FFFF7F37
:104160008168024A1140491C81607047E8FFFF7F67
:10417000014608680722920510407047014688688A
:10418000C007C00F01225040504070470146886868
:10419000012212071040000F704701468868042270
:1041A0001040800870470146C86803229202104000
:1041B000002801D1012070470020FCE78168024AF5
:1041C0001140091D81607047E8FFFF7F02680723E7
:1041D0009B059A430A430260704730B54369042443
:1041E0000D4625400724AC40A34304240C4015464B
:1041F000A5402B43436130BD0EB5002000900190D7
:1042000002902A482A490860000548600021284891
:104210008160C160012149050161042141610021E2
:1042200001764176012181760321C1610021001DC3
:104230000177001F41628162012124300172002157
:104240002438016301214163002181632430017618
:104250002438C164FDF7A8FC002801D0FDF792FACC
:104260001448009000200190029069461048FDF724
:10427000E5FA002801D0FDF785FA0F4800900420E8
:10428000019069460A48FDF7D9FA002801D0FDF7E8
:1042900079FA0A4800900820019069460448FDF721
:1042A000CDFA002801D0FDF76DFA0EBD00240140C3
:1042B0004402002002000004200000144000001806
:1042C00008B500BF0648806B012108430449886394
:1042D0000846806BC007C00F009000BF00BF08BD3C
:1042E0000010024000B587B0142102A8FBF7FFFFC1
:1042F00000BF4248406B04210843404948630846D8
:10430000406B04210840019000BF00BF00BF3B4844
:10431000406B01210843394948630846406BC00798
:10432000C00F019000BF00BF00BF0846406B0221D4
:104330000843324948630846406B02210840019017
:1043400000BF00BF002289032D48FEF70FF80122AD
:10435000802105200007FEF709F8012203212948E2
:10436000FEF704F80022FF21013105200007FDF7C8
:10437000FDFF0022FF2131312248FDF7F7FF012028
:10438000C00302900120039000200490059002A930
:104390001B48FDF7F5FEFF208130029001200390BD
:1043A00000200490059002A905200007FDF7E8FE13
:1043B000FF2012300290012003900020049005900D
:1043C00002A91048FDF7DCFE0220029001200390B4
:1043D000002004900220059002A90A48FDF7D0FEB3
:1043E00020200290012003900020049003200590DB
:1043F00002A90448FDF7C4FE07B000BD001002404A
:10440000000800500004005010B51248124908601E
:10441000FF200530486000210F4881600721090214
:10442000C1600021016141610121490281611821BE
:10443000C16100210162416281620721C1620021E4
:10444000016308214163FEF7EDFD002801D0FDF76F
:1044500099F910BD003001400403002010B5134845
:1044600013490860FF200530486000211048816032
:104470000F210902C1600221016100214161012176
:10448000490281611821C16100210162416281629A
:104490000721C1620021016308214163FEF7C2FDCB
:1044A000002801D0FDF76EF910BD00000038004073
:1044B0006803002010B50A480A4908603F20486098
:1044C0000021084881606321C16000210161816190
:1044D000FFF76EF8002801D0FDF754F910BD000079
:1044E000002000401804002000B58BB00020089088
:1044F00009900A901C2101A8FBF7F9FE0120800712
:104500001849086003204860002116488160164958
:10451000C160002101618161FFF7C8FA002801D064
:10452000FDF730F9002008900A9008A90D48FEF721
:10453000F3FF002801D0FDF725F96020019000204D
:10454000029003900590082201A90648FFF7F1F9AF
:10455000002801D0FDF716F90248FFF7BBF90BB0B0
:1045600000BD0000CC0300201F03000010B5194857
:104570001949086019484860002117488160C160E6
:1045800001610C21416100218161C16101624162CF
:104590000020114988620846FFF706FC002801D078
:1045A000FDF7F0F800210C48FFF7CEFB002801D002
:1045B000FDF7E8F800210848FFF796FB002801D036
:1045C000FDF7E0F80448FFF764FB002801D0FDF791
:1045D000D9F810BD003801406404002080841E001A
:1045E00010B50E480E4908600E48486000210C487E
:1045F0008160C16001610C21416100218161C16163
:10460000016241620020064988620846FFF7CCFB40
:10461000002801D0FDF7B6F810BD000000440040AE
:10462000F804002080841E0070B50948FCF7DCFF08
:1046300000280CD006494888FCF729FB04460022D4
:10464000044BFCF7B3F8044A03C200F087FA70BDCC
:104650008600002000005940A800002010B50C483A
:1046600000880C4948800A480088401C0849088096
:104670000221084801F02AFA0649888006210648E6
:10468000FCF76EFF06210348FCF782FF10BD000017
:10469000A0000020800000209900002000BFFEE75D
:1046A0007047000000200149087070478C0000200E
:1046B000F0B587B000220121C9034148FDF756FE3D
:1046C00040490988404A12881143084600F09AF888
:1046D0003E4908800122D1033948FDF747FEFDF726
:1046E00041F800220121C9033548FDF73FFE354955
:1046F0000988374A12881143084600F083F8354983
:1047000008800122D1032E48FDF730FEFDF72AF87C
:104710002E4800780002304908802E4800782F4942
:1047200008802D480088098840182D4908802948AC
:104730000088022108402B49087029480088801011
:104740002749088008460088FCF7A1FA04460022A1
:10475000254BFCF79FFA06460022244BFCF726F86F
:104760000022234B01910090FCF794FA0022214B88
:1047700003910290FBF7F7FF002201239B070591AD
:104780000490FCF787FA1C4A03C21C481A490CC85B
:1047900003C901F039FA05D2174801684068174A81
:1047A00011605060164814490CC803C901F0FAF9A9
:1047B00003D2114903C9124A03C207B0F0BD000079
:1047C000000800501C0000202000002024000020D1
:1047D0002200002026000020480000204A0000207F
:1047E0004C000020280000200000F03F0000D040D6
:1047F00000807640008066403000002038000020B5
:104800004000002001B582B0002101916420022304
:1048100001AA02A900900348FEF728FD6846808897
:104820000EBD000068030020F8B504460E4615468C
:10483000334600220321C9022046009500F0A0F86B
:10484000002805D0206E2021084320660320F8BDF3
:104850003346002280212046009500F00FF9002801
:1048600005D0206E2021084320660320EFE7334661
:104870000022032149022046009500F081F800281B
:1048800005D0206E2021084320660320DFE70020AA
:10489000DDE7000010B5012210210448FDF766FD98
:1048A000FCF774FF00F036F810BD00000004005063
:1048B00070B504460D4616460320144908700022C0
:1048C00010211348FDF752FD032000F047F82102A4
:1048D000080E00F043F82104080E00F03FF8E0B2A3
:1048E00000F03CF804E0FF2000F038F828706D1C60
:1048F0003046711E8EB20028F5D1012210210448E5
:10490000FDF734FDFCF742FF70BD000004000020FD
:104910000004005010B5002210210E48FDF726FDBE
:104920009F2000F01BF8FF2000F018F80A490870DB
:10493000FF2000F013F808494870FF2000F00EF83F
:1049400005498870012210210248FDF70FFDFCF790
:104950001DFF10BD000400500900002001B582B009
:10496000002101916420012301AA02A900900348BB
:10497000FEF77CFC684600790EBD000004030020B1
:10498000F0B585B004460D4616461F46002000903F
:10499000FDF7F2FC0A99401A381A0390FDF7ECFC77
:1049A000029020680C30019033480068232148436E
:1049B000000D03994843049056E0032040028542CD
:1049C00006D1002E04D10198017800916846007844
:1049D000781C002848D0FDF7CFFC0299411A0398B3
:1049E000814202D20398002837D120684068E02134
:1049F000884321684860FF210531606888420ED1F4
:104A00000121C903A068884203D04911A0688842E7
:104A100005D1206800684021884321680860012191
:104A20004903A06A88420DD100BF2068006888430E
:104A30002168086020680068012149030843216853
:104A4000086000BF01215D20015500BF00215C20EE
:104A5000015500BF032005B0F0BD0498002800D127
:104A600003900498401E0490206880682840B0425B
:104A7000A3D10020EFE70000D4010020FFB583B0F0
:104A800004460D461E46FDF777FC0C99401A371A6E
:104A9000FDF772FC01902F4800684001000D78433B
:104AA000029049E0701C002846D0FDF765FC019992
:104AB000401AB84201D2002F37D120684068E02167
:104AC000884321684860FF210531606888420ED123
:104AD0000121C903A068884203D04911A068884217
:104AE00005D12068006840218843216808600121C1
:104AF0004903A06A88420DD100BF2068006888433E
:104B00002168086020680068012149030843216882
:104B1000086000BF01215D20015500BF00215C201D
:104B2000015500BF032007B0F0BD0298002800D156
:104B300000270298401E0290206880682840A84202
:104B400001D1012100E0002105988142AAD1002075
:104B5000E9E70000D401002070470000012001496E
:104B6000087070478C00002010B5FDF70BFC10BDDD
:104B700000B593B0382105A8FBF7B9FB00200190E0
:104B800002900390049001204002FDF78BFC01206D
:104B9000059005200004069002200C9003210D9141
:104BA00040210E9120210F910104109101061191D5
:104BB0000107129105A8FDF757FF002801D0FCF767
:104BC000E1FD072001900220029000200390049054
:104BD000022101A8FDF7D2FD002801D0FCF7D2FD8B
:104BE00013B000BD7047000010B50248FEF776FD17
:104BF00010BD00001804002010B50268214B984237
:104C000006D001239B07984202D01F4B984205D142
:104C100070241346A3431A464B681A43194B984213
:104C20000FD001239B0798420BD0174B984208D016
:104C3000164B984205D0164B984202D0154B98421D
:104C400006D1032424021346A3431A46CB681A4311
:104C500080241346A3434C6923431A4602608B68A1
:104C6000C3620B688362074B984205D0084B984299
:104C700002D0084B984201D10B69036301234361C1
:104C800010BD0000002C0140000400400020004046
:104C9000004401400048014070B5CD06ED0E0124EE
:104CA000AC402346046A9C430462046ACE06F60EB6
:104CB0001546B5402C43046270BD000070B5056A0E
:104CC0006D086D000562026A436884691E4D2C40C0
:104CD000A408A4000D682C4302261546B5432A46B5
:104CE0008D682A43194DA84200D107E0184DA8420B
:104CF00000D103E0174DA8420AD100BF082615468F
:104D0000B5432A46CD682A4304261546B5432A46AC
:104D10000E4DA84205D00E4DA84202D00D4DA8421E
:104D20000CD1FF2601361D46B5432B4676001D46A5
:104D3000B5432B464D692B438D692B4343608461FA
:104D40004D684563026270BD8FFFFEFF002C01407D
:104D5000004401400048014070B5056A1026B54383
:104D60000562026A43688469224D2C40032636029C
:104D70002546B5432C460D682D022C4320261546AA
:104D8000B5432A468D682D012A431B4DA84200D108
:104D900007E01A4DA84200D100BF194DA8420BD11F
:104DA0000AE080261546B5432A46CD682D012A43E0
:104DB00040261546B5432A460F4DA84205D00F4D53
:104DC000A84202D00E4DA8420ED10126B6021D46C1
:104DD000B5432B4676001D46B5432B464D69AD00C5
:104DE0002B438D69AD002B43436084614D6885631F
:104DF000026270BDFF8FFFFE002C014000440140A5
:104E00000048014070B5056AFF260136B5430562CA
:104E1000026A4368C469214D2C40A408A4000D68AF
:104E20002C4376001546B5432A468D682D022A4349
:104E30001B4DA84200D107E01A4DA84200D100BF87
:104E4000194DA8420CD10BE00126F6021546B543D8
:104E50002A46CD682D022A4376101546B5432A46C8
:104E60000F4DA84205D00F4DA84202D00E4DA842CA
:104E70000ED1012636031D46B5432B4676001D464E
:104E8000B5432B464D692D012B438D692D012B43D5
:104E90004360C4614D68C563026270BD8FFFFEFF51
:104EA000002C0140004401400048014070B5056AF3
:104EB00001263603B5430562036A4468C269144D8E
:104EC0002A40032636021546B5432A460D682D02B0
:104ED0002A43012676031D46B5432B468D682D03D4
:104EE0002B430C4DA84205D00B4DA84202D00B4DD0
:104EF000A84207D10126B6032546B5432C464D6985
:104F0000AD012C434460C2614D680564036270BD0D
:104F1000FF8FFFFE002C014000440140004801408B
:104F200070B5056A01263604B5430562026A436816
:104F3000446D114D2C400D682C4376001546B54349
:104F40002A460D892D042A430C4DA84205D00C4D4C
:104F5000A84202D00B4DA84207D1012636041D46B7
:104F6000B5432B464D692D022B43436044654D6884
:104F70008565026270BD00008FFFFEFF002C0140BE
:104F8000004401400048014070B5056A012636051D
:104F9000B5430562026A4368446D114D2C400D68AB
:104FA0002D022C4376001546B5432A460D892D0562
:104FB0002A430C4DA84205D00B4DA84202D00B4D00
:104FC000A84207D10126B6041D46B5432B464D69BC
:104FD000AD022B43436044654D68C565026270BDF8
:104FE000FF8FFFFE002C01400044014000480140BB
:104FF0000020014908707047B70000200848006889
:10500000401C07490860084600680649096888424C
:1050100005D3012004490870002001490860704749
:10502000F4000020D4000020B70000200020014937
:1050300008707047B300002008480068401C07490A
:1050400008600846006806490968884205D30120BF
:10505000044908700020014908607047E4000020FE
:10506000C4000020B30000200020014908707047F0
:10507000B100002008480068401C07490860084645
:10508000006806490968884205D301200449087070
:105090000020014908607047DC000020BC000020AF
:1050A000B10000200020014908707047B4000020C2
:1050B00008480068401C074908600846006806491F
:1050C0000968884205D3012004490870002001497D
:1050D00008607047E8000020C8000020B4000020ED
:1050E000FEB50C4A0C4B0D4903C9FBF73CFB0446CB
:1050F00000220B4BFBF7CEFD06460A4A0A4BFBF794
:10510000C9FD0A4A0A4B01910090FBF71FFB094AAF
:1051100003C2FEBD85EB51B81E85FB3F7000002029
:1051200000407F40B81E85EB51B89E3F0AD7A37060
:105130003D0AD73F78000020F8B50446606E00288D
:1051400005D101216A2001536820015322E008277C
:105150000822009220688068072149060840450E11
:1051600020688068460F0C4A915D0C4A935D009A56
:1051700053431846FBF7C7F881B26A200153064A29
:10518000515D064A525D7A431046FBF7BCF881B286
:1051900068200153F8BD00009B5C0008935C000888
:1051A000018DC907C90F002908D00168496801228B
:1051B00052049143C26A1143026851600222816A1B
:1051C0001140022907D101684968D2039143026B5B
:1051D0001143026851600422816A1140042907D1F9
:1051E0000168496812049143426B1143026851609F
:1051F0000822816A1140082907D101684968120311
:105200009143826B1143026851601022816A114000
:10521000102907D10168896812029143C26B1143BA
:10522000026891602022816A1140202907D101681B
:10523000896812029143026C114302689160402216
:10524000816A1140402915D1016849689203914350
:10525000426C11430268516001221205416C914277
:1052600008D101684968032252059143826C1143B9
:10527000026851608022816A1140802907D101684B
:10528000496812039143C26C114302685160704730
:1052900038B50446002190200151FDF76DF8054610
:1052A000206800680821084008280BD116482B46C2
:1052B000002289040090204600F036FB002801D02F
:1052C000032038BD206800680421084004280BD161
:1052D0000D482B46002209050090204600F024FBD3
:1052E000002801D00320ECE72021882001518C20E8
:1052F00001510020E066206700BF00218420015595
:1053000000BF0020DDE70000FFFFFF01F8B5054604
:10531000AC6A882006598C20075920688068802153
:105320000840802807D1212E05D1002156200153A5
:10533000204600F0D3F820688068402108404028CB
:1053400007D1222F05D100215E200153204600F015
:1053500083F89020005910210843902108512046DD
:10536000FEF721FDF8BD70B50546AC6A28680068F7
:105370002021084000284DD100215E20015300BFAC
:1053800000F09EFB0646012000F09DFB20680068AF
:10539000FF210131884321680860304600F093FB0B
:1053A00000BF00BF00F08CFB0646012000F08BFB25
:1053B000206880684008400021688860304600F01E
:1053C00082FB00BF00BF00F07BFB0646012000F01F
:1053D0007AFB2068806840218843216888603046D5
:1053E00000F071FB00BF20218C200151E06E0128EC
:1053F00010D100BF00F064FB0646012000F063FB03
:10540000206800681021884321680860304600F059
:105410005AFB00BF00202067E06E012805D15C2008
:10542000015B2046FEF75FFC02E02046FEF70CFE23
:1054300070BD70B50546AC6A01202067E06E01289A
:1054400006D15C20005B41082046FEF74CFC02E0E0
:105450002046FEF7FAFD70BD70B5044600BF00F0AF
:105460002FFB0546012000F02EFB20680068FF217D
:105470002131884321680860284600F024FB00BFE2
:1054800000BF00F01DFB0546012000F01CFB20685A
:1054900080681149084021688860284600F013FBA5
:1054A00000BFE06E012810D100BF00F009FB0546E7
:1054B000012000F008FB2068006810218843216863
:1054C0000860284600F0FFFA00BF20218C2001511F
:1054D0000020E066606770BDFEFFFFEF70B5044618
:1054E00000BF00F0EDFA0546012000F0ECFA20685C
:1054F0000068C021884321680860284600F0E3FA6C
:1055000000BF00BF00F0DCFA0546012000F0DBFA26
:10551000206880680121C905884321688860284681
:1055200000F0D1FA00BF20218820015170BD000099
:10553000F0B58DB0044600200590B7492068884238
:1055400000D100E000BF2169A068084361690843F9
:10555000E1690843079020680068B049084007994E
:1055600008432168086020684068032109038843D4
:10557000E168084321684860A0690790A64920684F
:10558000884203D0206A0799084307902068806802
:10559000A349084007990843216888602068C06AC9
:1055A00000090001616A08432168C86200BF9D4983
:1055B0002068884217D19C4840698007800F0028E6
:1055C00006D0012808D0022804D0032808D105E01D
:1055D000002607E0022605E0042603E0082601E095
:1055E000102600BF25E091492068884201D100269D
:1055F0001FE08949206888421AD18B4840690321FD
:1056000089020840002808D001218902401A08D0E8
:10561000401A04D0401A08D105E0002607E002260F
:1056200005E0042603E0082601E0102600BF00E0A4
:10563000102600BF78492068884263D1002E06D02A
:10564000022E08D0042E08D0082E0DD109E0FDF757
:1056500085F905460CE0764D0AE0FDF793F905461D
:1056600006E00125ED0303E000250120059000BFC1
:1056700000BF002D14D0606A40006E4A115A2846BF
:10568000FAF737FE0490606841004118049881429F
:1056900004D8606801030498814202D20120059079
:1056A000AEE0606A40006349085A02460023019058
:1056B00028461946FAF77CFDFF230133002209939F
:1056C00008920A910B901A46089BFAF759FD6268F6
:1056D00052080023801859410391029060680246E5
:1056E00001900298FAF764FD0746032109028F42F0
:1056F00005D35148874202D82068C76080E0012066
:1057000005907DE00121C903E069884241D1002E66
:1057100006D0022E08D0042E08D0082E0DD109E0A4
:10572000FDF71CF905460CE0414D0AE0FDF72AF9AA
:10573000054606E00125ED0303E000250120059064
:1057400000BF00BF002D5BD0606A4000394A115A8B
:105750002846FAF7CEFD40006168490840180390DA
:105760006168FAF7C6FD0746102F0FD3334887420A
:105770000CD832480F38384006903807400F069949
:105780000843069006982168C86039E0012005901A
:1057900036E0002E06D0022E08D0042E08D0082EA7
:1057A0000DD109E0FDF7DAF805460CE0204D0AE0DE
:1057B000FDF7E8F8054606E00125ED0303E00025C6
:1057C0000120059000BF00BF002D19D0606A400085
:1057D000184A115A2846FAF78CFD616849084018A2
:1057E00003906168FAF785FD0746102F06D313482A
:1057F000874203D8B8B22168C86001E00120059053
:1058000001216A2001536820015300206067A067CE
:1058100005980DB0F0BD000000800040F369FFCF97
:10582000FFF4FF11003801404010024000440040E6
:105830000024F400765C0008FFFF0F00FFFF00006B
:10584000F8B504460E461546A6655C2005530021B2
:105850009020015122218C200151802000590028E4
:1058600022D02E4980200059C1622D498020005944
:1058700001632C4980200059416300218020005998
:105880008163236819462431802318592B46A26D61
:10589000FCF7FAFB002807D01021902001512021AD
:1058A0008C2001510120F8BD2069002811D000BFD3
:1058B00000F006F90746012000F005F920680068AD
:1058C000FF210131084321680860384600F0FBF8E9
:1058D00000BF00BF00F0F4F80746012000F0F3F825
:1058E000206880680121084321688860384600F0FC
:1058F000EAF800BF00BF00F0E3F80746012000F01F
:10590000E2F82068806840210843216888603846B2
:1059100000F0D9F800BF0020C5E700006753000879
:10592000335400080D530008FFB581B004460D46FE
:1059300017460A9E7BE0701C002878D0FCF71CFDFF
:105940000499401AB04201D8002E2FD100BF00F0B8
:10595000B7F80090012000F0B6F820680068FF2139
:10596000A131884321680860009800F0ACF800BFBE
:1059700000BF00F0A5F80090012000F0A4F8206816
:1059800080684008400021688860009800F09BF81B
:1059900000BF2021882001518C20015100BF00212F
:1059A0008420015500BF032005B0F0BD20680068C9
:1059B0000421084000283AD02068C0694902084004
:1059C000C00A002833D008462168086200BF00F0F2
:1059D00077F80090012000F076F820680068FF2139
:1059E000A131884321680860009800F06CF800BF7E
:1059F00000BF00F065F80090012000F064F8206816
:105A000080684008400021688860009800F05BF8DA
:105A100000BF2021882001518C200151902001518C
:105A200000BF00218420015500BF0320BCE720688F
:105A3000C0692840A84201D1012000E00020B842FE
:105A400000D178E70020AFE710B5002819DB1A4A2B
:105A500003231B02D21883089B00D2588307DC0E55
:105A6000FF23A3409A438B071B0E8407E40EA34039
:105A70001A43114B032424021B198408A4001A5151
:105A800018E00E4A03071B0F083B9B089B00D258E7
:105A90008307DC0EFF23A3409A438B071B0E84076A
:105AA000E40EA3401A43054B0407240F083CA40846
:105AB000A4001A5110BD000000E100E01CED00E060
:105AC000EFF31080704780F310887047F8B50246F6
:105AD0000B460024002613481349009100211EE0C4
:105AE0000124E4034D00565B002514E00127FF0369
:105AF0000740002F04D04704380C0B4F784001E0DA
:105B00004704380C37462740002F01D0064F784015
:105B100064106F1CBDB2102DE8DB4D1CA9B2994278
:105B2000DEDBF8BDFFFF000021100000FCF736FCB3
:105B3000FFF71EF8FEF7D6FBFEF7C2FBFEF764FC8C
:105B4000FEF7B8FCFEF758FBFEF788FCFEF7CCFC2E
:105B5000FEF746FDFEF70AFD7D20C000FCF7FAFACD
:105B6000FEF7EAFAFEF796FE05220C490020FEF742
:105B70009FFEFBF725FCFBF721FDFBF745FD7D2094
:105B8000C000FCF7E7FA00200146FBF7C7FB04481A
:105B9000FDF766FD01E0FBF751FDFCE73802002050
:105BA0001804002070B501250C002D051C4310D4ED
:105BB000EC4206D4AC420AD4994200D070BD904267
:105BC00070BDE94217D4EB4215D4994270BD8942A9
:105BD00070BDEC4206D5AC42F9D58B4200D070BD09
:105BE000824270BD6D004C00EC4204D25C00EC427D
:105BF00001D28B4270BD034C30B4FBF76FF930BC5F
:105C000070BD00BF1900160470B501251C002D05DC
:105C10000C4310D4EC4206D4AC420AD48B4200D0E0
:105C200070BD824270BDEB4217D4E94215D48B425D
:105C300070BD9B4270BDEC4206D5AC42F9D599428D
:105C400000D070BD904270BD6D005C00EC4204D28B
:105C50004C00EC4201D2994270BD0FB4034C0CBC15
:105C600003BC30B4FBF73AF930BC70BD1900160420
:105C7000081C30445800010002000400060008001F
:105C80000A000C0010002000400080000001081CE9
:105C90003044580101010307010000080402040810
:105CA00001010100081C3044580000000000000001
:105CB00000000000000000000000000000000000E4
:105CC00000000000000000000000000001000000D3
:105CD00002000000030000000400000006000000B5
:105CE000070000000800000009000000000000009C
:105CF00000000000000000000000000001000000A3
:105D000002000000030000000400000080807F7E8D
:105D10007D7C7B7A79787776767574737271717021
:105D20006F6E6E6D6C6C6B6A6A69686867666665D3
:105D30006464636362616160605F5F5E5E5D5D5C61
:105D40005C5B5B5A5A5959585857575656555555D2
:105D50005454535352525251515050504F4F4F4E32
:105D60004E4D4D4D4C4C4C4B4B4B4A4A4A49494980
:105D700048484847474747464646454545444444C2
:105D8000444343434342424242414141AC5D0008E7
:105D900000000020D801000072100008045E000816
:105DA000D8010020D00A000004010008011D328043
:105DB000120302210404518076400719AAA2A3A469
:105DC000A5A63232320A4BF4010829045A6418029B
:105DD0002402062001020304053C10403301031095
:105DE000D33F2B9A99015AC918032E3E405A493085
:105DF000031549C05BE085200A2B14582A04D741BB
:045E00001324F40073
:04000005080000C12E
:00000001FF
