Component: ARM Compiler 5.06 update 4 (build 422) Tool: armlink [4d35d2]

==============================================================================

Section Cross References

    startup_stm32g070xx.o(STACK) refers (Special) to heapauxi.o(.text) for __use_two_region_memory
    startup_stm32g070xx.o(HEAP) refers (Special) to heapauxi.o(.text) for __use_two_region_memory
    startup_stm32g070xx.o(RESET) refers (Special) to heapauxi.o(.text) for __use_two_region_memory
    startup_stm32g070xx.o(RESET) refers to startup_stm32g070xx.o(STACK) for __initial_sp
    startup_stm32g070xx.o(RESET) refers to startup_stm32g070xx.o(.text) for Reset_Handler
    startup_stm32g070xx.o(RESET) refers to stm32g0xx_it.o(i.NMI_Handler) for NMI_Handler
    startup_stm32g070xx.o(RESET) refers to stm32g0xx_it.o(i.HardFault_Handler) for HardFault_Handler
    startup_stm32g070xx.o(RESET) refers to stm32g0xx_it.o(i.SVC_Handler) for SVC_Handler
    startup_stm32g070xx.o(RESET) refers to stm32g0xx_it.o(i.PendSV_Handler) for PendSV_Handler
    startup_stm32g070xx.o(RESET) refers to stm32g0xx_it.o(i.SysTick_Handler) for SysTick_Handler
    startup_stm32g070xx.o(RESET) refers to stm32g0xx_it.o(i.TIM6_IRQHandler) for TIM6_IRQHandler
    startup_stm32g070xx.o(.text) refers (Special) to heapauxi.o(.text) for __use_two_region_memory
    startup_stm32g070xx.o(.text) refers to system_stm32g0xx.o(i.SystemInit) for SystemInit
    startup_stm32g070xx.o(.text) refers to __main.o(!!!main) for __main
    startup_stm32g070xx.o(.text) refers to startup_stm32g070xx.o(HEAP) for Heap_Mem
    startup_stm32g070xx.o(.text) refers to startup_stm32g070xx.o(STACK) for Stack_Mem
    data_pre.o(i.Energy_Threshold_Flag) refers to drlef.o(x$fpl$drleqf) for __aeabi_cdrcmple
    data_pre.o(i.Energy_Threshold_Flag) refers to data_pre.o(.data) for Move_Energy
==============================================================================

Removing Unused input sections from the image.

    Removing data_pre.o(.rev16_text), (4 bytes).
    Removing data_pre.o(.revsh_text), (4 bytes).
    Removing data_pre.o(i.Energy_Threshold_Flag), (32 bytes).
    Removing data_pre.o(i.Power_Low_Warning_Flag_Sent_Flag_Get), (12 bytes).
    Removing data_pre.o(i.Power_Low_Warning_Flag_Sent_Flag_Reset), (12 bytes).
    Removing data_pre.o(i.Power_Low_Warning_Flag_Sent_Flag_Set), (12 bytes).
    Removing data_pre.o(i.Power_Low_Warning_Flag_Set), (12 bytes).
    Removing data_pre.o(i.Power_Out_Warning_Flag_Sent_Flag_Get), (12 bytes).
    Removing data_pre.o(i.Power_Out_Warning_Flag_Sent_Flag_Reset), (12 bytes).
    Removing data_pre.o(i.Power_Out_Warning_Flag_Sent_Flag_Set), (12 bytes).
    Removing data_pre.o(i.Power_Out_Warning_Flag_Set), (12 bytes).
    Removing data_pre.o(.constdata), (7 bytes).
    Removing mode1.o(.rev16_text), (4 bytes).
    Removing mode1.o(.revsh_text), (4 bytes).
    Removing mode1.o(i.Mode1_State_Detect), (40 bytes).
    Removing mode1.o(i.Mode1_Torque_Execute), (64 bytes).
    Removing mode1.o(i.Reset_Torque_Cos_L_N_Flag), (12 bytes).
    Removing mode1.o(i.Reset_Torque_Cos_L_P_Flag), (36 bytes).
==============================================================================

Image Symbol Table

    Local Symbols

    Symbol Name                              Value     Ov Type        Size  Object(Section)

    ../Drivers/STM32G0xx_HAL_Driver/Src/stm32g0xx_hal.c 0x00000000   Number         0  stm32g0xx_hal.o ABSOLUTE
    ../Drivers/STM32G0xx_HAL_Driver/Src/stm32g0xx_hal_adc.c 0x00000000   Number         0  stm32g0xx_hal_adc.o ABSOLUTE
    ../Drivers/STM32G0xx_HAL_Driver/Src/stm32g0xx_hal_adc_ex.c 0x00000000   Number         0  stm32g0xx_hal_adc_ex.o ABSOLUTE
    ../Drivers/STM32G0xx_HAL_Driver/Src/stm32g0xx_hal_cortex.c 0x00000000   Number         0  stm32g0xx_hal_cortex.o ABSOLUTE
    ../Drivers/STM32G0xx_HAL_Driver/Src/stm32g0xx_hal_dma.c 0x00000000   Number         0  stm32g0xx_hal_dma.o ABSOLUTE
    ../Drivers/STM32G0xx_HAL_Driver/Src/stm32g0xx_hal_dma_ex.c 0x00000000   Number         0  stm32g0xx_hal_dma_ex.o ABSOLUTE
    ../Drivers/STM32G0xx_HAL_Driver/Src/stm32g0xx_hal_exti.c 0x00000000   Number         0  stm32g0xx_hal_exti.o ABSOLUTE
    ../Drivers/STM32G0xx_HAL_Driver/Src/stm32g0xx_hal_flash.c 0x00000000   Number         0  stm32g0xx_hal_flash.o ABSOLUTE
    ../Drivers/STM32G0xx_HAL_Driver/Src/stm32g0xx_hal_flash_ex.c 0x00000000   Number         0  stm32g0xx_hal_flash_ex.o ABSOLUTE
    ../Drivers/STM32G0xx_HAL_Driver/Src/stm32g0xx_hal_gpio.c 0x00000000   Number         0  stm32g0xx_hal_gpio.o ABSOLUTE
    ../Drivers/STM32G0xx_HAL_Driver/Src/stm32g0xx_hal_pwr.c 0x00000000   Number         0  stm32g0xx_hal_pwr.o ABSOLUTE
    ../Drivers/STM32G0xx_HAL_Driver/Src/stm32g0xx_hal_pwr_ex.c 0x00000000   Number         0  stm32g0xx_hal_pwr_ex.o ABSOLUTE
    ../Drivers/STM32G0xx_HAL_Driver/Src/stm32g0xx_hal_rcc.c 0x00000000   Number         0  stm32g0xx_hal_rcc.o ABSOLUTE
    ../Drivers/STM32G0xx_HAL_Driver/Src/stm32g0xx_hal_rcc_ex.c 0x00000000   Number         0  stm32g0xx_hal_rcc_ex.o ABSOLUTE
    ../Drivers/STM32G0xx_HAL_Driver/Src/stm32g0xx_hal_spi.c 0x00000000   Number         0  stm32g0xx_hal_spi.o ABSOLUTE
    ../Drivers/STM32G0xx_HAL_Driver/Src/stm32g0xx_hal_spi_ex.c 0x00000000   Number         0  stm32g0xx_hal_spi_ex.o ABSOLUTE
    ../Drivers/STM32G0xx_HAL_Driver/Src/stm32g0xx_hal_tim.c 0x00000000   Number         0  stm32g0xx_hal_tim.o ABSOLUTE
    ../Drivers/STM32G0xx_HAL_Driver/Src/stm32g0xx_hal_tim_ex.c 0x00000000   Number         0  stm32g0xx_hal_tim_ex.o ABSOLUTE
    ../Drivers/STM32G0xx_HAL_Driver/Src/stm32g0xx_hal_uart.c 0x00000000   Number         0  stm32g0xx_hal_uart.o ABSOLUTE
    ../Drivers/STM32G0xx_HAL_Driver/Src/stm32g0xx_hal_uart_ex.c 0x00000000   Number         0  stm32g0xx_hal_uart_ex.o ABSOLUTE
    ../Drivers/STM32G0xx_HAL_Driver/Src/stm32g0xx_ll_adc.c 0x00000000   Number         0  stm32g0xx_ll_adc.o ABSOLUTE
    ../Drivers/STM32G0xx_HAL_Driver/Src/stm32g0xx_ll_dma.c 0x00000000   Number         0  stm32g0xx_ll_dma.o ABSOLUTE
    ../Drivers/STM32G0xx_HAL_Driver/Src/stm32g0xx_ll_rcc.c 0x00000000   Number         0  stm32g0xx_ll_rcc.o ABSOLUTE
    ../Src/adc.c                             0x00000000   Number         0  adc.o ABSOLUTE
    ../Src/dma.c                             0x00000000   Number         0  dma.o ABSOLUTE
    ../Src/gpio.c                            0x00000000   Number         0  gpio.o ABSOLUTE
    ../Src/main.c                            0x00000000   Number         0  main.o ABSOLUTE
    ../Src/spi.c                             0x00000000   Number         0  spi.o ABSOLUTE
    ../Src/stm32g0xx_hal_msp.c               0x00000000   Number         0  stm32g0xx_hal_msp.o ABSOLUTE
    ../Src/stm32g0xx_it.c                    0x00000000   Number         0  stm32g0xx_it.o ABSOLUTE
    ../Src/system_stm32g0xx.c                0x00000000   Number         0  system_stm32g0xx.o ABSOLUTE
    ../Src/tim.c                             0x00000000   Number         0  tim.o ABSOLUTE
    ../Src/usart.c                           0x00000000   Number         0  usart.o ABSOLUTE
    ../clib/../cmprslib/zerorunl2.c          0x00000000   Number         0  __dczerorl2.o ABSOLUTE
    ../clib/angel/boardlib.s                 0x00000000   Number         0  boardinit2.o ABSOLUTE
    ../clib/angel/boardlib.s                 0x00000000   Number         0  boardinit1.o ABSOLUTE
    ../clib/angel/boardlib.s                 0x00000000   Number         0  boardinit3.o ABSOLUTE
    ../clib/angel/boardlib.s                 0x00000000   Number         0  boardshut.o ABSOLUTE
    ../clib/angel/handlers.s                 0x00000000   Number         0  __scatter_zi.o ABSOLUTE
    ../clib/angel/kernel.s                   0x00000000   Number         0  rtexit2.o ABSOLUTE
    ../clib/angel/kernel.s                   0x00000000   Number         0  __rtentry2.o ABSOLUTE
    ../clib/angel/kernel.s                   0x00000000   Number         0  rtexit.o ABSOLUTE
    ../clib/angel/kernel.s                   0x00000000   Number         0  __rtentry.o ABSOLUTE
    ../clib/angel/kernel.s                   0x00000000   Number         0  __rtentry4.o ABSOLUTE
    ../clib/angel/rt.s                       0x00000000   Number         0  rt_raise.o ABSOLUTE
    ../clib/angel/rt.s                       0x00000000   Number         0  rt_errno_addr.o ABSOLUTE
    ../clib/angel/rt.s                       0x00000000   Number         0  rt_errno_addr_intlibspace.o ABSOLUTE
    ../clib/angel/rt.s                       0x00000000   Number         0  aeabi_idiv0_sigfpe.o ABSOLUTE
    ../clib/angel/rt.s                       0x00000000   Number         0  aeabi_idiv0.o ABSOLUTE
    ../clib/angel/rt.s                       0x00000000   Number         0  rt_div0.o ABSOLUTE
    ../clib/angel/scatterp.s                 0x00000000   Number         0  __scatter.o ABSOLUTE
    ../clib/angel/startup.s                  0x00000000   Number         0  __main.o ABSOLUTE
    ../clib/angel/sys.s                      0x00000000   Number         0  sys_stackheap_outer.o ABSOLUTE
    ../clib/angel/sys.s                      0x00000000   Number         0  libspace.o ABSOLUTE
    ../clib/angel/sys.s                      0x00000000   Number         0  tempstk.o ABSOLUTE
    ../clib/angel/sys.s                      0x00000000   Number         0  use_no_semi.o ABSOLUTE
    ../clib/angel/sys.s                      0x00000000   Number         0  indicate_semi.o ABSOLUTE
    ../clib/angel/sysapp.c                   0x00000000   Number         0  sys_exit.o ABSOLUTE
    ../clib/angel/sysapp.c                   0x00000000   Number         0  sys_wrch.o ABSOLUTE
    ../clib/angel/sysapp.c                   0x00000000   Number         0  sys_command.o ABSOLUTE
    ../clib/armsys.c                         0x00000000   Number         0  argv_veneer.o ABSOLUTE
    ../clib/armsys.c                         0x00000000   Number         0  _get_argv_nomalloc.o ABSOLUTE
    ../clib/armsys.c                         0x00000000   Number         0  no_argv.o ABSOLUTE
    ../clib/division.s                       0x00000000   Number         0  aeabi_sdiv_div0.o ABSOLUTE
    ../clib/division.s                       0x00000000   Number         0  aeabi_sdiv.o ABSOLUTE
    ../clib/fenv.c                           0x00000000   Number         0  _rserrno.o ABSOLUTE
    ../clib/heapalloc.c                      0x00000000   Number         0  hrguard.o ABSOLUTE
    ../clib/heapaux.c                        0x00000000   Number         0  heapauxi.o ABSOLUTE
    ../clib/libinit.s                        0x00000000   Number         0  libshutdown2.o ABSOLUTE
    ../clib/libinit.s                        0x00000000   Number         0  libinit2.o ABSOLUTE
    ../clib/libinit.s                        0x00000000   Number         0  libinit.o ABSOLUTE
    ../clib/libinit.s                        0x00000000   Number         0  libshutdown.o ABSOLUTE
    ../clib/memcpset.c                       0x00000000   Number         0  rt_memcpy.o ABSOLUTE
    ../clib/memcpset.c                       0x00000000   Number         0  rt_memcpy.o ABSOLUTE
    ../clib/memcpset.c                       0x00000000   Number         0  rt_memclr.o ABSOLUTE
    ../clib/signal.c                         0x00000000   Number         0  defsig_rtmem_inner.o ABSOLUTE
    ../clib/signal.c                         0x00000000   Number         0  defsig_rtred_inner.o ABSOLUTE
    ../clib/signal.c                         0x00000000   Number         0  defsig_abrt_inner.o ABSOLUTE
    ../clib/signal.c                         0x00000000   Number         0  defsig_rtmem_formal.o ABSOLUTE
    ../clib/signal.c                         0x00000000   Number         0  defsig_stak_inner.o ABSOLUTE
    ../clib/signal.c                         0x00000000   Number         0  defsig_pvfn_inner.o ABSOLUTE
    ../clib/signal.c                         0x00000000   Number         0  defsig_other.o ABSOLUTE
    ../clib/signal.c                         0x00000000   Number         0  defsig_cppl_inner.o ABSOLUTE
    ../clib/signal.c                         0x00000000   Number         0  defsig_segv_inner.o ABSOLUTE
    ../clib/signal.c                         0x00000000   Number         0  defsig_general.o ABSOLUTE
    ../clib/signal.c                         0x00000000   Number         0  defsig_fpe_formal.o ABSOLUTE
    ../clib/signal.c                         0x00000000   Number         0  defsig_fpe_outer.o ABSOLUTE
    ../clib/signal.c                         0x00000000   Number         0  __raise.o ABSOLUTE
    ../clib/signal.c                         0x00000000   Number         0  defsig_fpe_inner.o ABSOLUTE
    ../clib/signal.c                         0x00000000   Number         0  defsig_exit.o ABSOLUTE
    ../clib/signal.c                         0x00000000   Number         0  defsig_rtmem_outer.o ABSOLUTE
    ../clib/signal.s                         0x00000000   Number         0  defsig.o ABSOLUTE
    ../clib/stdlib.c                         0x00000000   Number         0  exit.o ABSOLUTE
    ../fplib/cfplib/cmpret.c                 0x00000000   Number         0  cmpret.o ABSOLUTE
    ../fplib/cfplib/daddsub.c                0x00000000   Number         0  daddsub.o ABSOLUTE
    ../fplib/cfplib/dcmpin.c                 0x00000000   Number         0  dcmpin.o ABSOLUTE
    ../fplib/cfplib/ddiv.c                   0x00000000   Number         0  ddiv.o ABSOLUTE
    ../fplib/cfplib/dmul.c                   0x00000000   Number         0  dmul.o ABSOLUTE
    ../fplib/cfplib/ffix.c                   0x00000000   Number         0  dfixi.o ABSOLUTE
    ../fplib/cfplib/ffix.c                   0x00000000   Number         0  dfixui.o ABSOLUTE
    ../fplib/cfplib/fflt.c                   0x00000000   Number         0  dflti.o ABSOLUTE
    ../fplib/cfplib/fpinit.c                 0x00000000   Number         0  fpinit.o ABSOLUTE
    ../fplib/cfplib/nan2.c                   0x00000000   Number         0  dnan2.o ABSOLUTE
    ../fplib/cfplib/retnan.c                 0x00000000   Number         0  retnan.o ABSOLUTE
    ../fplib/cfplib/scalbn.c                 0x00000000   Number         0  dscalbn.o ABSOLUTE
    ../fplib/dleqf6m.s                       0x00000000   Number         0  dlef.o ABSOLUTE
    ../fplib/drleqf6m.s                      0x00000000   Number         0  drlef.o ABSOLUTE
    ../fplib/usenofp.s                       0x00000000   Number         0  usenofp.o ABSOLUTE
    ../mathlib/dunder.c                      0x00000000   Number         0  dunder.o ABSOLUTE
    ../mathlib/exp.c                         0x00000000   Number         0  exp.o ABSOLUTE
    ../mathlib/exp.c                         0x00000000   Number         0  exp_x.o ABSOLUTE
    ../mathlib/fpclassify.c                  0x00000000   Number         0  fpclassify.o ABSOLUTE
    ../mathlib/poly.c                        0x00000000   Number         0  poly.o ABSOLUTE
    ../mathlib/qnan.c                        0x00000000   Number         0  qnan.o ABSOLUTE
    ..\Drivers\STM32G0xx_HAL_Driver\Src\stm32g0xx_hal.c 0x00000000   Number         0  stm32g0xx_hal.o ABSOLUTE
    ..\Drivers\STM32G0xx_HAL_Driver\Src\stm32g0xx_hal_adc.c 0x00000000   Number         0  stm32g0xx_hal_adc.o ABSOLUTE
    ..\Drivers\STM32G0xx_HAL_Driver\Src\stm32g0xx_hal_adc_ex.c 0x00000000   Number         0  stm32g0xx_hal_adc_ex.o ABSOLUTE
    ..\Drivers\STM32G0xx_HAL_Driver\Src\stm32g0xx_hal_cortex.c 0x00000000   Number         0  stm32g0xx_hal_cortex.o ABSOLUTE
    ..\Drivers\STM32G0xx_HAL_Driver\Src\stm32g0xx_hal_dma.c 0x00000000   Number         0  stm32g0xx_hal_dma.o ABSOLUTE
    ..\Drivers\STM32G0xx_HAL_Driver\Src\stm32g0xx_hal_dma_ex.c 0x00000000   Number         0  stm32g0xx_hal_dma_ex.o ABSOLUTE
    ..\Drivers\STM32G0xx_HAL_Driver\Src\stm32g0xx_hal_exti.c 0x00000000   Number         0  stm32g0xx_hal_exti.o ABSOLUTE
    ..\Drivers\STM32G0xx_HAL_Driver\Src\stm32g0xx_hal_flash.c 0x00000000   Number         0  stm32g0xx_hal_flash.o ABSOLUTE
    ..\Drivers\STM32G0xx_HAL_Driver\Src\stm32g0xx_hal_flash_ex.c 0x00000000   Number         0  stm32g0xx_hal_flash_ex.o ABSOLUTE
    ..\Drivers\STM32G0xx_HAL_Driver\Src\stm32g0xx_hal_gpio.c 0x00000000   Number         0  stm32g0xx_hal_gpio.o ABSOLUTE
    ..\Drivers\STM32G0xx_HAL_Driver\Src\stm32g0xx_hal_pwr.c 0x00000000   Number         0  stm32g0xx_hal_pwr.o ABSOLUTE
    ..\Drivers\STM32G0xx_HAL_Driver\Src\stm32g0xx_hal_pwr_ex.c 0x00000000   Number         0  stm32g0xx_hal_pwr_ex.o ABSOLUTE
    ..\Drivers\STM32G0xx_HAL_Driver\Src\stm32g0xx_hal_rcc.c 0x00000000   Number         0  stm32g0xx_hal_rcc.o ABSOLUTE
    ..\Drivers\STM32G0xx_HAL_Driver\Src\stm32g0xx_hal_rcc_ex.c 0x00000000   Number         0  stm32g0xx_hal_rcc_ex.o ABSOLUTE
    ..\Drivers\STM32G0xx_HAL_Driver\Src\stm32g0xx_hal_spi.c 0x00000000   Number         0  stm32g0xx_hal_spi.o ABSOLUTE
    ..\Drivers\STM32G0xx_HAL_Driver\Src\stm32g0xx_hal_spi_ex.c 0x00000000   Number         0  stm32g0xx_hal_spi_ex.o ABSOLUTE
    ..\Drivers\STM32G0xx_HAL_Driver\Src\stm32g0xx_hal_tim.c 0x00000000   Number         0  stm32g0xx_hal_tim.o ABSOLUTE
    ..\Drivers\STM32G0xx_HAL_Driver\Src\stm32g0xx_hal_tim_ex.c 0x00000000   Number         0  stm32g0xx_hal_tim_ex.o ABSOLUTE
    ..\Drivers\STM32G0xx_HAL_Driver\Src\stm32g0xx_hal_uart.c 0x00000000   Number         0  stm32g0xx_hal_uart.o ABSOLUTE
    ..\Drivers\STM32G0xx_HAL_Driver\Src\stm32g0xx_hal_uart_ex.c 0x00000000   Number         0  stm32g0xx_hal_uart_ex.o ABSOLUTE
    ..\Modes\Data_Pre.c                      0x00000000   Number         0  data_pre.o ABSOLUTE
    ..\Modes\mode1.c                         0x00000000   Number         0  mode1.o ABSOLUTE
    ..\Modes\mode2.c                         0x00000000   Number         0  mode2.o ABSOLUTE
    ..\Modes\mode3.c                         0x00000000   Number         0  mode3.o ABSOLUTE
    ..\Src\ADC_User.c                        0x00000000   Number         0  adc_user.o ABSOLUTE
    ..\Src\Comm_M2S.c                        0x00000000   Number         0  comm_m2s.o ABSOLUTE
    ..\Src\Cyc_Req.c                         0x00000000   Number         0  cyc_req.o ABSOLUTE
    ..\Src\Exoskeleton_Control.c             0x00000000   Number         0  exoskeleton_control.o ABSOLUTE
    ..\Src\Flash_Drive.c                     0x00000000   Number         0  flash_drive.o ABSOLUTE
    ..\Src\Keys.c                            0x00000000   Number         0  keys.o ABSOLUTE
    ..\Src\MiniAaudioControl.c               0x00000000   Number         0  miniaaudiocontrol.o ABSOLUTE
    ..\Src\adc.c                             0x00000000   Number         0  adc.o ABSOLUTE
    ..\Src\dma.c                             0x00000000   Number         0  dma.o ABSOLUTE
    ..\Src\gpio.c                            0x00000000   Number         0  gpio.o ABSOLUTE
    ..\Src\main.c                            0x00000000   Number         0  main.o ABSOLUTE
    ..\Src\mpu6050.c                         0x00000000   Number         0  mpu6050.o ABSOLUTE
    ..\Src\spi.c                             0x00000000   Number         0  spi.o ABSOLUTE
    ..\Src\stm32g0xx_hal_msp.c               0x00000000   Number         0  stm32g0xx_hal_msp.o ABSOLUTE
    ..\Src\stm32g0xx_it.c                    0x00000000   Number         0  stm32g0xx_it.o ABSOLUTE
    ..\Src\system_stm32g0xx.c                0x00000000   Number         0  system_stm32g0xx.o ABSOLUTE
    ..\Src\tim.c                             0x00000000   Number         0  tim.o ABSOLUTE
    ..\Src\usart.c                           0x00000000   Number         0  usart.o ABSOLUTE
    ..\\Modes\\Data_Pre.c                    0x00000000   Number         0  data_pre.o ABSOLUTE
    ..\\Modes\\mode1.c                       0x00000000   Number         0  mode1.o ABSOLUTE
    ..\\Modes\\mode2.c                       0x00000000   Number         0  mode2.o ABSOLUTE
    ..\\Modes\\mode3.c                       0x00000000   Number         0  mode3.o ABSOLUTE
    ..\\Src\\ADC_User.c                      0x00000000   Number         0  adc_user.o ABSOLUTE
    ..\\Src\\Comm_M2S.c                      0x00000000   Number         0  comm_m2s.o ABSOLUTE
    ..\\Src\\Cyc_Req.c                       0x00000000   Number         0  cyc_req.o ABSOLUTE
    ..\\Src\\Exoskeleton_Control.c           0x00000000   Number         0  exoskeleton_control.o ABSOLUTE
    ..\\Src\\Flash_Drive.c                   0x00000000   Number         0  flash_drive.o ABSOLUTE
    ..\\Src\\Keys.c                          0x00000000   Number         0  keys.o ABSOLUTE
    ..\\Src\\MiniAaudioControl.c             0x00000000   Number         0  miniaaudiocontrol.o ABSOLUTE
    ..\\Src\\mpu6050.c                       0x00000000   Number         0  mpu6050.o ABSOLUTE
    dc.s                                     0x00000000   Number         0  dc.o ABSOLUTE
    startup_stm32g070xx.s                    0x00000000   Number         0  startup_stm32g070xx.o ABSOLUTE
    RESET                                    0x08000000   Section      184  startup_stm32g070xx.o(RESET)
    !!!main                                  0x080000b8   Section        8  __main.o(!!!main)
    !!!scatter                               0x080000c0   Section       60  __scatter.o(!!!scatter)
    !!handler_zi                             0x080000fc   Section       28  __scatter_zi.o(!!handler_zi)
    .ARM.Collect$$libinit$$00000000          0x08000118   Section        2  libinit.o(.ARM.Collect$$libinit$$00000000)
    .ARM.Collect$$libinit$$00000002          0x0800011a   Section        0  libinit2.o(.ARM.Collect$$libinit$$00000002)
    .ARM.Collect$$libinit$$00000004          0x0800011a   Section        0  libinit2.o(.ARM.Collect$$libinit$$00000004)
    .ARM.Collect$$libinit$$0000000A          0x0800011a   Section        0  libinit2.o(.ARM.Collect$$libinit$$0000000A)
    .ARM.Collect$$libinit$$0000000C          0x0800011a   Section        0  libinit2.o(.ARM.Collect$$libinit$$0000000C)
    .ARM.Collect$$libinit$$0000000E          0x0800011a   Section        0  libinit2.o(.ARM.Collect$$libinit$$0000000E)
    .ARM.Collect$$libinit$$00000011          0x0800011a   Section        0  libinit2.o(.ARM.Collect$$libinit$$00000011)
    .ARM.Collect$$libinit$$00000013          0x0800011a   Section        0  libinit2.o(.ARM.Collect$$libinit$$00000013)
    .ARM.Collect$$libinit$$00000015          0x0800011a   Section        0  libinit2.o(.ARM.Collect$$libinit$$00000015)
    .ARM.Collect$$libinit$$00000017          0x0800011a   Section        0  libinit2.o(.ARM.Collect$$libinit$$00000017)
    .ARM.Collect$$libinit$$00000019          0x0800011a   Section        0  libinit2.o(.ARM.Collect$$libinit$$00000019)
    .ARM.Collect$$libinit$$0000001B          0x0800011a   Section        0  libinit2.o(.ARM.Collect$$libinit$$0000001B)
    .ARM.Collect$$libinit$$0000001D          0x0800011a   Section        0  libinit2.o(.ARM.Collect$$libinit$$0000001D)
    .ARM.Collect$$libinit$$0000001F          0x0800011a   Section        0  libinit2.o(.ARM.Collect$$libinit$$0000001F)
    .ARM.Collect$$libinit$$00000021          0x0800011a   Section        0  libinit2.o(.ARM.Collect$$libinit$$00000021)
    .ARM.Collect$$libinit$$00000023          0x0800011a   Section        0  libinit2.o(.ARM.Collect$$libinit$$00000023)
    .ARM.Collect$$libinit$$00000025          0x0800011a   Section        0  libinit2.o(.ARM.Collect$$libinit$$00000025)
    .ARM.Collect$$libinit$$0000002C          0x0800011a   Section        0  libinit2.o(.ARM.Collect$$libinit$$0000002C)
    .ARM.Collect$$libinit$$0000002E          0x0800011a   Section        0  libinit2.o(.ARM.Collect$$libinit$$0000002E)
    .ARM.Collect$$libinit$$00000030          0x0800011a   Section        0  libinit2.o(.ARM.Collect$$libinit$$00000030)
    .ARM.Collect$$libinit$$00000032          0x0800011a   Section        0  libinit2.o(.ARM.Collect$$libinit$$00000032)
    .ARM.Collect$$libinit$$00000033          0x0800011a   Section        2  libinit2.o(.ARM.Collect$$libinit$$00000033)
    .ARM.Collect$$libshutdown$$00000000      0x0800011c   Section        2  libshutdown.o(.ARM.Collect$$libshutdown$$00000000)
    .ARM.Collect$$libshutdown$$00000002      0x0800011e   Section        0  libshutdown2.o(.ARM.Collect$$libshutdown$$00000002)
    .ARM.Collect$$libshutdown$$00000004      0x0800011e   Section        0  libshutdown2.o(.ARM.Collect$$libshutdown$$00000004)
    .ARM.Collect$$libshutdown$$00000007      0x0800011e   Section        0  libshutdown2.o(.ARM.Collect$$libshutdown$$00000007)
    .ARM.Collect$$libshutdown$$0000000A      0x0800011e   Section        0  libshutdown2.o(.ARM.Collect$$libshutdown$$0000000A)
    .ARM.Collect$$libshutdown$$0000000C      0x0800011e   Section        0  libshutdown2.o(.ARM.Collect$$libshutdown$$0000000C)
    .ARM.Collect$$libshutdown$$0000000F      0x0800011e   Section        0  libshutdown2.o(.ARM.Collect$$libshutdown$$0000000F)
    .ARM.Collect$$libshutdown$$00000010      0x0800011e   Section        2  libshutdown2.o(.ARM.Collect$$libshutdown$$00000010)
    .ARM.Collect$$rtentry$$00000000          0x08000120   Section        0  __rtentry.o(.ARM.Collect$$rtentry$$00000000)
    .ARM.Collect$$rtentry$$00000002          0x08000120   Section        0  __rtentry2.o(.ARM.Collect$$rtentry$$00000002)
    .ARM.Collect$$rtentry$$00000004          0x08000120   Section        6  __rtentry4.o(.ARM.Collect$$rtentry$$00000004)
    .ARM.Collect$$rtentry$$00000009          0x08000126   Section        0  __rtentry2.o(.ARM.Collect$$rtentry$$00000009)
    .ARM.Collect$$rtentry$$0000000A          0x08000126   Section        4  __rtentry2.o(.ARM.Collect$$rtentry$$0000000A)
    .ARM.Collect$$rtentry$$0000000C          0x0800012a   Section        0  __rtentry2.o(.ARM.Collect$$rtentry$$0000000C)
    .ARM.Collect$$rtentry$$0000000D          0x0800012a   Section        8  __rtentry2.o(.ARM.Collect$$rtentry$$0000000D)
    .ARM.Collect$$rtexit$$00000000           0x08000132   Section        2  rtexit.o(.ARM.Collect$$rtexit$$00000000)
    .ARM.Collect$$rtexit$$00000002           0x08000134   Section        0  rtexit2.o(.ARM.Collect$$rtexit$$00000002)
    .ARM.Collect$$rtexit$$00000003           0x08000134   Section        4  rtexit2.o(.ARM.Collect$$rtexit$$00000003)
    .ARM.Collect$$rtexit$$00000004           0x08000138   Section        6  rtexit2.o(.ARM.Collect$$rtexit$$00000004)
    .emb_text                                0x08000140   Section       56  rt_memcpy.o(.emb_text)
    .text                                    0x08000178   Section       56  startup_stm32g070xx.o(.text)
    .text                                    0x080001b0   Section        0  rt_memcpy.o(.text)
    .text                                    0x08000232   Section        0  rt_memclr.o(.text)
    .text                                    0x08000272   Section      346  aeabi_sdiv.o(.text)
    .text                                    0x080003cc   Section        0  heapauxi.o(.text)
    .text                                    0x080003d4   Section        0  daddsub.o(.text)
    _dadd1                                   0x080003d5   Thumb Code   290  daddsub.o(.text)
    _dsub1                                   0x080004f7   Thumb Code   470  daddsub.o(.text)
    .text                                    0x0800072c   Section        0  ddiv.o(.text)
    .text                                    0x08000b74   Section        0  dflti.o(.text)
    .text                                    0x08000bcc   Section        0  dmul.o(.text)
    .text                                    0x08000e14   Section        0  _rserrno.o(.text)
    .text                                    0x08000e2c   Section        0  dcmpin.o(.text)
    .text                                    0x08000ebc   Section        0  dfixi.o(.text)
    .text                                    0x08000f28   Section        0  dscalbn.o(.text)
    .text                                    0x08000f88   Section        8  rt_errno_addr_intlibspace.o(.text)
    .text                                    0x08000f90   Section        0  cmpret.o(.text)
    .text                                    0x08000fc0   Section        0  dnan2.o(.text)
    .text                                    0x08000fd4   Section        8  libspace.o(.text)
    .text                                    0x08000fdc   Section       62  sys_stackheap_outer.o(.text)
    .text                                    0x0800101a   Section        0  exit.o(.text)
    .text                                    0x0800102a   Section        0  retnan.o(.text)
    .text                                    0x08001088   Section        0  sys_exit.o(.text)
    .text                                    0x08001094   Section        2  use_no_semi.o(.text)
    .text                                    0x08001096   Section        0  indicate_semi.o(.text)
    .text                                    0x08001096   Section        0  __dczerorl2.o(.text)
    i.Anti_Vibration_Fun                     0x080010ec   Section        0  keys.o(i.Anti_Vibration_Fun)
    i.Block_Keys                             0x080010f4   Section        0  keys.o(i.Block_Keys)
    i.Bow_Assist_Max_Minus                   0x08001104   Section        0  mode2.o(i.Bow_Assist_Max_Minus)
    i.Bow_Assist_Max_Plus                    0x0800114c   Section        0  mode2.o(i.Bow_Assist_Max_Plus)
    i.Comm_M2S_L_Send                        0x08001194   Section        0  comm_m2s.o(i.Comm_M2S_L_Send)
    i.Comm_M2S_R_Send                        0x080011c4   Section        0  comm_m2s.o(i.Comm_M2S_R_Send)
    i.Comm_Master2Slave_Init                 0x080011f4   Section        0  comm_m2s.o(i.Comm_Master2Slave_Init)
    i.Comm_Read_Process                      0x08001278   Section        0  comm_m2s.o(i.Comm_Read_Process)
    i.Comm_Send_Process                      0x08001284   Section        0  comm_m2s.o(i.Comm_Send_Process)
    i.Comm_Slave2Master_RecData_CRC16        0x08001290   Section        0  comm_m2s.o(i.Comm_Slave2Master_RecData_CRC16)
    i.Cyclical_Request                       0x080012b0   Section        0  cyc_req.o(i.Cyclical_Request)
    i.Cyclical_Timing_Func                   0x08001350   Section        0  cyc_req.o(i.Cyclical_Timing_Func)
    i.DMA_CalcDMAMUXChannelBaseAndMask       0x08001370   Section        0  stm32g0xx_hal_dma.o(i.DMA_CalcDMAMUXChannelBaseAndMask)
    DMA_CalcDMAMUXChannelBaseAndMask         0x08001371   Thumb Code    48  stm32g0xx_hal_dma.o(i.DMA_CalcDMAMUXChannelBaseAndMask)
    i.DMA_CalcDMAMUXRequestGenBaseAndMask    0x080013a4   Section        0  stm32g0xx_hal_dma.o(i.DMA_CalcDMAMUXRequestGenBaseAndMask)
    DMA_CalcDMAMUXRequestGenBaseAndMask      0x080013a5   Thumb Code    36  stm32g0xx_hal_dma.o(i.DMA_CalcDMAMUXRequestGenBaseAndMask)
    i.DMA_SetConfig                          0x080013cc   Section        0  stm32g0xx_hal_dma.o(i.DMA_SetConfig)
    DMA_SetConfig                            0x080013cd   Thumb Code    70  stm32g0xx_hal_dma.o(i.DMA_SetConfig)
    i.Error_Handler                          0x08001418   Section        0  main.o(i.Error_Handler)
    i.Exo_Control                            0x08001420   Section        0  exoskeleton_control.o(i.Exo_Control)
    i.Exo_Data_Prepare                       0x08001460   Section        0  data_pre.o(i.Exo_Data_Prepare)
    i.Exo_Get_Mode                           0x08001654   Section        0  exoskeleton_control.o(i.Exo_Get_Mode)
    i.Exo_Init                               0x080016b8   Section        0  exoskeleton_control.o(i.Exo_Init)
    i.Filter_Theta_Vel_L                     0x080016c0   Section        0  data_pre.o(i.Filter_Theta_Vel_L)
    i.Filter_Theta_Vel_R                     0x080017a8   Section        0  data_pre.o(i.Filter_Theta_Vel_R)
    i.Flag_Modes_State                       0x08001890   Section        0  exoskeleton_control.o(i.Flag_Modes_State)
    i.Flash_Delay                            0x080018a0   Section        0  flash_drive.o(i.Flash_Delay)
    i.HAL_ADC_ConfigChannel                  0x080018c0   Section        0  stm32g0xx_hal_adc.o(i.HAL_ADC_ConfigChannel)
    i.HAL_ADC_Init                           0x08001c24   Section        0  stm32g0xx_hal_adc.o(i.HAL_ADC_Init)
    i.HAL_ADC_MspInit                        0x08001ebc   Section        0  adc.o(i.HAL_ADC_MspInit)
    i.HAL_DMA_Init                           0x08001f78   Section        0  stm32g0xx_hal_dma.o(i.HAL_DMA_Init)
    i.HAL_DMA_Start_IT                       0x08002038   Section        0  stm32g0xx_hal_dma.o(i.HAL_DMA_Start_IT)
    i.HAL_Delay                              0x08002104   Section        0  stm32g0xx_hal.o(i.HAL_Delay)
    i.HAL_GPIO_Init                          0x08002130   Section        0  stm32g0xx_hal_gpio.o(i.HAL_GPIO_Init)
    i.HAL_GPIO_ReadPin                       0x08002308   Section        0  stm32g0xx_hal_gpio.o(i.HAL_GPIO_ReadPin)
    i.HAL_GPIO_TogglePin                     0x0800231a   Section        0  stm32g0xx_hal_gpio.o(i.HAL_GPIO_TogglePin)
    i.HAL_GPIO_WritePin                      0x0800232e   Section        0  stm32g0xx_hal_gpio.o(i.HAL_GPIO_WritePin)
    i.HAL_GetTick                            0x0800233c   Section        0  stm32g0xx_hal.o(i.HAL_GetTick)
    i.HAL_IncTick                            0x08002348   Section        0  stm32g0xx_hal.o(i.HAL_IncTick)
    i.HAL_Init                               0x08002360   Section        0  stm32g0xx_hal.o(i.HAL_Init)
    i.HAL_InitTick                           0x0800238c   Section        0  stm32g0xx_hal.o(i.HAL_InitTick)
    i.HAL_MspInit                            0x080023ec   Section        0  stm32g0xx_hal_msp.o(i.HAL_MspInit)
    i.HAL_NVIC_EnableIRQ                     0x08002438   Section        0  stm32g0xx_hal_cortex.o(i.HAL_NVIC_EnableIRQ)
    i.HAL_NVIC_SetPriority                   0x0800245c   Section        0  stm32g0xx_hal_cortex.o(i.HAL_NVIC_SetPriority)
    i.HAL_PWREx_ControlVoltageScaling        0x08002470   Section        0  stm32g0xx_hal_pwr_ex.o(i.HAL_PWREx_ControlVoltageScaling)
    i.HAL_RCCEx_PeriphCLKConfig              0x080024c8   Section        0  stm32g0xx_hal_rcc_ex.o(i.HAL_RCCEx_PeriphCLKConfig)
    i.HAL_RCC_ClockConfig                    0x080026cc   Section        0  stm32g0xx_hal_rcc.o(i.HAL_RCC_ClockConfig)
    i.HAL_RCC_GetHCLKFreq                    0x080028a0   Section        0  stm32g0xx_hal_rcc.o(i.HAL_RCC_GetHCLKFreq)
    i.HAL_RCC_GetPCLK1Freq                   0x080028ac   Section        0  stm32g0xx_hal_rcc.o(i.HAL_RCC_GetPCLK1Freq)
    i.HAL_RCC_GetSysClockFreq                0x080028d4   Section        0  stm32g0xx_hal_rcc.o(i.HAL_RCC_GetSysClockFreq)
    i.HAL_RCC_OscConfig                      0x080029b8   Section        0  stm32g0xx_hal_rcc.o(i.HAL_RCC_OscConfig)
    i.HAL_SPI_Init                           0x08002f64   Section        0  stm32g0xx_hal_spi.o(i.HAL_SPI_Init)
    i.HAL_SPI_MspInit                        0x08003070   Section        0  spi.o(i.HAL_SPI_MspInit)
    i.HAL_SPI_TransmitReceive                0x080030ec   Section        0  stm32g0xx_hal_spi.o(i.HAL_SPI_TransmitReceive)
    i.HAL_SYSCFG_StrobeDBattpinsConfig       0x08003358   Section        0  stm32g0xx_hal.o(i.HAL_SYSCFG_StrobeDBattpinsConfig)
    i.HAL_SYSTICK_Config                     0x08003370   Section        0  stm32g0xx_hal_cortex.o(i.HAL_SYSTICK_Config)
    i.HAL_TIMEx_Break2Callback               0x080033a8   Section        0  stm32g0xx_hal_tim_ex.o(i.HAL_TIMEx_Break2Callback)
    i.HAL_TIMEx_BreakCallback                0x080033aa   Section        0  stm32g0xx_hal_tim_ex.o(i.HAL_TIMEx_BreakCallback)
    i.HAL_TIMEx_CommutCallback               0x080033ac   Section        0  stm32g0xx_hal_tim_ex.o(i.HAL_TIMEx_CommutCallback)
    i.HAL_TIMEx_MasterConfigSynchronization  0x080033b0   Section        0  stm32g0xx_hal_tim_ex.o(i.HAL_TIMEx_MasterConfigSynchronization)
    i.HAL_TIM_Base_Init                      0x08003448   Section        0  stm32g0xx_hal_tim.o(i.HAL_TIM_Base_Init)
    i.HAL_TIM_Base_MspInit                   0x080034b4   Section        0  tim.o(i.HAL_TIM_Base_MspInit)
    i.HAL_TIM_Base_Start_IT                  0x080034f8   Section        0  stm32g0xx_hal_tim.o(i.HAL_TIM_Base_Start_IT)
    i.HAL_TIM_IC_CaptureCallback             0x08003570   Section        0  stm32g0xx_hal_tim.o(i.HAL_TIM_IC_CaptureCallback)
    i.HAL_TIM_IRQHandler                     0x08003574   Section        0  stm32g0xx_hal_tim.o(i.HAL_TIM_IRQHandler)
    i.HAL_TIM_OC_DelayElapsedCallback        0x0800376c   Section        0  stm32g0xx_hal_tim.o(i.HAL_TIM_OC_DelayElapsedCallback)
    i.HAL_TIM_PWM_PulseFinishedCallback      0x0800376e   Section        0  stm32g0xx_hal_tim.o(i.HAL_TIM_PWM_PulseFinishedCallback)
    i.HAL_TIM_PeriodElapsedCallback          0x08003770   Section        0  main.o(i.HAL_TIM_PeriodElapsedCallback)
    i.HAL_TIM_TriggerCallback                0x080037b8   Section        0  stm32g0xx_hal_tim.o(i.HAL_TIM_TriggerCallback)
    i.HAL_UARTEx_DisableFifoMode             0x080037ba   Section        0  stm32g0xx_hal_uart_ex.o(i.HAL_UARTEx_DisableFifoMode)
    i.HAL_UARTEx_RxEventCallback             0x0800380e   Section        0  stm32g0xx_hal_uart.o(i.HAL_UARTEx_RxEventCallback)
    i.HAL_UARTEx_SetRxFifoThreshold          0x08003810   Section        0  stm32g0xx_hal_uart_ex.o(i.HAL_UARTEx_SetRxFifoThreshold)
    i.HAL_UARTEx_SetTxFifoThreshold          0x08003870   Section        0  stm32g0xx_hal_uart_ex.o(i.HAL_UARTEx_SetTxFifoThreshold)
    i.HAL_UART_ErrorCallback                 0x080038ce   Section        0  stm32g0xx_hal_uart.o(i.HAL_UART_ErrorCallback)
    i.HAL_UART_Init                          0x080038d0   Section        0  stm32g0xx_hal_uart.o(i.HAL_UART_Init)
    i.HAL_UART_MspInit                       0x08003954   Section        0  usart.o(i.HAL_UART_MspInit)
    i.HAL_UART_Receive_DMA                   0x08003c64   Section        0  stm32g0xx_hal_uart.o(i.HAL_UART_Receive_DMA)
    i.HAL_UART_RxCpltCallback                0x08003ce2   Section        0  stm32g0xx_hal_uart.o(i.HAL_UART_RxCpltCallback)
    i.HAL_UART_RxHalfCpltCallback            0x08003ce4   Section        0  stm32g0xx_hal_uart.o(i.HAL_UART_RxHalfCpltCallback)
    i.HAL_UART_Transmit                      0x08003ce6   Section        0  stm32g0xx_hal_uart.o(i.HAL_UART_Transmit)
    i.HardFault_Handler                      0x08003dcc   Section        0  stm32g0xx_it.o(i.HardFault_Handler)
    i.Key_L_2_Block                          0x08003dd0   Section        0  keys.o(i.Key_L_2_Block)
    i.Key_R_1_Block                          0x08003e04   Section        0  keys.o(i.Key_R_1_Block)
    i.Key_R_2_Block                          0x08003e38   Section        0  keys.o(i.Key_R_2_Block)
    i.LL_ADC_GetCommonPathInternalCh         0x08003e6c   Section        0  stm32g0xx_hal_adc.o(i.LL_ADC_GetCommonPathInternalCh)
    LL_ADC_GetCommonPathInternalCh           0x08003e6d   Thumb Code    12  stm32g0xx_hal_adc.o(i.LL_ADC_GetCommonPathInternalCh)
    i.LL_ADC_IsEnabled                       0x08003e78   Section        0  stm32g0xx_hal_adc.o(i.LL_ADC_IsEnabled)
    LL_ADC_IsEnabled                         0x08003e79   Thumb Code    16  stm32g0xx_hal_adc.o(i.LL_ADC_IsEnabled)
    i.LL_ADC_IsInternalRegulatorEnabled      0x08003e88   Section        0  stm32g0xx_hal_adc.o(i.LL_ADC_IsInternalRegulatorEnabled)
    LL_ADC_IsInternalRegulatorEnabled        0x08003e89   Thumb Code    14  stm32g0xx_hal_adc.o(i.LL_ADC_IsInternalRegulatorEnabled)
    i.LL_ADC_REG_IsConversionOngoing         0x08003e96   Section        0  stm32g0xx_hal_adc.o(i.LL_ADC_REG_IsConversionOngoing)
    LL_ADC_REG_IsConversionOngoing           0x08003e97   Thumb Code    12  stm32g0xx_hal_adc.o(i.LL_ADC_REG_IsConversionOngoing)
    i.LL_ADC_SetCommonPathInternalCh         0x08003ea2   Section        0  stm32g0xx_hal_adc.o(i.LL_ADC_SetCommonPathInternalCh)
    LL_ADC_SetCommonPathInternalCh           0x08003ea3   Thumb Code    14  stm32g0xx_hal_adc.o(i.LL_ADC_SetCommonPathInternalCh)
    i.LL_ADC_SetSamplingTimeCommonChannels   0x08003eb0   Section        0  stm32g0xx_hal_adc.o(i.LL_ADC_SetSamplingTimeCommonChannels)
    LL_ADC_SetSamplingTimeCommonChannels     0x08003eb1   Thumb Code    30  stm32g0xx_hal_adc.o(i.LL_ADC_SetSamplingTimeCommonChannels)
    i.MPU6050_Data_Rearrange                 0x08003ed0   Section        0  mpu6050.o(i.MPU6050_Data_Rearrange)
    i.MPU_6050_Data_Analyse                  0x08003f08   Section        0  mpu6050.o(i.MPU_6050_Data_Analyse)
    i.MPU_6050_Init                          0x08003f1c   Section        0  mpu6050.o(i.MPU_6050_Init)
    i.MX_ADC1_Init                           0x08003f6c   Section        0  adc.o(i.MX_ADC1_Init)
    i.MX_DMA_Init                            0x08003ff0   Section        0  dma.o(i.MX_DMA_Init)
    i.MX_GPIO_Init                           0x08004014   Section        0  gpio.o(i.MX_GPIO_Init)
    i.MX_SPI2_Init                           0x0800417c   Section        0  spi.o(i.MX_SPI2_Init)
    i.MX_TIM6_Init                           0x080041d0   Section        0  tim.o(i.MX_TIM6_Init)
    i.MX_USART1_UART_Init                    0x08004220   Section        0  usart.o(i.MX_USART1_UART_Init)
    i.MX_USART2_UART_Init                    0x08004294   Section        0  usart.o(i.MX_USART2_UART_Init)
    i.MX_USART3_UART_Init                    0x08004308   Section        0  usart.o(i.MX_USART3_UART_Init)
    i.MX_USART4_UART_Init                    0x08004350   Section        0  usart.o(i.MX_USART4_UART_Init)
    i.Message_Rec_L                          0x08004394   Section        0  comm_m2s.o(i.Message_Rec_L)
    i.Message_Rec_R                          0x080043f8   Section        0  comm_m2s.o(i.Message_Rec_R)
    i.Message_Send_L                         0x0800445c   Section        0  comm_m2s.o(i.Message_Send_L)
    i.Message_Send_R                         0x08004490   Section        0  comm_m2s.o(i.Message_Send_R)
    i.MiniAudio_Cmd_07                       0x080044c4   Section        0  miniaaudiocontrol.o(i.MiniAudio_Cmd_07)
    i.MiniAudio_Cmd_13                       0x080044fc   Section        0  miniaaudiocontrol.o(i.MiniAudio_Cmd_13)
    i.MiniAudio_Delay_Count                  0x08004530   Section        0  miniaaudiocontrol.o(i.MiniAudio_Delay_Count)
    i.MiniAudio_Delay_Reset                  0x0800455c   Section        0  miniaaudiocontrol.o(i.MiniAudio_Delay_Reset)
    i.MiniAudio_Delay_Set                    0x08004568   Section        0  miniaaudiocontrol.o(i.MiniAudio_Delay_Set)
    i.MiniAudio_Flag_23_Reset                0x08004580   Section        0  miniaaudiocontrol.o(i.MiniAudio_Flag_23_Reset)
    i.MiniAudio_Flag_23_Set                  0x08004594   Section        0  miniaaudiocontrol.o(i.MiniAudio_Flag_23_Set)
    i.MiniAudio_Flag_45_Reset                0x080045a8   Section        0  miniaaudiocontrol.o(i.MiniAudio_Flag_45_Reset)
    i.MiniAudio_Flag_45_Set                  0x080045bc   Section        0  miniaaudiocontrol.o(i.MiniAudio_Flag_45_Set)
    i.MiniAudio_Flag_67_Reset                0x080045d0   Section        0  miniaaudiocontrol.o(i.MiniAudio_Flag_67_Reset)
    i.MiniAudio_Flag_67_Set                  0x080045e4   Section        0  miniaaudiocontrol.o(i.MiniAudio_Flag_67_Set)
    i.MiniAudio_Init                         0x080045f8   Section        0  miniaaudiocontrol.o(i.MiniAudio_Init)
    i.MiniAudio_Send_Fun                     0x0800460c   Section        0  miniaaudiocontrol.o(i.MiniAudio_Send_Fun)
    i.MiniAudio_Torque_Grade_Ask_Flag_Reset  0x08004790   Section        0  miniaaudiocontrol.o(i.MiniAudio_Torque_Grade_Ask_Flag_Reset)
    i.MiniAudio_Torque_Grade_Ask_Flag_Set    0x0800479c   Section        0  miniaaudiocontrol.o(i.MiniAudio_Torque_Grade_Ask_Flag_Set)
    i.MiniAudio_Torque_Grade_Minus_Flag_Reset 0x080047a8   Section        0  miniaaudiocontrol.o(i.MiniAudio_Torque_Grade_Minus_Flag_Reset)
    i.MiniAudio_Torque_Grade_Minus_Flag_Set  0x080047b4   Section        0  miniaaudiocontrol.o(i.MiniAudio_Torque_Grade_Minus_Flag_Set)
    i.MiniAudio_Torque_Grade_Plus_Flag_Reset 0x080047c0   Section        0  miniaaudiocontrol.o(i.MiniAudio_Torque_Grade_Plus_Flag_Reset)
    i.MiniAudio_Torque_Grade_Plus_Flag_Set   0x080047cc   Section        0  miniaaudiocontrol.o(i.MiniAudio_Torque_Grade_Plus_Flag_Set)
    i.MiniAudio_Torque_Grade_Reset_Flag_Reset 0x080047d8   Section        0  miniaaudiocontrol.o(i.MiniAudio_Torque_Grade_Reset_Flag_Reset)
    i.Mode1_Activation_N_Func                0x080047e4   Section        0  mode1.o(i.Mode1_Activation_N_Func)
    i.Mode1_Activation_P_Func                0x08004844   Section        0  mode1.o(i.Mode1_Activation_P_Func)
    i.Mode1_Get_Grade                        0x080048a4   Section        0  mode1.o(i.Mode1_Get_Grade)
    i.Mode1_Grade_Init                       0x080048b0   Section        0  mode1.o(i.Mode1_Grade_Init)
    i.Mode2_Get_Grade                        0x080048ec   Section        0  mode2.o(i.Mode2_Get_Grade)
    i.Mode2_Grade_Init                       0x08004930   Section        0  mode2.o(i.Mode2_Grade_Init)
    i.Mode3_Get_Grade                        0x0800495c   Section        0  mode3.o(i.Mode3_Get_Grade)
    i.Mode3_Grade_Init                       0x08004968   Section        0  mode3.o(i.Mode3_Grade_Init)
    i.Mode_Change                            0x0800498c   Section        0  exoskeleton_control.o(i.Mode_Change)
    i.Mode_Grade_Flash_Data_Init             0x08004a74   Section        0  data_pre.o(i.Mode_Grade_Flash_Data_Init)
    i.Mode_Grade_Para_Get                    0x08004aa8   Section        0  data_pre.o(i.Mode_Grade_Para_Get)
    i.Mode_Grade_Para_Set                    0x08004ad4   Section        0  data_pre.o(i.Mode_Grade_Para_Set)
    i.Mode_Grade_Read                        0x08004b00   Section        0  data_pre.o(i.Mode_Grade_Read)
    i.Mode_Grade_Save                        0x08004b14   Section        0  data_pre.o(i.Mode_Grade_Save)
    i.Mode_Selet_Get_Torque_Grade            0x08004b2c   Section        0  miniaaudiocontrol.o(i.Mode_Selet_Get_Torque_Grade)
    i.NMI_Handler                            0x08004b70   Section        0  stm32g0xx_it.o(i.NMI_Handler)
    i.PendSV_Handler                         0x08004b74   Section        0  stm32g0xx_it.o(i.PendSV_Handler)
    i.Power_Low_Warning_Flag_Get             0x08004b78   Section        0  data_pre.o(i.Power_Low_Warning_Flag_Get)
    i.Power_Low_Warning_Flag_Reset           0x08004b84   Section        0  data_pre.o(i.Power_Low_Warning_Flag_Reset)
    i.Power_Out_Warning_Flag_Get             0x08004b90   Section        0  data_pre.o(i.Power_Out_Warning_Flag_Get)
    i.Power_Out_Warning_Flag_Reset           0x08004b9c   Section        0  data_pre.o(i.Power_Out_Warning_Flag_Reset)
    i.Reset_Exo_Key_L_2_Flag                 0x08004ba8   Section        0  exoskeleton_control.o(i.Reset_Exo_Key_L_2_Flag)
    i.Reset_Exo_Key_R_1_Flag                 0x08004bb4   Section        0  exoskeleton_control.o(i.Reset_Exo_Key_R_1_Flag)
    i.Reset_Exo_Key_R_2_Flag                 0x08004bc0   Section        0  exoskeleton_control.o(i.Reset_Exo_Key_R_2_Flag)
    i.Reset_Key_L_2                          0x08004bcc   Section        0  keys.o(i.Reset_Key_L_2)
    i.SPI_EndRxTxTransaction                 0x08004be0   Section        0  stm32g0xx_hal_spi.o(i.SPI_EndRxTxTransaction)
    SPI_EndRxTxTransaction                   0x08004be1   Thumb Code   106  stm32g0xx_hal_spi.o(i.SPI_EndRxTxTransaction)
    i.SPI_Flash_Init                         0x08004c4a   Section        0  flash_drive.o(i.SPI_Flash_Init)
    i.SPI_Flash_PageWrite                    0x08004c62   Section        0  flash_drive.o(i.SPI_Flash_PageWrite)
    i.SPI_Flash_Read_Data                    0x08004cc0   Section        0  flash_drive.o(i.SPI_Flash_Read_Data)
    i.SPI_Flash_Read_ID                      0x08004d24   Section        0  flash_drive.o(i.SPI_Flash_Read_ID)
    i.SPI_Flash_Read_Status                  0x08004d70   Section        0  flash_drive.o(i.SPI_Flash_Read_Status)
    i.SPI_Flash_SectorErase                  0x08004db4   Section        0  flash_drive.o(i.SPI_Flash_SectorErase)
    i.SPI_Flash_SendByte                     0x08004dfc   Section        0  flash_drive.o(i.SPI_Flash_SendByte)
    i.SPI_Flash_WaitForWriteEnd              0x08004e20   Section        0  flash_drive.o(i.SPI_Flash_WaitForWriteEnd)
    i.SPI_Flash_Write_En                     0x08004e58   Section        0  flash_drive.o(i.SPI_Flash_Write_En)
    i.SPI_WaitFifoStateUntilTimeout          0x08004e7c   Section        0  stm32g0xx_hal_spi.o(i.SPI_WaitFifoStateUntilTimeout)
    SPI_WaitFifoStateUntilTimeout            0x08004e7d   Thumb Code   246  stm32g0xx_hal_spi.o(i.SPI_WaitFifoStateUntilTimeout)
    i.SPI_WaitFlagStateUntilTimeout          0x08004f78   Section        0  stm32g0xx_hal_spi.o(i.SPI_WaitFlagStateUntilTimeout)
    SPI_WaitFlagStateUntilTimeout            0x08004f79   Thumb Code   214  stm32g0xx_hal_spi.o(i.SPI_WaitFlagStateUntilTimeout)
    i.SVC_Handler                            0x08005054   Section        0  stm32g0xx_it.o(i.SVC_Handler)
    i.Set_Exo_Key_L_2_Flag                   0x08005058   Section        0  exoskeleton_control.o(i.Set_Exo_Key_L_2_Flag)
    i.Set_Exo_Key_R_1_Flag                   0x08005064   Section        0  exoskeleton_control.o(i.Set_Exo_Key_R_1_Flag)
    i.Set_Exo_Key_R_2_Flag                   0x08005070   Section        0  exoskeleton_control.o(i.Set_Exo_Key_R_2_Flag)
    i.Set_Keys                               0x0800507c   Section        0  keys.o(i.Set_Keys)
    i.Spring_Max_Minus                       0x0800508c   Section        0  mode3.o(i.Spring_Max_Minus)
    i.Spring_Max_Plus                        0x080050cc   Section        0  mode3.o(i.Spring_Max_Plus)
    i.State_Machine_Mode1_Init               0x0800510c   Section        0  mode1.o(i.State_Machine_Mode1_Init)
    i.State_Machine_Mode2_Init               0x08005118   Section        0  mode2.o(i.State_Machine_Mode2_Init)
    i.State_Machine_Mode3_Init               0x08005124   Section        0  mode3.o(i.State_Machine_Mode3_Init)
    i.SysTick_Handler                        0x08005130   Section        0  stm32g0xx_it.o(i.SysTick_Handler)
    i.SystemClock_Config                     0x08005138   Section        0  main.o(i.SystemClock_Config)
    i.SystemInit                             0x080051a4   Section        0  system_stm32g0xx.o(i.SystemInit)
    i.System_Power_Filter                    0x080051a8   Section        0  data_pre.o(i.System_Power_Filter)
    i.TIM6_IRQHandler                        0x08005230   Section        0  stm32g0xx_it.o(i.TIM6_IRQHandler)
    i.TIM_Base_SetConfig                     0x08005240   Section        0  stm32g0xx_hal_tim.o(i.TIM_Base_SetConfig)
    i.Task_Comm_Flag_Reset                   0x080052e0   Section        0  cyc_req.o(i.Task_Comm_Flag_Reset)
    i.Task_Comm_Func                         0x080052ec   Section        0  cyc_req.o(i.Task_Comm_Func)
    i.Task_Encoder_Flag_Reset                0x0800531c   Section        0  cyc_req.o(i.Task_Encoder_Flag_Reset)
    i.Task_Encoder_Func                      0x08005328   Section        0  cyc_req.o(i.Task_Encoder_Func)
    i.Task_Exo_Flag_Reset                    0x08005358   Section        0  cyc_req.o(i.Task_Exo_Flag_Reset)
    i.Task_Exo_Func                          0x08005364   Section        0  cyc_req.o(i.Task_Exo_Func)
    i.Task_Key_AntiVib_Flag_Reset            0x08005394   Section        0  cyc_req.o(i.Task_Key_AntiVib_Flag_Reset)
    i.Task_Key_AntiVib_Func                  0x080053a0   Section        0  cyc_req.o(i.Task_Key_AntiVib_Func)
    i.Task_MPU6050_Flag_Reset                0x080053d0   Section        0  cyc_req.o(i.Task_MPU6050_Flag_Reset)
    i.Task_MPU6050_Func                      0x080053dc   Section        0  cyc_req.o(i.Task_MPU6050_Func)
    i.Task_MiniAudio_Delay_Flag_Reset        0x0800540c   Section        0  cyc_req.o(i.Task_MiniAudio_Delay_Flag_Reset)
    i.Task_MiniAudio_Delay_Func              0x08005418   Section        0  cyc_req.o(i.Task_MiniAudio_Delay_Func)
    i.Task_MiniAudio_Flag_Reset              0x08005448   Section        0  cyc_req.o(i.Task_MiniAudio_Flag_Reset)
    i.Task_MiniAudio_Func                    0x08005454   Section        0  cyc_req.o(i.Task_MiniAudio_Func)
    i.Torque_Grade_Get                       0x08005484   Section        0  miniaaudiocontrol.o(i.Torque_Grade_Get)
    i.Torque_Grade_Minus                     0x080054b0   Section        0  exoskeleton_control.o(i.Torque_Grade_Minus)
    i.Torque_Grade_Plus                      0x0800552c   Section        0  exoskeleton_control.o(i.Torque_Grade_Plus)
    i.Torque_Time_Mux_Minus                  0x080055a8   Section        0  mode1.o(i.Torque_Time_Mux_Minus)
    i.Torque_Time_Mux_Plus                   0x0800560c   Section        0  mode1.o(i.Torque_Time_Mux_Plus)
    i.UARTEx_SetNbDataToProcess              0x08005670   Section        0  stm32g0xx_hal_uart_ex.o(i.UARTEx_SetNbDataToProcess)
    UARTEx_SetNbDataToProcess                0x08005671   Thumb Code    94  stm32g0xx_hal_uart_ex.o(i.UARTEx_SetNbDataToProcess)
    i.UART_AdvFeatureConfig                  0x080056d8   Section        0  stm32g0xx_hal_uart.o(i.UART_AdvFeatureConfig)
    i.UART_CheckIdleState                    0x080057c8   Section        0  stm32g0xx_hal_uart.o(i.UART_CheckIdleState)
    i.UART_DMAError                          0x08005844   Section        0  stm32g0xx_hal_uart.o(i.UART_DMAError)
    UART_DMAError                            0x08005845   Thumb Code    90  stm32g0xx_hal_uart.o(i.UART_DMAError)
    i.UART_DMAReceiveCplt                    0x0800589e   Section        0  stm32g0xx_hal_uart.o(i.UART_DMAReceiveCplt)
    UART_DMAReceiveCplt                      0x0800589f   Thumb Code   204  stm32g0xx_hal_uart.o(i.UART_DMAReceiveCplt)
    i.UART_DMARxHalfCplt                     0x0800596a   Section        0  stm32g0xx_hal_uart.o(i.UART_DMARxHalfCplt)
    UART_DMARxHalfCplt                       0x0800596b   Thumb Code    38  stm32g0xx_hal_uart.o(i.UART_DMARxHalfCplt)
    i.UART_EndRxTransfer                     0x08005990   Section        0  stm32g0xx_hal_uart.o(i.UART_EndRxTransfer)
    UART_EndRxTransfer                       0x08005991   Thumb Code   128  stm32g0xx_hal_uart.o(i.UART_EndRxTransfer)
    i.UART_EndTxTransfer                     0x08005a14   Section        0  stm32g0xx_hal_uart.o(i.UART_EndTxTransfer)
    UART_EndTxTransfer                       0x08005a15   Thumb Code    82  stm32g0xx_hal_uart.o(i.UART_EndTxTransfer)
    i.UART_SetConfig                         0x08005a68   Section        0  stm32g0xx_hal_uart.o(i.UART_SetConfig)
    i.UART_Start_Receive_DMA                 0x08005c98   Section        0  stm32g0xx_hal_uart.o(i.UART_Start_Receive_DMA)
    i.UART_WaitOnFlagUntilTimeout            0x08005d80   Section        0  stm32g0xx_hal_uart.o(i.UART_WaitOnFlagUntilTimeout)
    i.__ARM_common_switch8                   0x08005ea0   Section        0  miniaaudiocontrol.o(i.__ARM_common_switch8)
    i.__ARM_fpclassify                       0x08005ebc   Section        0  fpclassify.o(i.__ARM_fpclassify)
    i.__NVIC_SetPriority                     0x08005ee8   Section        0  stm32g0xx_hal_cortex.o(i.__NVIC_SetPriority)
    __NVIC_SetPriority                       0x08005ee9   Thumb Code   110  stm32g0xx_hal_cortex.o(i.__NVIC_SetPriority)
    i.__get_PRIMASK                          0x08005f60   Section        0  stm32g0xx_hal_uart.o(i.__get_PRIMASK)
    __get_PRIMASK                            0x08005f61   Thumb Code     6  stm32g0xx_hal_uart.o(i.__get_PRIMASK)
    i.__kernel_poly                          0x08005f66   Section        0  poly.o(i.__kernel_poly)
    i.__mathlib_dbl_infnan                   0x08006012   Section        0  dunder.o(i.__mathlib_dbl_infnan)
    i.__mathlib_dbl_overflow                 0x0800601c   Section        0  dunder.o(i.__mathlib_dbl_overflow)
    i.__mathlib_dbl_underflow                0x08006030   Section        0  dunder.o(i.__mathlib_dbl_underflow)
    i.__set_PRIMASK                          0x08006044   Section        0  stm32g0xx_hal_uart.o(i.__set_PRIMASK)
    __set_PRIMASK                            0x08006045   Thumb Code     6  stm32g0xx_hal_uart.o(i.__set_PRIMASK)
    i.control_mode1                          0x0800604c   Section        0  mode1.o(i.control_mode1)
    i.control_mode2                          0x080063b0   Section        0  mode2.o(i.control_mode2)
    i.control_mode3                          0x080064dc   Section        0  mode3.o(i.control_mode3)
    i.crc16_core                             0x080067ec   Section        0  comm_m2s.o(i.crc16_core)
    i.exp                                    0x0800684c   Section        0  exp.o(i.exp)
    i.getAcceleration                        0x08006ac8   Section        0  mpu6050.o(i.getAcceleration)
    i.getAngle                               0x08006bb4   Section        0  mpu6050.o(i.getAngle)
    i.getAngleVelocity                       0x08006c74   Section        0  mpu6050.o(i.getAngleVelocity)
    i.getSingleAngVel                        0x08006d34   Section        0  mpu6050.o(i.getSingleAngVel)
    i.getSingleAngle                         0x08006d68   Section        0  mpu6050.o(i.getSingleAngle)
    i.main                                   0x08006d9c   Section        0  main.o(i.main)
    i.set_Key_L_2                            0x08006e34   Section        0  keys.o(i.set_Key_L_2)
    i.set_Key_R_1                            0x08006e64   Section        0  keys.o(i.set_Key_R_1)
    i.set_Key_R_2                            0x08006e94   Section        0  keys.o(i.set_Key_R_2)
    x$fpl$dleqf                              0x08006ec4   Section      100  dlef.o(x$fpl$dleqf)
    x$fpl$drleqf                             0x08006f28   Section      104  drlef.o(x$fpl$drleqf)
    .constdata                               0x08006f90   Section       32  stm32g0xx_hal_uart.o(.constdata)
    x$fpl$usenofp                            0x08006f90   Section        0  usenofp.o(x$fpl$usenofp)
    CHANNEL_OFFSET_TAB                       0x08006f90   Data           7  stm32g0xx_hal_uart.o(.constdata)
    .constdata                               0x08006fb0   Section       23  stm32g0xx_hal_uart_ex.o(.constdata)
    CHANNEL_OFFSET_TAB                       0x08006fb0   Data           7  stm32g0xx_hal_uart_ex.o(.constdata)
    numerator                                0x08006fb7   Data           8  stm32g0xx_hal_uart_ex.o(.constdata)
    denominator                              0x08006fbf   Data           8  stm32g0xx_hal_uart_ex.o(.constdata)
    .constdata                               0x08006fc8   Section      104  system_stm32g0xx.o(.constdata)
    CHANNEL_OFFSET_TAB                       0x08006fc8   Data           7  system_stm32g0xx.o(.constdata)
    .constdata                               0x08007030   Section      128  ddiv.o(.constdata)
    ddiv_reciptbl                            0x08007030   Data         128  ddiv.o(.constdata)
    .constdata                               0x080070b0   Section       88  exp.o(.constdata)
    halF                                     0x080070b0   Data          16  exp.o(.constdata)
    ln2HI                                    0x080070c0   Data          16  exp.o(.constdata)
    ln2LO                                    0x080070d0   Data          16  exp.o(.constdata)
    P                                        0x080070e0   Data          40  exp.o(.constdata)
    .data                                    0x20000000   Section      296  data_pre.o(.data)
    .data                                    0x20000128   Section      217  mode1.o(.data)
    .data                                    0x20000208   Section       56  mode2.o(.data)
    .data                                    0x20000240   Section       81  mode3.o(.data)
    .data                                    0x20000298   Section       80  mpu6050.o(.data)
    .data                                    0x200002e8   Section       16  miniaaudiocontrol.o(.data)
    .data                                    0x200002f8   Section        7  exoskeleton_control.o(.data)
    .data                                    0x20000300   Section       12  keys.o(.data)
    .data                                    0x2000030c   Section       12  flash_drive.o(.data)
    .data                                    0x20000318   Section       64  cyc_req.o(.data)
    .data                                    0x20000358   Section       66  comm_m2s.o(.data)
    .data                                    0x200003a0   Section       32  main.o(.data)
    .data                                    0x200003c0   Section        9  stm32g0xx_hal.o(.data)
    .data                                    0x200003cc   Section        4  system_stm32g0xx.o(.data)
    .bss                                     0x200003d0   Section     6400  data_pre.o(.bss)
    .bss                                     0x20001cd0   Section       66  mpu6050.o(.bss)
    .bss                                     0x20001d12   Section       10  main.o(.bss)
    .bss                                     0x20001d1c   Section      192  adc.o(.bss)
    .bss                                     0x20001ddc   Section      100  spi.o(.bss)
    .bss                                     0x20001e40   Section       76  tim.o(.bss)
    .bss                                     0x20001e8c   Section      960  usart.o(.bss)
    .bss                                     0x2000224c   Section       96  libspace.o(.bss)
    HEAP                                     0x200022b0   Section     1280  startup_stm32g070xx.o(HEAP)
    Heap_Mem                                 0x200022b0   Data        1280  startup_stm32g070xx.o(HEAP)
    STACK                                    0x200027b0   Section     4096  startup_stm32g070xx.o(STACK)
    Stack_Mem                                0x200027b0   Data        4096  startup_stm32g070xx.o(STACK)
    __initial_sp                             0x200037b0   Data           0  startup_stm32g070xx.o(STACK)

    Global Symbols

    Symbol Name                              Value     Ov Type        Size  Object(Section)

    BuildAttributes$$THM_ISAv3M$S$PE$A:L22$X:L11$S22$IEEE1$IW$USESV6$~STKCKD$USESV7$~SHL$OTIME$ROPI$IEEEX$EBA8$UX$STANDARDLIB$REQ8$PRES8$EABIv2 0x00000000   Number         0  anon$$obj.o ABSOLUTE
    __ARM_use_no_argv                        0x00000000   Number         0  main.o ABSOLUTE
    __ARM_exceptions_init                     - Undefined Weak Reference
    __alloca_initialize                       - Undefined Weak Reference
    __arm_preinit_                            - Undefined Weak Reference
    __cpp_initialize__aeabi_                  - Undefined Weak Reference
    __cxa_finalize                            - Undefined Weak Reference
    __rt_locale                               - Undefined Weak Reference
    __sigvec_lookup                           - Undefined Weak Reference
    _atexit_init                              - Undefined Weak Reference
    _call_atexit_fns                          - Undefined Weak Reference
    _clock_init                               - Undefined Weak Reference
    _fp_trap_init                             - Undefined Weak Reference
    _fp_trap_shutdown                         - Undefined Weak Reference
    _get_lc_collate                           - Undefined Weak Reference
    _get_lc_ctype                             - Undefined Weak Reference
    _get_lc_monetary                          - Undefined Weak Reference
    _get_lc_numeric                           - Undefined Weak Reference
    _get_lc_time                              - Undefined Weak Reference
    _getenv_init                              - Undefined Weak Reference
    _handle_redirection                       - Undefined Weak Reference
    _init_alloc                               - Undefined Weak Reference
    _init_user_alloc                          - Undefined Weak Reference
    _initio                                   - Undefined Weak Reference
    _rand_init                                - Undefined Weak Reference
    _signal_finish                            - Undefined Weak Reference
    _signal_init                              - Undefined Weak Reference
    _terminate_alloc                          - Undefined Weak Reference
    _terminate_user_alloc                     - Undefined Weak Reference
    _terminateio                              - Undefined Weak Reference
    __Vectors_Size                           0x000000b8   Number         0  startup_stm32g070xx.o ABSOLUTE
    __Vectors                                0x08000000   Data           4  startup_stm32g070xx.o(RESET)
    __Vectors_End                            0x080000b8   Data           0  startup_stm32g070xx.o(RESET)
    __main                                   0x080000b9   Thumb Code     8  __main.o(!!!main)
    __scatterload                            0x080000c1   Thumb Code     0  __scatter.o(!!!scatter)
    __scatterload_rt2                        0x080000c1   Thumb Code    52  __scatter.o(!!!scatter)
    __scatterload_rt2_thumb_only             0x080000c1   Thumb Code     0  __scatter.o(!!!scatter)
    __scatterload_null                       0x080000d1   Thumb Code     0  __scatter.o(!!!scatter)
    __scatterload_zeroinit                   0x080000fd   Thumb Code    28  __scatter_zi.o(!!handler_zi)
    __rt_lib_init                            0x08000119   Thumb Code     0  libinit.o(.ARM.Collect$$libinit$$00000000)
    __rt_lib_init_alloca_1                   0x0800011b   Thumb Code     0  libinit2.o(.ARM.Collect$$libinit$$0000002E)
    __rt_lib_init_argv_1                     0x0800011b   Thumb Code     0  libinit2.o(.ARM.Collect$$libinit$$0000002C)
    __rt_lib_init_atexit_1                   0x0800011b   Thumb Code     0  libinit2.o(.ARM.Collect$$libinit$$0000001B)
    __rt_lib_init_clock_1                    0x0800011b   Thumb Code     0  libinit2.o(.ARM.Collect$$libinit$$00000021)
    __rt_lib_init_cpp_1                      0x0800011b   Thumb Code     0  libinit2.o(.ARM.Collect$$libinit$$00000032)
    __rt_lib_init_exceptions_1               0x0800011b   Thumb Code     0  libinit2.o(.ARM.Collect$$libinit$$00000030)
    __rt_lib_init_fp_1                       0x0800011b   Thumb Code     0  libinit2.o(.ARM.Collect$$libinit$$00000002)
    __rt_lib_init_fp_trap_1                  0x0800011b   Thumb Code     0  libinit2.o(.ARM.Collect$$libinit$$0000001F)
    __rt_lib_init_getenv_1                   0x0800011b   Thumb Code     0  libinit2.o(.ARM.Collect$$libinit$$00000023)
    __rt_lib_init_heap_1                     0x0800011b   Thumb Code     0  libinit2.o(.ARM.Collect$$libinit$$0000000A)
    __rt_lib_init_lc_collate_1               0x0800011b   Thumb Code     0  libinit2.o(.ARM.Collect$$libinit$$00000011)
    __rt_lib_init_lc_ctype_1                 0x0800011b   Thumb Code     0  libinit2.o(.ARM.Collect$$libinit$$00000013)
    __rt_lib_init_lc_monetary_1              0x0800011b   Thumb Code     0  libinit2.o(.ARM.Collect$$libinit$$00000015)
    __rt_lib_init_lc_numeric_1               0x0800011b   Thumb Code     0  libinit2.o(.ARM.Collect$$libinit$$00000017)
    __rt_lib_init_lc_time_1                  0x0800011b   Thumb Code     0  libinit2.o(.ARM.Collect$$libinit$$00000019)
    __rt_lib_init_preinit_1                  0x0800011b   Thumb Code     0  libinit2.o(.ARM.Collect$$libinit$$00000004)
    __rt_lib_init_rand_1                     0x0800011b   Thumb Code     0  libinit2.o(.ARM.Collect$$libinit$$0000000E)
    __rt_lib_init_return                     0x0800011b   Thumb Code     0  libinit2.o(.ARM.Collect$$libinit$$00000033)
    __rt_lib_init_signal_1                   0x0800011b   Thumb Code     0  libinit2.o(.ARM.Collect$$libinit$$0000001D)
    __rt_lib_init_stdio_1                    0x0800011b   Thumb Code     0  libinit2.o(.ARM.Collect$$libinit$$00000025)
    __rt_lib_init_user_alloc_1               0x0800011b   Thumb Code     0  libinit2.o(.ARM.Collect$$libinit$$0000000C)
    __rt_lib_shutdown                        0x0800011d   Thumb Code     0  libshutdown.o(.ARM.Collect$$libshutdown$$00000000)
    __rt_lib_shutdown_cpp_1                  0x0800011f   Thumb Code     0  libshutdown2.o(.ARM.Collect$$libshutdown$$00000002)
    __rt_lib_shutdown_fp_trap_1              0x0800011f   Thumb Code     0  libshutdown2.o(.ARM.Collect$$libshutdown$$00000007)
    __rt_lib_shutdown_heap_1                 0x0800011f   Thumb Code     0  libshutdown2.o(.ARM.Collect$$libshutdown$$0000000F)
    __rt_lib_shutdown_return                 0x0800011f   Thumb Code     0  libshutdown2.o(.ARM.Collect$$libshutdown$$00000010)
    __rt_lib_shutdown_signal_1               0x0800011f   Thumb Code     0  libshutdown2.o(.ARM.Collect$$libshutdown$$0000000A)
    __rt_lib_shutdown_stdio_1                0x0800011f   Thumb Code     0  libshutdown2.o(.ARM.Collect$$libshutdown$$00000004)
    __rt_lib_shutdown_user_alloc_1           0x0800011f   Thumb Code     0  libshutdown2.o(.ARM.Collect$$libshutdown$$0000000C)
    __rt_entry                               0x08000121   Thumb Code     0  __rtentry.o(.ARM.Collect$$rtentry$$00000000)
    __rt_entry_presh_1                       0x08000121   Thumb Code     0  __rtentry2.o(.ARM.Collect$$rtentry$$00000002)
    __rt_entry_sh                            0x08000121   Thumb Code     0  __rtentry4.o(.ARM.Collect$$rtentry$$00000004)
    __rt_entry_li                            0x08000127   Thumb Code     0  __rtentry2.o(.ARM.Collect$$rtentry$$0000000A)
    __rt_entry_postsh_1                      0x08000127   Thumb Code     0  __rtentry2.o(.ARM.Collect$$rtentry$$00000009)
    __rt_entry_main                          0x0800012b   Thumb Code     0  __rtentry2.o(.ARM.Collect$$rtentry$$0000000D)
    __rt_entry_postli_1                      0x0800012b   Thumb Code     0  __rtentry2.o(.ARM.Collect$$rtentry$$0000000C)
    __rt_exit                                0x08000133   Thumb Code     0  rtexit.o(.ARM.Collect$$rtexit$$00000000)
    __rt_exit_ls                             0x08000135   Thumb Code     0  rtexit2.o(.ARM.Collect$$rtexit$$00000003)
    __rt_exit_prels_1                        0x08000135   Thumb Code     0  rtexit2.o(.ARM.Collect$$rtexit$$00000002)
    __rt_exit_exit                           0x08000139   Thumb Code     0  rtexit2.o(.ARM.Collect$$rtexit$$00000004)
    __aeabi_memcpy4                          0x08000141   Thumb Code    56  rt_memcpy.o(.emb_text)
    __aeabi_memcpy8                          0x08000141   Thumb Code     0  rt_memcpy.o(.emb_text)
    Reset_Handler                            0x08000179   Thumb Code     8  startup_stm32g070xx.o(.text)
    ADC1_IRQHandler                          0x0800018b   Thumb Code     0  startup_stm32g070xx.o(.text)
    DMA1_Ch4_7_DMAMUX1_OVR_IRQHandler        0x0800018b   Thumb Code     0  startup_stm32g070xx.o(.text)
    DMA1_Channel1_IRQHandler                 0x0800018b   Thumb Code     0  startup_stm32g070xx.o(.text)
    DMA1_Channel2_3_IRQHandler               0x0800018b   Thumb Code     0  startup_stm32g070xx.o(.text)
    EXTI0_1_IRQHandler                       0x0800018b   Thumb Code     0  startup_stm32g070xx.o(.text)
    EXTI2_3_IRQHandler                       0x0800018b   Thumb Code     0  startup_stm32g070xx.o(.text)
    EXTI4_15_IRQHandler                      0x0800018b   Thumb Code     0  startup_stm32g070xx.o(.text)
    FLASH_IRQHandler                         0x0800018b   Thumb Code     0  startup_stm32g070xx.o(.text)
    I2C1_IRQHandler                          0x0800018b   Thumb Code     0  startup_stm32g070xx.o(.text)
    I2C2_IRQHandler                          0x0800018b   Thumb Code     0  startup_stm32g070xx.o(.text)
    RCC_IRQHandler                           0x0800018b   Thumb Code     0  startup_stm32g070xx.o(.text)
    RTC_TAMP_IRQHandler                      0x0800018b   Thumb Code     0  startup_stm32g070xx.o(.text)
    SPI1_IRQHandler                          0x0800018b   Thumb Code     0  startup_stm32g070xx.o(.text)
    SPI2_IRQHandler                          0x0800018b   Thumb Code     0  startup_stm32g070xx.o(.text)
    TIM14_IRQHandler                         0x0800018b   Thumb Code     0  startup_stm32g070xx.o(.text)
    TIM15_IRQHandler                         0x0800018b   Thumb Code     0  startup_stm32g070xx.o(.text)
    TIM16_IRQHandler                         0x0800018b   Thumb Code     0  startup_stm32g070xx.o(.text)
    TIM17_IRQHandler                         0x0800018b   Thumb Code     0  startup_stm32g070xx.o(.text)
    TIM1_BRK_UP_TRG_COM_IRQHandler           0x0800018b   Thumb Code     0  startup_stm32g070xx.o(.text)
    TIM1_CC_IRQHandler                       0x0800018b   Thumb Code     0  startup_stm32g070xx.o(.text)
    TIM3_IRQHandler                          0x0800018b   Thumb Code     0  startup_stm32g070xx.o(.text)
    TIM7_IRQHandler                          0x0800018b   Thumb Code     0  startup_stm32g070xx.o(.text)
    USART1_IRQHandler                        0x0800018b   Thumb Code     0  startup_stm32g070xx.o(.text)
    USART2_IRQHandler                        0x0800018b   Thumb Code     0  startup_stm32g070xx.o(.text)
    USART3_4_IRQHandler                      0x0800018b   Thumb Code     0  startup_stm32g070xx.o(.text)
    WWDG_IRQHandler                          0x0800018b   Thumb Code     0  startup_stm32g070xx.o(.text)
    __user_initial_stackheap                 0x0800018d   Thumb Code     0  startup_stm32g070xx.o(.text)
    __aeabi_memcpy                           0x080001b1   Thumb Code   130  rt_memcpy.o(.text)
    __rt_memcpy                              0x080001b1   Thumb Code     0  rt_memcpy.o(.text)
    _memset_w                                0x08000233   Thumb Code    26  rt_memclr.o(.text)
    _memset                                  0x0800024d   Thumb Code    30  rt_memclr.o(.text)
    __aeabi_memclr                           0x0800026b   Thumb Code     4  rt_memclr.o(.text)
    __rt_memclr                              0x0800026b   Thumb Code     0  rt_memclr.o(.text)
    __aeabi_memclr4                          0x0800026f   Thumb Code     0  rt_memclr.o(.text)
    __aeabi_memclr8                          0x0800026f   Thumb Code     0  rt_memclr.o(.text)
    __rt_memclr_w                            0x0800026f   Thumb Code     4  rt_memclr.o(.text)
    __aeabi_uidiv                            0x08000273   Thumb Code     0  aeabi_sdiv.o(.text)
    __aeabi_uidivmod                         0x08000273   Thumb Code    20  aeabi_sdiv.o(.text)
    __aeabi_idiv                             0x08000287   Thumb Code     0  aeabi_sdiv.o(.text)
    __aeabi_idivmod                          0x08000287   Thumb Code   326  aeabi_sdiv.o(.text)
    __use_two_region_memory                  0x080003cd   Thumb Code     2  heapauxi.o(.text)
    __rt_heap_escrow$2region                 0x080003cf   Thumb Code     2  heapauxi.o(.text)
    __rt_heap_expand$2region                 0x080003d1   Thumb Code     2  heapauxi.o(.text)
    __aeabi_dadd                             0x080006cd   Thumb Code     0  daddsub.o(.text)
    _dadd                                    0x080006cd   Thumb Code    26  daddsub.o(.text)
    __aeabi_dsub                             0x080006e7   Thumb Code     0  daddsub.o(.text)
    _dsub                                    0x080006e7   Thumb Code    22  daddsub.o(.text)
    __aeabi_drsub                            0x080006fd   Thumb Code     0  daddsub.o(.text)
    _drsb                                    0x080006fd   Thumb Code    28  daddsub.o(.text)
    __aeabi_ddiv                             0x0800072d   Thumb Code     0  ddiv.o(.text)
    _ddiv                                    0x0800072d   Thumb Code  1072  ddiv.o(.text)
    _drdiv                                   0x08000b5d   Thumb Code    20  ddiv.o(.text)
    __aeabi_i2d_normalise                    0x08000b75   Thumb Code    66  dflti.o(.text)
    __aeabi_i2d                              0x08000bb7   Thumb Code    16  dflti.o(.text)
    _dflt                                    0x08000bb7   Thumb Code     0  dflti.o(.text)
    __aeabi_ui2d                             0x08000bc7   Thumb Code     6  dflti.o(.text)
    _dfltu                                   0x08000bc7   Thumb Code     0  dflti.o(.text)
    __aeabi_dmul                             0x08000bcd   Thumb Code     0  dmul.o(.text)
    _dmul                                    0x08000bcd   Thumb Code   558  dmul.o(.text)
    __read_errno                             0x08000e15   Thumb Code    10  _rserrno.o(.text)
    __set_errno                              0x08000e1f   Thumb Code    12  _rserrno.o(.text)
    __fpl_dcmp_InfNaN                        0x08000e2d   Thumb Code   140  dcmpin.o(.text)
    __aeabi_d2iz                             0x08000ebd   Thumb Code     0  dfixi.o(.text)
    _dfix                                    0x08000ebd   Thumb Code    98  dfixi.o(.text)
    __ARM_scalbn                             0x08000f29   Thumb Code    84  dscalbn.o(.text)
    __aeabi_errno_addr                       0x08000f89   Thumb Code     8  rt_errno_addr_intlibspace.o(.text)
    __errno$intlibspace                      0x08000f89   Thumb Code     0  rt_errno_addr_intlibspace.o(.text)
    __rt_errno_addr$intlibspace              0x08000f89   Thumb Code     0  rt_errno_addr_intlibspace.o(.text)
    __fpl_cmpreturn                          0x08000f91   Thumb Code    46  cmpret.o(.text)
    __fpl_dcheck_NaN2                        0x08000fc1   Thumb Code    14  dnan2.o(.text)
    __user_libspace                          0x08000fd5   Thumb Code     8  libspace.o(.text)
    __user_perproc_libspace                  0x08000fd5   Thumb Code     0  libspace.o(.text)
    __user_perthread_libspace                0x08000fd5   Thumb Code     0  libspace.o(.text)
    __user_setup_stackheap                   0x08000fdd   Thumb Code    62  sys_stackheap_outer.o(.text)
    exit                                     0x0800101b   Thumb Code    16  exit.o(.text)
    __fpl_return_NaN                         0x0800102b   Thumb Code    94  retnan.o(.text)
    _sys_exit                                0x08001089   Thumb Code     8  sys_exit.o(.text)
    __I$use$semihosting                      0x08001095   Thumb Code     0  use_no_semi.o(.text)
    __use_no_semihosting_swi                 0x08001095   Thumb Code     2  use_no_semi.o(.text)
    __decompress                             0x08001097   Thumb Code     0  __dczerorl2.o(.text)
    __decompress1                            0x08001097   Thumb Code    86  __dczerorl2.o(.text)
    __semihosting_library_function           0x08001097   Thumb Code     0  indicate_semi.o(.text)
    Anti_Vibration_Fun                       0x080010ed   Thumb Code     8  keys.o(i.Anti_Vibration_Fun)
    Block_Keys                               0x080010f5   Thumb Code    16  keys.o(i.Block_Keys)
    Bow_Assist_Max_Minus                     0x08001105   Thumb Code    62  mode2.o(i.Bow_Assist_Max_Minus)
    Bow_Assist_Max_Plus                      0x0800114d   Thumb Code    62  mode2.o(i.Bow_Assist_Max_Plus)
    Comm_M2S_L_Send                          0x08001195   Thumb Code    40  comm_m2s.o(i.Comm_M2S_L_Send)
    Comm_M2S_R_Send                          0x080011c5   Thumb Code    44  comm_m2s.o(i.Comm_M2S_R_Send)
    Comm_Master2Slave_Init                   0x080011f5   Thumb Code   102  comm_m2s.o(i.Comm_Master2Slave_Init)
    Comm_Read_Process                        0x08001279   Thumb Code    12  comm_m2s.o(i.Comm_Read_Process)
    Comm_Send_Process                        0x08001285   Thumb Code    12  comm_m2s.o(i.Comm_Send_Process)
    Comm_Slave2Master_RecData_CRC16          0x08001291   Thumb Code    32  comm_m2s.o(i.Comm_Slave2Master_RecData_CRC16)
    Cyclical_Request                         0x080012b1   Thumb Code   126  cyc_req.o(i.Cyclical_Request)
    Cyclical_Timing_Func                     0x08001351   Thumb Code    32  cyc_req.o(i.Cyclical_Timing_Func)
    Error_Handler                            0x08001419   Thumb Code     6  main.o(i.Error_Handler)
    Exo_Control                              0x08001421   Thumb Code    52  exoskeleton_control.o(i.Exo_Control)
    Exo_Data_Prepare                         0x08001461   Thumb Code   384  data_pre.o(i.Exo_Data_Prepare)
    Exo_Get_Mode                             0x08001655   Thumb Code    86  exoskeleton_control.o(i.Exo_Get_Mode)
    Exo_Init                                 0x080016b9   Thumb Code     8  exoskeleton_control.o(i.Exo_Init)
    Filter_Theta_Vel_L                       0x080016c1   Thumb Code   206  data_pre.o(i.Filter_Theta_Vel_L)
    Filter_Theta_Vel_R                       0x080017a9   Thumb Code   208  data_pre.o(i.Filter_Theta_Vel_R)
    Flag_Modes_State                         0x08001891   Thumb Code    16  exoskeleton_control.o(i.Flag_Modes_State)
    Flash_Delay                              0x080018a1   Thumb Code    26  flash_drive.o(i.Flash_Delay)
    HAL_ADC_ConfigChannel                    0x080018c1   Thumb Code   838  stm32g0xx_hal_adc.o(i.HAL_ADC_ConfigChannel)
    HAL_ADC_Init                             0x08001c25   Thumb Code   634  stm32g0xx_hal_adc.o(i.HAL_ADC_Init)
    HAL_ADC_MspInit                          0x08001ebd   Thumb Code   170  adc.o(i.HAL_ADC_MspInit)
    HAL_DMA_Init                             0x08001f79   Thumb Code   182  stm32g0xx_hal_dma.o(i.HAL_DMA_Init)
    HAL_DMA_Start_IT                         0x08002039   Thumb Code   204  stm32g0xx_hal_dma.o(i.HAL_DMA_Start_IT)
    HAL_Delay                                0x08002105   Thumb Code    38  stm32g0xx_hal.o(i.HAL_Delay)
    HAL_GPIO_Init                            0x08002131   Thumb Code   454  stm32g0xx_hal_gpio.o(i.HAL_GPIO_Init)
    HAL_GPIO_ReadPin                         0x08002309   Thumb Code    18  stm32g0xx_hal_gpio.o(i.HAL_GPIO_ReadPin)
    HAL_GPIO_TogglePin                       0x0800231b   Thumb Code    20  stm32g0xx_hal_gpio.o(i.HAL_GPIO_TogglePin)
    HAL_GPIO_WritePin                        0x0800232f   Thumb Code    12  stm32g0xx_hal_gpio.o(i.HAL_GPIO_WritePin)
    HAL_GetTick                              0x0800233d   Thumb Code     6  stm32g0xx_hal.o(i.HAL_GetTick)
    HAL_IncTick                              0x08002349   Thumb Code    16  stm32g0xx_hal.o(i.HAL_IncTick)
    HAL_Init                                 0x08002361   Thumb Code    40  stm32g0xx_hal.o(i.HAL_Init)
    HAL_InitTick                             0x0800238d   Thumb Code    82  stm32g0xx_hal.o(i.HAL_InitTick)
    HAL_MspInit                              0x080023ed   Thumb Code    72  stm32g0xx_hal_msp.o(i.HAL_MspInit)
    HAL_NVIC_EnableIRQ                       0x08002439   Thumb Code    30  stm32g0xx_hal_cortex.o(i.HAL_NVIC_EnableIRQ)
    HAL_NVIC_SetPriority                     0x0800245d   Thumb Code    18  stm32g0xx_hal_cortex.o(i.HAL_NVIC_SetPriority)
    HAL_PWREx_ControlVoltageScaling          0x08002471   Thumb Code    76  stm32g0xx_hal_pwr_ex.o(i.HAL_PWREx_ControlVoltageScaling)
    HAL_RCCEx_PeriphCLKConfig                0x080024c9   Thumb Code   504  stm32g0xx_hal_rcc_ex.o(i.HAL_RCCEx_PeriphCLKConfig)
    HAL_RCC_ClockConfig                      0x080026cd   Thumb Code   442  stm32g0xx_hal_rcc.o(i.HAL_RCC_ClockConfig)
    HAL_RCC_GetHCLKFreq                      0x080028a1   Thumb Code     6  stm32g0xx_hal_rcc.o(i.HAL_RCC_GetHCLKFreq)
    HAL_RCC_GetPCLK1Freq                     0x080028ad   Thumb Code    32  stm32g0xx_hal_rcc.o(i.HAL_RCC_GetPCLK1Freq)
    HAL_RCC_GetSysClockFreq                  0x080028d5   Thumb Code   216  stm32g0xx_hal_rcc.o(i.HAL_RCC_GetSysClockFreq)
    HAL_RCC_OscConfig                        0x080029b9   Thumb Code  1434  stm32g0xx_hal_rcc.o(i.HAL_RCC_OscConfig)
    HAL_SPI_Init                             0x08002f65   Thumb Code   268  stm32g0xx_hal_spi.o(i.HAL_SPI_Init)
    HAL_SPI_MspInit                          0x08003071   Thumb Code   110  spi.o(i.HAL_SPI_MspInit)
    HAL_SPI_TransmitReceive                  0x080030ed   Thumb Code   618  stm32g0xx_hal_spi.o(i.HAL_SPI_TransmitReceive)
    HAL_SYSCFG_StrobeDBattpinsConfig         0x08003359   Thumb Code    18  stm32g0xx_hal.o(i.HAL_SYSCFG_StrobeDBattpinsConfig)
    HAL_SYSTICK_Config                       0x08003371   Thumb Code    46  stm32g0xx_hal_cortex.o(i.HAL_SYSTICK_Config)
    HAL_TIMEx_Break2Callback                 0x080033a9   Thumb Code     2  stm32g0xx_hal_tim_ex.o(i.HAL_TIMEx_Break2Callback)
    HAL_TIMEx_BreakCallback                  0x080033ab   Thumb Code     2  stm32g0xx_hal_tim_ex.o(i.HAL_TIMEx_BreakCallback)
    HAL_TIMEx_CommutCallback                 0x080033ad   Thumb Code     2  stm32g0xx_hal_tim_ex.o(i.HAL_TIMEx_CommutCallback)
    HAL_TIMEx_MasterConfigSynchronization    0x080033b1   Thumb Code   140  stm32g0xx_hal_tim_ex.o(i.HAL_TIMEx_MasterConfigSynchronization)
    HAL_TIM_Base_Init                        0x08003449   Thumb Code   108  stm32g0xx_hal_tim.o(i.HAL_TIM_Base_Init)
    HAL_TIM_Base_MspInit                     0x080034b5   Thumb Code    58  tim.o(i.HAL_TIM_Base_MspInit)
    HAL_TIM_Base_Start_IT                    0x080034f9   Thumb Code   104  stm32g0xx_hal_tim.o(i.HAL_TIM_Base_Start_IT)
    HAL_TIM_IC_CaptureCallback               0x08003571   Thumb Code     2  stm32g0xx_hal_tim.o(i.HAL_TIM_IC_CaptureCallback)
    HAL_TIM_IRQHandler                       0x08003575   Thumb Code   498  stm32g0xx_hal_tim.o(i.HAL_TIM_IRQHandler)
    HAL_TIM_OC_DelayElapsedCallback          0x0800376d   Thumb Code     2  stm32g0xx_hal_tim.o(i.HAL_TIM_OC_DelayElapsedCallback)
    HAL_TIM_PWM_PulseFinishedCallback        0x0800376f   Thumb Code     2  stm32g0xx_hal_tim.o(i.HAL_TIM_PWM_PulseFinishedCallback)
    HAL_TIM_PeriodElapsedCallback            0x08003771   Thumb Code    54  main.o(i.HAL_TIM_PeriodElapsedCallback)
    HAL_TIM_TriggerCallback                  0x080037b9   Thumb Code     2  stm32g0xx_hal_tim.o(i.HAL_TIM_TriggerCallback)
    HAL_UARTEx_DisableFifoMode               0x080037bb   Thumb Code    84  stm32g0xx_hal_uart_ex.o(i.HAL_UARTEx_DisableFifoMode)
    HAL_UARTEx_RxEventCallback               0x0800380f   Thumb Code     2  stm32g0xx_hal_uart.o(i.HAL_UARTEx_RxEventCallback)
    HAL_UARTEx_SetRxFifoThreshold            0x08003811   Thumb Code    96  stm32g0xx_hal_uart_ex.o(i.HAL_UARTEx_SetRxFifoThreshold)
    HAL_UARTEx_SetTxFifoThreshold            0x08003871   Thumb Code    94  stm32g0xx_hal_uart_ex.o(i.HAL_UARTEx_SetTxFifoThreshold)
    HAL_UART_ErrorCallback                   0x080038cf   Thumb Code     2  stm32g0xx_hal_uart.o(i.HAL_UART_ErrorCallback)
    HAL_UART_Init                            0x080038d1   Thumb Code   130  stm32g0xx_hal_uart.o(i.HAL_UART_Init)
    HAL_UART_MspInit                         0x08003955   Thumb Code   738  usart.o(i.HAL_UART_MspInit)
    HAL_UART_Receive_DMA                     0x08003c65   Thumb Code   126  stm32g0xx_hal_uart.o(i.HAL_UART_Receive_DMA)
    HAL_UART_RxCpltCallback                  0x08003ce3   Thumb Code     2  stm32g0xx_hal_uart.o(i.HAL_UART_RxCpltCallback)
    HAL_UART_RxHalfCpltCallback              0x08003ce5   Thumb Code     2  stm32g0xx_hal_uart.o(i.HAL_UART_RxHalfCpltCallback)
    HAL_UART_Transmit                        0x08003ce7   Thumb Code   230  stm32g0xx_hal_uart.o(i.HAL_UART_Transmit)
    HardFault_Handler                        0x08003dcd   Thumb Code     4  stm32g0xx_it.o(i.HardFault_Handler)
    Key_L_2_Block                            0x08003dd1   Thumb Code    44  keys.o(i.Key_L_2_Block)
    Key_R_1_Block                            0x08003e05   Thumb Code    44  keys.o(i.Key_R_1_Block)
    Key_R_2_Block                            0x08003e39   Thumb Code    44  keys.o(i.Key_R_2_Block)
    MPU6050_Data_Rearrange                   0x08003ed1   Thumb Code    38  mpu6050.o(i.MPU6050_Data_Rearrange)
    MPU_6050_Data_Analyse                    0x08003f09   Thumb Code    20  mpu6050.o(i.MPU_6050_Data_Analyse)
    MPU_6050_Init                            0x08003f1d   Thumb Code    68  mpu6050.o(i.MPU_6050_Init)
    MX_ADC1_Init                             0x08003f6d   Thumb Code   118  adc.o(i.MX_ADC1_Init)
    MX_DMA_Init                              0x08003ff1   Thumb Code    32  dma.o(i.MX_DMA_Init)
    MX_GPIO_Init                             0x08004015   Thumb Code   342  gpio.o(i.MX_GPIO_Init)
    MX_SPI2_Init                             0x0800417d   Thumb Code    76  spi.o(i.MX_SPI2_Init)
    MX_TIM6_Init                             0x080041d1   Thumb Code    70  tim.o(i.MX_TIM6_Init)
    MX_USART1_UART_Init                      0x08004221   Thumb Code   106  usart.o(i.MX_USART1_UART_Init)
    MX_USART2_UART_Init                      0x08004295   Thumb Code   104  usart.o(i.MX_USART2_UART_Init)
    MX_USART3_UART_Init                      0x08004309   Thumb Code    58  usart.o(i.MX_USART3_UART_Init)
    MX_USART4_UART_Init                      0x08004351   Thumb Code    60  usart.o(i.MX_USART4_UART_Init)
    Message_Rec_L                            0x08004395   Thumb Code    80  comm_m2s.o(i.Message_Rec_L)
    Message_Rec_R                            0x080043f9   Thumb Code    80  comm_m2s.o(i.Message_Rec_R)
    Message_Send_L                           0x0800445d   Thumb Code    44  comm_m2s.o(i.Message_Send_L)
    Message_Send_R                           0x08004491   Thumb Code    42  comm_m2s.o(i.Message_Send_R)
    MiniAudio_Cmd_07                         0x080044c5   Thumb Code    44  miniaaudiocontrol.o(i.MiniAudio_Cmd_07)
    MiniAudio_Cmd_13                         0x080044fd   Thumb Code    40  miniaaudiocontrol.o(i.MiniAudio_Cmd_13)
    MiniAudio_Delay_Count                    0x08004531   Thumb Code    34  miniaaudiocontrol.o(i.MiniAudio_Delay_Count)
    MiniAudio_Delay_Reset                    0x0800455d   Thumb Code     8  miniaaudiocontrol.o(i.MiniAudio_Delay_Reset)
    MiniAudio_Delay_Set                      0x08004569   Thumb Code    16  miniaaudiocontrol.o(i.MiniAudio_Delay_Set)
    MiniAudio_Flag_23_Reset                  0x08004581   Thumb Code    12  miniaaudiocontrol.o(i.MiniAudio_Flag_23_Reset)
    MiniAudio_Flag_23_Set                    0x08004595   Thumb Code    12  miniaaudiocontrol.o(i.MiniAudio_Flag_23_Set)
    MiniAudio_Flag_45_Reset                  0x080045a9   Thumb Code    12  miniaaudiocontrol.o(i.MiniAudio_Flag_45_Reset)
    MiniAudio_Flag_45_Set                    0x080045bd   Thumb Code    12  miniaaudiocontrol.o(i.MiniAudio_Flag_45_Set)
    MiniAudio_Flag_67_Reset                  0x080045d1   Thumb Code    12  miniaaudiocontrol.o(i.MiniAudio_Flag_67_Reset)
    MiniAudio_Flag_67_Set                    0x080045e5   Thumb Code    12  miniaaudiocontrol.o(i.MiniAudio_Flag_67_Set)
    MiniAudio_Init                           0x080045f9   Thumb Code    18  miniaaudiocontrol.o(i.MiniAudio_Init)
    MiniAudio_Send_Fun                       0x0800460d   Thumb Code   330  miniaaudiocontrol.o(i.MiniAudio_Send_Fun)
    MiniAudio_Torque_Grade_Ask_Flag_Reset    0x08004791   Thumb Code     8  miniaaudiocontrol.o(i.MiniAudio_Torque_Grade_Ask_Flag_Reset)
    MiniAudio_Torque_Grade_Ask_Flag_Set      0x0800479d   Thumb Code     8  miniaaudiocontrol.o(i.MiniAudio_Torque_Grade_Ask_Flag_Set)
    MiniAudio_Torque_Grade_Minus_Flag_Reset  0x080047a9   Thumb Code     8  miniaaudiocontrol.o(i.MiniAudio_Torque_Grade_Minus_Flag_Reset)
    MiniAudio_Torque_Grade_Minus_Flag_Set    0x080047b5   Thumb Code     8  miniaaudiocontrol.o(i.MiniAudio_Torque_Grade_Minus_Flag_Set)
    MiniAudio_Torque_Grade_Plus_Flag_Reset   0x080047c1   Thumb Code     8  miniaaudiocontrol.o(i.MiniAudio_Torque_Grade_Plus_Flag_Reset)
    MiniAudio_Torque_Grade_Plus_Flag_Set     0x080047cd   Thumb Code     8  miniaaudiocontrol.o(i.MiniAudio_Torque_Grade_Plus_Flag_Set)
    MiniAudio_Torque_Grade_Reset_Flag_Reset  0x080047d9   Thumb Code     8  miniaaudiocontrol.o(i.MiniAudio_Torque_Grade_Reset_Flag_Reset)
    Mode1_Activation_N_Func                  0x080047e5   Thumb Code    78  mode1.o(i.Mode1_Activation_N_Func)
    Mode1_Activation_P_Func                  0x08004845   Thumb Code    78  mode1.o(i.Mode1_Activation_P_Func)
    Mode1_Get_Grade                          0x080048a5   Thumb Code     6  mode1.o(i.Mode1_Get_Grade)
    Mode1_Grade_Init                         0x080048b1   Thumb Code    46  mode1.o(i.Mode1_Grade_Init)
    Mode2_Get_Grade                          0x080048ed   Thumb Code    62  mode2.o(i.Mode2_Get_Grade)
    Mode2_Grade_Init                         0x08004931   Thumb Code    34  mode2.o(i.Mode2_Grade_Init)
    Mode3_Get_Grade                          0x0800495d   Thumb Code     6  mode3.o(i.Mode3_Get_Grade)
    Mode3_Grade_Init                         0x08004969   Thumb Code    28  mode3.o(i.Mode3_Grade_Init)
    Mode_Change                              0x0800498d   Thumb Code   210  exoskeleton_control.o(i.Mode_Change)
    Mode_Grade_Flash_Data_Init               0x08004a75   Thumb Code    42  data_pre.o(i.Mode_Grade_Flash_Data_Init)
    Mode_Grade_Para_Get                      0x08004aa9   Thumb Code    38  data_pre.o(i.Mode_Grade_Para_Get)
    Mode_Grade_Para_Set                      0x08004ad5   Thumb Code    38  data_pre.o(i.Mode_Grade_Para_Set)
    Mode_Grade_Read                          0x08004b01   Thumb Code    14  data_pre.o(i.Mode_Grade_Read)
    Mode_Grade_Save                          0x08004b15   Thumb Code    20  data_pre.o(i.Mode_Grade_Save)
    Mode_Selet_Get_Torque_Grade              0x08004b2d   Thumb Code    62  miniaaudiocontrol.o(i.Mode_Selet_Get_Torque_Grade)
    NMI_Handler                              0x08004b71   Thumb Code     4  stm32g0xx_it.o(i.NMI_Handler)
    PendSV_Handler                           0x08004b75   Thumb Code     2  stm32g0xx_it.o(i.PendSV_Handler)
    Power_Low_Warning_Flag_Get               0x08004b79   Thumb Code     6  data_pre.o(i.Power_Low_Warning_Flag_Get)
    Power_Low_Warning_Flag_Reset             0x08004b85   Thumb Code     8  data_pre.o(i.Power_Low_Warning_Flag_Reset)
    Power_Out_Warning_Flag_Get               0x08004b91   Thumb Code     6  data_pre.o(i.Power_Out_Warning_Flag_Get)
    Power_Out_Warning_Flag_Reset             0x08004b9d   Thumb Code     8  data_pre.o(i.Power_Out_Warning_Flag_Reset)
    Reset_Exo_Key_L_2_Flag                   0x08004ba9   Thumb Code     8  exoskeleton_control.o(i.Reset_Exo_Key_L_2_Flag)
    Reset_Exo_Key_R_1_Flag                   0x08004bb5   Thumb Code     8  exoskeleton_control.o(i.Reset_Exo_Key_R_1_Flag)
    Reset_Exo_Key_R_2_Flag                   0x08004bc1   Thumb Code     8  exoskeleton_control.o(i.Reset_Exo_Key_R_2_Flag)
    Reset_Key_L_2                            0x08004bcd   Thumb Code    16  keys.o(i.Reset_Key_L_2)
    SPI_Flash_Init                           0x08004c4b   Thumb Code    24  flash_drive.o(i.SPI_Flash_Init)
    SPI_Flash_PageWrite                      0x08004c63   Thumb Code    92  flash_drive.o(i.SPI_Flash_PageWrite)
    SPI_Flash_Read_Data                      0x08004cc1   Thumb Code    96  flash_drive.o(i.SPI_Flash_Read_Data)
    SPI_Flash_Read_ID                        0x08004d25   Thumb Code    70  flash_drive.o(i.SPI_Flash_Read_ID)
    SPI_Flash_Read_Status                    0x08004d71   Thumb Code    60  flash_drive.o(i.SPI_Flash_Read_Status)
    SPI_Flash_SectorErase                    0x08004db5   Thumb Code    72  flash_drive.o(i.SPI_Flash_SectorErase)
    SPI_Flash_SendByte                       0x08004dfd   Thumb Code    30  flash_drive.o(i.SPI_Flash_SendByte)
    SPI_Flash_WaitForWriteEnd                0x08004e21   Thumb Code    56  flash_drive.o(i.SPI_Flash_WaitForWriteEnd)
    SPI_Flash_Write_En                       0x08004e59   Thumb Code    36  flash_drive.o(i.SPI_Flash_Write_En)
    SVC_Handler                              0x08005055   Thumb Code     2  stm32g0xx_it.o(i.SVC_Handler)
    Set_Exo_Key_L_2_Flag                     0x08005059   Thumb Code     8  exoskeleton_control.o(i.Set_Exo_Key_L_2_Flag)
    Set_Exo_Key_R_1_Flag                     0x08005065   Thumb Code     8  exoskeleton_control.o(i.Set_Exo_Key_R_1_Flag)
    Set_Exo_Key_R_2_Flag                     0x08005071   Thumb Code     8  exoskeleton_control.o(i.Set_Exo_Key_R_2_Flag)
    Set_Keys                                 0x0800507d   Thumb Code    16  keys.o(i.Set_Keys)
    Spring_Max_Minus                         0x0800508d   Thumb Code    56  mode3.o(i.Spring_Max_Minus)
    Spring_Max_Plus                          0x080050cd   Thumb Code    56  mode3.o(i.Spring_Max_Plus)
    State_Machine_Mode1_Init                 0x0800510d   Thumb Code     8  mode1.o(i.State_Machine_Mode1_Init)
    State_Machine_Mode2_Init                 0x08005119   Thumb Code     8  mode2.o(i.State_Machine_Mode2_Init)
    State_Machine_Mode3_Init                 0x08005125   Thumb Code     8  mode3.o(i.State_Machine_Mode3_Init)
    SysTick_Handler                          0x08005131   Thumb Code     8  stm32g0xx_it.o(i.SysTick_Handler)
    SystemClock_Config                       0x08005139   Thumb Code   108  main.o(i.SystemClock_Config)
    SystemInit                               0x080051a5   Thumb Code     2  system_stm32g0xx.o(i.SystemInit)
    System_Power_Filter                      0x080051a9   Thumb Code   118  data_pre.o(i.System_Power_Filter)
    TIM6_IRQHandler                          0x08005231   Thumb Code    10  stm32g0xx_it.o(i.TIM6_IRQHandler)
    TIM_Base_SetConfig                       0x08005241   Thumb Code   134  stm32g0xx_hal_tim.o(i.TIM_Base_SetConfig)
    Task_Comm_Flag_Reset                     0x080052e1   Thumb Code     8  cyc_req.o(i.Task_Comm_Flag_Reset)
    Task_Comm_Func                           0x080052ed   Thumb Code    36  cyc_req.o(i.Task_Comm_Func)
    Task_Encoder_Flag_Reset                  0x0800531d   Thumb Code     8  cyc_req.o(i.Task_Encoder_Flag_Reset)
    Task_Encoder_Func                        0x08005329   Thumb Code    36  cyc_req.o(i.Task_Encoder_Func)
    Task_Exo_Flag_Reset                      0x08005359   Thumb Code     8  cyc_req.o(i.Task_Exo_Flag_Reset)
    Task_Exo_Func                            0x08005365   Thumb Code    36  cyc_req.o(i.Task_Exo_Func)
    Task_Key_AntiVib_Flag_Reset              0x08005395   Thumb Code     8  cyc_req.o(i.Task_Key_AntiVib_Flag_Reset)
    Task_Key_AntiVib_Func                    0x080053a1   Thumb Code    36  cyc_req.o(i.Task_Key_AntiVib_Func)
    Task_MPU6050_Flag_Reset                  0x080053d1   Thumb Code     8  cyc_req.o(i.Task_MPU6050_Flag_Reset)
    Task_MPU6050_Func                        0x080053dd   Thumb Code    36  cyc_req.o(i.Task_MPU6050_Func)
    Task_MiniAudio_Delay_Flag_Reset          0x0800540d   Thumb Code     8  cyc_req.o(i.Task_MiniAudio_Delay_Flag_Reset)
    Task_MiniAudio_Delay_Func                0x08005419   Thumb Code    36  cyc_req.o(i.Task_MiniAudio_Delay_Func)
    Task_MiniAudio_Flag_Reset                0x08005449   Thumb Code     8  cyc_req.o(i.Task_MiniAudio_Flag_Reset)
    Task_MiniAudio_Func                      0x08005455   Thumb Code    36  cyc_req.o(i.Task_MiniAudio_Func)
    Torque_Grade_Get                         0x08005485   Thumb Code    42  miniaaudiocontrol.o(i.Torque_Grade_Get)
    Torque_Grade_Minus                       0x080054b1   Thumb Code   108  exoskeleton_control.o(i.Torque_Grade_Minus)
    Torque_Grade_Plus                        0x0800552d   Thumb Code   108  exoskeleton_control.o(i.Torque_Grade_Plus)
    Torque_Time_Mux_Minus                    0x080055a9   Thumb Code    86  mode1.o(i.Torque_Time_Mux_Minus)
    Torque_Time_Mux_Plus                     0x0800560d   Thumb Code    86  mode1.o(i.Torque_Time_Mux_Plus)
    UART_AdvFeatureConfig                    0x080056d9   Thumb Code   240  stm32g0xx_hal_uart.o(i.UART_AdvFeatureConfig)
    UART_CheckIdleState                      0x080057c9   Thumb Code   118  stm32g0xx_hal_uart.o(i.UART_CheckIdleState)
    UART_SetConfig                           0x08005a69   Thumb Code   520  stm32g0xx_hal_uart.o(i.UART_SetConfig)
    UART_Start_Receive_DMA                   0x08005c99   Thumb Code   218  stm32g0xx_hal_uart.o(i.UART_Start_Receive_DMA)
    UART_WaitOnFlagUntilTimeout              0x08005d81   Thumb Code   288  stm32g0xx_hal_uart.o(i.UART_WaitOnFlagUntilTimeout)
    __ARM_common_switch8                     0x08005ea1   Thumb Code    28  miniaaudiocontrol.o(i.__ARM_common_switch8)
    __ARM_fpclassify                         0x08005ebd   Thumb Code    40  fpclassify.o(i.__ARM_fpclassify)
    __kernel_poly                            0x08005f67   Thumb Code   172  poly.o(i.__kernel_poly)
    __mathlib_dbl_infnan                     0x08006013   Thumb Code    10  dunder.o(i.__mathlib_dbl_infnan)
    __mathlib_dbl_overflow                   0x0800601d   Thumb Code    16  dunder.o(i.__mathlib_dbl_overflow)
    __mathlib_dbl_underflow                  0x08006031   Thumb Code    14  dunder.o(i.__mathlib_dbl_underflow)
    control_mode1                            0x0800604d   Thumb Code   766  mode1.o(i.control_mode1)
    control_mode2                            0x080063b1   Thumb Code   268  mode2.o(i.control_mode2)
    control_mode3                            0x080064dd   Thumb Code   688  mode3.o(i.control_mode3)
    crc16_core                               0x080067ed   Thumb Code    88  comm_m2s.o(i.crc16_core)
    exp                                      0x0800684d   Thumb Code   542  exp.o(i.exp)
    getAcceleration                          0x08006ac9   Thumb Code   202  mpu6050.o(i.getAcceleration)
    getAngle                                 0x08006bb5   Thumb Code   166  mpu6050.o(i.getAngle)
    getAngleVelocity                         0x08006c75   Thumb Code   166  mpu6050.o(i.getAngleVelocity)
    getSingleAngVel                          0x08006d35   Thumb Code    38  mpu6050.o(i.getSingleAngVel)
    getSingleAngle                           0x08006d69   Thumb Code    38  mpu6050.o(i.getSingleAngle)
    main                                     0x08006d9d   Thumb Code   130  main.o(i.main)
    set_Key_L_2                              0x08006e35   Thumb Code    34  keys.o(i.set_Key_L_2)
    set_Key_R_1                              0x08006e65   Thumb Code    36  keys.o(i.set_Key_R_1)
    set_Key_R_2                              0x08006e95   Thumb Code    36  keys.o(i.set_Key_R_2)
    __aeabi_cdcmple                          0x08006ec5   Thumb Code     0  dlef.o(x$fpl$dleqf)
    _dcmple                                  0x08006ec5   Thumb Code    94  dlef.o(x$fpl$dleqf)
    __aeabi_cdrcmple                         0x08006f29   Thumb Code     0  drlef.o(x$fpl$drleqf)
    _drcmple                                 0x08006f29   Thumb Code   100  drlef.o(x$fpl$drleqf)
    __I$use$fp                               0x08006f90   Number         0  usenofp.o(x$fpl$usenofp)
    UARTPrescTable                           0x08006f98   Data          24  stm32g0xx_hal_uart.o(.constdata)
    AHBPrescTable                            0x08006fd0   Data          64  system_stm32g0xx.o(.constdata)
    APBPrescTable                            0x08007010   Data          32  system_stm32g0xx.o(.constdata)
    Region$$Table$$Base                      0x08007108   Number         0  anon$$obj.o(Region$$Table)
    Region$$Table$$Limit                     0x08007128   Number         0  anon$$obj.o(Region$$Table)
    Sampling_T                               0x20000000   Data           8  data_pre.o(.data)
    Torque_L                                 0x20000008   Data           8  data_pre.o(.data)
    Torque_R                                 0x20000010   Data           8  data_pre.o(.data)
    Thigh_Angle_L                            0x20000018   Data           8  data_pre.o(.data)
    Thigh_Angle_R                            0x20000020   Data           8  data_pre.o(.data)
    Body                                     0x20000028   Data           8  data_pre.o(.data)
    Body_Vel                                 0x20000030   Data           8  data_pre.o(.data)
    Theta_L                                  0x20000038   Data           8  data_pre.o(.data)
    Theta_R                                  0x20000040   Data           8  data_pre.o(.data)
    Thigh_Body_L                             0x20000048   Data           8  data_pre.o(.data)
    Thigh_Body_R                             0x20000050   Data           8  data_pre.o(.data)
    Theta_L_old                              0x20000058   Data           8  data_pre.o(.data)
    Theta_R_old                              0x20000060   Data           8  data_pre.o(.data)
    Theta_Vel_L                              0x20000068   Data           8  data_pre.o(.data)
    Theta_Vel_R                              0x20000070   Data           8  data_pre.o(.data)
    Theta_Vel_L_B                            0x20000078   Data           8  data_pre.o(.data)
    Theta_Vel_R_B                            0x20000080   Data           8  data_pre.o(.data)
    Delta_Theta_Vel_L_R                      0x20000088   Data           8  data_pre.o(.data)
    Move_Energy_Sum                          0x20000090   Data           8  data_pre.o(.data)
    Move_Energy                              0x20000098   Data           8  data_pre.o(.data)
    Filtered_Theta_Vel_L                     0x200000a0   Data           8  data_pre.o(.data)
    Filtered_Theta_Vel_R                     0x200000a8   Data           8  data_pre.o(.data)
    Theta_Vel_L_Sum                          0x200000b0   Data           8  data_pre.o(.data)
    Theta_Vel_R_Sum                          0x200000b8   Data           8  data_pre.o(.data)
    Filtered_Delayed_Theta_Vel_L             0x200000c0   Data           8  data_pre.o(.data)
    Filtered_Delayed_Theta_Vel_R             0x200000c8   Data           8  data_pre.o(.data)
    Delayed_Theta_Vel_L_Sum                  0x200000d0   Data           8  data_pre.o(.data)
    Delayed_Theta_Vel_R_Sum                  0x200000d8   Data           8  data_pre.o(.data)
    Thigh_Torque_L                           0x200000e0   Data           8  data_pre.o(.data)
    Thigh_Torque_R                           0x200000e8   Data           8  data_pre.o(.data)
    Foot_Pressure_L                          0x200000f0   Data           8  data_pre.o(.data)
    Foot_Pressure_R                          0x200000f8   Data           8  data_pre.o(.data)
    V_P                                      0x20000100   Data           8  data_pre.o(.data)
    Power_Low_Warning_Flag                   0x20000108   Data           1  data_pre.o(.data)
    Power_Out_Warning_Flag                   0x20000109   Data           1  data_pre.o(.data)
    Power_Low_Warning_Flag_Sent_Flag         0x2000010a   Data           1  data_pre.o(.data)
    Power_Out_Warning_Flag_Sent_Flag         0x2000010b   Data           1  data_pre.o(.data)
    Mode_Grade                               0x2000010c   Data           3  data_pre.o(.data)
    Mode_Grade_Buffer                        0x2000010f   Data           3  data_pre.o(.data)
    V_P_Count_Max                            0x20000112   Data           2  data_pre.o(.data)
    V_P_Sum                                  0x20000118   Data           8  data_pre.o(.data)
    Filtered_V_P                             0x20000120   Data           8  data_pre.o(.data)
    G_Assist_Flag_L                          0x20000128   Data           1  mode1.o(.data)
    G_Assist_Flag_R                          0x20000129   Data           1  mode1.o(.data)
    Assist_Period_Count                      0x2000012a   Data           2  mode1.o(.data)
    Assist_Torque                            0x20000130   Data           8  mode1.o(.data)
    Exo_Mode1_State                          0x20000138   Data           2  mode1.o(.data)
    Mode1_Timing                             0x2000013a   Data           2  mode1.o(.data)
    State_Change_Flag                        0x2000013c   Data           1  mode1.o(.data)
    Mode1_State_Old                          0x2000013e   Data           2  mode1.o(.data)
    Mode1_Angle_L_Abs                        0x20000140   Data           8  mode1.o(.data)
    Mode1_Angle_R_Abs                        0x20000148   Data           8  mode1.o(.data)
    Mode1_Angle_L_Curr                       0x20000150   Data           8  mode1.o(.data)
    Mode1_Angle_R_Curr                       0x20000158   Data           8  mode1.o(.data)
    Mode1_Angle_L_Old                        0x20000160   Data           8  mode1.o(.data)
    Mode1_Angle_R_Old                        0x20000168   Data           8  mode1.o(.data)
    T_L_P                                    0x20000170   Data           8  mode1.o(.data)
    T_R_P                                    0x20000178   Data           8  mode1.o(.data)
    T_L_N                                    0x20000180   Data           8  mode1.o(.data)
    T_R_N                                    0x20000188   Data           8  mode1.o(.data)
    Torque_Max_P                             0x20000190   Data           8  mode1.o(.data)
    Torque_Max_N                             0x20000198   Data           8  mode1.o(.data)
    Mode1_Vel_L_PN_Flag                      0x200001a0   Data           1  mode1.o(.data)
    Mode1_Vel_R_PN_Flag                      0x200001a1   Data           1  mode1.o(.data)
    Mode1_Vel_L_PN_Flag_old                  0x200001a2   Data           1  mode1.o(.data)
    Mode1_Vel_R_PN_Flag_old                  0x200001a3   Data           1  mode1.o(.data)
    Mode1_Vel_L_PN_Count_Flag                0x200001a4   Data           1  mode1.o(.data)
    Mode1_Vel_R_PN_Count_Flag                0x200001a5   Data           1  mode1.o(.data)
    Mode1_Vel_L_PN_Count                     0x200001a6   Data           2  mode1.o(.data)
    Mode1_Vel_R_PN_Count                     0x200001a8   Data           2  mode1.o(.data)
    Mode1_Vel_L_max                          0x200001b0   Data           8  mode1.o(.data)
    Mode1_Vel_R_max                          0x200001b8   Data           8  mode1.o(.data)
    Mode1_New_State                          0x200001c0   Data           1  mode1.o(.data)
    Mode_Output_L                            0x200001c1   Data           1  mode1.o(.data)
    Mode_Output_R                            0x200001c2   Data           1  mode1.o(.data)
    Torque_Cos_L_P_Flag                      0x200001c3   Data           1  mode1.o(.data)
    Torque_Cos_R_P_Flag                      0x200001c4   Data           1  mode1.o(.data)
    Torque_Cos_L_N_Flag                      0x200001c5   Data           1  mode1.o(.data)
    Torque_Cos_R_N_Flag                      0x200001c6   Data           1  mode1.o(.data)
    Torque_Cos_L_P_Count                     0x200001c8   Data           8  mode1.o(.data)
    Torque_Cos_R_P_Count                     0x200001d0   Data           8  mode1.o(.data)
    Torque_Cos_L_N_Count                     0x200001d8   Data           8  mode1.o(.data)
    Torque_Cos_R_N_Count                     0x200001e0   Data           8  mode1.o(.data)
    Torque_Cos_Period_P                      0x200001e8   Data           8  mode1.o(.data)
    Torque_Cos_Period_N                      0x200001f0   Data           8  mode1.o(.data)
    Torque_Time_Mux                          0x200001f8   Data           8  mode1.o(.data)
    Mode1_Grade                              0x20000200   Data           1  mode1.o(.data)
    Mode2_Torque_L                           0x20000208   Data           8  mode2.o(.data)
    Mode2_Torque_R                           0x20000210   Data           8  mode2.o(.data)
    Mode2_Angle_L                            0x20000218   Data           8  mode2.o(.data)
    Mode2_Angle_R                            0x20000220   Data           8  mode2.o(.data)
    Exo_Mode2_State                          0x20000228   Data           1  mode2.o(.data)
    Mode2_Grade                              0x20000229   Data           1  mode2.o(.data)
    Mode2_Angle_Threshold                    0x20000230   Data           8  mode2.o(.data)
    Bow_Assist_Max                           0x20000238   Data           8  mode2.o(.data)
    Mode3_Bow_Max                            0x20000240   Data           8  mode3.o(.data)
    Mode3_Bow_Angle_Threshold                0x20000248   Data           8  mode3.o(.data)
    Spring_Max                               0x20000250   Data           8  mode3.o(.data)
    Mode3_Grade                              0x20000258   Data           1  mode3.o(.data)
    Mode3_Torque_L                           0x20000260   Data           8  mode3.o(.data)
    Mode3_Torque_R                           0x20000268   Data           8  mode3.o(.data)
    Mode3_Angle_L                            0x20000270   Data           8  mode3.o(.data)
    Mode3_Angle_R                            0x20000278   Data           8  mode3.o(.data)
    Mode3_Angle_L_Max                        0x20000280   Data           8  mode3.o(.data)
    Mode3_Angle_R_Max                        0x20000288   Data           8  mode3.o(.data)
    Exo_Mode3_State                          0x20000290   Data           1  mode3.o(.data)
    MPU_Data_Buffer_SIZE                     0x20000298   Data           2  mpu6050.o(.data)
    MPU_counter                              0x2000029a   Data           2  mpu6050.o(.data)
    MPU_State                                0x2000029c   Data           1  mpu6050.o(.data)
    ax                                       0x200002a0   Data           8  mpu6050.o(.data)
    ay                                       0x200002a8   Data           8  mpu6050.o(.data)
    az                                       0x200002b0   Data           8  mpu6050.o(.data)
    wx                                       0x200002b8   Data           8  mpu6050.o(.data)
    wy                                       0x200002c0   Data           8  mpu6050.o(.data)
    wz                                       0x200002c8   Data           8  mpu6050.o(.data)
    rx                                       0x200002d0   Data           8  mpu6050.o(.data)
    ry                                       0x200002d8   Data           8  mpu6050.o(.data)
    rz                                       0x200002e0   Data           8  mpu6050.o(.data)
    Mini_Flag_23                             0x200002e8   Data           1  miniaaudiocontrol.o(.data)
    Mini_Flag_45                             0x200002e9   Data           1  miniaaudiocontrol.o(.data)
    Mini_Flag_67                             0x200002ea   Data           1  miniaaudiocontrol.o(.data)
    Mini_Flag_Sent1                          0x200002eb   Data           1  miniaaudiocontrol.o(.data)
    Mini_Flag_Sent2                          0x200002ec   Data           1  miniaaudiocontrol.o(.data)
    Mini_Flag_Sent3                          0x200002ed   Data           1  miniaaudiocontrol.o(.data)
    Mini_Flag_Sent4                          0x200002ee   Data           1  miniaaudiocontrol.o(.data)
    Mini_Flag_Sent5                          0x200002ef   Data           1  miniaaudiocontrol.o(.data)
    Mini_Flag_Sent6                          0x200002f0   Data           1  miniaaudiocontrol.o(.data)
    Mini_Flag_Sent7                          0x200002f1   Data           1  miniaaudiocontrol.o(.data)
    Audio_Delay_Time                         0x200002f2   Data           2  miniaaudiocontrol.o(.data)
    MiniAudio_Delay_Flag                     0x200002f4   Data           1  miniaaudiocontrol.o(.data)
    Mode_temp                                0x200002f5   Data           1  miniaaudiocontrol.o(.data)
    Grade_temp                               0x200002f6   Data           1  miniaaudiocontrol.o(.data)
    Mode_Selet_Get_Temp                      0x200002f7   Data           1  miniaaudiocontrol.o(.data)
    Exo_Key_L_2_Flag                         0x200002f8   Data           1  exoskeleton_control.o(.data)
    Exo_Key_R_1_Flag                         0x200002f9   Data           1  exoskeleton_control.o(.data)
    Exo_Key_R_2_Flag                         0x200002fa   Data           1  exoskeleton_control.o(.data)
    Flag_Mode1                               0x200002fb   Data           1  exoskeleton_control.o(.data)
    Flag_Mode2                               0x200002fc   Data           1  exoskeleton_control.o(.data)
    Flag_Mode3                               0x200002fd   Data           1  exoskeleton_control.o(.data)
    ModeCount                                0x200002fe   Data           1  exoskeleton_control.o(.data)
    KEY_L_2                                  0x20000300   Data           1  keys.o(.data)
    KEY_R_1                                  0x20000301   Data           1  keys.o(.data)
    KEY_R_2                                  0x20000302   Data           1  keys.o(.data)
    Key_Count                                0x20000304   Data           2  keys.o(.data)
    Flag_Key_L_2_Block                       0x20000306   Data           2  keys.o(.data)
    Flag_Key_R_1_Block                       0x20000308   Data           2  keys.o(.data)
    Flag_Key_R_2_Block                       0x2000030a   Data           2  keys.o(.data)
    Flash_Adress                             0x2000030c   Data           4  flash_drive.o(.data)
    Flash_Cmd                                0x20000310   Data           1  flash_drive.o(.data)
    Flash_Delay_Timing                       0x20000312   Data           2  flash_drive.o(.data)
    RDSR_Buffer                              0x20000314   Data           1  flash_drive.o(.data)
    ID_Buffer                                0x20000315   Data           3  flash_drive.o(.data)
    Task_MPU6050_Flag                        0x20000318   Data           1  cyc_req.o(.data)
    Task_Encoder_Flag                        0x20000319   Data           1  cyc_req.o(.data)
    Task_Key_AntiVib_Flag                    0x2000031a   Data           1  cyc_req.o(.data)
    Task_Comm_Flag                           0x2000031b   Data           1  cyc_req.o(.data)
    Task_Exo_Flag                            0x2000031c   Data           1  cyc_req.o(.data)
    Task_MiniAudio_Flag                      0x2000031d   Data           1  cyc_req.o(.data)
    Task_MiniAudio_Delay_Flag                0x2000031e   Data           1  cyc_req.o(.data)
    Time_MPU6050                             0x20000320   Data           4  cyc_req.o(.data)
    Time_Encoder                             0x20000324   Data           4  cyc_req.o(.data)
    Time_Key_AntiVib                         0x20000328   Data           4  cyc_req.o(.data)
    Time_Comm                                0x2000032c   Data           4  cyc_req.o(.data)
    Time_Exo                                 0x20000330   Data           4  cyc_req.o(.data)
    Time_MiniAudio                           0x20000334   Data           4  cyc_req.o(.data)
    Time_MiniAudio_Delay                     0x20000338   Data           4  cyc_req.o(.data)
    Count_MPU6050                            0x2000033c   Data           4  cyc_req.o(.data)
    Count_Encoder                            0x20000340   Data           4  cyc_req.o(.data)
    Count_Key_AntiVib                        0x20000344   Data           4  cyc_req.o(.data)
    Count_Comm                               0x20000348   Data           4  cyc_req.o(.data)
    Count_Exo                                0x2000034c   Data           4  cyc_req.o(.data)
    Count_MiniAudio                          0x20000350   Data           4  cyc_req.o(.data)
    Count_MiniAudio_Delay                    0x20000354   Data           4  cyc_req.o(.data)
    M2Slave_Send_L_Data                      0x20000358   Data           6  comm_m2s.o(.data)
    M2Slave_Rec_L_Data                       0x2000035e   Data           6  comm_m2s.o(.data)
    M2Slave_Send_R_Data                      0x20000364   Data           6  comm_m2s.o(.data)
    M2Slave_Rec_R_Data                       0x2000036a   Data           6  comm_m2s.o(.data)
    JJSHI_Angle_L                            0x20000370   Data           8  comm_m2s.o(.data)
    JJSHI_Angle_R                            0x20000378   Data           8  comm_m2s.o(.data)
    JJSHI_Torque_L                           0x20000380   Data           8  comm_m2s.o(.data)
    JJSHI_Torque_R                           0x20000388   Data           8  comm_m2s.o(.data)
    temp_Send                                0x20000390   Data           6  comm_m2s.o(.data)
    temp_L                                   0x20000396   Data           2  comm_m2s.o(.data)
    temp_R                                   0x20000398   Data           2  comm_m2s.o(.data)
    Flash_RDSE                               0x200003a0   Data           1  main.o(.data)
    Send_Data                                0x200003a1   Data           5  main.o(.data)
    TIM10_Timing                             0x200003a6   Data           2  main.o(.data)
    TIM10_Timing1                            0x200003a8   Data           2  main.o(.data)
    count                                    0x200003ac   Data           4  main.o(.data)
    LED_Period                               0x200003b0   Data           2  main.o(.data)
    Force_Test                               0x200003b8   Data           8  main.o(.data)
    uwTick                                   0x200003c0   Data           4  stm32g0xx_hal.o(.data)
    uwTickPrio                               0x200003c4   Data           4  stm32g0xx_hal.o(.data)
    uwTickFreq                               0x200003c8   Data           1  stm32g0xx_hal.o(.data)
    SystemCoreClock                          0x200003cc   Data           4  system_stm32g0xx.o(.data)
    Move_Energy_Buffer                       0x200003d0   Data         800  data_pre.o(.bss)
    Buffer_Theta_Vel_L                       0x200006f0   Data        1600  data_pre.o(.bss)
    Buffer_Theta_Vel_R                       0x20000d30   Data        1600  data_pre.o(.bss)
    V_P_Buffer                               0x20001370   Data        2400  data_pre.o(.bss)
    MPU_Data_Buffer                          0x20001cd0   Data          33  mpu6050.o(.bss)
    Acc_Buffer                               0x20001cf1   Data          11  mpu6050.o(.bss)
    AngVel_Buffer                            0x20001cfc   Data          11  mpu6050.o(.bss)
    Ang_Buffer                               0x20001d07   Data          11  mpu6050.o(.bss)
    Read_Data                                0x20001d12   Data          10  main.o(.bss)
    hadc1                                    0x20001d1c   Data         100  adc.o(.bss)
    hdma_adc1                                0x20001d80   Data          92  adc.o(.bss)
    hspi2                                    0x20001ddc   Data         100  spi.o(.bss)
    htim6                                    0x20001e40   Data          76  tim.o(.bss)
    huart1                                   0x20001e8c   Data         148  usart.o(.bss)
    huart2                                   0x20001f20   Data         148  usart.o(.bss)
    huart3                                   0x20001fb4   Data         148  usart.o(.bss)
    huart4                                   0x20002048   Data         148  usart.o(.bss)
    hdma_usart1_rx                           0x200020dc   Data          92  usart.o(.bss)
    hdma_usart2_rx                           0x20002138   Data          92  usart.o(.bss)
    hdma_usart3_rx                           0x20002194   Data          92  usart.o(.bss)
    hdma_usart4_rx                           0x200021f0   Data          92  usart.o(.bss)
    __libspace_start                         0x2000224c   Data          96  libspace.o(.bss)
    __temporary_stack_top$libspace           0x200022ac   Data           0  libspace.o(.bss)



==============================================================================

Memory Map of the image

  Image Entry point : 0x080000b9

  Load Region LR_IROM1 (Base: 0x08000000, Size: 0x000074f8, Max: 0x00020000, ABSOLUTE, COMPRESSED[0x00007180])

    Execution Region ER_IROM1 (Base: 0x08000000, Size: 0x00007128, Max: 0x00020000, ABSOLUTE)

    Base Addr    Size         Type   Attr      Idx    E Section Name        Object

    0x08000000   0x000000b8   Data   RO            3    RESET               startup_stm32g070xx.o
    0x080000b8   0x00000008   Code   RO         5522  * !!!main             c_p.l(__main.o)
    0x080000c0   0x0000003c   Code   RO         5757    !!!scatter          c_p.l(__scatter.o)
    0x080000fc   0x0000001c   Code   RO         5759    !!handler_zi        c_p.l(__scatter_zi.o)
    0x08000118   0x00000002   Code   RO         5625    .ARM.Collect$$libinit$$00000000  c_p.l(libinit.o)
    0x0800011a   0x00000000   Code   RO         5638    .ARM.Collect$$libinit$$00000002  c_p.l(libinit2.o)
    0x0800011a   0x00000000   Code   RO         5640    .ARM.Collect$$libinit$$00000004  c_p.l(libinit2.o)
    0x0800011a   0x00000000   Code   RO         5643    .ARM.Collect$$libinit$$0000000A  c_p.l(libinit2.o)
    0x0800011a   0x00000000   Code   RO         5645    .ARM.Collect$$libinit$$0000000C  c_p.l(libinit2.o)
    0x0800011a   0x00000000   Code   RO         5647    .ARM.Collect$$libinit$$0000000E  c_p.l(libinit2.o)
    0x0800011a   0x00000000   Code   RO         5650    .ARM.Collect$$libinit$$00000011  c_p.l(libinit2.o)
    0x0800011a   0x00000000   Code   RO         5652    .ARM.Collect$$libinit$$00000013  c_p.l(libinit2.o)
    0x0800011a   0x00000000   Code   RO         5654    .ARM.Collect$$libinit$$00000015  c_p.l(libinit2.o)
    0x0800011a   0x00000000   Code   RO         5656    .ARM.Collect$$libinit$$00000017  c_p.l(libinit2.o)
    0x0800011a   0x00000000   Code   RO         5658    .ARM.Collect$$libinit$$00000019  c_p.l(libinit2.o)
    0x0800011a   0x00000000   Code   RO         5660    .ARM.Collect$$libinit$$0000001B  c_p.l(libinit2.o)
    0x0800011a   0x00000000   Code   RO         5662    .ARM.Collect$$libinit$$0000001D  c_p.l(libinit2.o)
    0x0800011a   0x00000000   Code   RO         5664    .ARM.Collect$$libinit$$0000001F  c_p.l(libinit2.o)
    0x0800011a   0x00000000   Code   RO         5666    .ARM.Collect$$libinit$$00000021  c_p.l(libinit2.o)
    0x0800011a   0x00000000   Code   RO         5668    .ARM.Collect$$libinit$$00000023  c_p.l(libinit2.o)
    0x0800011a   0x00000000   Code   RO         5670    .ARM.Collect$$libinit$$00000025  c_p.l(libinit2.o)
    0x0800011a   0x00000000   Code   RO         5674    .ARM.Collect$$libinit$$0000002C  c_p.l(libinit2.o)
    0x0800011a   0x00000000   Code   RO         5676    .ARM.Collect$$libinit$$0000002E  c_p.l(libinit2.o)
    0x0800011a   0x00000000   Code   RO         5678    .ARM.Collect$$libinit$$00000030  c_p.l(libinit2.o)
    0x0800011a   0x00000000   Code   RO         5680    .ARM.Collect$$libinit$$00000032  c_p.l(libinit2.o)
    0x0800011a   0x00000002   Code   RO         5681    .ARM.Collect$$libinit$$00000033  c_p.l(libinit2.o)
    0x0800011c   0x00000002   Code   RO         5712    .ARM.Collect$$libshutdown$$00000000  c_p.l(libshutdown.o)
    0x0800011e   0x00000000   Code   RO         5738    .ARM.Collect$$libshutdown$$00000002  c_p.l(libshutdown2.o)
    0x0800011e   0x00000000   Code   RO         5740    .ARM.Collect$$libshutdown$$00000004  c_p.l(libshutdown2.o)
    0x0800011e   0x00000000   Code   RO         5743    .ARM.Collect$$libshutdown$$00000007  c_p.l(libshutdown2.o)
    0x0800011e   0x00000000   Code   RO         5746    .ARM.Collect$$libshutdown$$0000000A  c_p.l(libshutdown2.o)
    0x0800011e   0x00000000   Code   RO         5748    .ARM.Collect$$libshutdown$$0000000C  c_p.l(libshutdown2.o)
    0x0800011e   0x00000000   Code   RO         5751    .ARM.Collect$$libshutdown$$0000000F  c_p.l(libshutdown2.o)
    0x0800011e   0x00000002   Code   RO         5752    .ARM.Collect$$libshutdown$$00000010  c_p.l(libshutdown2.o)
    0x08000120   0x00000000   Code   RO         5549    .ARM.Collect$$rtentry$$00000000  c_p.l(__rtentry.o)
    0x08000120   0x00000000   Code   RO         5583    .ARM.Collect$$rtentry$$00000002  c_p.l(__rtentry2.o)
    0x08000120   0x00000006   Code   RO         5595    .ARM.Collect$$rtentry$$00000004  c_p.l(__rtentry4.o)
    0x08000126   0x00000000   Code   RO         5585    .ARM.Collect$$rtentry$$00000009  c_p.l(__rtentry2.o)
    0x08000126   0x00000004   Code   RO         5586    .ARM.Collect$$rtentry$$0000000A  c_p.l(__rtentry2.o)
    0x0800012a   0x00000000   Code   RO         5588    .ARM.Collect$$rtentry$$0000000C  c_p.l(__rtentry2.o)
    0x0800012a   0x00000008   Code   RO         5589    .ARM.Collect$$rtentry$$0000000D  c_p.l(__rtentry2.o)
    0x08000132   0x00000002   Code   RO         5629    .ARM.Collect$$rtexit$$00000000  c_p.l(rtexit.o)
    0x08000134   0x00000000   Code   RO         5685    .ARM.Collect$$rtexit$$00000002  c_p.l(rtexit2.o)
    0x08000134   0x00000004   Code   RO         5686    .ARM.Collect$$rtexit$$00000003  c_p.l(rtexit2.o)
    0x08000138   0x00000006   Code   RO         5687    .ARM.Collect$$rtexit$$00000004  c_p.l(rtexit2.o)
    0x0800013e   0x00000002   PAD
    0x08000140   0x00000038   Code   RO         5510    .emb_text           c_p.l(rt_memcpy.o)
    0x08000178   0x00000038   Code   RO            4    .text               startup_stm32g070xx.o
    0x080001b0   0x00000082   Code   RO         5511    .text               c_p.l(rt_memcpy.o)
    0x08000232   0x00000040   Code   RO         5514    .text               c_p.l(rt_memclr.o)
    0x08000272   0x0000015a   Code   RO         5516    .text               c_p.l(aeabi_sdiv.o)
    0x080003cc   0x00000006   Code   RO         5520    .text               c_p.l(heapauxi.o)
    0x080003d2   0x00000002   PAD
    0x080003d4   0x00000358   Code   RO         5524    .text               fz_ps.l(daddsub.o)
    0x0800072c   0x00000448   Code   RO         5526    .text               fz_ps.l(ddiv.o)
    0x08000b74   0x00000058   Code   RO         5531    .text               fz_ps.l(dflti.o)
    0x08000bcc   0x00000248   Code   RO         5535    .text               fz_ps.l(dmul.o)
    0x08000e14   0x00000016   Code   RO         5554    .text               c_p.l(_rserrno.o)
    0x08000e2a   0x00000002   PAD
    0x08000e2c   0x00000090   Code   RO         5556    .text               fz_ps.l(dcmpin.o)
    0x08000ebc   0x0000006c   Code   RO         5558    .text               fz_ps.l(dfixi.o)
    0x08000f28   0x00000060   Code   RO         5560    .text               fz_ps.l(dscalbn.o)
    0x08000f88   0x00000008   Code   RO         5602    .text               c_p.l(rt_errno_addr_intlibspace.o)
    0x08000f90   0x0000002e   Code   RO         5604    .text               fz_ps.l(cmpret.o)
    0x08000fbe   0x00000002   PAD
    0x08000fc0   0x00000014   Code   RO         5606    .text               fz_ps.l(dnan2.o)
    0x08000fd4   0x00000008   Code   RO         5608    .text               c_p.l(libspace.o)
    0x08000fdc   0x0000003e   Code   RO         5611    .text               c_p.l(sys_stackheap_outer.o)
    0x0800101a   0x00000010   Code   RO         5614    .text               c_p.l(exit.o)
    0x0800102a   0x0000005e   Code   RO         5626    .text               fz_ps.l(retnan.o)
    0x08001088   0x0000000c   Code   RO         5682    .text               c_p.l(sys_exit.o)
    0x08001094   0x00000002   Code   RO         5701    .text               c_p.l(use_no_semi.o)
    0x08001096   0x00000000   Code   RO         5703    .text               c_p.l(indicate_semi.o)
    0x08001096   0x00000056   Code   RO         5755    .text               c_p.l(__dczerorl2.o)
    0x080010ec   0x00000008   Code   RO         1205    i.Anti_Vibration_Fun  keys.o
    0x080010f4   0x00000010   Code   RO         1206    i.Block_Keys        keys.o
    0x08001104   0x00000048   Code   RO          497    i.Bow_Assist_Max_Minus  mode2.o
    0x0800114c   0x00000048   Code   RO          498    i.Bow_Assist_Max_Plus  mode2.o
    0x08001194   0x00000030   Code   RO         1588    i.Comm_M2S_L_Send   comm_m2s.o
    0x080011c4   0x00000030   Code   RO         1589    i.Comm_M2S_R_Send   comm_m2s.o
    0x080011f4   0x00000084   Code   RO         1590    i.Comm_Master2Slave_Init  comm_m2s.o
    0x08001278   0x0000000c   Code   RO         1591    i.Comm_Read_Process  comm_m2s.o
    0x08001284   0x0000000c   Code   RO         1592    i.Comm_Send_Process  comm_m2s.o
    0x08001290   0x00000020   Code   RO         1593    i.Comm_Slave2Master_RecData_CRC16  comm_m2s.o
    0x080012b0   0x000000a0   Code   RO         1464    i.Cyclical_Request  cyc_req.o
    0x08001350   0x00000020   Code   RO         1465    i.Cyclical_Timing_Func  cyc_req.o
    0x08001370   0x00000034   Code   RO         2818    i.DMA_CalcDMAMUXChannelBaseAndMask  stm32g0xx_hal_dma.o
    0x080013a4   0x00000028   Code   RO         2819    i.DMA_CalcDMAMUXRequestGenBaseAndMask  stm32g0xx_hal_dma.o
    0x080013cc   0x0000004c   Code   RO         2820    i.DMA_SetConfig     stm32g0xx_hal_dma.o
    0x08001418   0x00000006   Code   RO         1716    i.Error_Handler     main.o
    0x0800141e   0x00000002   PAD
    0x08001420   0x00000040   Code   RO         1109    i.Exo_Control       exoskeleton_control.o
    0x08001460   0x000001f4   Code   RO           13    i.Exo_Data_Prepare  data_pre.o
    0x08001654   0x00000064   Code   RO         1110    i.Exo_Get_Mode      exoskeleton_control.o
    0x080016b8   0x00000008   Code   RO         1111    i.Exo_Init          exoskeleton_control.o
    0x080016c0   0x000000e8   Code   RO           14    i.Filter_Theta_Vel_L  data_pre.o
    0x080017a8   0x000000e8   Code   RO           15    i.Filter_Theta_Vel_R  data_pre.o
    0x08001890   0x00000010   Code   RO         1112    i.Flag_Modes_State  exoskeleton_control.o
    0x080018a0   0x00000020   Code   RO         1363    i.Flash_Delay       flash_drive.o
    0x080018c0   0x00000364   Code   RO         2072    i.HAL_ADC_ConfigChannel  stm32g0xx_hal_adc.o
    0x08001c24   0x00000298   Code   RO         2081    i.HAL_ADC_Init      stm32g0xx_hal_adc.o
    0x08001ebc   0x000000bc   Code   RO         1792    i.HAL_ADC_MspInit   adc.o
    0x08001f78   0x000000c0   Code   RO         2827    i.HAL_DMA_Init      stm32g0xx_hal_dma.o
    0x08002038   0x000000cc   Code   RO         2831    i.HAL_DMA_Start_IT  stm32g0xx_hal_dma.o
    0x08002104   0x0000002c   Code   RO         3289    i.HAL_Delay         stm32g0xx_hal.o
    0x08002130   0x000001d8   Code   RO         2752    i.HAL_GPIO_Init     stm32g0xx_hal_gpio.o
    0x08002308   0x00000012   Code   RO         2754    i.HAL_GPIO_ReadPin  stm32g0xx_hal_gpio.o
    0x0800231a   0x00000014   Code   RO         2755    i.HAL_GPIO_TogglePin  stm32g0xx_hal_gpio.o
    0x0800232e   0x0000000c   Code   RO         2756    i.HAL_GPIO_WritePin  stm32g0xx_hal_gpio.o
    0x0800233a   0x00000002   PAD
    0x0800233c   0x0000000c   Code   RO         3293    i.HAL_GetTick       stm32g0xx_hal.o
    0x08002348   0x00000018   Code   RO         3299    i.HAL_IncTick       stm32g0xx_hal.o
    0x08002360   0x0000002c   Code   RO         3300    i.HAL_Init          stm32g0xx_hal.o
    0x0800238c   0x00000060   Code   RO         3301    i.HAL_InitTick      stm32g0xx_hal.o
    0x080023ec   0x0000004c   Code   RO         2043    i.HAL_MspInit       stm32g0xx_hal_msp.o
    0x08002438   0x00000024   Code   RO         3175    i.HAL_NVIC_EnableIRQ  stm32g0xx_hal_cortex.o
    0x0800245c   0x00000012   Code   RO         3179    i.HAL_NVIC_SetPriority  stm32g0xx_hal_cortex.o
    0x0800246e   0x00000002   PAD
    0x08002470   0x00000058   Code   RO         3058    i.HAL_PWREx_ControlVoltageScaling  stm32g0xx_hal_pwr_ex.o
    0x080024c8   0x00000204   Code   RO         2503    i.HAL_RCCEx_PeriphCLKConfig  stm32g0xx_hal_rcc_ex.o
    0x080026cc   0x000001d4   Code   RO         2385    i.HAL_RCC_ClockConfig  stm32g0xx_hal_rcc.o
    0x080028a0   0x0000000c   Code   RO         2391    i.HAL_RCC_GetHCLKFreq  stm32g0xx_hal_rcc.o
    0x080028ac   0x00000028   Code   RO         2393    i.HAL_RCC_GetPCLK1Freq  stm32g0xx_hal_rcc.o
    0x080028d4   0x000000e4   Code   RO         2395    i.HAL_RCC_GetSysClockFreq  stm32g0xx_hal_rcc.o
    0x080029b8   0x000005ac   Code   RO         2399    i.HAL_RCC_OscConfig  stm32g0xx_hal_rcc.o
    0x08002f64   0x0000010c   Code   RO         3554    i.HAL_SPI_Init      stm32g0xx_hal_spi.o
    0x08003070   0x0000007c   Code   RO         1853    i.HAL_SPI_MspInit   spi.o
    0x080030ec   0x0000026a   Code   RO         3563    i.HAL_SPI_TransmitReceive  stm32g0xx_hal_spi.o
    0x08003356   0x00000002   PAD
    0x08003358   0x00000018   Code   RO         3309    i.HAL_SYSCFG_StrobeDBattpinsConfig  stm32g0xx_hal.o
    0x08003370   0x00000038   Code   RO         3183    i.HAL_SYSTICK_Config  stm32g0xx_hal_cortex.o
    0x080033a8   0x00000002   Code   RO         4615    i.HAL_TIMEx_Break2Callback  stm32g0xx_hal_tim_ex.o
    0x080033aa   0x00000002   Code   RO         4616    i.HAL_TIMEx_BreakCallback  stm32g0xx_hal_tim_ex.o
    0x080033ac   0x00000002   Code   RO         4617    i.HAL_TIMEx_CommutCallback  stm32g0xx_hal_tim_ex.o
    0x080033ae   0x00000002   PAD
    0x080033b0   0x00000098   Code   RO         4638    i.HAL_TIMEx_MasterConfigSynchronization  stm32g0xx_hal_tim_ex.o
    0x08003448   0x0000006c   Code   RO         3892    i.HAL_TIM_Base_Init  stm32g0xx_hal_tim.o
    0x080034b4   0x00000044   Code   RO         1892    i.HAL_TIM_Base_MspInit  tim.o
    0x080034f8   0x00000078   Code   RO         3897    i.HAL_TIM_Base_Start_IT  stm32g0xx_hal_tim.o
    0x08003570   0x00000002   Code   RO         3926    i.HAL_TIM_IC_CaptureCallback  stm32g0xx_hal_tim.o
    0x08003572   0x00000002   PAD
    0x08003574   0x000001f8   Code   RO         3940    i.HAL_TIM_IRQHandler  stm32g0xx_hal_tim.o
    0x0800376c   0x00000002   Code   RO         3943    i.HAL_TIM_OC_DelayElapsedCallback  stm32g0xx_hal_tim.o
    0x0800376e   0x00000002   Code   RO         3970    i.HAL_TIM_PWM_PulseFinishedCallback  stm32g0xx_hal_tim.o
    0x08003770   0x00000048   Code   RO         1717    i.HAL_TIM_PeriodElapsedCallback  main.o
    0x080037b8   0x00000002   Code   RO         3983    i.HAL_TIM_TriggerCallback  stm32g0xx_hal_tim.o
    0x080037ba   0x00000054   Code   RO         5347    i.HAL_UARTEx_DisableFifoMode  stm32g0xx_hal_uart_ex.o
    0x0800380e   0x00000002   Code   RO         4925    i.HAL_UARTEx_RxEventCallback  stm32g0xx_hal_uart.o
    0x08003810   0x00000060   Code   RO         5356    i.HAL_UARTEx_SetRxFifoThreshold  stm32g0xx_hal_uart_ex.o
    0x08003870   0x0000005e   Code   RO         5357    i.HAL_UARTEx_SetTxFifoThreshold  stm32g0xx_hal_uart_ex.o
    0x080038ce   0x00000002   Code   RO         4941    i.HAL_UART_ErrorCallback  stm32g0xx_hal_uart.o
    0x080038d0   0x00000082   Code   RO         4945    i.HAL_UART_Init     stm32g0xx_hal_uart.o
    0x08003952   0x00000002   PAD
    0x08003954   0x00000310   Code   RO         1931    i.HAL_UART_MspInit  usart.o
    0x08003c64   0x0000007e   Code   RO         4949    i.HAL_UART_Receive_DMA  stm32g0xx_hal_uart.o
    0x08003ce2   0x00000002   Code   RO         4952    i.HAL_UART_RxCpltCallback  stm32g0xx_hal_uart.o
    0x08003ce4   0x00000002   Code   RO         4953    i.HAL_UART_RxHalfCpltCallback  stm32g0xx_hal_uart.o
    0x08003ce6   0x000000e6   Code   RO         4954    i.HAL_UART_Transmit  stm32g0xx_hal_uart.o
    0x08003dcc   0x00000004   Code   RO         1987    i.HardFault_Handler  stm32g0xx_it.o
    0x08003dd0   0x00000034   Code   RO         1207    i.Key_L_2_Block     keys.o
    0x08003e04   0x00000034   Code   RO         1208    i.Key_R_1_Block     keys.o
    0x08003e38   0x00000034   Code   RO         1209    i.Key_R_2_Block     keys.o
    0x08003e6c   0x0000000c   Code   RO         2095    i.LL_ADC_GetCommonPathInternalCh  stm32g0xx_hal_adc.o
    0x08003e78   0x00000010   Code   RO         2097    i.LL_ADC_IsEnabled  stm32g0xx_hal_adc.o
    0x08003e88   0x0000000e   Code   RO         2098    i.LL_ADC_IsInternalRegulatorEnabled  stm32g0xx_hal_adc.o
    0x08003e96   0x0000000c   Code   RO         2099    i.LL_ADC_REG_IsConversionOngoing  stm32g0xx_hal_adc.o
    0x08003ea2   0x0000000e   Code   RO         2103    i.LL_ADC_SetCommonPathInternalCh  stm32g0xx_hal_adc.o
    0x08003eb0   0x0000001e   Code   RO         2104    i.LL_ADC_SetSamplingTimeCommonChannels  stm32g0xx_hal_adc.o
    0x08003ece   0x00000002   PAD
    0x08003ed0   0x00000038   Code   RO          617    i.MPU6050_Data_Rearrange  mpu6050.o
    0x08003f08   0x00000014   Code   RO          618    i.MPU_6050_Data_Analyse  mpu6050.o
    0x08003f1c   0x00000050   Code   RO          619    i.MPU_6050_Init     mpu6050.o
    0x08003f6c   0x00000084   Code   RO         1793    i.MX_ADC1_Init      adc.o
    0x08003ff0   0x00000024   Code   RO         1830    i.MX_DMA_Init       dma.o
    0x08004014   0x00000168   Code   RO         1769    i.MX_GPIO_Init      gpio.o
    0x0800417c   0x00000054   Code   RO         1854    i.MX_SPI2_Init      spi.o
    0x080041d0   0x00000050   Code   RO         1893    i.MX_TIM6_Init      tim.o
    0x08004220   0x00000074   Code   RO         1932    i.MX_USART1_UART_Init  usart.o
    0x08004294   0x00000074   Code   RO         1933    i.MX_USART2_UART_Init  usart.o
    0x08004308   0x00000048   Code   RO         1934    i.MX_USART3_UART_Init  usart.o
    0x08004350   0x00000044   Code   RO         1935    i.MX_USART4_UART_Init  usart.o
    0x08004394   0x00000064   Code   RO         1598    i.Message_Rec_L     comm_m2s.o
    0x080043f8   0x00000064   Code   RO         1599    i.Message_Rec_R     comm_m2s.o
    0x0800445c   0x00000034   Code   RO         1600    i.Message_Send_L    comm_m2s.o
    0x08004490   0x00000034   Code   RO         1601    i.Message_Send_R    comm_m2s.o
    0x080044c4   0x00000038   Code   RO          700    i.MiniAudio_Cmd_07  miniaaudiocontrol.o
    0x080044fc   0x00000034   Code   RO          712    i.MiniAudio_Cmd_13  miniaaudiocontrol.o
    0x08004530   0x0000002c   Code   RO          732    i.MiniAudio_Delay_Count  miniaaudiocontrol.o
    0x0800455c   0x0000000c   Code   RO          733    i.MiniAudio_Delay_Reset  miniaaudiocontrol.o
    0x08004568   0x00000018   Code   RO          734    i.MiniAudio_Delay_Set  miniaaudiocontrol.o
    0x08004580   0x00000014   Code   RO          735    i.MiniAudio_Flag_23_Reset  miniaaudiocontrol.o
    0x08004594   0x00000014   Code   RO          736    i.MiniAudio_Flag_23_Set  miniaaudiocontrol.o
    0x080045a8   0x00000014   Code   RO          737    i.MiniAudio_Flag_45_Reset  miniaaudiocontrol.o
    0x080045bc   0x00000014   Code   RO          738    i.MiniAudio_Flag_45_Set  miniaaudiocontrol.o
    0x080045d0   0x00000014   Code   RO          739    i.MiniAudio_Flag_67_Reset  miniaaudiocontrol.o
    0x080045e4   0x00000014   Code   RO          740    i.MiniAudio_Flag_67_Set  miniaaudiocontrol.o
    0x080045f8   0x00000012   Code   RO          742    i.MiniAudio_Init    miniaaudiocontrol.o
    0x0800460a   0x00000002   PAD
    0x0800460c   0x00000184   Code   RO          743    i.MiniAudio_Send_Fun  miniaaudiocontrol.o
    0x08004790   0x0000000c   Code   RO          744    i.MiniAudio_Torque_Grade_Ask_Flag_Reset  miniaaudiocontrol.o
    0x0800479c   0x0000000c   Code   RO          745    i.MiniAudio_Torque_Grade_Ask_Flag_Set  miniaaudiocontrol.o
    0x080047a8   0x0000000c   Code   RO          746    i.MiniAudio_Torque_Grade_Minus_Flag_Reset  miniaaudiocontrol.o
    0x080047b4   0x0000000c   Code   RO          747    i.MiniAudio_Torque_Grade_Minus_Flag_Set  miniaaudiocontrol.o
    0x080047c0   0x0000000c   Code   RO          748    i.MiniAudio_Torque_Grade_Plus_Flag_Reset  miniaaudiocontrol.o
    0x080047cc   0x0000000c   Code   RO          749    i.MiniAudio_Torque_Grade_Plus_Flag_Set  miniaaudiocontrol.o
    0x080047d8   0x0000000c   Code   RO          750    i.MiniAudio_Torque_Grade_Reset_Flag_Reset  miniaaudiocontrol.o
    0x080047e4   0x00000060   Code   RO          325    i.Mode1_Activation_N_Func  mode1.o
    0x08004844   0x00000060   Code   RO          326    i.Mode1_Activation_P_Func  mode1.o
    0x080048a4   0x0000000c   Code   RO          327    i.Mode1_Get_Grade   mode1.o
    0x080048b0   0x0000003c   Code   RO          328    i.Mode1_Grade_Init  mode1.o
    0x080048ec   0x00000044   Code   RO          500    i.Mode2_Get_Grade   mode2.o
    0x08004930   0x0000002c   Code   RO          501    i.Mode2_Grade_Init  mode2.o
    0x0800495c   0x0000000c   Code   RO          557    i.Mode3_Get_Grade   mode3.o
    0x08004968   0x00000024   Code   RO          558    i.Mode3_Grade_Init  mode3.o
    0x0800498c   0x000000e8   Code   RO         1113    i.Mode_Change       exoskeleton_control.o
    0x08004a74   0x00000034   Code   RO           16    i.Mode_Grade_Flash_Data_Init  data_pre.o
    0x08004aa8   0x0000002c   Code   RO           17    i.Mode_Grade_Para_Get  data_pre.o
    0x08004ad4   0x0000002c   Code   RO           18    i.Mode_Grade_Para_Set  data_pre.o
    0x08004b00   0x00000014   Code   RO           19    i.Mode_Grade_Read   data_pre.o
    0x08004b14   0x00000018   Code   RO           20    i.Mode_Grade_Save   data_pre.o
    0x08004b2c   0x00000044   Code   RO          752    i.Mode_Selet_Get_Torque_Grade  miniaaudiocontrol.o
    0x08004b70   0x00000004   Code   RO         1988    i.NMI_Handler       stm32g0xx_it.o
    0x08004b74   0x00000002   Code   RO         1989    i.PendSV_Handler    stm32g0xx_it.o
    0x08004b76   0x00000002   PAD
    0x08004b78   0x0000000c   Code   RO           21    i.Power_Low_Warning_Flag_Get  data_pre.o
    0x08004b84   0x0000000c   Code   RO           22    i.Power_Low_Warning_Flag_Reset  data_pre.o
    0x08004b90   0x0000000c   Code   RO           27    i.Power_Out_Warning_Flag_Get  data_pre.o
    0x08004b9c   0x0000000c   Code   RO           28    i.Power_Out_Warning_Flag_Reset  data_pre.o
    0x08004ba8   0x0000000c   Code   RO         1114    i.Reset_Exo_Key_L_2_Flag  exoskeleton_control.o
    0x08004bb4   0x0000000c   Code   RO         1115    i.Reset_Exo_Key_R_1_Flag  exoskeleton_control.o
    0x08004bc0   0x0000000c   Code   RO         1116    i.Reset_Exo_Key_R_2_Flag  exoskeleton_control.o
    0x08004bcc   0x00000014   Code   RO         1213    i.Reset_Key_L_2     keys.o
    0x08004be0   0x0000006a   Code   RO         3592    i.SPI_EndRxTxTransaction  stm32g0xx_hal_spi.o
    0x08004c4a   0x00000018   Code   RO         1364    i.SPI_Flash_Init    flash_drive.o
    0x08004c62   0x0000005c   Code   RO         1365    i.SPI_Flash_PageWrite  flash_drive.o
    0x08004cbe   0x00000002   PAD
    0x08004cc0   0x00000064   Code   RO         1366    i.SPI_Flash_Read_Data  flash_drive.o
    0x08004d24   0x0000004c   Code   RO         1367    i.SPI_Flash_Read_ID  flash_drive.o
    0x08004d70   0x00000044   Code   RO         1368    i.SPI_Flash_Read_Status  flash_drive.o
    0x08004db4   0x00000048   Code   RO         1369    i.SPI_Flash_SectorErase  flash_drive.o
    0x08004dfc   0x00000024   Code   RO         1370    i.SPI_Flash_SendByte  flash_drive.o
    0x08004e20   0x00000038   Code   RO         1371    i.SPI_Flash_WaitForWriteEnd  flash_drive.o
    0x08004e58   0x00000024   Code   RO         1373    i.SPI_Flash_Write_En  flash_drive.o
    0x08004e7c   0x000000fc   Code   RO         3597    i.SPI_WaitFifoStateUntilTimeout  stm32g0xx_hal_spi.o
    0x08004f78   0x000000dc   Code   RO         3598    i.SPI_WaitFlagStateUntilTimeout  stm32g0xx_hal_spi.o
    0x08005054   0x00000002   Code   RO         1990    i.SVC_Handler       stm32g0xx_it.o
    0x08005056   0x00000002   PAD
    0x08005058   0x0000000c   Code   RO         1117    i.Set_Exo_Key_L_2_Flag  exoskeleton_control.o
    0x08005064   0x0000000c   Code   RO         1118    i.Set_Exo_Key_R_1_Flag  exoskeleton_control.o
    0x08005070   0x0000000c   Code   RO         1119    i.Set_Exo_Key_R_2_Flag  exoskeleton_control.o
    0x0800507c   0x00000010   Code   RO         1216    i.Set_Keys          keys.o
    0x0800508c   0x00000040   Code   RO          559    i.Spring_Max_Minus  mode3.o
    0x080050cc   0x00000040   Code   RO          560    i.Spring_Max_Plus   mode3.o
    0x0800510c   0x0000000c   Code   RO          339    i.State_Machine_Mode1_Init  mode1.o
    0x08005118   0x0000000c   Code   RO          502    i.State_Machine_Mode2_Init  mode2.o
    0x08005124   0x0000000c   Code   RO          562    i.State_Machine_Mode3_Init  mode3.o
    0x08005130   0x00000008   Code   RO         1991    i.SysTick_Handler   stm32g0xx_it.o
    0x08005138   0x0000006c   Code   RO         1718    i.SystemClock_Config  main.o
    0x080051a4   0x00000002   Code   RO         5478    i.SystemInit        system_stm32g0xx.o
    0x080051a6   0x00000002   PAD
    0x080051a8   0x00000088   Code   RO           33    i.System_Power_Filter  data_pre.o
    0x08005230   0x00000010   Code   RO         1992    i.TIM6_IRQHandler   stm32g0xx_it.o
    0x08005240   0x000000a0   Code   RO         3985    i.TIM_Base_SetConfig  stm32g0xx_hal_tim.o
    0x080052e0   0x0000000c   Code   RO         1466    i.Task_Comm_Flag_Reset  cyc_req.o
    0x080052ec   0x00000030   Code   RO         1467    i.Task_Comm_Func    cyc_req.o
    0x0800531c   0x0000000c   Code   RO         1468    i.Task_Encoder_Flag_Reset  cyc_req.o
    0x08005328   0x00000030   Code   RO         1469    i.Task_Encoder_Func  cyc_req.o
    0x08005358   0x0000000c   Code   RO         1470    i.Task_Exo_Flag_Reset  cyc_req.o
    0x08005364   0x00000030   Code   RO         1471    i.Task_Exo_Func     cyc_req.o
    0x08005394   0x0000000c   Code   RO         1472    i.Task_Key_AntiVib_Flag_Reset  cyc_req.o
    0x080053a0   0x00000030   Code   RO         1473    i.Task_Key_AntiVib_Func  cyc_req.o
    0x080053d0   0x0000000c   Code   RO         1474    i.Task_MPU6050_Flag_Reset  cyc_req.o
    0x080053dc   0x00000030   Code   RO         1475    i.Task_MPU6050_Func  cyc_req.o
    0x0800540c   0x0000000c   Code   RO         1476    i.Task_MiniAudio_Delay_Flag_Reset  cyc_req.o
    0x08005418   0x00000030   Code   RO         1477    i.Task_MiniAudio_Delay_Func  cyc_req.o
    0x08005448   0x0000000c   Code   RO         1478    i.Task_MiniAudio_Flag_Reset  cyc_req.o
    0x08005454   0x00000030   Code   RO         1479    i.Task_MiniAudio_Func  cyc_req.o
    0x08005484   0x0000002a   Code   RO          753    i.Torque_Grade_Get  miniaaudiocontrol.o
    0x080054ae   0x00000002   PAD
    0x080054b0   0x0000007c   Code   RO         1120    i.Torque_Grade_Minus  exoskeleton_control.o
    0x0800552c   0x0000007c   Code   RO         1121    i.Torque_Grade_Plus  exoskeleton_control.o
    0x080055a8   0x00000064   Code   RO          344    i.Torque_Time_Mux_Minus  mode1.o
    0x0800560c   0x00000064   Code   RO          345    i.Torque_Time_Mux_Plus  mode1.o
    0x08005670   0x00000068   Code   RO         5361    i.UARTEx_SetNbDataToProcess  stm32g0xx_hal_uart_ex.o
    0x080056d8   0x000000f0   Code   RO         4959    i.UART_AdvFeatureConfig  stm32g0xx_hal_uart.o
    0x080057c8   0x0000007c   Code   RO         4960    i.UART_CheckIdleState  stm32g0xx_hal_uart.o
    0x08005844   0x0000005a   Code   RO         4962    i.UART_DMAError     stm32g0xx_hal_uart.o
    0x0800589e   0x000000cc   Code   RO         4963    i.UART_DMAReceiveCplt  stm32g0xx_hal_uart.o
    0x0800596a   0x00000026   Code   RO         4965    i.UART_DMARxHalfCplt  stm32g0xx_hal_uart.o
    0x08005990   0x00000084   Code   RO         4971    i.UART_EndRxTransfer  stm32g0xx_hal_uart.o
    0x08005a14   0x00000052   Code   RO         4973    i.UART_EndTxTransfer  stm32g0xx_hal_uart.o
    0x08005a66   0x00000002   PAD
    0x08005a68   0x00000230   Code   RO         4978    i.UART_SetConfig    stm32g0xx_hal_uart.o
    0x08005c98   0x000000e8   Code   RO         4979    i.UART_Start_Receive_DMA  stm32g0xx_hal_uart.o
    0x08005d80   0x00000120   Code   RO         4985    i.UART_WaitOnFlagUntilTimeout  stm32g0xx_hal_uart.o
    0x08005ea0   0x0000001c   Code   RO         1067    i.__ARM_common_switch8  miniaaudiocontrol.o
    0x08005ebc   0x0000002c   Code   RO         5577    i.__ARM_fpclassify  m_ps.l(fpclassify.o)
    0x08005ee8   0x00000078   Code   RO         3185    i.__NVIC_SetPriority  stm32g0xx_hal_cortex.o
    0x08005f60   0x00000006   Code   RO         4986    i.__get_PRIMASK     stm32g0xx_hal_uart.o
    0x08005f66   0x000000ac   Code   RO         5579    i.__kernel_poly     m_ps.l(poly.o)
    0x08006012   0x0000000a   Code   RO         5564    i.__mathlib_dbl_infnan  m_ps.l(dunder.o)
    0x0800601c   0x00000014   Code   RO         5567    i.__mathlib_dbl_overflow  m_ps.l(dunder.o)
    0x08006030   0x00000014   Code   RO         5569    i.__mathlib_dbl_underflow  m_ps.l(dunder.o)
    0x08006044   0x00000006   Code   RO         4987    i.__set_PRIMASK     stm32g0xx_hal_uart.o
    0x0800604a   0x00000002   PAD
    0x0800604c   0x00000364   Code   RO          349    i.control_mode1     mode1.o
    0x080063b0   0x0000012c   Code   RO          503    i.control_mode2     mode2.o
    0x080064dc   0x00000310   Code   RO          563    i.control_mode3     mode3.o
    0x080067ec   0x00000060   Code   RO         1602    i.crc16_core        comm_m2s.o
    0x0800684c   0x0000027c   Code   RO         5540    i.exp               m_ps.l(exp.o)
    0x08006ac8   0x000000ec   Code   RO          620    i.getAcceleration   mpu6050.o
    0x08006bb4   0x000000c0   Code   RO          621    i.getAngle          mpu6050.o
    0x08006c74   0x000000c0   Code   RO          622    i.getAngleVelocity  mpu6050.o
    0x08006d34   0x00000034   Code   RO          624    i.getSingleAngVel   mpu6050.o
    0x08006d68   0x00000034   Code   RO          625    i.getSingleAngle    mpu6050.o
    0x08006d9c   0x00000098   Code   RO         1719    i.main              main.o
    0x08006e34   0x00000030   Code   RO         1217    i.set_Key_L_2       keys.o
    0x08006e64   0x00000030   Code   RO         1218    i.set_Key_R_1       keys.o
    0x08006e94   0x00000030   Code   RO         1219    i.set_Key_R_2       keys.o
    0x08006ec4   0x00000064   Code   RO         5533    x$fpl$dleqf         fz_ps.l(dlef.o)
    0x08006f28   0x00000068   Code   RO         5537    x$fpl$drleqf        fz_ps.l(drlef.o)
    0x08006f90   0x00000000   Code   RO         5562    x$fpl$usenofp       fz_ps.l(usenofp.o)
    0x08006f90   0x00000020   Data   RO         4988    .constdata          stm32g0xx_hal_uart.o
    0x08006fb0   0x00000017   Data   RO         5365    .constdata          stm32g0xx_hal_uart_ex.o
    0x08006fc7   0x00000001   PAD
    0x08006fc8   0x00000068   Data   RO         5479    .constdata          system_stm32g0xx.o
    0x08007030   0x00000080   Data   RO         5527    .constdata          fz_ps.l(ddiv.o)
    0x080070b0   0x00000058   Data   RO         5541    .constdata          m_ps.l(exp.o)
    0x08007108   0x00000020   Data   RO         5753    Region$$Table       anon$$obj.o


    Execution Region RW_IRAM1 (Base: 0x20000000, Size: 0x000037b0, Max: 0x00009000, ABSOLUTE, COMPRESSED[0x00000058])

    Base Addr    Size         Type   Attr      Idx    E Section Name        Object

    0x20000000   0x00000128   Data   RW           36    .data               data_pre.o
    0x20000128   0x000000d9   Data   RW          351    .data               mode1.o
    0x20000201   0x00000007   PAD
    0x20000208   0x00000038   Data   RW          505    .data               mode2.o
    0x20000240   0x00000051   Data   RW          565    .data               mode3.o
    0x20000291   0x00000007   PAD
    0x20000298   0x00000050   Data   RW          628    .data               mpu6050.o
    0x200002e8   0x00000010   Data   RW          755    .data               miniaaudiocontrol.o
    0x200002f8   0x00000007   Data   RW         1123    .data               exoskeleton_control.o
    0x200002ff   0x00000001   PAD
    0x20000300   0x0000000c   Data   RW         1221    .data               keys.o
    0x2000030c   0x0000000c   Data   RW         1378    .data               flash_drive.o
    0x20000318   0x00000040   Data   RW         1481    .data               cyc_req.o
    0x20000358   0x00000042   Data   RW         1604    .data               comm_m2s.o
    0x2000039a   0x00000006   PAD
    0x200003a0   0x00000020   Data   RW         1722    .data               main.o
    0x200003c0   0x00000009   Data   RW         3313    .data               stm32g0xx_hal.o
    0x200003c9   0x00000003   PAD
    0x200003cc   0x00000004   Data   RW         5480    .data               system_stm32g0xx.o
    0x200003d0   0x00001900   Zero   RW           34    .bss                data_pre.o
    0x20001cd0   0x00000042   Zero   RW          626    .bss                mpu6050.o
    0x20001d12   0x0000000a   Zero   RW         1720    .bss                main.o
    0x20001d1c   0x000000c0   Zero   RW         1794    .bss                adc.o
    0x20001ddc   0x00000064   Zero   RW         1855    .bss                spi.o
    0x20001e40   0x0000004c   Zero   RW         1894    .bss                tim.o
    0x20001e8c   0x000003c0   Zero   RW         1936    .bss                usart.o
    0x2000224c   0x00000060   Zero   RW         5609    .bss                c_p.l(libspace.o)
    0x200022ac   0x00000004   PAD
    0x200022b0   0x00000500   Zero   RW            2    HEAP                startup_stm32g070xx.o
    0x200027b0   0x00001000   Zero   RW            1    STACK               startup_stm32g070xx.o


==============================================================================

Image component sizes


      Code (inc. data)   RO Data    RW Data    ZI Data      Debug   Object Name

       320         32          0          0        192       1739   adc.o
       684        108          0         66          0       6800   comm_m2s.o
       612        146          0         64          0       8804   cyc_req.o
      1332        236          0        296       6400     449626   data_pre.o
        36          4          0          0          0        698   dma.o
       740        104          0          7          0       6814   exoskeleton_control.o
       592         30          0         12          0       5963   flash_drive.o
       360         18          0          0          0       1031   gpio.o
       360         66          0         12          0       4732   keys.o
       338         40          0         32         10       3308   main.o
       936        194          0         16          0      11743   miniaaudiocontrol.o
      1344        190          0        217          0       6652   mode1.o
       568         72          0         56          0       3378   mode2.o
       972        130          0         81          0       3904   mode3.o
       880        144          0         80         66       5280   mpu6050.o
       208         22          0          0        100       1605   spi.o
        56         26        184          0       5376        632   startup_stm32g070xx.o
       244         44          0          9          0      16852   stm32g0xx_hal.o
      1630         60          0          0          0      38631   stm32g0xx_hal_adc.o
       230         26          0          0          0      12117   stm32g0xx_hal_cortex.o
       564         24          0          0          0       3762   stm32g0xx_hal_dma.o
         0          0          0          0          0       2712   stm32g0xx_hal_flash.o
       522         18          0          0          0       3184   stm32g0xx_hal_gpio.o
        76          4          0          0          0        794   stm32g0xx_hal_msp.o
        88         12          0          0          0        742   stm32g0xx_hal_pwr_ex.o
      2200         96          0          0          0      20757   stm32g0xx_hal_rcc.o
       516         12          0          0          0       1592   stm32g0xx_hal_rcc_ex.o
      1464         12          0          0          0       5637   stm32g0xx_hal_spi.o
       900         48          0          0          0       5611   stm32g0xx_hal_tim.o
       158         12          0          0          0       2984   stm32g0xx_hal_tim_ex.o
      2496         64         32          0          0      33608   stm32g0xx_hal_uart.o
       378         10         23          0          0       3761   stm32g0xx_hal_uart_ex.o
        36          6          0          0          0       2505   stm32g0xx_it.o
         2          0        104          4          0       1111   system_stm32g0xx.o
       148         20          0          0         76       1526   tim.o
      1156         90          0          0        960       3981   usart.o

    ----------------------------------------------------------------------
     23178       2120        376        976      13180     684576   Object Totals
         0          0         32          0          0          0   (incl. Generated)
        32          0          1         24          0          0   (incl. Padding)

    ----------------------------------------------------------------------

      Code (inc. data)   RO Data    RW Data    ZI Data      Debug   Library Member Name

        86          0          0          0          0          0   __dczerorl2.o
         8          0          0          0          0         68   __main.o
         0          0          0          0          0          0   __rtentry.o
        12          0          0          0          0          0   __rtentry2.o
         6          0          0          0          0          0   __rtentry4.o
        60          8          0          0          0          0   __scatter.o
        28          0          0          0          0          0   __scatter_zi.o
        22          0          0          0          0         92   _rserrno.o
       346          0          0          0          0         92   aeabi_sdiv.o
        16          0          0          0          0         68   exit.o
         6          0          0          0          0        136   heapauxi.o
         0          0          0          0          0          0   indicate_semi.o
         2          0          0          0          0          0   libinit.o
         2          0          0          0          0          0   libinit2.o
         2          0          0          0          0          0   libshutdown.o
         2          0          0          0          0          0   libshutdown2.o
         8          4          0          0         96         68   libspace.o
         8          4          0          0          0         68   rt_errno_addr_intlibspace.o
        64          0          0          0          0        108   rt_memclr.o
       186          0          0          0          0        144   rt_memcpy.o
         2          0          0          0          0          0   rtexit.o
        10          0          0          0          0          0   rtexit2.o
        12          4          0          0          0         60   sys_exit.o
        62          0          0          0          0         80   sys_stackheap_outer.o
         2          0          0          0          0         68   use_no_semi.o
        46          0          0          0          0         60   cmpret.o
       856         20          0          0          0        208   daddsub.o
       144          4          0          0          0         76   dcmpin.o
      1096         26        128          0          0        112   ddiv.o
       108         10          0          0          0         72   dfixi.o
        88          0          0          0          0         92   dflti.o
       100          4          0          0          0         92   dlef.o
       584         26          0          0          0         84   dmul.o
        20          6          0          0          0         68   dnan2.o
       104          4          0          0          0        104   drlef.o
        96         12          0          0          0         72   dscalbn.o
        94          0          0          0          0         68   retnan.o
         0          0          0          0          0          0   usenofp.o
        50         10          0          0          0        204   dunder.o
       636         94         88          0          0        132   exp.o
        44          4          0          0          0         60   fpclassify.o
       172          0          0          0          0         76   poly.o

    ----------------------------------------------------------------------
      5198        240        216          0        100       2632   Library Totals
         8          0          0          0          4          0   (incl. Padding)

    ----------------------------------------------------------------------

      Code (inc. data)   RO Data    RW Data    ZI Data      Debug   Library Name

       952         20          0          0         96       1052   c_p.l
      3336        112        128          0          0       1108   fz_ps.l
       902        108         88          0          0        472   m_ps.l

    ----------------------------------------------------------------------
      5198        240        216          0        100       2632   Library Totals

    ----------------------------------------------------------------------

==============================================================================


      Code (inc. data)   RO Data    RW Data    ZI Data      Debug   

     28376       2360        592        976      13280     676432   Grand Totals
     28376       2360        592         88      13280     676432   ELF Image Totals (compressed)
     28376       2360        592         88          0          0   ROM Totals

==============================================================================

    Total RO  Size (Code + RO Data)                28968 (  28.29kB)
    Total RW  Size (RW Data + ZI Data)             14256 (  13.92kB)
    Total ROM Size (Code + RO Data + RW Data)      29056 (  28.38kB)

==============================================================================

