:020000040800F2
:10000000B037002079010008714B0008CD3D000891
:1000100000000000000000000000000000000000E0
:100020000000000000000000000000005550000823
:100030000000000000000000754B0008315100086E
:100040008B010008000000008B0100088B010008F4
:100050008B0100088B0100088B0100088B01000850
:10006000000000008B0100088B0100088B010008D4
:100070008B0100088B0100088B01000800000000C4
:100080008B010008315200088B0100088B01000829
:100090008B0100088B0100088B0100088B01000810
:1000A0008B0100088B0100088B0100088B01000800
:1000B0008B0100088B01000800F002F800F030F816
:1000C0000CA030C8083824182D18A246671EAB466D
:1000D00054465D46AC4201D100F022F87E460F3E08
:1000E0000FCCB6460126334200D0FB1AA246AB46DF
:1000F00033431847147000003470000000230024BC
:1001000000250026103A01D378C1FBD8520700D34E
:1001100030C100D50B6070471FB51FBD10B510BDB5
:1001200000F05CFF1146FFF7F7FF06F037FE00F026
:1001300074FF03B4FFF7F2FF03BC00F0A5FF00005B
:1001400070B505460C46164602E00FCC0FC5103EB2
:10015000102EFAD2082E02D303CC03C5083E042E7B
:1001600007D301CC01C5361F03E021782970641C38
:100170006D1C761EF9D270BD0748804707480047BE
:10018000FEE7FEE7FEE7FEE7FEE7FEE70448054977
:10019000054A064B70470000A5510008B900000849
:1001A000B0220020B0370020B0270020B027002068
:1001B000F8B5042A2CD3830712D00B78491C03709E
:1001C000401C521E83070BD00B78491C0370401C47
:1001D000521E830704D00B78491C0370401C521E2A
:1001E0008B079B0F05D0C91ADF002023DE1B08C92F
:1001F0000AE0FFF7A5FFF8BD1D4608C9FD401C46F3
:10020000B4402C4310C0121F042AF5D2F308C91AB7
:10021000521EF0D40B78491C0370401C521EEAD4C5
:100220000B78491C0370401C012AE4D40978017042
:10023000F8BD01E004C0091F0429FBD28B0701D5DA
:100240000280801CC90700D00270704700290BD0C3
:10025000C30702D00270401C491E022904D3830741
:1002600002D50280801C891EE3E70022EEE700220F
:10027000DFE7002203098B422CD3030A8B4211D300
:1002800000239C464EE003460B433CD40022430827
:100290008B4231D303098B421CD3030A8B4201D317
:1002A00094463FE0C3098B4201D3CB01C01A5241AF
:1002B00083098B4201D38B01C01A524143098B42FF
:1002C00001D34B01C01A524103098B4201D30B01E8
:1002D000C01A5241C3088B4201D3CB00C01A52410D
:1002E00083088B4201D38B00C01A524143088B42D2
:1002F00001D34B00C01A5241411A00D2014652416B
:10030000104670475DE0CA0F00D04942031000D389
:100310004042534000229C4603098B422DD3030ADE
:100320008B4212D3FC22890112BA030A8B420CD3EE
:10033000890192118B4208D3890192118B4204D317
:1003400089013AD0921100E08909C3098B4201D397
:10035000CB01C01A524183098B4201D38B01C01AD1
:10036000524143098B4201D34B01C01A5241030948
:100370008B4201D30B01C01A5241C3088B4201D3F7
:10038000CB00C01A524183088B4201D38B00C01AA4
:100390005241D9D243088B4201D34B00C01A52417B
:1003A000411A00D20146634652415B10104601D308
:1003B0004042002B00D54942704763465B1000D392
:1003C000404201B50020C046C04602BD704770479C
:1003D00070470000F0B50C46871A9C410D46861AFE
:1003E0009D4103D2C01BA141D21963410D0D1F0DC8
:1003F000C94EEC1BAE435CD07F057F0D0026002F5D
:1004000051D02D05AC46A943DD020123ED0A1B05A1
:100410001D4320231B1B24D41746E7403818714185
:100420002F46E740CC199D402818314661410C0DFC
:1004300027D161449A4013D50023401C59415200F2
:100440000ED14008400001224B005205D34207D391
:1004500005204007C14201D5B04900E0B04930460F
:10046000F0BD6B00002A00D001229A181F23203C07
:100470001B1B01D5002302E0E540281871410C0D3B
:10048000D7D0012424050919C407CD07400849081D
:10049000E40F28436144002CD5D00024401C614166
:1004A0009A40D0D1CDE76A05520DD9D1C90FC907FD
:1004B000D5E79C4D4E00002801D0012400E0002427
:1004C00034195F00002A01D0012600E00026BE1981
:1004D000954FAC420CD8AE420AD8B44206D00125A2
:1004E0006D05EC42BCD010461946F0BD9942FCD0D7
:1004F00000203946F0BDF0B51FB40C460F46811AF6
:100500009F412546861A9D4106D20125ED076F4081
:10051000401ABC4152187B41210D1E0D8D1BAC466B
:100520007D4D8D437ED075056D0D7CD00D05AE469D
:10053000AC431B031B0B794D52429D412023664661
:100540009B1B14D31746F7403818002600907441BF
:1005500060462F460741E41900989D4028186641DF
:1005600016D4714671189A4025D5012320E09318BE
:100570002A466A415200002B00D0521C1E23203E06
:100580009B1B002B61DD3541EE1728186641E8D52D
:10059000001876415B1C9A4000D3401C4B05F318B1
:1005A0001524E34010D3002B52D071467118D30F9D
:1005B000C01802D3491C05B0F0BD0123DB079A42E5
:1005C000F9D140084000F6E701225205B21801D1E6
:1005D000002853D00123CC0ADB029943891E002A4C
:1005E00008D1020C03D0020C0004103902E00246CC
:1005F000002020390023550B05D112020823550B8A
:1006000001D152010D23550C01D112011B1DD50C36
:1006100001D192009B1C150D01D152005B1C2025BD
:10062000EE1A01E02CE022E00546F5401543984023
:10063000CA1AE10769181305C918002ABBDA032092
:1006400040070818C10FC9070FE071466118B2E7EB
:10065000F10740080843711071444A000CD001238F
:100660005B059A42A7D2C90FC9070020A3E7490535
:10067000490D26D1002001E00028F4D100219AE79D
:10068000284D6600002801D0012100E000217118EA
:100690005F00002A01D0012600E00026BE19224F8B
:1006A000A94210D8AE420ED8B14208D001256D053E
:1006B000E94206D01946A802414010467BE79C4219
:1006C00001D0214677E70020394674E710B50C4683
:1006D0005C4005D50124E4076340FFF70CFF10BD23
:1006E000FFF778FE10BD30B40C465C4004D5012401
:1006F000E407634030BC6DE630BCFCE670B5012415
:10070000E40761400D465D4002D4FFF763FE70BD13
:100710006340FFF7F0FE70BDFF0700000000F0FF30
:100720000000F07F0000E0FF0000F87FF0B5F94D19
:100730000C091E092C402E402F468BB0A7437DD0BC
:10074000B543FCD0002E7AD0002CFCD00D465D4085
:10075000ED0F2543AC1BFF25AD0464190894C502B9
:10076000440DC9022143500DDC0204430120C0079F
:1007700001430443D2020191200C110C00958C46D8
:10078000010423468B430A9161460904E24D8A43E2
:100790000991010A7D4449198039097805464D437C
:1007A00001266D18F605751B6943C90C640B891C7D
:1007B0004C436418B5012C1B250C2E04B4434C4348
:1007C0004D43210C691889090591009DE90701D065
:1007D0000121C90704912C4601996708CD072F43D1
:1007E0004C08059DE10B4D432D0C2946664675438B
:1007F00002950D4645432E46029D7D1BB441009552
:100800000D465D4301942C0C2F040D465543AE4616
:100810002D0C3D43029503947546049C2D04641BE6
:10082000049406D2029C039D641C00267541039526
:10083000029401AC70CC009F7D1B01E03EE162E1BF
:10084000B44109040095079101940599A4086143F6
:10085000090C0C464443650BE7040C46664674439A
:10086000A646640B3C43039502947446049DE4043D
:100870002C1B049406D2029C039D641C0026754127
:100880000395029401AC70CC009F7D1BB441019490
:100890000C465C430095650FE7000C465443A646A2
:1008A000640F3C43039502947446049DE4002C1BA2
:1008B000049406D2029C039D641C00267541039596
:1008C000029401AC70CC009F7D1BB441AE09AF0611
:1008D000049DC900AD092F43049DA406AD060495EF
:1008E000079D344369180791059DE10B4D432D0C7D
:1008F00029466646754302950D4645432E46029DA0
:100900007D1BB44100950D465D4301942C0C2F04D2
:100910000D465543AE462D0C3D4302950394754656
:10092000049C2D04641B049406D2029C039D641C49
:10093000002675410395029401AC70CC009F7D1B8D
:10094000B44101948C050694079C890A61180095AE
:100950000791019C0599A4086143090C0D46454384
:10096000680BEF040D46644665436C0B3C43049FE3
:10097000ED047D1BAC4602D20025641C6841009E3C
:10098000019D371B85410846584301950C46460F8B
:10099000C5005443600F28436546E4002C1B02D277
:1009A0000025401C6E41019D3F1AB5412846BD09F6
:1009B000800628438446A009BF064E020699A40675
:1009C00076180743079D002068410A99079019434C
:1009D0000020099B00906046FF1913434041E20F3D
:1009E00064003A43A4460446D71A8C41A04203D976
:1009F0000120009020463A46C70F941840416246B5
:100A0000D20F2243644664000494009CBE466400F6
:100A1000D71AA446044602978C417746002F01D18D
:100A2000A04204D96046401C8446029A2046C40F66
:100A3000A64694184041049A0546D20F22436446C4
:100A40006400D31A8D417146002901D1A84202D910
:100A500028461A46641C10430122002800D0164381
:100A600061020020079B891904465C410223002C87
:100A700002DB491813466441089DCE0A2D145D1906
:100A80004B056705E10A2C050D1908993E43C90776
:100A90006940002B08D0934006D30022761C5141B8
:100AA000002B01D1760876001C4A002D43DB15424D
:100AB00041D0AA433FD030460BB0F0BD06180D46DA
:100AC0004D41174C7642AC411AD395181C465C41F7
:100AD000134A6D42A24113D3012252054C00D44265
:100AE0000AD15C00D4420BD04B4002D59202114394
:100AF000E2E749004908DFE75940C90FC90718E094
:100B000000200849D8E7054801420DD10342F7D03B
:100B1000F2E700000000FF07986800000000F07F87
:100B20000000E0FF0000F87F114859400143C01267
:100B300041400020C0E70123089A9B069A4205DC49
:100B4000032252078918C90FC907B5E705225207C2
:100B50008918074A1143D2125140ADE770B51546C6
:100B60001C4602460B4628462146FFF7DFFD70BDB6
:100B7000FFFFFF7F1F22030C02D10F22000402D0CF
:100B8000030E03D004E00020014670470002083A3B
:100B9000030F01D10001121F830F01D18000921EAB
:100BA000002801DB4000521E120551184205C012F8
:100BB000411810467047C10FC90700D040420122BA
:100BC00092071143D6E701218907D3E7F0B58B4C93
:100BD0000F09254689B0BD437BD01D092646AE438B
:100BE000FAD00E465E402740F60F3E43254071D0B6
:100BF00024012142FBD0FF24AD19A4042D1B039531
:100C000001252D05DB02DB0AC9022B43C90A294352
:100C10001E010901040F130F050121431701880B61
:100C2000820391432D098C46A90B1E438A039543E9
:100C3000B30B9A0396433F09BA0B9403A74302965A
:100C40002E467E430497B6464E19D7190C46019698
:100C5000544305977E43371B7646BF1B3601B64685
:100C6000BE0B361900967646BC043719009C01D39A
:100C7000641C00946400002F01D001263443029EBE
:100C8000049F754366467E430496760034196E00D1
:100C900034190094029C019E1C196643751BAE46D4
:100CA000069465464519059C05956C435943754660
:100CB0000891691A0191049E01465143A41B0491B5
:100CC000611A009C0791E10605D0610901221143D8
:100CD00002E072E06EE06109089D00272C0A2D06F3
:100CE0006918049D7C412A0A2D066918019D6241FC
:100CF000AC0DAD026D185441079A910D9202551931
:100D00006141029A644658435443069B059A5A43EC
:100D1000121A131B9A0E9B015B187A41010B0005F6
:100D2000C3185141220A200644195A419A4200D25E
:100D3000491C01204002814203D315230226F643B9
:100D400002E014230326F6432020C51AA9401746C3
:100D5000AF40DA400A4320460399D840091473187B
:100D600019055118039A3843D2075140AC4009D0B5
:100D70000122944006D30022401C5141002C01D195
:100D8000400840001E4A934212D301220398920663
:100D9000904207DB0520400709181A480143C0129A
:100DA000414004E0032040070818C10FC907002094
:100DB00009B0F0BD0020F107FAE705180C464C41D8
:100DC00011486D42A04115D394181A465A410E4855
:100DD000644290410ED301204A004005824209D36B
:100DE0005A00824206D35940C90F084AC907002059
:100DF0001143DDE700200649DAE700000000FF07A5
:100E0000FE070000FFFFFF7F0000E0FF0000F07F13
:100E10000000F87F10B500F0B7F8006810BD10B5FD
:100E2000044600F0B1F8046010BD0000F8B5224C93
:100E30004E00069DA6420AD8A64201D1002806D13E
:100E40005E00A64203D8A6420AD1002A08D00D248B
:100E5000240425422CD02946002000F099F8F8BD42
:100E60000C461C430CD4994202D0EFF30080F8BD2D
:100E7000904202D0EFF30080F8BDEFF30080F8BDA0
:100E800009242407E5008B4206D0EFF30080A0433D
:100E9000591A06D2284304E0101A05D3EFF3008054
:100EA000A04380F30088F8BDEFF30080A043F1E792
:100EB000009500F085F8F8BD0000E0FF30B503466E
:100EC000CA02400D1043164D164C0A1502D020439D
:100ED000002A06DBAA1A002A12DDD040FF2A0BDC0A
:100EE00030BD5205520D01D140004008AA1A07D466
:100EF000D0404042FF2A01DD002030BD0028FCDD4B
:100F00004A00002B01D0012000E00020101801222F
:100F10005205D042F0D8C817C043604030BD000031
:100F20001E0400000000008070B505464800440D16
:100F3000124B0020002C0AD0634008D09A4206DAF7
:100F40006642B24203DD12054019514170BD002CCA
:100F500008D0002B09D0C90FC907002AF6DB084AC0
:100F6000114370BDC90FC90770BD28460A0310435D
:100F700002D00020034970BD284670BDFF07000065
:100F80000000F07F0000F87F004870474C220020EE
:100F9000C80212D54803400F002804D0C803C0433C
:100FA000012188407047EFF3008000010009032110
:100FB0000907084380F3008870470020704700004D
:100FC00010B500200249029A00F02FF810BD000071
:100FD0000000F87F004870474C2200207546FFF75C
:100FE000F9FFAE46050069465346C008C000854675
:100FF00018B020B5FFF7CAF860BC00274908B6460C
:101000000026C0C5C0C5C0C5C0C5C0C5C0C5C0C517
:10101000C0C5403D49008D46704710B50446C046E6
:10102000C0462046FFF785F810BD10B50C461107E5
:10103000090F092904D00A290AD008290CD104E093
:1010400011460820FFF7A4FF06E0510606D501E08F
:10105000510601D50120C007214610BDD10607D594
:1010600001010909CC084907000E0006044309E004
:10107000410F20024907000A0143200E00061D22ED
:10108000D14101430846E7E701491820ABBEFEE71E
:1010900026000200704770B58C180578401C6B075D
:1010A0005B0F01D10378401C2A1106D10278401C45
:1010B00003E00678401C0E70491C5B1EF9D12B071B
:1010C00005D40023521E0DD40B70491CFAE7037897
:1010D000401CCB1A921C03E01D780D70491C5B1C50
:1010E000521EF9D5A142D8D3002070BD00B500F042
:1010F00001F800BD00B502F06BFE02F083FE02F0C5
:101100009BFE00BD10B50F480078401E0D490870C9
:1011100008460078FF2801D10020087009490978A5
:10112000491C0A22514308461430FFF744FD064A81
:1011300003C204480178012003F0CCFC03F0EAFC70
:1011400010BD0000290200203002002010B50F4819
:101150000078401C0D49087008460078042801DB1F
:101160000420087009490978491C0A22514308469D
:101170001430FFF720FD064A03C20448017801201D
:1011800003F0A8FC03F0C6FC10BD000029020020FB
:101190003002002070B504460D4601228021074828
:1011A00001F0C5F80A232A462146054802F09BFDB6
:1011B00000228021014801F0BAF870BD00040050FF
:1011C000B41F002070B504460D46012210210520F1
:1011D000000701F0ACF80A232A462146044802F031
:1011E00082FD002210210520000701F0A0F870BD4B
:1011F000201F002010B5A120184908800020488039
:101200000221164805F0F2FA14498880A2201449F8
:101210000880002048800221114805F0E7FA1049B3
:101220008880002280210F4801F081F80A2000F018
:1012300069FF06220C490D4802F014FD002210211E
:101240000520000701F073F80A2000F05BFF06227A
:101250000749084802F006FD10BD000058030020B1
:1012600064030020000400505E030020B41F00202F
:101270006A030020201F002010B503F08BF803F054
:10128000BBF810BD10B503F0E9F803F001F910BD8B
:1012900070B5044600250026A5880221204605F0E9
:1012A000A5FA0646B54201D1012070BD0020FCE739
:1012B00010B51F480078002803D002F025FE04F086
:1012C00087F81C480078002801D004F027F81A4855
:1012D0000078002803D0FFF709FF04F05BF81748F7
:1012E0000078002805D0FFF7C7FFFFF7CBFF03F01A
:1012F000F7FF13480078002808D00121890311481E
:1013000001F00BF800F08CF804F026F80E48007895
:10131000002803D003F07AF904F096F80B4800781F
:10132000002803D003F004F904F070F810BD0000A9
:1013300018030020190300201A0300201B030020BB
:101340001C030020000800501D0300201E03002085
:1013500000B504F043F803F0E7FF04F021F803F0D0
:10136000C5FF03F0FFFF04F075F804F055F800BD69
:1013700070B50446206C80088000094940186064FC
:101380002178084608381421FEF773FF0546044803
:101390008030A064E906C90E01208840E06470BD79
:1013A0000008024002799106890E4A1E9200064BFF
:1013B000D2180265044A403242654A1E93079B0FC9
:1013C00001229A40826570470009024070B5856C21
:1013D000C46C6C60046D002C02D0456D846D6C6033
:1013E0000C4C64681C26056C35400126AE40344325
:1013F000084D6C60046863608468102C04D1046834
:10140000A2600468E16003E00468A1600468E2602F
:1014100070BD00000000024072B600BFFEE7000091
:1014200010B500F01DF800F033FA0A4800780028E3
:1014300002D004F00BFE0CE007480078002802D030
:1014400004F0B6FF05E005480078002801D005F05B
:1014500045F810BDFB020020FC020020FD02002028
:1014600070B50026002005F07FFC5D4A03C2002015
:1014700005F060FC5B4A03C259485B490CC803C9CC
:10148000FFF731F9594A03C2554859490CC803C9F5
:10149000FFF729F9574A03C2514853490CC803C9F9
:1014A000FFF714F9544A03C24D4851490CC803C907
:1014B000FFF70CF9514A03C2514852490CC803C9FD
:1014C000FFF711F9490049084F4A03C24F490C6818
:1014D00022464B684E4903C9FFF705F94C4A03C23F
:1014E00000BF0CE0701CC000484908180168406843
:1014F000F200464B9A1811605060701C86B2632E41
:10150000F0DB444A444B404903C9FFF75FFB3F4AC5
:1015100003231B02D3189861032000021018C16135
:1015200010460321090241180322120280188C6917
:1015300022463749C36903C9FFF7C8F8344A03C2D2
:101540000022364B324903C9FFF7F0F8344A03C290
:101550002C4903C900F0B4F8294903C900F024F963
:10156000224903C92F4A03C22248016840682E4A13
:101570001160506000202D4A1060506000212C4AFC
:10158000116051602B4903C903F00EFE00222A4B63
:101590002A4903C905F096FC10D20022284B27499E
:1015A00003C905F0C1FC09D226480078002805D0FF
:1015B0000120254908700020224908700022204B94
:1015C0001E4903C905F07EFC09D220480078002896
:1015D00005D001201E49087000201C49087070BD0C
:1015E00028000020300000201800002038000020D3
:1015F0002000002040000020480000205000002073
:10160000700000206800002088000020D003002027
:10161000900000207B14AE47E17A743F00005940EF
:10162000980000205800002060000020F0000020FA
:10163000F8000020000100200000354020010020BB
:10164000008034400A010020080100200B01002026
:101650000901002015480078012808D114480078B5
:10166000002804D113480078002800D170470F48A3
:101670000078002809D10E480078012805D10D48CE
:101680000078002801D10120F0E708480078002800
:1016900009D107480078002805D1064800780128BC
:1016A00001D10220E2E7FF20E0E70000FB0200207A
:1016B000FC020020FD02002010B503F0DBF910BD94
:1016C0007CB505460E4632480CC828463146FEF722
:1016D000FDFF2F4A03C22F48032109024118096A5E
:1016E000032212028018406A0A46034600910190C4
:1016F000274903C9FEF7F7FF254A03C225480321FE
:10170000090241188969032212028018C0690A4639
:10171000034600910190204903C9FEF7D7FF1E4AF6
:1017200003C21C4803C81C4B019100900CCBFEF770
:10173000E5FF194A03C200BF00240CE0601CC00092
:101740001449081801684068E200124B9A181160A9
:101750005060601C84B2C72CF0DB0E4803214902A4
:1017600041188D63032149024018C66300220B4BC8
:10177000074903C9FEF7DAFF094A03C20022074BF3
:10178000054903C9FEF7D2FF064A03C27CBD00002B
:10179000B0000020F0060020D000002000005940DA
:1017A000A0000020C00000207CB505460E4632484F
:1017B0000CC828463146FEF789FF2F4A03C22F493D
:1017C000032000020818006A032212028918496ADD
:1017D000294B019100900CCBFEF790FF264A03C2E3
:1017E00026480921C9014118896A0922D2018018B5
:1017F000C06A0A46034600910190214903C9FEF7D9
:1018000065FF1F4A03C21D49FF2091304058FF3138
:10181000813149691A4B019100900CCBFEF76EFFA4
:10182000174A03C200BF00240AE0601CC00013492D
:10183000091803C9E200114B9A1803C2601C84B254
:10184000C72CF2DB0D480321490241188D630321A7
:1018500049024018C66300220A4B074903C9FEF734
:1018600065FF094A03C20022064B054903C9FEF77A
:101870005DFF064A03C27CBDB8000020300D002089
:10188000D800002000005940A8000020C800002017
:1018900010B503F07BF803F049FE03F009FE10BD1C
:1018A00032200649088000BF044801880088401E95
:1018B000024A10800029F7D170470000120300206F
:1018C000F0B585B005460C4600200390029001213A
:1018D000C9072869884203D0091D2869884200D1B8
:1018E00000E000BF00BF5420405D012802D102206B
:1018F00005B0F0BD01215420415500BF286802F019
:10190000CAFA002876D16068022874D00121C9077C
:101910002869884203D0091D2869884208D12868AF
:101920002168826A4B035B0B1A43826200BFC6E0E8
:101930002179CA06D20E0F219140286E8843216872
:101940004903490B002905D11F2292062168114045
:10195000890E92E02178C907C90F002901D0002122
:101960008BE0022221681140022901D1012184E08B
:10197000042221681140042901D102217DE00822BE
:1019800021681140082901D1032176E01022216845
:101990001140102901D104216FE02022216811405B
:1019A000202901D1052168E0402221681140402909
:1019B00001D1062161E0802221681140802901D1F6
:1019C00007215AE0FF22013221681140914201D1E2
:1019D000082152E00122520221681140914201D1B6
:1019E00009214AE00122920221681140914203D16B
:1019F0000A2142E0FAE0BAE00122D2022168114055
:101A0000914201D10B2138E00122120321681140DB
:101A1000914201D10C2130E0012252032168114092
:101A2000914201D10D2128E0012292032168114049
:101A3000914201D10E2120E00122D2032168114000
:101A4000914201D10F2118E00122120421681140B6
:101A5000914201D1102110E001225204216811406D
:101A6000914201D1112108E0012292042168114024
:101A7000914201D1122100E000212279D206D20E3A
:101A800091400843286660688008401CE9698842E4
:101A900015D82868226861680192836ACF06FF0E14
:101AA0000F22BA4093430F27BF06019A3A40920E85
:101AB000CF06FF0EBA401343836200BF00BF286801
:101AC00021680091A16801914269009909028A4345
:101AD00000990B024C4F019939400B401A43426167
:101AE00000BF2068C00FC007002821D0474802F07F
:101AF000BDF906464649206888421AD1C0023040E6
:101B0000002816D1C80230430146404802F0C9F906
:101B1000404941480068FEF7ACFB401C0C2148439B
:101B2000029002E00298401E029002980028F9D12B
:101B300062E03A49206888420AD180023040002899
:101B400006D1880230430146304802F0AAF953E03A
:101B50003349206888424FD14002304000284BD1A1
:101B6000480230430146294802F09BF944E0012134
:101B7000C9072869884203D0091D2869884208D10D
:101B800028682168826A4B035B0B9A43826200BF1C
:101B900000BF2068C00FC00700282DD01B4802F0EE
:101BA00065F906461A492068884207D1C2023046C4
:101BB00090430146154802F074F91DE0174920686A
:101BC000884207D182023046904301460F4802F016
:101BD00068F911E01249206888420DD1420230466E
:101BE00090430146094802F05CF905E0A86D202108
:101BF0000843A8650120039000BF002154204155EF
:101C000000BF039874E6000000FFFF0708270140AB
:101C1000001000B0400D0300CC030020004000B8CD
:101C2000002000B4FEB504460020029000250026E6
:101C30000190002C01D10120FEBD3C20005D012857
:101C400000D100BF2069002805D001214905206985
:101C5000884200D100BFA06D002807D1204600F0C7
:101C60002DF90020E065002154200155206802F084
:101C70000BF9002817D120688168894A1140012298
:101C800012071143816000BF864987480068FEF74C
:101C9000F0FA401C4000019002E00198401E0190C3
:101CA00001980028F9D1206802F0EEF8002809D147
:101CB000A06D10210843A065E06D01210843E06597
:101CC00001200290206802F0E6F80746A06D10217E
:101CD000084000287ED1002FFCD1A06D0901884367
:101CE00002210843A065206802F0C6F8002872D1DE
:101CF000217E8903A0680843617EC9030843A17E51
:101D000049030843216B002902D00121090300E0A7
:101D100000210843E16808432169C90FC907002968
:101D200003D021694900490801E001214905084320
:101D30002C21095D4900084305432020005D01284E
:101D40000ED1A07E002803D101200004054307E046
:101D5000A06D20210843A065E06D01210843E065E6
:101D6000606A002806D0FF21C131606A0840A16A7C
:101D7000084305432068C0684C490840284321684F
:101D8000C8606068800F8007E16C084306433C2010
:101D9000005D01280BD16068800F80070121084396
:101DA000216C0843616C0843A16C0843064320681A
:101DB00000693F49084030432168086103218907D1
:101DC0006068884216D049426068884212D0490053
:101DD000606801E05BE00DE088420BD03548806828
:101DE0000F21890488430F2292046168114008433F
:101DF000304988600021626B206802F059F82E4952
:101E0000A26B206802F054F82069002807D12068EE
:101E1000806A0F21C94308432168886211E00121CB
:101E20004905206988420CD1207F401E4007C10E21
:101E30000F20C0438840216E08432168896A2168C9
:101E400088622168002000910099496904220240BB
:101E500007239340194004220240D140606B814225
:101E600008D10020E065A06D0221884301210843CC
:101E7000A06512E0A06D0221884310210843A065EF
:101E8000E06D01210843E0650120029005E0A06DAE
:101E900010210843A065012002900298CCE60000C2
:101EA000E8FFFF7F400D0300CC0300200102FEFF8E
:101EB00002FCFF1F0027014004FFFF0710B586B09A
:101EC0000446142101A8FEF7D2F927492068884268
:101ED00047D100BF2548006801210905084323496F
:101EE000086008460068012109050840009000BF0D
:101EF00000BF00BF1D484038406B012108431B490B
:101F0000403948630846406BC007C00F009000BFCF
:101F100000BF20200190032002900020039001A91F
:101F20000520000700F004F9114812490860052057
:101F3000486000210F488160C160802101618900F3
:101F40004161490081610021C161016200F014F822
:101F5000002801D0FFF760FA00BF064820658462C0
:101F600000BF06B010BD0000002401404010024038
:101F700058000240801D002010B50446002C01D1FD
:101F8000012010BD2A4A2168881A1421FEF771F930
:101F90008000206402212520015520680068254921
:101FA000084021680860E168A06808432169084387
:101FB00061690843A1690843E1690843216A08434C
:101FC000216809680843216808602046FFF7D0F9B6
:101FD00001218903A068884201D100206060207936
:101FE0008006800E616C0860A16CE06C48606068DF
:101FF00000280CD06068042809D82046FFF7D2F9E1
:102000000020216D0860616DA06D486003E0002034
:1020100020656065A0650020E06301212520015551
:1020200000BF00212420015500BF0020A9E70000C7
:10203000080002400F80FFFFF8B504460D46164623
:102040001F460020009000BF2420005D012801D120
:102050000220F8BD01212420015500BF2520005D8C
:10206000012844D10221252001550020E063206889
:10207000006840084000216808603B463246294617
:102080002046FFF7A3F9206B002806D020680068DF
:102090000E210843216808600BE0206800680421D5
:1020A000884321680860206800680A210843216885
:1020B0000860606C0068012109040840002805D010
:1020C000606C006809120843616C0860206D00288C
:1020D00006D0206D0068FF2101310843216D0860A2
:1020E00020680068012108432168086008E080201A
:1020F000E06300BF00212420015500BF01200090B3
:102100000098A6E770B5044600F018F90646254683
:10211000681C002802D0054800782D1800BF00F088
:102120000DF9801BA842FAD370BD0000C80300203F
:1021300070B503460A460021D7E001268E40146898
:102140003440002C73D01579AD07AD0F012D04D0AC
:102150001579AD07AD0F022D18D198684E000325F3
:10216000B5400646AE4330464E00D568B5402843DC
:102170009860586801258D400646AE4330461026CB
:10218000556835402D098D40284358601579AD07B5
:10219000AD0F032D0BD0D8684E000325B540064681
:1021A000AE4330464E009568B5402843D860157957
:1021B000AD07AD0F022D15D1CD08AE001D4620355F
:1021C000A8594D07EE0E0F25B5400646AE433046E2
:1021D0004E07F60E1569B5402843CD08AD001E46E2
:1021E0002036705118684E000325B5400646AE43B0
:1021F00030461579AD07AD0F4E00B5402843186045
:102200000326360455683540002D6DD03A4D8E08B2
:10221000B600A8598D07EE0E0F25B5400646AE4311
:10222000304605252D07AB4202D1002510E05BE0CA
:10223000324DAB4201D101250AE0314DAB4201D113
:10224000022505E02F4DAB4201D1032500E0052515
:102250008E07F60EB5402843274D8E08B600A851CC
:10226000254D603D28680546A543284601263605CC
:1022700055683540002D02D00546254328461E4DA1
:10228000603D286068680546A54328460126760516
:1022900055683540002D02D0054625432846164D89
:1022A000603D6860144D203568680546A5432846A2
:1022B0000126760455683540002D02D00546254399
:1022C00028460D4D2035686028680546A5432846F8
:1022D0000126360455683540002D02D005462543B9
:1022E0002846054D20352860491C1568CD40002D35
:1022F00000D022E770BD00006018024000040050CA
:1023000000080050000C0050024613690B40002BDF
:1023100001D0012000E00020704710B5426913464B
:102320000B401B040C4694432343836110BD002AD9
:1023300001D0816100E081627047000001480068BF
:1023400070470000C0030020034800680349097873
:102350004018014908607047C0030020C8030020EE
:1023600010B5002408480068FF21013108430649E0
:102370000860032000F00AF8002801D0012401E0E1
:1023800000F034F8204610BD00200240F8B50446A5
:1023900000251348007800281ED0114801787D20C0
:1023A000C000FDF766FF074639460E480068FDF796
:1023B00060FF064600F0DCFF00280BD1042C07D29A
:1023C00000222146401E00F049F80748046004E05E
:1023D000012502E0012500E001252846F8BD0000A6
:1023E000C8030020CC030020C403002008B500BFB0
:1023F00010480068012108430E490860084600683B
:10240000C007C00F009000BF00BF00BF09484038A0
:10241000C06B8905084307494039C8630846C06B4B
:1024200009040840009000BF00BF0320400200F0F4
:1024300093FF08BD401002400146002909DB00BFA0
:1024400000BFCB06DB0E01229A40034B1A6000BF8F
:1024500000BF00BF7047000000E100E070B5044617
:102460000D4616462946204603F03EFD70BD00008D
:1024700070B504461148006803214902884320438F
:102480000E4908604815844216D10D490968062294
:10249000514308460B49FDF7ECFE451C05E0002DB5
:1024A00001D06D1E01E0032070BD04484069012188
:1024B000890208408842F2D00020F5E70070004011
:1024C000CC03002040420F00FEB504460027002048
:1024D0000290012149042068084088427BD10020F5
:1024E00001907748C06BC902084000280ED100BF98
:1024F0007348C06B08437249C8630846C06B09043F
:102500000840009000BF00BF012001906D480068A6
:10251000FF21013108436B490860FFF70FFF0646B2
:1025200006E0FFF70BFF801B022801D9032706E016
:1025300064480068FF21013108400028F1D000BF45
:10254000002F4BD15E484030C569032109020D4080
:10255000002D1AD0A069A84217D059484030C06950
:102560008843054656484030C069012109040843A4
:1025700053494031C8610846C069012109048843B4
:102580004F494031C8610846C561E807C00F0028BF
:1025900013D0FFF7D3FE064607E0FFF7CFFE801B00
:1025A0004949884201D9032706E045484030C069BF
:1025B000022108400028F0D000BF002F0CD1404875
:1025C0004030C069032109028843A16908433C499E
:1025D0004031C86103E00DE0029700E002970198E6
:1025E000012806D13648C06B0121090788433449C8
:1025F000C86300BF2078C007C00F002809D030484A
:102600004030406980088000616808432C494031AF
:102610004861022120680840022809D1284840303A
:1026200040690C218843A16808432549403148612D
:1026300020212068084020280AD1214840304069E4
:10264000032109038843E16808431D49403148617B
:102650000121890320680840884213D1184840307E
:10266000406980008008616908431549403148612C
:1026700009066069884205D11148C068891308437A
:102680000F49C8600121C90220680840884215D15D
:102690000B4840304069032189038843216908437E
:1026A000074940314861012189032069884205D1E9
:1026B0000348C068890008430149C8600298FEBD0C
:1026C00000100240007000408813000070B50446FE
:1026D0000D46002C01D1012070BD6B4800684007F9
:1026E000400FA84218D268480068C008C0002843BC
:1026F00065490860FFF722FE064607E0FFF71EFE69
:10270000801B6249884201D90320E5E75E480068E2
:102710004007400FA842F1D102212068084002285A
:1027200015D1042120680840042807D15848806842
:102730000721090388434018554988605448806838
:102740000F2109028843A168084351498860207815
:10275000C007C00F002854D06068012808D14C4839
:10276000006801214904084000282ED10120B3E768
:102770006068022808D146480068012149060840DF
:10278000002822D10120A7E76068002808D140482E
:102790000068012189020840002816D101209BE72A
:1027A0006068032808D13A484030006A0221084096
:1027B00000280AD101208FE735484030C069022146
:1027C0000840002801D1012086E731488068C00810
:1027D000C000616808432E498860FFF7AFFD0646D8
:1027E00007E0FFF7ABFD801B2849884201D9032091
:1027F00072E727488068382108406168C90088422C
:10280000EFD1214800684007400FA84218D91E4860
:102810000068C008C00028431B490860FFF78EFD10
:10282000064607E0FFF78AFD801B1849884201D958
:10283000032051E7144800684007400FA842F1D137
:10284000042120680840042808D111488068072125
:1028500009038843E16808430D49886000F03AF8AD
:102860000B4989680F2212021140090A8900094A9E
:10287000515CC906C90EC84007490860074800688E
:10288000FFF784FD28E700000020024088130000C5
:1028900000100240D06F0008CC030020C4030020C9
:1028A0000148006870470000CC03002000B5FFF726
:1028B000F7FF06498968072212031140090B8900B6
:1028C000034A515CC906C90EC84000BD0010024051
:1028D00010700008FEB5354880683821084000288F
:1028E0000DD13248006809020840C10A0120884021
:1028F00000902F480099FDF7BCFC044654E02B489B
:10290000806838210840082801D12A4C4CE027482B
:10291000806838210840102834D12448C0688607D0
:10292000B60F2248C068702108400009401C019081
:10293000022E0FD0032E0CD11E480199FDF799FCF1
:102940001A49C9687F2212021140090A4843054604
:102950000DE000BF16480199FDF78BFC1349C968CB
:102960007F2212021140090A4843054600BF00BFFA
:102970000E48C068400F471C39462846FDF779FCD1
:10298000044611E00948806838210840202801D118
:10299000840209E00548806838210840182802D1DF
:1029A0007D24240200E000242046FEBD00100240E9
:1029B0000024F40040787D01FEB50446002C01D1CE
:1029C0000120FEBD2078C007C00F00286FD0F74857
:1029D000876838210F40C0688607B60F102F01D1D5
:1029E000032E01D0082F0BD1F048006801214904C3
:1029F000084000285BD06068002858D10120E0E73B
:102A000000BF012109046068884205D1E7480068D9
:102A10000843E649086021E005210904606888420E
:102A20000ED1E2480068012189040843DF490860AB
:102A300008460068012109040843DC4908600DE0EC
:102A4000DA480068012109048843D849086008462B
:102A50000068012189048843D449086000BF606888
:102A6000002812D0FFF76AFC054606E0FFF766FC77
:102A7000401B642801D90320A3E7CC48006801214A
:102A8000490408400028F1D011E0FFF757FC054643
:102A900006E0FFF753FC401B642801D9032090E7B0
:102AA000C24800680121490408400028F1D10221F0
:102AB00020680840022873D1BC488068382108404B
:102AC0000746BA48C0688607B60F102F01D1022EFC
:102AD00001D0002F36D1B548006801218902084095
:102AE000002804D0E068002801D1012069E7AF4840
:102AF00040687F2109028843616909020843AB49A4
:102B00004860002F16D1084600680721C902884393
:102B100021690843A5490860084600680722D202D7
:102B20001040C20A012090400146A148FDF7A1FBD8
:102B3000A0490860A0480068FFF728FC002849D099
:102B400001203EE7E06800282BD098480068072164
:102B5000C90288432169084394490860084600680F
:102B60008915084391490860FFF7E8FB054606E030
:102B7000FFF7E4FB401B022801D9032021E78B4823
:102B800000680121890208400028F1D08748406888
:102B90007F2109028843616909020843834948602B
:102BA00018E082480068FF21013188437F490860AE
:102BB000FFF7C4FB054606E0FFF7C0FB401B0228F9
:102BC00001D90320FDE67948006801218902084007
:102BD0000028F1D1082120680840082849D173480D
:102BE00080683821084018280BD170484030006AAE
:102BF0000221084000283CD0A069002839D10120DA
:102C0000DFE6A06900281AD068484030006A012138
:102C10000843664940310862FFF790FB054606E02D
:102C2000FFF78CFB401B022801D90320C9E65F484F
:102C30004030006A022108400028F1D019E05B48CA
:102C40004030006A40084000584940310862FFF7B0
:102C500075FB054606E0FFF771FB401B022801D912
:102C60000320AEE651484030006A022108400028A7
:102C7000F1D104212068084004287CD10020019073
:102C80004A4880683821084020280BD14748403006
:102C9000C0690221084000286ED0A06800286BD1CE
:102CA00001208EE64148C06B010F012088430028B7
:102CB00010D000BF3D48C06B0121090708433B49C4
:102CC000C8630846C06B09040840009000BF00BFFD
:102CD0000120019039480068FF2101310840002897
:102CE00016D136480068084334490860FFF726FBD0
:102CF000054606E0FFF722FB401B022801D903200E
:102D00005FE62E480068FF21013108400028F1D01D
:102D100000BFA068012808D124484030C0690121C3
:102D2000084322494031C86120E0A06805280FD13E
:102D30001E484030C069042108431C494031C86125
:102D40000846C0690121084318494031C8610DE0B7
:102D500016484030C0694108490014484030C161FC
:102D6000C0690421884311494031C86100BFA0688F
:102D7000002816D001E040E03EE0FFF7DFFA05460C
:102D800007E0FFF7DBFA401B0D49884201D9032019
:102D900017E606484030C069022108400028F0D0FC
:102DA0001EE0FFF7CBFA054614E0000000100240D9
:102DB0000024F400CC030020C40300200070004075
:102DC00088130000FFF7BAFA401B6249884201D914
:102DD0000320F6E56048C069022108400028F1D1CF
:102DE0000198012808D15C484038C06B01210907CF
:102DF000884359494039C86300BFE06900285AD068
:102E00005548403880683821084010287AD0E06959
:102E1000022851D1504840380068012109068843F2
:102E20004D4940390860FFF789FA054606E0FFF78B
:102E300085FA401B022801D90320C2E546484038E4
:102E400000680121490608400028F0D1616A206A23
:102E50000843A16A09020843E16A0843216B084359
:102E60003D494039C9683D4A114008433A49403913
:102E7000C860084600680121090608433649403900
:102E800008600846C0680904084333494039C860EF
:102E9000FFF754FA054606E0FFF750FA401B0228F8
:102EA00001D903208DE52C484038006801214906EE
:102EB00008400028F0D04AE0274840380068012147
:102EC00009068843244940390860FFF737FA054668
:102ED00006E0FFF733FA401B022801D9032070E512
:102EE0001D48403800680121490608400028F0D1FB
:102EF00019484038C0681A49084017494039C86025
:102F000025E0FFE7E069012800D15AE51248403882
:102F1000C668B107890F206A814216D170203040FF
:102F2000616A884211D17F2000023040A16A090203
:102F300088420AD11F2040043040E16A884204D10F
:102F4000710F4907206B814201D0012039E5002033
:102F500037E5000088130000401002408C80C11F3C
:102F6000FCFFFEEF70B50446002C01D1012070BDBE
:102F7000606A002808D1FF2105316068884200D1CD
:102F800005E00021E16102E0002121616161002191
:102F9000A1625D20005D002804D15C20015520461F
:102FA00000F066F802215D2001552068006840218C
:102FB00088432168086007210902E068884201D936
:102FC000002501E001252D030F210902E068884258
:102FD00006D007210902E068884201D00021A162E1
:102FE000FF2105316068084021229202A16811404A
:102FF00008430222216911400843217DC907C90FF6
:1030000008431202A169114008433822E1691140C6
:1030100008438022216A114008439201A16A1140AD
:10302000084321680860A069000C042108401022B0
:10303000616A114008430822616B114008430F2266
:103040001202E168114008430121090329400843A5
:10305000216848602068C0690121C902884321684D
:10306000C8610020206601215D20015500207EE717
:1030700010B586B00446142101A8FDF7F8F81849E8
:103080002068884229D100BF1648C06B0914084344
:103090001449C8630846C06B0121890308400090A9
:1030A00000BF00BF00BF0F48406B022108430D491D
:1030B00048630846406B02210840009000BF00BFF3
:1030C000072040030190022002900020039004900A
:1030D000059001A90448FFF72BF806B010BD0000C9
:1030E000003800400010024000040050FFB585B0D9
:1030F00004461D460E9E012001900020009000BF56
:103100005C20005D012802D1022009B0F0BD012140
:103110005C20015500BFFFF711F907465D20005DF7
:103120000290606803900495029801280DD0FF2159
:1031300005310398884205D1A068002802D1029881
:10314000042802D002200090FBE00698002804D05A
:103150000798002801D0002D02D101200090F0E056
:103160005D20005D042802D005215D20015500206E
:10317000206607982064462005534420055306988E
:10318000A063E587A5870020E06420650721090288
:10319000E068884207D92068406801210903884314
:1031A0002168486006E0206840680121090308435F
:1031B000216848602068006840210840402804D009
:1031C0002068006808432168086007210902E06858
:1031D000884254D96068002802D00498012809D197
:1031E000A06B00882168C860A06B801CA063E08F82
:1031F000401EE0873BE020688068022108400228EA
:1032000011D1E08F00280ED0019801280BD1A06BBE
:1032100000882168C860A06B801CA063E08F401EFE
:10322000E0870020019020688068C007C00F002858
:1032300012D04620005B00280ED02068C068216CA8
:103240000880206C801C20644620005B401E81B2F8
:103250004620015301200190FFF770F8C01BB042D7
:1032600005D3701C002802D00320009069E0E08F95
:103270000028C0D14620005B0028BCD155E0606822
:10328000002802D00498012809D1A06B0078216899
:103290000873A06B401CA063E08F401EE0873DE0F8
:1032A0002068806802210840022811D1E08F0028A0
:1032B0000ED0019801280BD1A06B0078216808730B
:1032C000A06B401CA063E08F401EE08700200190AF
:1032D00020688068C007C00F002812D04620005B1D
:1032E00000280ED02068007B216C0870206C401CE8
:1032F00020644620005B401E81B24620015301201D
:103300000190FFF71BF8C01BB04202D3701C0028CD
:1033100001D1002E02D10320009012E0E08F00289E
:10332000BED14620005B0028BAD13A46314620463D
:1033300001F056FC002803D00120009020202066D8
:1033400000BF01215D20015500BF00215C20015517
:1033500000BF0098D9E60000044909680322520220
:1033600091430143014A1160704700000000014091
:1033700070B504462546681E0949884201D90120D6
:103380000CE0681E074948610321081F02F0ACFDEC
:1033900000200449886107200861002070BD0000FA
:1033A000FFFFFF0000E000E070477047704700003B
:1033B00030B502460B4600BF3C20805C012801D19D
:1033C000022030BD01253C20855400BF02253D2050
:1033D00085541068416810688468184D1068A842C8
:1033E00006D10F252D050846A8430146586801431C
:1033F00070250846A84301461868014310684160DB
:103400000E4D1068A84207D00D4D1068A84203D099
:103410000C4D1068A84207D180252046A8430446D9
:10342000986804431068846001253D20855400BFDE
:1034300000253C20855400BF0020C2E7002C01403D
:10344000000400400040014010B50446002C01D1AA
:10345000012010BD3D20005D002805D100213C2049
:103460000155204600F026F802213D200155211D7E
:10347000206801F0E5FE01214820015500BF3E20F3
:1034800001553F2001554020015541200155422062
:1034900001554320015500BF00BF44200155452080
:1034A0000155462001554720015500BF3D200155DB
:1034B0000020CEE738B504460D492068884215D172
:1034C00000BF0C48C06B102108430A49C863084676
:1034D000C06B10210840009000BF00BF00221146C1
:1034E0001120FEF7BBFF1120FEF7A6FF38BD00003C
:1034F000001000400010024001463D20405C0128C1
:1035000001D00120704702233D2043540868C06861
:10351000012318430B68D860114B0868984207D004
:10352000104B0868984203D00F4B086898420FD19F
:10353000086882680D4B1A40062A0FD0D81F8242B5
:103540000CD008680068012318430B68186005E078
:1035500008680068012318430B6818600020D1E751
:10356000002C014000040040004001400700010021
:103570007047000010B50446206800690221084029
:10358000400800281CD02068C06808404008002877
:1035900016D0481F216808610120207720688069C3
:1035A0008007800F002803D02046FFF7E1FF05E0E9
:1035B000204600F0DBF8204600F0D9F80020207704
:1035C0002068006904210840800800281DD0206878
:1035D000C06808408008002817D0C84321680861E7
:1035E0000220207720688069032109020840002812
:1035F00003D02046FFF7BCFF05E0204600F0B6F8F8
:10360000204600F0B4F800202077206800690821E7
:103610000840C00800281CD02068C0680840C008C6
:10362000002816D0C843216808610420207720684C
:10363000C0698007800F002803D02046FFF798FF5D
:1036400005E0204600F092F8204600F090F80020B7
:1036500020772068006910210840000900281DD04B
:103660002068C06808400009002817D0C8432168B6
:103670000861082020772068C069032109020840FA
:10368000002803D02046FFF773FF05E0204600F036
:103690006DF8204600F06BF8002020772068006964
:1036A000C007C00F01214840484000280CD02068C6
:1036B000C068084048404840002805D0C81E21681E
:1036C0000861204600F054F8206800698021084015
:1036D000C00900280BD02068C0680840C009002835
:1036E00005D0C843216808612046FFF75EFE2068C8
:1036F0000069FF2101310840000A00280CD0206831
:10370000C06880210840C009002805D016482168FB
:1037100008612046FFF748FE206800694021084004
:10372000800900280BD02068C06808408009002864
:1037300005D0C84321680861204600F03DF82068A4
:10374000006920210840400900280BD02068C0688B
:1037500008404009002805D0C84321680861204678
:10376000FFF724FE10BD0000FFFEFFFF704770470B
:1037700010B504460C48844214D10C4800880C490A
:103780000988884207D1012149030A48FEF7C5FD8F
:10379000002006490880FDF7DBFD04480088401C36
:1037A0000249088010BD0000401E0020A603002032
:1037B000B0030020000800507047014600BF84207D
:1037C000405C012801D1022070470123842043542A
:1037D00000BF2423882043500868026808680068F6
:1037E000400840000B68186001235B0710469843AF
:1037F0000246002048660868026020238820435063
:1038000000BF00238420435400BF0020DCE7704742
:1038100070B504460D4600BF8420005D012801D12B
:10382000022070BD01218420015500BF2421882081
:10383000015120680668206800684008400021683F
:10384000086020688068072149068843284321686A
:103850008860204601F00CFF206806602021882047
:10386000015100BF00218420015500BF0020D8E78E
:1038700070B504460D4600BF8420005D012801D1CB
:10388000022070BD01218420015500BF2421882021
:1038900001512068066820680068400840002168DF
:1038A000086020688068C000C008284321688860DC
:1038B000204601F0DDFE20680660202188200151AD
:1038C00000BF00218420015500BF0020D9E77047C8
:1038D00010B50446002C01D1012010BDA0690028BC
:1038E00000D000E000BF88200059002805D1002149
:1038F00084200155204600F02DF824218820015114
:10390000206800684008400021680860204602F0F6
:10391000ABF8012800D1E0E7A06A002802D02046D9
:1039200001F0DAFE206840680921C9028843216855
:103930004860206880682A21884321688860206860
:1039400000680121084321680860204601F03CFF1F
:10395000C3E7000010B58EB00446142109A8FCF797
:1039600086FC1C2102A8FCF782FCB349206888422F
:1039700058D1012002900020039002A8FEF7A4FD78
:10398000002801D0FDF748FD00BFAC4800680121C8
:1039900089030843A9490860084600680121890392
:1039A0000840019000BF00BF00BFA4484038406BF2
:1039B00001210843A149403948630846406BC007CC
:1039C000C00F019000BF00BF0320400209900220F9
:1039D0000A9000200B900C9001200D9009A9052061
:1039E0000007FEF7A5FB964896490860322048601C
:1039F000002194488160C160802101610021416102
:103A000081612021C16100210162FEF7B5FA002821
:103A100001D0FDF701FD00BF8A4980200151084611
:103A2000846206E18849206888425AD102200290C7
:103A30000020049002A8FEF747FD002801D0FDF702
:103A4000EBFC00BF7D484038C06B012149040843AE
:103A50007A494039C8630846C06B012149040840CF
:103A6000019000BF00BF00BF74484038406B012187
:103A700008437249403948630846406BC007C00F8D
:103A8000019000BF00BF0C20099002200A90002086
:103A90000B900C9001200D9009A905200007FEF75E
:103AA00047FB6748143869490860342048600021A2
:103AB00066488160C16080210161002141618161AE
:103AC0002021C16100210162FEF756FA002801D0D1
:103AD000FDF7A2FC00BF5D498020015108468462C9
:103AE000A7E05B49206888424FD100BF5348403867
:103AF000C06B01218904084350494039C863084616
:103B0000C06B012189040840019000BF00BF00BFC5
:103B10004A484038406B02210843484940394863CD
:103B20000846406B02210840019000BF00BF0320FF
:103B30000002099002200A9000200B900C900420B3
:103B40000D9009A94348FEF7F3FA3D481430424965
:103B500008603620486000213F488160C1608021B4
:103B600001610021416181612021C1610021016267
:103B7000FEF702FA002801D0FDF74EFC00BF3649DF
:103B8000802001510846846253E03449206888420D
:103B90004FD100BF29484038C06B0121C9040843F8
:103BA00026494039C8630846C06B0121C904084052
:103BB000019000BF00BF00BF20484038406B01218A
:103BC00008431E49403948630846406BC007C00F90
:103BD000019000BF00BF0320099002200A9000203E
:103BE0000B900C9004200D9009A905200007FEF70A
:103BF0009FFA134828381A49086038204860002185
:103C000017488160C16080210161002141618161AB
:103C10002021C16100210162FEF7AEF9002801D028
:103C2000FDF7FAFB00BF0E4980200151084684626F
:103C300000BF0EB010BD000000380140401002402F
:103C400030000240DC2000200044004038210020E9
:103C5000004800400004005094210020004C004027
:103C6000F0210020F8B504460D4616468C20005978
:103C7000202834D1002D01D0002E01D10120F8BD23
:103C800001210903A068884208D12069002805D1D4
:103C9000E807C00F002801D00120F0E70020E0660F
:103CA000206840680121C9050840002811D000BFE4
:103CB00002F056F90746012002F0C4F920680068B6
:103CC00001218906084321680860384602F0BAF9E4
:103CD00000BF32462946204601F0DEFFCFE7022032
:103CE000CDE770477047FFB583B004460D461746D1
:103CF00088200059202867D1002D01D0002F02D143
:103D0000012007B0F0BD01210903A068884208D155
:103D10002069002805D1E807C00F002801D0012044
:103D2000EFE7002190200151212188200151FEF769
:103D300005FB019054200753562007530121090326
:103D4000A068884205D12069002802D1002602958A
:103D500002E02E460020029021E00698009000220A
:103D600080212046019B02F00BF8002801D003209F
:103D7000C7E7002E09D102980088C005C00D216850
:103D800088620298801C029003E030782168886283
:103D9000761C5620005B401E81B2562001535620EF
:103DA000005B0028D9D106980090002240212046CF
:103DB000019B01F0E5FF002801D00320A1E72021AD
:103DC0008820015100209CE702209AE700BFFEE70F
:103DD0000A480078012807D109480088002803D143
:103DE00050200749088008E005480088002804D0D2
:103DF00003480088401E02490880704700030020E5
:103E0000060300200A480078012807D109480088E5
:103E1000002803D150200749088008E005480088A1
:103E2000002804D003480088401E024908807047DB
:103E300001030020080300200A480078012807D168
:103E400009480088002803D150200749088008E06D
:103E500005480088002804D003480088401E024915
:103E600008807047020300200A030020014608680A
:103E7000072292051040704701468868C007C00FAE
:103E800001225040504070470146886801221207C5
:103E90001040000F704701468868042210408008D7
:103EA0007047026807239B059A430A4302607047E4
:103EB00030B5436904240D4625400724AC40A34394
:103EC00004240C401546A5402B43436130BD00003F
:103ED00010B50B2208490948FCF76AF90B2206497C
:103EE0000B390748FCF764F90B22034916390548DA
:103EF000FCF75EF910BD0000E61C0020FC1C002051
:103F0000F11C0020071D002010B5FFF7E1FF02F0B3
:103F1000DBFD02F0AFFE02F04DFE10BD10B5012238
:103F2000D10205200007FEF702FAFF20F530FEF768
:103F3000E9F821210A48FCF798F90A48008882B27A
:103F400007490948FFF78EFEFF20F530FEF7DAF843
:103F500000220121C90205200007FEF7E8F910BD83
:103F6000D01C0020980200208C1E00200EB50020DE
:103F70000090019002901B481B49086000054860B2
:103F8000002119488160C160016104214161002163
:103F90000176417681760121C1610021001D017702
:103FA000001F416281622430017224380163416341
:103FB0008163243001762438C164FDF733FE002884
:103FC00001D0FDF729FA09480090002001900290E5
:103FD00069460548FDF774FC002801D0FDF71CFA7E
:103FE0000EBD0000002401401C1D00202000001414
:103FF00008B500BF0648806B012108430449886367
:104000000846806BC007C00F009000BF00BF08BD0E
:104010000010024000B587B0142102A8FCF727F970
:1040200000BF5248406B042108435049486308468A
:10403000406B04210840019000BF00BF00BF4B4807
:10404000406B20210843494948630846406B2021C2
:104050000840019000BF00BF00BF4448406B0121F1
:104060000843424948630846406BC007C00F0190AF
:1040700000BF00BF00BF0846406B022108433B4918
:1040800048630846406B02210840019000BF00BF12
:1040900000BF3648406B082108433449486308464E
:1040A000406B08210840019000BF00BF002203219F
:1040B00049032F48FEF73BF90022FF21113105206B
:1040C0000007FEF734F90122D10205200007FEF7B0
:1040D0002EF9002280212748FEF729F9032040030A
:1040E00002900120039000200490059002A920482E
:1040F000FEF71EF81020029001200390002004908B
:104100000320059002A905200007FEF711F80320FF
:10411000C002029000200390049002A91548FEF707
:1041200007F809200002029001200390002004906B
:10413000059002A905200007FDF7FAFF0120029073
:1041400000200390049002A90B48FDF7F1FF8020A6
:10415000029001200390002004900320059002A902
:104160000448FDF7E5FF07B000BD00000010024065
:104170000008005000040050000C005010B5124818
:1041800012490860FF200530486000210F48816017
:1041900007210902C1600021016141610121490239
:1041A00081611821C16100210162416281620721A0
:1041B000C1620021016308214163FEF7D3FE00289C
:1041C00001D0FDF729F910BD00380040DC1D0020AA
:1041D0000EB500200090019002900F480F49086032
:1041E0003F20486000210D4881606321C1600021AB
:1041F0008161FFF729F9002801D0FDF70DF90020B2
:104200000090029069460548FFF7D2F8002801D0D7
:10421000FDF702F90EBD000000100040401E002016
:1042200010B51A481A490860E120000348600021CF
:1042300017488160C16001610C21416100218161E9
:10424000C161016241620020114988620846FFF79E
:104250003FFB002801D0FDF7DFF800210C48FFF7F5
:1042600007FB002801D0FDF7D7F800210848FFF729
:10427000CFFA002801D0FDF7CFF80548FFF79DFAE7
:10428000002801D0FDF7C8F810BD0000003801403B
:104290008C1E002010B5194819490860194848605B
:1042A000002117488160C16001610C21416100213A
:1042B0008161C16101624162002011498862084642
:1042C000FFF706FB002801D0FDF7A6F800210C48F7
:1042D000FFF7CEFA002801D0FDF79EF8002108482C
:1042E000FFF796FA002801D0FDF796F80448FFF78B
:1042F00064FA002801D0FDF78FF810BD004400409B
:10430000201F002080841E0010B50E480E49086052
:104310000E48486000210C488160C16001610C2199
:10432000416100218161C161016241620020064951
:1043300088620846FFF7CCFA002801D0FDF76CF838
:1043400010BD000000480040B41F002080841E0003
:1043500010B50E480E4908604B20C001486000218E
:104360000B488160C16001610C21416100218161C4
:10437000C161016241620020054988620846FFF779
:10438000A7FA002801D0FDF747F810BD004C004007
:104390004820002070B51348FCF77AFF002820D091
:1043A00010480088104988420AD10E494888FCF715
:1043B0000AFC044600220D4BFCF7B8F90C4A03C274
:1043C000084800880849491C88420AD1054948889C
:1043D000FCF7F9FB04460022044BFCF7A7F9054A59
:1043E00003C270BD5E03002001A000000000594020
:1043F000800300207003002070B51348FCF748FFCD
:10440000002820D010480088104988420AD10E495F
:104410004888FCF7D8FB044600220D4BFCF786F9D0
:104420000C4A03C2084800880849491C88420AD13E
:1044300005494888FCF7C7FB04460022044BFCF7FB
:1044400075F9054A03C270BD6A03002001A000008F
:1044500000005940880300207803002010B5002494
:10446000094800880949488007480088401C0649D7
:1044700008800221054802F0B9F904498880062124
:104480000248FCF787FE10BD960300205803002069
:1044900010B50A4800880A49488008480088401C2E
:1044A000064908800221064802F0A0F904498880E4
:1044B00006210348FCF786FE10BD0000980300208B
:1044C000640300207CB504460D4609A103C901918F
:1044D00000906846C47005716019B330C1B2684677
:1044E00041716423062269460348FFF7FCFB7CBD4B
:1044F000AA07020000000000482000201CB5044666
:1045000008A103C9019100906846C4702046BE30DE
:10451000C1B2684601716423052269460348FFF76A
:10452000E2FB1CBDAA13010000000000482000208F
:1045300000B50848007800280AD007480088401EC7
:104540000549088008460088002801DC00F006F8CC
:1045500000BD0000F4020020F2020020002001490A
:1045600008707047F4020020FF20F53002490880EF
:104570000120024908707047F2020020F402002076
:10458000002002490870024908707047E8020020C4
:10459000EB020020012002490870024908707047B0
:1045A000E8020020EB0200200020024908700249C6
:1045B00008707047E9020020EC0200200120024947
:1045C0000870024908707047E9020020EC020020E0
:1045D000002002490870024908707047EA02002072
:1045E000ED0200200120024908700249087070475E
:1045F000EA020020ED02002010B51E20FFF77EFF2A
:1046000001210020FFF75EFF10BD000070B5524889
:104610000078002811D051480078002804D00221E9
:104620000020FFF74FFF03E003210020FFF74AFFC0
:1046300000204949087000F0C9FA4948007800286C
:1046400011D048480078002804D004210020FFF74A
:1046500039FF03E005210020FFF734FF0020404927
:10466000087000F0B3FA40480078002811D03F48A5
:104670000078002804D006210020FFF723FF03E084
:1046800007210020FFF71EFF00203749087000F0C7
:104690009DFA3748007800280BD000F047FA05460D
:1046A00000F0F0FE044621460020FFF70BFF00F06B
:1046B00087F83048007800280BD000F037FA05461C
:1046C00000F0E0FE044621460020FFF7FBFE00F06C
:1046D0006BF82948007800280BD000F027FA05462F
:1046E00000F0D0FE044621460020FFF7EBFE00F06C
:1046F00073F822480078002818D021480078002854
:1047000014D020480088002810DC00F00FFA1E4961
:1047100008700846007800F0B5FE1C49087008468D
:1047200001780020FFF7CEFE00F032F800F024FA06
:10473000002805D00E210020FFF7C4FE00F022FA69
:1047400000F026FA002805D00F210020FFF7BAFE5E
:1047500000F024FA70BD0000EB020020E802002007
:10476000EC020020E9020020ED020020EA02002015
:10477000EE020020EF020020F0020020F1020020F3
:10478000F4020020F2020020F5020020F6020020D0
:104790000020014908707047F10200200120014902
:1047A00008707047F102002000200149087070472E
:1047B000EF0200200120014908707047EF0200203D
:1047C0000020014908707047EE02002001200149D5
:1047D00008707047EE020020002001490870704701
:1047E000F0020020F0B589B004460D460022114BBE
:1047F00020462946FBF777FF06460F4A0F4BFCF78A
:10480000E5F90191009002F021F800220C4B039190
:104810000290FBF75BFF02460B46059104900020D7
:104820000749FBF783FF079106900799069809B09F
:10483000F0BD000000005940B81E85EB51B8AEBF76
:104840000000F03FF0B589B004460D460022114B40
:1048500020462946FBF747FF06460F4A0F4BFCF759
:10486000B5F90191009001F0F1FF00220C4B03918A
:104870000290FBF72BFF02460B46059104900020A7
:104880000749FBF753FF079106900799069809B06F
:10489000F0BD000000005940B81E85EB51B8AEBF16
:1048A0000000F03F0148007870470000000200203F
:1048B00010B5002000F0F8F8094908700978491C83
:1048C0004800FCF778F9074A03C205490978491CF2
:1048D0004900881EFCF76FF9034A03C210BD0000AF
:1048E00000020020900100209801002000200F49C4
:1048F0000978002901D1042016E00C490978012922
:1049000001D1032010E009490978022901D10220D0
:104910000AE006490978032901D1012004E003498E
:104920000978042900D100207047000029020020E6
:1049300010B5012000F0B8F8064908700978491C44
:104940000A22514308461430FCF735F9024A03C2E3
:1049500010BD00002902002030020020014800782C
:10496000704700005802002010B5022000F09CF8AB
:10497000044908700978491C4800FCF71CF9024AF0
:1049800003C210BD580200205002002010B5344868
:104990000078002862D033480078012804D002282B
:1049A0001BD003284BD131E000202F4908702F493C
:1049B000087001202E49087000F0A8FBFFF7EEFEFA
:1049C000FFF7D2FD00F0A8FB00F0ACFBFFF7E2FD23
:1049D000FFF7EAFDFFF7FCFD32E0002024490870F4
:1049E0002249087001202049087000F095FBFFF76C
:1049F000D5FEFFF7B9FD00F089FB00F093FBFFF750
:104A0000F1FDFFF7BDFDFFF7CFFD19E000201849CC
:104A100008701549087001201449087000F082FBE5
:104A2000FFF7BCFEFFF7A0FD00F070FB00F074FB89
:104A3000FFF7C4FDFFF7A4FDFFF7CAFD00E000BFCC
:104A400000BF00F0B1F807480078401C0549087025
:104A500008460078032801DD0120087010BD000021
:104A6000F8020020FE020020FC020020FD020020CF
:104A7000FB02002010B500F043F8002400BF05E061
:104A80000748005D07490855601C84B2032CF7DB1A
:104A9000FFF70EFFFFF74CFFFFF766FF10BD0000AA
:104AA0000F0100200C0100200146002904D001293B
:104AB00005D0022909D105E005480078704704486F
:104AC0004078FBE702488078F8E70020F6E700002E
:104AD0000C010020002804D0012805D0022809D1AB
:104AE00005E0064A117006E0044A517003E0034AEB
:104AF000917000E000BF00BF704700000C01002073
:104B000010B503220249002000F0DAF810BD0000C1
:104B10000F01002010B5002000F04CF903220249DB
:104B2000002000F09EF810BD0C01002010B5FCF72D
:104B300091FD0E490870FCF78DFD002804D0012876
:104B400007D002280FD109E0FFF7ACFE044620464B
:104B500010BDFFF7CBFE04462046F9E7FFF7FEFE47
:104B600004462046F4E7FF20F2E70000F7020020A9
:104B700000BFFEE770470000014800787047000062
:104B8000080100200020014908707047080100203A
:104B90000148007870470000090100200020014909
:104BA0000870704709010020002001490870704713
:104BB000F80200200020014908707047F902002027
:104BC0000020014908707047FA020020034800786D
:104BD000002802D00020014908707047000300201F
:104BE000F8B504460E461546334600220321C90295
:104BF0002046009500F042F9002805D0206E2021C3
:104C0000084320660320F8BD334600228021204659
:104C1000009500F0B1F9002805D0206E202108434E
:104C200020660320EFE73346002203214902204695
:104C3000009500F023F9002805D0206E20210843BC
:104C400020660320DFE70020DDE710B50122110216
:104C500005200007FDF76BFBFCF722FE00F062F871
:104C600010BD70B504460D46164600F0F5F800225A
:104C7000FF21013105200007FDF759FB022000F05C
:104C8000BDF82102080E00F0B9F82104080E00F06A
:104C9000B5F8E0B200F0B2F803E0287800F0AEF822
:104CA0006D1C3046711E8EB20028F6D10122110211
:104CB00005200007FDF73BFB00F0B2F870BD0000D7
:104CC00070B504460D4616460320154908700022AB
:104CD000FF21013105200007FDF729FB032000F02B
:104CE0008DF82102080E00F089F82104080E00F06A
:104CF00085F8E0B200F082F804E0FF2000F07EF8D2
:104D000028706D1C3046711E8EB20028F5D101222C
:104D1000110205200007FDF70AFBFCF7C1FD70BD7D
:104D20001003002010B50022FF21013105200007EB
:104D3000FDF7FDFA9F2000F061F8FF2000F05EF81B
:104D40000A490870FF2000F059F808494870FF2010
:104D500000F054F80549887001221102052000076F
:104D6000FDF7E5FAFCF79CFD10BD000015030020DF
:104D700008B50EA0006800900022FF210131052037
:104D80000007FDF7D4FA052000F038F8FF2000F006
:104D900035F8074908700122110205200007FDF7C8
:104DA000C6FAFCF77DFD0248007808BDFF00000050
:104DB0001403002010B5044600F04EF800F030F85F
:104DC0000022FF21013105200007FDF7B0FA202065
:104DD00000F014F82102080E00F010F82104080E6B
:104DE00000F00CF8E0B200F009F8012211020520F1
:104DF0000007FDF79CFA00F013F810BD01B582B072
:104E0000002101916420012301AA02A90090034816
:104E1000FEF76CF9684600790EBD0000DC1D00202D
:104E200010B500240022FF21013105200007FDF705
:104E30007EFA0520FFF7E2FF00BFFF20FFF7DEFF4D
:104E40000446E007C00F0028F7D101221102052017
:104E50000007FDF76CFA10BD10B50022FF210131EB
:104E600005200007FDF763FA0620FFF7C7FF0122C0
:104E7000110205200007FDF75AFA10BDF0B585B004
:104E800004460D4616461F4600200090FDF756FAD0
:104E90000A99401A381A0390FDF750FA02902068D8
:104EA0000C3001903348006823214843000D0399DA
:104EB0004843049056E003204002854206D1002E6C
:104EC00004D101980178009168460078781C002888
:104ED00048D0FDF733FA0299411A0398814202D271
:104EE0000398002837D120684068E0218843216872
:104EF0004860FF210531606888420ED10121C90355
:104F0000A068884203D04911A068884205D1206872
:104F10000068402188432168086001214903A06A94
:104F200088420DD100BF206800688843216808606E
:104F3000206800680121490308432168086000BF18
:104F400001215D20015500BF00215C20015500BFFB
:104F5000032005B0F0BD0498002800D10390049808
:104F6000401E0490206880682840B042A3D10020F1
:104F7000EFE70000CC030020FFB583B004460D46E8
:104F80001E46FDF7DBF90C99401A371AFDF7D6F9E2
:104F900001902F4800684001000D7843029049E0DD
:104FA000701C002846D0FDF7C9F90199401AB84293
:104FB00001D2002F37D120684068E0218843216862
:104FC0004860FF210531606888420ED10121C90384
:104FD000A068884203D04911A068884205D12068A2
:104FE0000068402188432168086001214903A06AC4
:104FF00088420DD100BF206800688843216808609E
:10500000206800680121490308432168086000BF47
:1050100001215D20015500BF00215C20015500BF2A
:10502000032007B0F0BD0298002800D100270298A5
:10503000401E0290206880682840A84201D10121CA
:1050400000E0002105988142AAD10020E9E7000094
:10505000CC03002070470000012001490870704710
:10506000F80200200120014908707047F902002071
:105070000120014908707047FA02002010B501F0C4
:10508000D9FE01F0EFFE01F005FF10BD10B50D488F
:105090000078401E0B49087008460078FF2801D1AF
:1050A0000020087007490978491C4800FBF783FD78
:1050B000054A03C2034801780220FFF70BFDFFF702
:1050C00029FD10BD580200205002002010B50D48E7
:1050D0000078401C0B49087008460078042801DB62
:1050E0000420087007490978491C4800FBF763FD54
:1050F000054A03C2034801780220FFF7EBFCFFF7E3
:1051000009FD10BD58020020500200200020014976
:10511000088070473801002000200149087070475E
:1051200028020020002001490870704790020020EA
:1051300010B5FDF709F910BD00B591B0342104A8F0
:10514000FBF795F800200090019002900390012059
:105150004002FDF78DF90120049000040590022023
:105160000B9003210C9140210D910E9101040F91A0
:105170008107109104A8FDF71FFC002801D0FCF75F
:105180004BF907200090022001900020029003902C
:1051900002216846FDF79AFA002801D0FCF73CF995
:1051A00011B000BD704700007CB505460E461C4896
:1051B0000CC828463146FBF789FA194A03C2194838
:1051C00003C8174B019100900CCBFBF797FA144AD8
:1051D00003C2002400BF0CE0601CC0001149081885
:1051E00001684068E2000F4B9A1811605060601C23
:1051F00084B2FF202C308442EEDB0A4809210902E8
:1052000041188D65092109024018C6650022064B28
:10521000034903C9FBF78AFA044A03C27CBD0000B4
:10522000180100207013002000C0724020010020EF
:1052300010B50248FEF79EF910BD0000401E002088
:1052400010B50268204B984202D0204B984205D1FD
:1052500070241346A3431A464B681A431A4B9842CC
:105260000ED01A4B98420BD0194B984208D0194BCC
:10527000984205D0184B984202D0184B984206D15C
:10528000032424021346A3431A46CB681A438024FE
:105290001346A3434C6923431A4602608B68C362DA
:1052A0000B688362084B984208D00A4B984205D09D
:1052B000094B984202D0094B984201D10B69036314
:1052C0000123436110BD0000002C01400004004098
:1052D00000200040004001400044014000480140DF
:1052E00000200149087070471B030020084800682F
:1052F000401C07490860084600680649096888425A
:1053000005D3012004490870002001490860704756
:10531000480300202C0300201B030020002001492B
:10532000087070471903002008480068401C0749AE
:1053300008600846006806490968884205D30120CC
:1053400004490870002001490860704740030020AC
:105350002403002019030020002001490870704731
:105360001C03002008480068401C074908600846E4
:10537000006806490968884205D30120044908707D
:1053800000200149086070474C03002030030020D2
:105390001C03002000200149087070471A030020F8
:1053A00008480068401C074908600846006806492C
:1053B0000968884205D3012004490870002001498A
:1053C0000860704744030020280300201A030020CF
:1053D0000020014908707047180300200848006841
:1053E000401C074908600846006806490968884269
:1053F00005D3012004490870002001490860704766
:105400003C03002020030020180300200020014955
:10541000087070471E03002008480068401C0749B8
:1054200008600846006806490968884205D30120DB
:1054300004490870002001490860704754030020A7
:10544000380300201E030020002001490870704727
:105450001D03002008480068401C074908600846F2
:10546000006806490968884205D30120044908708C
:1054700000200149086070475003002034030020D9
:105480001D03002000B501460B0000F009FD0504D6
:1054900006080A0C0E00082000BD0920FCE70A20BF
:1054A000FAE70B20F8E70C20F6E70020F4E700000D
:1054B00010B51A48007800282FD019480078012824
:1054C00009D118480078002805D11748007800282D
:1054D00001D100F069F812480078002809D111487C
:1054E0000078012805D110480078002801D1FBF789
:1054F0002DFE0B480078002809D10A4800780028C2
:1055000005D109480078012801D1FFF7BFFDFFF759
:1055100051F9FFF755FBFFF7FDFA10BDFA02002025
:10552000FB020020FC020020FD02002010B51A48FA
:10553000007800282FD019480078012809D1184890
:105540000078002805D117480078002801D100F024
:105550005DF812480078002809D111480078012828
:1055600005D110480078002801D1FBF7CBFD0B488E
:105570000078002809D10A480078002805D1094898
:105580000078012801D1FFF7A1FDFFF71FF9FFF710
:1055900011FBFFF7BFFA10BDF9020020FB0200204B
:1055A000FC020020FD02002010B515480078401EC6
:1055B0001349087008460078FF2802D100200870BF
:1055C00004E00F4801780020FFF784FA0C490978BD
:1055D000491C4800FBF7EFFA0A4A03C20849097858
:1055E000491C4900881EFBF7E6FA074A03C2044833
:1055F00001780020FFF76EFAFFF78CFA10BD00006B
:1056000000020020900100209801002010B51548EC
:105610000078401C1349087008460078042802DD11
:105620000420087004E00F4801780020FFF752FAC8
:105630000C490978491C4800FBF7BDFA0A4A03C225
:1056400008490978491C4900881EFBF7B4FA074A43
:1056500003C2044801780020FFF73CFAFFF75AFA2A
:1056600010BD0000000200209001002098010020E1
:10567000F8B50446606E002805D101216A20015367
:105680006820015322E008270822009220688068E1
:10569000072149060840450E20688068460F0C4ADD
:1056A000915D0C4A935D009A53431846FAF7EBFD5F
:1056B00081B26A200153064A515D064A525D7A431F
:1056C0001046FAF7E0FD81B268200153F8BD0000F2
:1056D000BF6F0008B76F0008018DC907C90F002907
:1056E00008D001684968012252049143C26A1143FB
:1056F000026851600222816A1140022907D10168C3
:105700004968D2039143026B11430268516004223D
:10571000816A1140042907D1016849681204914344
:10572000426B1143026851600822816A11400829C6
:1057300007D10168496812039143826B11430268E3
:1057400051601022816A1140102907D101688968CF
:1057500012029143C26B1143026891602022816A58
:105760001140202907D10168896812029143026C17
:105770001143026891604022816A1140402915D18D
:105780000168496892039143426C11430268516079
:1057900001221205416C914208D101684968032237
:1057A00052059143826C1143026851608022816AE4
:1057B0001140802907D10168496812039143C26CE6
:1057C000114302685160704738B5044600219020AB
:1057D0000151FCF7B3FD0546206800680821084028
:1057E00008280BD116482B46002289040090204639
:1057F00000F0C6FA002801D0032038BD20680068F8
:105800000421084004280BD10D482B46002209052D
:105810000090204600F0B4FA002801D00320ECE705
:105820002021882001518C2001510020E066206752
:1058300000BF00218420015500BF0020DDE70000EB
:10584000FFFFFF01F8B50546AC6A882006598C2099
:1058500007592068806880210840802807D1212EC0
:1058600005D1002156200153204600F0D3F82068CE
:10587000806840210840402807D1222F05D100210F
:105880005E200153204600F083F89020005910213B
:105890000843902108512046FEF719F8F8BD70B56D
:1058A0000546AC6A286800682021084000284DD1D0
:1058B00000215E20015300BF00F052FB064601208C
:1058C00000F0C0FB20680068FF2101318843216897
:1058D0000860304600F0B6FB00BF00BF00F040FBA0
:1058E0000646012000F0AEFB2068806840084000BA
:1058F00021688860304600F0A5FB00BF00BF00F0C3
:105900002FFB0646012000F09DFB206880684021A7
:10591000884321688860304600F094FB00BF202156
:105920008C200151E06E012810D100BF00F018FB5F
:105930000646012000F086FB20680068102188439D
:1059400021680860304600F07DFB00BF0020206722
:10595000E06E012805D15C20015B2046FDF757FF72
:1059600002E02046FEF7BDF970BD70B50546AC6A91
:1059700001202067E06E012806D15C20005B410811
:105980002046FDF744FF02E02046FEF7ABF970BD6C
:1059900070B5044600BF00F0E3FA0546012000F0B0
:1059A00051FB20680068FF2121318843216808608D
:1059B000284600F047FB00BF00BF00F0D1FA0546C3
:1059C000012000F03FFB20688068114908402168F1
:1059D0008860284600F036FB00BFE06E012810D139
:1059E00000BF00F0BDFA0546012000F02BFB206847
:1059F00000681021884321680860284600F022FBD7
:105A000000BF20218C2001510020E066606770BD3E
:105A1000FEFFFFEF70B5044600BF00F0A1FA054697
:105A2000012000F00FFB20680068C0218843216836
:105A30000860284600F006FB00BF00BF00F090FAA7
:105A40000546012000F0FEFA206880680121C905A2
:105A5000884321688860284600F0F4FA00BF2021BE
:105A60008820015170BD0000F0B585B004460020CB
:105A700001902169A068084361690843E16908430E
:105A80000390206800687A49084003990843216818
:105A9000086020684068032109038843E1680843DF
:105AA00021684860A0690390206A03990843039025
:105AB000206880686F49084003990843216888601E
:105AC0002068C06A00090001616A08432168C86251
:105AD00000BF69492068884217D16848406980073B
:105AE000800F002806D0012808D0022804D00328FF
:105AF00008D105E0002507E0022505E0042503E0C4
:105B0000082501E0102500BF28E05D492068884293
:105B100017D15A4840690C210840002806D00428B3
:105B200008D0082804D00C2808D105E0002507E09B
:105B3000022505E0042503E0082501E0102500BF4B
:105B40000CE050492068884201D1002506E04E490A
:105B50002068884201D1002500E0102500BF012106
:105B6000C903E069884241D1002D06D0022D08D03A
:105B7000042D08D0082D0DD109E0FCF797FE06464C
:105B80000CE0424E0AE0FCF7A5FE064606E00126C0
:105B9000F60303E000260120019000BF00BF002EA5
:105BA0005BD0606A40003A4A115A3046FAF761FB0E
:105BB000400061684908401800906168FAF759FB95
:105BC0000746102F0FD3334887420CD831480F387F
:105BD000384002903807400F02990843029002981B
:105BE0002168C86039E00120019036E0002D06D020
:105BF000022D08D0042D08D0082D0DD109E0FCF7A6
:105C000055FE06460CE0214E0AE0FCF763FE064610
:105C100006E00126F60303E000260120019000BF04
:105C200000BF002E19D0606A4000194A115A304650
:105C3000FAF71FFB61684908401800906168FAF79D
:105C400018FB0746102F06D31248874203D8B8B274
:105C50002168C86001E00120019001216A20015300
:105C60006820015300206067A067019805B0F0BD6F
:105C7000F369FFCFFFF4FF110038014040100240EC
:105C80000044004000480040004C00400024F40064
:105C9000986F0008FFFF0000F8B504460E46154651
:105CA000A6655C20055300219020015122218C2003
:105CB000015180200059002822D02E49802000590F
:105CC000C1622D498020005901632C498020005970
:105CD00041630021802000598163236819462431E3
:105CE000802318592B46A26DFCF7A6F9002807D08F
:105CF00010219020015120218C2001510120F8BD5C
:105D00002069002811D000BF00F02AF907460120C1
:105D100000F098F920680068FF21013108432168EC
:105D20000860384600F08EF900BF00BF00F018F997
:105D30000746012000F086F92068806801210843A9
:105D400021688860384600F07DF900BF00BF00F090
:105D500007F90746012000F075F9206880684021A6
:105D6000084321688860384600F06CF900BF0020C5
:105D7000C5E700009F5800086B5900084558000807
:105D8000FFB581B004460D4617460A9E7BE0701CA5
:105D9000002878D0FCF7D2FA0499401AB04201D812
:105DA000002E2FD100BF00F0DBF80090012000F0A2
:105DB00049F920680068FF21A13188432168086003
:105DC000009800F03FF900BF00BF00F0C9F8009054
:105DD000012000F037F92068806840084000216801
:105DE0008860009800F02EF900BF20218820015122
:105DF0008C20015100BF00218420015500BF0320E9
:105E000005B0F0BD206800680421084000283AD0A1
:105E10002068C06949020840C00A002833D00846FB
:105E20002168086200BF00F09BF80090012000F09C
:105E300009F920680068FF21A131884321680860C2
:105E4000009800F0FFF800BF00BF00F089F8009054
:105E5000012000F0F7F820688068400840002168C1
:105E60008860009800F0EEF800BF202188200151E2
:105E70008C2001519020015100BF00218420015548
:105E800000BF0320BCE72068C0692840A84201D1B8
:105E9000012000E00020B84200D178E70020AFE701
:105EA00030B47446641E2578641CAB4204D3635D31
:105EB0005B00E31830BC18471D46F8E74900CA02EA
:105EC0000243100000D004204A0D01D001221043EB
:105ED000044A490D914201D102210843012800D111
:105EE00005207047FF07000010B5002819DB1A4A8B
:105EF00003231B02D21883089B00D2588307DC0EB1
:105F0000FF23A3409A438B071B0E8407E40EA34094
:105F10001A43114B032424021B198408A4001A51AC
:105F200018E00E4A03071B0F083B9B089B00D25842
:105F30008307DC0EFF23A3409A438B071B0E8407C5
:105F4000E40EA3401A43054B0407240F083CA408A1
:105F5000A4001A5110BD000000E100E01CED00E0BB
:105F6000EFF310807047F8B504464F1EC80008389C
:105F7000211815461E46086849683A4606239A4382
:105F800010D02A463346FAF721FE3A46D200083AA4
:105F9000A3181A687F1E5B68FAF798FB06223B4637
:105FA0009343EED1022F23D0042F11D0062F2FD1EF
:105FB0002A463346FAF70AFEE36AA26AFAF786FB34
:105FC0002A463346FAF702FE636A226AFAF77EFB34
:105FD0002A463346FAF7FAFDE369A269FAF776FB37
:105FE0002A463346FAF7F2FD63692269FAF76EFB37
:105FF0002A463346FAF7EAFDE368A268FAF766FB39
:106000002A463346FAF7E2FD63682268FAF75EFB38
:10601000F8BD10B50122FAF787FF10BD10B50721B2
:10602000024A00200907FAF77FFF10BD01030000B4
:10603000034A10B500201107FAF776FF10BD0000E3
:1060400001FDFFFF80F3108870470000F8B50022C3
:106050001346BE4903C900F067FF03D20020BC49C4
:10606000087002E00120BA49087000221346B949BD
:1060700003C900F059FF03D20020B749087002E0BD
:106080000120B5490870B2480078B44909788842BF
:106090000AD00021B24A116051600A20B14908803B
:1060A000AB480078AD490870AB480078AE49097834
:1060B00088420AD00021AD4A116051600A20AC49E3
:1060C0000880A5480078A8490870A64800880028DC
:1060D0000BD0A4480088401EA24908800021A54A90
:1060E000116051600120A4490870A148008800286F
:1060F0000BD09F480088401E9D49088000209F4A81
:106100001060506001209E49087000229D4B994903
:1061100003C900F0D7FE7DD200221346974903C978
:1061200000F002FF76D89648007800287ED091488B
:106130008B490CC803C900F0F7FE05D28D480168F1
:106140004068874A1160506000228F4B844903C920
:10615000FAF7BCFA044687480CC8204600F0B2FEA5
:1061600026D28A4A8A4B8B4903C9FAF7AFFA894A81
:1061700003C2864A864B884903C9FAF7B4FA864AAD
:1061800003C200221346834903C900F0CDFE03D2A7
:106190000021804A11605160002213467E4903C9E4
:1061A00000F090FE27D200217B4A1160516022E06E
:1061B00070490E684968490049083046FEF712FBED
:1061C0000122D2075140044674480CC82046FAF711
:1061D000FDFC704A03C267490E68496849004908D6
:1061E0003046FEF72FFB04466D480CC82046FAF7F0
:1061F000EDFC694A03C200206A4908700022134678
:10620000654903C900F090FE0CD80022134661498D
:1062100003C900E00AE000F055FE03D8012056490A
:10622000087091E00020544908708DE00022554B21
:10623000524903C900F046FEF3D2002213464D49ED
:1062400003C900F071FE7FD84B48007800287BD04E
:106250004A4846490CC803C900F066FE05D24748C3
:1062600001684068414A116050600022464B3F4936
:1062700003C9FAF72BFA044640480CC8204600F040
:1062800021FE26D2414A424B474903C9FAF72BFA6D
:10629000454A03C23D4A3E4B444903C9FAF716FA40
:1062A000424A03C2002213463F4903C900F00AFED6
:1062B00003D200213C4A11605160002213463B4941
:1062C00003C900F031FE27D20020384A1060506028
:1062D00022E02A490E684968490049083046FEF71D
:1062E000B1FA04462E480CC82046FAF76FFC2E4A35
:1062F00003C222490C684968490049082046FEF754
:1063000071FA0122D2075140064624480CC8304693
:10631000FAF75CFC254A03C20120224908700022DA
:106320001346214903C900F0FFFD0AD80022134695
:106330001E4903C900F0C6FD03D801200E490870AC
:1063400002E000200C490870F8BD00006800002041
:10635000A001002070000020A1010020A201002067
:10636000B0010020A6010020A3010020B8010020F8
:10637000A8010020A0000020C1010020A8000020EA
:10638000C2010020000024C0000024409A9999997D
:106390009999C93F800100207801002098010020D0
:1063A00090010020C0010020700100208801002021
:1063B000FEB5424903C90122D2075140404A03C2F7
:1063C0003E4903C90122D20751403E4A03C200227E
:1063D0003D4B3B4903C900F0A7FD1CD200223A4BBC
:1063E000374903C9FAF77FF904460D460022364BB8
:1063F000364903C9FAF777F902460B460191009036
:10640000334903C9FAF792F9064622462B46FAF7B2
:10641000DDFB304A03C22E482E490CC803C900F0E8
:1064200083FD05D82A48016840682A4A11605060F7
:106430000022254B234903C900F076FD1CD200221F
:10644000214B204903C9FAF74EF906460F460022B0
:106450001D4B1E4903C9FAF746F9044622460B466E
:106460001B4903C9FAF762F932463B460191009095
:10647000FAF7ACFB184A03C2154817490CC803C900
:1064800000F052FD03D8124903C9134A03C2002287
:106490001346104903C900F015FD03D200210D4A2F
:1064A00011605160002213460B4903C900F00AFD38
:1064B00003D20021084A11605160FEBD280000206F
:1064C00018020020200200200000144030020020AA
:1064D000380200200802002010020020F0B585B02C
:1064E000AA4903C90122D2075140A94A03C2A749B8
:1064F00003C90122D2075140A64A03C200210C461B
:106500000D460E460F4600BF00BFA3480078002886
:1065100006D0012817D0022847D003287DD1EBE010
:1065200000229E4B9E4903C900F0CCFC02D2012000
:106530009949087000209B4A1060506000219A4AD7
:106540001160516009E10022984B994903C900F09C
:10655000EBFC17D20022954B964903C900F0E4FCEE
:1065600010D20022944B8A4903C900F0DDFC09D205
:106570000022914B874903C900F0D6FC02D20220C9
:10658000854908700022854B854903C900F0CCFC81
:1065900002D20020804908700021824A11605160B7
:1065A0000020814A10605060D7E0002213468349E2
:1065B00003C900F0B9FC09D200221346804903C97F
:1065C00000F0B2FC02D203207349087000227D4B18
:1065D0007D4903C900F076FC09D20022794B7B4942
:1065E00003C900F06FFC02D203206B49087000223F
:1065F0006A4B6B4903C900F097FC02D20020664940
:1066000008700022724B624903C900F08DFC17D25A
:1066100000226F4B5E4903C900E09DE0FAF763F882
:1066200000226C4B039102906B4903C9FAF77EF884
:1066300001910090039B029AFAF7C8FA06460F46AA
:106640000022634B534903C900F06EFC15D20022AF
:106650005F4B504903C9FAF746F800225D4B03919E
:1066600002905D4903C9FAF761F801910090039B1C
:10667000029AFAF7ABFA04460D4622462B464949E0
:1066800003C900F01FFC08D2544A554B454903C9C1
:10669000FAF71CF8434A03C20EE022462B46414952
:1066A00003C900F041FC07D24C4A4E4B3D4903C997
:1066B000FAF719F83B4A03C232463B463A4903C946
:1066C00000F000FC08D2454A454B374903C9F9F7A9
:1066D000FDFF354A03C20EE032463B46324903C94C
:1066E00000F022FC07D23D4A3E4B2F4903C9F9F77F
:1066F000FAFF2D4A03C230E0384A3A4B2A4903C90F
:1067000000F0E0FB09D8354A364B264903C900F0B2
:10671000D9FB02D2002020490870002213462149EB
:1067200003C900F001FC07D22C4A2F4B1D4903C9B5
:10673000F9F7D9FF1B4A03C2002213461A4903C9BD
:1067400000F0F2FB07D2254A274B174903C9F9F796
:10675000CAFF154A03C200E000BF00BF0022134673
:10676000114903C900F0AEFB03D200200E4A1060AD
:106770005060002213460B4903C900F0A3FB03D26B
:106780000020084A1060506005B0F0BD48000020AD
:106790007002002078020020900200200000E03FFC
:1067A00098000020680200206002002000003E40A7
:1067B00078000020800000200000394038000020D0
:1067C00040000020000008C0A0000020A800002019
:1067D0000000144000405540500200209A999999B9
:1067E0009999D93F9999B93F9999A93FF8B5024626
:1067F0000B460024002613481349009100211EE097
:106800000124E4034D00565B002514E00127FF033B
:106810000740002F04D04704380C0B4F784001E0AC
:106820004704380C37462740002F01D0064F7840E8
:1068300064106F1CBDB2102DE8DB4D1CA9B299424B
:10684000DEDBF8BDFFFF000021100000F0B54E00B8
:10685000864BCF0F760887B005460C469E422ED356
:106860008348864211D33003000B284304D02846C6
:10687000FFF7CFFB07B0F0BD002F03D0002001468B
:1068800007B0F0BD284607B0F0BD7A4A284600F0B0
:106890004BFB06D20220FAF7C2FAFFF7BFFB07B0A4
:1068A000F0BD754A754B2846214600F00BFB06D219
:1068B0000220FAF7B4FAFFF7BBFB07B0F0BD70484F
:1068C00086424AD930466F49E20FD600884215D237
:1068D0006D48784480194368026828462146F9F7D4
:1068E00002FF029069480391784481190868496859
:1068F00000900120C01B0191C61B25E0644A654B36
:1069000028462146FAF762F9634A7A4493191A68CD
:106910005B68F9F7DBFEFAF7D1FA0646FAF74BF9AE
:1069200007465E4A5E4B0091FAF750F92A46234625
:10693000F9F7E4FE039102905A4A5B4B38460099FE
:10694000FAF744F9019100900B46009A03990298D6
:10695000F9F7C9FE05460C4617E05448864213D2A3
:10696000534A544B28462146F9F7B0FE524E0022B6
:10697000334600F0D9FA07D2002233462846214692
:10698000F9F7A4FE07B0F0BD00262A4623461046BC
:106990001946FAF71BF90746024648480B46049188
:1069A00005217844FFF7DFFA3A46049BFAF70EF91F
:1069B0002A462346F9F7A2FE0691012189070746D8
:1069C000002E23D002460020069BF9F78CFE05918D
:1069D00004903A4628462146069BFAF7F7F8059BAD
:1069E000049AF9F7A3FE019B009AF9F787FE039B2F
:1069F000029AF9F778FE00222F4BF9F77FFE304A12
:106A000096421EDB3205891807B0F0BD0B46002206
:106A10000699F9F768FE064600913A46284621464F
:106A2000069BFAF7D3F83246009BF9F77FFE2A4619
:106A30002346F9F758FE00221F4BF9F75FFE07B017
:106A4000F0BD7D233205DB05D21889181D4AFAF7FF
:106A50006BFA0D460446FFF731FA042801D1FFF71F
:106A6000E7FA2046294607B0F0BD0000422E8640D6
:106A70000000F07FEF39FAFE51302DD5104987C064
:106A8000422ED63FB2A2F03FEA070000E407000022
:106A9000FE822B654715F73FA20700000000E0FECD
:106AA000422EE63F763C7935EF39EA3D0000303E34
:106AB0009C7500883CE4377E0000F03F3A070000F8
:106AC00003FCFFFF18FCFFFF7FB500240025002614
:106AD0003048C47820022F498978084304B22D48F1
:106AE000457928022B490979084305B22948C67916
:106AF000300228498979084306B22046FAF75BF844
:106B0000254A03C22846FAF756F8244A03C23046FB
:106B1000FAF751F8224A03C20022224B1E4903C948
:106B2000FAF754F8204A214B01910090FAF74EF8F9
:106B300000221F4B03910290F9F7F8FD164A03C299
:106B40000022184B154903C9FAF740F8164A174BAB
:106B500001910090FAF73AF80022154B0391029048
:106B6000F9F7E4FD0D4A03C200220E4B0C4903C99C
:106B7000FAF72CF80C4A0D4B01910090FAF726F821
:106B800000220B4B03910290F9F7D0FD044A03C297
:106B90007FBD0000F11C0020A0020020A802002000
:106BA000B0020020000030409A99999999992340A9
:106BB0000000E0407CB50024002500262748C4786A
:106BC000200226498978084304B2244845792802DE
:106BD00022490979084305B22048C67930021F4985
:106BE0008979084306B22046F9F7E5FF1C4A03C23B
:106BF0002846F9F7E0FF1B4A03C23046F9F7DBFFEE
:106C0000194A03C20022194B154903C9F9F7DEFFDF
:106C10000022174B01910090F9F788FD104A03C23A
:106C20000022124B0F4903C9F9F7D0FF0022104B85
:106C300001910090F9F77AFD0A4A03C200220B4B3A
:106C4000094903C9F9F7C2FF0022094B01910090DD
:106C5000F9F76CFD044A03C27CBD0000071D00204B
:106C6000D0020020D8020020E00200200080664010
:106C70000000E0407CB50024002500262748C478A9
:106C8000200226498978084304B22448457928021D
:106C900022490979084305B22048C67930021F49C4
:106CA0008979084306B22046F9F785FF1C4A03C2DA
:106CB0002846F9F780FF1B4A03C23046F9F77BFFED
:106CC000194A03C20022194B154903C9F9F77EFF7F
:106CD0000022174B01910090F9F728FD104A03C2DA
:106CE0000022124B0F4903C9F9F770FF0022104B25
:106CF00001910090F9F71AFD0A4A03C200220B4BDA
:106D0000094903C9F9F762FF0022094B019100907C
:106D1000F9F70CFD044A03C27CBD0000FC1C0020F6
:106D2000B8020020C0020020C802002000409F409E
:106D30000000E0400246002A02D1084903C970471A
:106D4000012A02D1064903C9F9E7022A02D10549FD
:106D500003C9F4E700200146F1E70000B802002073
:106D6000C0020020C80200200246002A02D10849C1
:106D700003C97047012A02D1064903C9F9E7022A6B
:106D800002D1054903C9F4E700200146F1E70000FC
:106D9000D0020020D8020020E0020020FBF7E0FA39
:106DA000FEF7CAF9FDF736F9FDF722F9FDF7D0FA3B
:106DB000FDF770FAFDF7DAF8FDF7E0F9FDF730FAC4
:106DC000FDF7A2FAFDF704FA1548FBF79BF9FDF76A
:106DD0003CFF0120FDF7EEFF052212490120FDF7DF
:106DE00040FF052210490120FDF76AFFFDF7C0FFB3
:106DF0000E490870FDF792F8FAF7FCF9FDF7FCFB75
:106E0000FAF75AFC0A48FCF777FB07E0FDF7B0FFFA
:106E100006490870FEF732F9FAF74AFAF6E7000079
:106E200088130000A1030020121D0020A0030020F1
:106E3000401E002010B50848008800280AD1012112
:106E40000648FBF761FA002804D1012004490870C4
:106E5000FEF702F910BD000006030020000C0050F0
:106E60000003002010B50848008800280BD101213C
:106E700009030648FBF748FA002804D10120044919
:106E80000870FEF7EFF810BD080300200004005062
:106E90000103002010B50848008800280BD101210B
:106EA000C9020648FBF730FA002804D10120044942
:106EB0000870FEF7DDF810BD0A0300200004005042
:106EC0000203002070B501250C002D051C4310D4D1
:106ED000EC4206D4AC420AD4994200D070BD904234
:106EE00070BDE94217D4EB4215D4994270BD894276
:106EF00070BDEC4206D5AC42F9D58B4200D070BDD6
:106F0000824270BD6D004C00EC4204D25C00EC4249
:106F100001D28B4270BD034C30B4F9F787FF30BC0F
:106F200070BD00BF1900160470B501251C002D05A9
:106F30000C4310D4EC4206D4AC420AD48B4200D0AD
:106F400070BD824270BDEB4217D4E94215D48B422A
:106F500070BD9B4270BDEC4206D5AC42F9D599425A
:106F600000D070BD904270BD6D005C00EC4204D258
:106F70004C00EC4201D2994270BD0FB4034C0CBCE2
:106F800003BC30B4F9F752FF30BC70BD19001604D1
:106F9000081C3044586C8000010002000400060008
:106FA00008000A000C0010002000400080000001D2
:106FB000081C3044586C80010101030701000008DF
:106FC0000402040801010100081C3044586C8000D0
:106FD00000000000000000000000000000000000B1
:106FE00000000000000000000000000000000000A1
:106FF0000100000002000000030000000400000087
:107000000600000007000000080000000900000062
:107010000000000000000000000000000000000070
:107020000100000002000000030000000400000056
:1070300080807F7E7D7C7B7A7978777676757473B5
:10704000727171706F6E6E6D6C6C6B6A6A69686874
:10705000676666656464636362616160605F5F5E0A
:107060005E5D5D5C5C5B5B5A5A5959585857575680
:1070700056555555545453535252525151505050E5
:107080004F4F4F4E4E4D4D4D4C4C4C4B4B4B4A4A37
:107090004A4949494848484747474746464645457B
:1070A00045444444444343434342424242414141B4
:1070B000000000000000E03F000000000000E0BF12
:1070C0000000E0FE422EE63F0000E0FE422EE6BF5A
:1070D000763C7935EF39EA3D763C7935EF39EABDD2
:1070E0003E5555555555C53F93BDBE166CC166BF3F
:1070F0002CDE25AF6A56113FF16BD2C541BDBBBE38
:10710000D0A4BE726937663E2871000800000020D6
:10711000D00300009610000880710008D003002002
:10712000E0330000FC0000080009FEFCA9F1D24D8C
:1071300062503F2339406301019358021B20BC1861
:10714000415A380801FF0111D324405B80561004D6
:107150003F2E40010265210920A63232320A1AF47C
:107160002B6908290429180154B7AAA2A3A4A5A62B
:10717000A6A1A2D3C4C5031288136A04CA1324F4B7
:04000005080000B936
:00000001FF
